{"abi":[{"type":"function","name":"escrowController","inputs":[],"outputs":[{"name":"","type":"address","internalType":"address"}],"stateMutability":"view"},{"type":"function","name":"fundFactory","inputs":[],"outputs":[{"name":"","type":"address","internalType":"address"}],"stateMutability":"view"},{"type":"function","name":"getERC20","inputs":[{"name":"","type":"address","internalType":"address"}],"outputs":[{"name":"","type":"address","internalType":"address"}],"stateMutability":"view"},{"type":"function","name":"getERC3643","inputs":[{"name":"","type":"address","internalType":"address"}],"outputs":[{"name":"","type":"address","internalType":"address"}],"stateMutability":"view"},{"type":"function","name":"implERC20","inputs":[],"outputs":[{"name":"","type":"address","internalType":"address"}],"stateMutability":"view"},{"type":"function","name":"isWrapped","inputs":[{"name":"","type":"address","internalType":"address"}],"outputs":[{"name":"","type":"bool","internalType":"bool"}],"stateMutability":"view"},{"type":"function","name":"lockedERC3643","inputs":[{"name":"","type":"address","internalType":"address"}],"outputs":[{"name":"","type":"uint256","internalType":"uint256"}],"stateMutability":"view"},{"type":"function","name":"stableCoin","inputs":[],"outputs":[{"name":"","type":"address","internalType":"address"}],"stateMutability":"view"},{"type":"function","name":"wrapperOnchainID","inputs":[],"outputs":[{"name":"","type":"address","internalType":"address"}],"stateMutability":"view"}],"bytecode":{"object":"0x6080806040523461001657610282908161001c8239f35b600080fdfe608060408181526004918236101561001657600080fd5b600092833560e01c9182633927a9c514610227575081633dea9e66146101fe578163493b059b146101c4578163495ee13e146101855781634e0dc557146101495781637963cafe14610108578163992642e5146100df578163bda84ca3146100b3575063beb2c4eb1461008857600080fd5b346100af57816003193601126100af5760065490516001600160a01b039091168152602090f35b5080fd5b9050346100db57826003193601126100db575490516001600160a01b03909116815260209150f35b8280fd5b5050346100af57816003193601126100af5760095490516001600160a01b039091168152602090f35b9050346100db5760203660031901126100db576001600160a01b039035818116908190036101455783839160209552600185522054169051908152f35b8380fd5b9050346100db5760203660031901126100db576001600160a01b0390358181169081900361014557838391602095528085522054169051908152f35b9050346100db5760203660031901126100db57356001600160a01b038116908190036100db57818360ff92602095526002855220541690519015158152f35b9050346100db5760203660031901126100db57356001600160a01b038116908190036100db57828291602094526003845220549051908152f35b5050346100af57816003193601126100af5760075490516001600160a01b039091168152602090f35b8490346100af57816003193601126100af576008546001600160a01b03168152602090f3fea2646970667358221220f7d5c80e407fb2c6fe53db174c84e3ef18f830af261f38231465368d67e9197864736f6c63430008110033","linkReferences":{}},"methodIdentifiers":{"escrowController()":"3927a9c5","fundFactory()":"3dea9e66","getERC20(address)":"4e0dc557","getERC3643(address)":"7963cafe","implERC20()":"bda84ca3","isWrapped(address)":"495ee13e","lockedERC3643(address)":"493b059b","stableCoin()":"992642e5","wrapperOnchainID()":"beb2c4eb"},"id":92}