{"abi":[{"type":"function","name":"addClaimTopic","inputs":[{"name":"claimTopic","type":"uint256","internalType":"uint256"}],"outputs":[],"stateMutability":"nonpayable"},{"type":"function","name":"addTrustedIssuer","inputs":[{"name":"trustedIssuer","type":"address","internalType":"contract IClaimIssuer"},{"name":"claimTopics","type":"uint256[]","internalType":"uint256[]"}],"outputs":[],"stateMutability":"nonpayable"},{"type":"function","name":"claimTopicsToTrustedIssuers","inputs":[{"name":"","type":"uint256","internalType":"uint256"},{"name":"","type":"uint256","internalType":"uint256"}],"outputs":[{"name":"","type":"address","internalType":"contract IClaimIssuer"}],"stateMutability":"view"},{"type":"function","name":"getTrustedIssuerClaimTopics","inputs":[{"name":"trustedIssuer","type":"address","internalType":"contract IClaimIssuer"}],"outputs":[{"name":"","type":"uint256[]","internalType":"uint256[]"}],"stateMutability":"view"},{"type":"function","name":"getTrustedIssuers","inputs":[],"outputs":[{"name":"","type":"address[]","internalType":"contract IClaimIssuer[]"}],"stateMutability":"view"},{"type":"function","name":"getTrustedIssuersForClaimTopic","inputs":[{"name":"claimTopic","type":"uint256","internalType":"uint256"}],"outputs":[{"name":"","type":"address[]","internalType":"contract IClaimIssuer[]"}],"stateMutability":"view"},{"type":"function","name":"hasClaimTopic","inputs":[{"name":"issuer","type":"address","internalType":"address"},{"name":"claimTopic","type":"uint256","internalType":"uint256"}],"outputs":[{"name":"","type":"bool","internalType":"bool"}],"stateMutability":"view"},{"type":"function","name":"isClaimTopicRequired","inputs":[{"name":"claimTopic","type":"uint256","internalType":"uint256"}],"outputs":[{"name":"","type":"bool","internalType":"bool"}],"stateMutability":"view"},{"type":"function","name":"isTrustedIssuer","inputs":[{"name":"issuer","type":"address","internalType":"address"}],"outputs":[{"name":"","type":"bool","internalType":"bool"}],"stateMutability":"view"},{"type":"function","name":"owner","inputs":[],"outputs":[{"name":"","type":"address","internalType":"address"}],"stateMutability":"view"},{"type":"function","name":"removeClaimTopic","inputs":[{"name":"claimTopic","type":"uint256","internalType":"uint256"}],"outputs":[],"stateMutability":"nonpayable"},{"type":"function","name":"removeTrustedIssuer","inputs":[{"name":"trustedIssuer","type":"address","internalType":"contract IClaimIssuer"}],"outputs":[],"stateMutability":"nonpayable"},{"type":"function","name":"renounceOwnership","inputs":[],"outputs":[],"stateMutability":"nonpayable"},{"type":"function","name":"requiredClaimTopics","inputs":[{"name":"","type":"uint256","internalType":"uint256"}],"outputs":[{"name":"","type":"uint256","internalType":"uint256"}],"stateMutability":"view"},{"type":"function","name":"transferOwnership","inputs":[{"name":"newOwner","type":"address","internalType":"address"}],"outputs":[],"stateMutability":"nonpayable"},{"type":"function","name":"trustedIssuerClaimTopics","inputs":[{"name":"","type":"address","internalType":"address"},{"name":"","type":"uint256","internalType":"uint256"}],"outputs":[{"name":"","type":"uint256","internalType":"uint256"}],"stateMutability":"view"},{"type":"function","name":"trustedIssuers","inputs":[{"name":"","type":"uint256","internalType":"uint256"}],"outputs":[{"name":"","type":"address","internalType":"contract IClaimIssuer"}],"stateMutability":"view"},{"type":"function","name":"updateIssuerClaimTopics","inputs":[{"name":"trustedIssuer","type":"address","internalType":"contract IClaimIssuer"},{"name":"newClaimTopics","type":"uint256[]","internalType":"uint256[]"}],"outputs":[],"stateMutability":"nonpayable"},{"type":"function","name":"verify","inputs":[{"name":"identity","type":"address","internalType":"address"}],"outputs":[{"name":"isVerified","type":"bool","internalType":"bool"}],"stateMutability":"view"},{"type":"event","name":"ClaimTopicAdded","inputs":[{"name":"claimTopic","type":"uint256","indexed":true,"internalType":"uint256"}],"anonymous":false},{"type":"event","name":"ClaimTopicRemoved","inputs":[{"name":"claimTopic","type":"uint256","indexed":true,"internalType":"uint256"}],"anonymous":false},{"type":"event","name":"ClaimTopicsUpdated","inputs":[{"name":"trustedIssuer","type":"address","indexed":true,"internalType":"contract IClaimIssuer"},{"name":"claimTopics","type":"uint256[]","indexed":false,"internalType":"uint256[]"}],"anonymous":false},{"type":"event","name":"OwnershipTransferred","inputs":[{"name":"previousOwner","type":"address","indexed":true,"internalType":"address"},{"name":"newOwner","type":"address","indexed":true,"internalType":"address"}],"anonymous":false},{"type":"event","name":"TrustedIssuerAdded","inputs":[{"name":"trustedIssuer","type":"address","indexed":true,"internalType":"contract IClaimIssuer"},{"name":"claimTopics","type":"uint256[]","indexed":false,"internalType":"uint256[]"}],"anonymous":false},{"type":"event","name":"TrustedIssuerRemoved","inputs":[{"name":"trustedIssuer","type":"address","indexed":true,"internalType":"contract IClaimIssuer"}],"anonymous":false}],"bytecode":{"object":"0x6080806040523461005b5760008054336001600160a01b0319821681178355916001600160a01b03909116907f8be0079c531659141344cd1fd0a4f28419497f9722a3daafe3b4186f6b6457e09080a3611a2890816100618239f35b600080fdfe6040608081526004908136101561001557600080fd5b600091823560e01c806304bc7e8414610d6e5780630829784614610c7357806334a8998714610c4a57806352c111d114610bde57806363a9c3d714610bb8578063715018a614610b5e5780638da5cb5b14610b3657806393e9f80114610ae95780639f63ea98146108a5578063b5fa869314610858578063b93d28eb146105b1578063ba64c3411461055b578063be36359f1461053b578063c28fb27814610438578063c7b22551146102d4578063c801dd401461027e578063d9dd24c5146101ea578063ef2ed1a4146101b75763f2fde38b146100f257600080fd5b346101b35760203660031901126101b35761010b610fc7565b9061011461199a565b6001600160a01b0391821692831561016157505082546001600160a01b0319811683178455167f8be0079c531659141344cd1fd0a4f28419497f9722a3daafe3b4186f6b6457e08380a380f35b906020608492519162461bcd60e51b8352820152602660248201527f4f776e61626c653a206e6577206f776e657220697320746865207a65726f206160448201526564647265737360d01b6064820152fd5b8280fd5b5050346101e65760203660031901126101e6576020906101dd6101d8610fc7565b61133c565b90519015158152f35b5080fd5b82843461027b578060031936011261027b578151918291600254808552602080950194600283527f405787fa12a823e0f2b7631cc41b3ba8828b3321ca811111fa75cd3aa3bb5ace92905b82821061025b57610257868661024d828b038361131a565b5191829182611042565b0390f35b83546001600160a01b031687529586019560019384019390910190610235565b80fd5b50346101b35760203660031901126101b357356002548110156101b35760026020935260018060a01b03907f405787fa12a823e0f2b7631cc41b3ba8828b3321ca811111fa75cd3aa3bb5ace0154169051908152f35b50346101b35760209081600319360112610434578035926102f361199a565b60015492600f8410156103e857855b84811061038257505050600160401b82101561036f57508161032d8260016103489401600155611086565b90919082549060031b600019811b9283911b16911916179055565b7f01c928b7f7ade2949e92366aa9454dbef3a416b731cf6ec786ba9595bbd814d68280a280f35b634e487b7160e01b845260419052602483fd5b8561038c82611086565b90549060031b1c146103a6576103a190611122565b610302565b50905162461bcd60e51b815291820152601960248201527f636c61696d546f70696320616c726561647920657869737473000000000000006044820152606490fd5b905162461bcd60e51b815291820152602260248201527f63616e6e6f742072657175697265206d6f7265207468616e20313520746f7069604482015261637360f01b6064820152608490fd5b8380fd5b50823461027b57602091826003193601126101e6576001600160a01b0361045d610fc7565b16908183526003845284832054156104f85750819392935260038352818120908251808584549182815201908194845286842090845b8181106104e457505050816104a991038261131a565b83519485948186019282875251809352850193925b8281106104cd57505050500390f35b8351855286955093810193928101926001016104be565b825484529288019260019283019201610493565b845162461bcd60e51b8152908101849052601c60248201527f747275737465642049737375657220646f65736e2774206578697374000000006044820152606490fd5b50913461027b57602036600319011261027b57506101dd60209235611415565b5050346101e657806003193601126101e657610575610fc7565b6001600160a01b0316825260036020528082208054602435939084101561027b57506020926105a39161110a565b90549060031b1c9051908152f35b509190346101e6576020918260031936011261027b576105cf610fc7565b916105d861199a565b6001600160a01b03928316916105ef831515611147565b8281526003948581526106068383205415156112a4565b600295865496835b88811061079f575b505090918093949596505b8584528183528484205481101561073b5761063e8186862061110a565b905490831b1c80855288845285852054855b818110610669575b50505061066490611122565b610621565b82879a949a959395528a86528884610683838b8b2061110a565b905490861b1c16146106a35761069890611122565b989298939193610650565b9084879a949a959395528a8652878720600019820191821161072857916106ec8b6106d66107109461066498979661110a565b905490891b1c1691848a528d89528a8a2061110a565b90919082549060031b9160018060a01b039283811b93849216901b16911916179055565b85528884526107208686206112e7565b903880610658565b634e487b7160e01b885260118c52602488fd5b509284929383855282528320908154918481558261077e575b5050507f2214ded40113cc3fb63fc206cafee88270b0a903dac7245d54efdde30ebb03218280a280f35b84528320908101905b8181106107945780610754565b838155600101610787565b86886107aa836110d3565b905490861b1c16146107c4576107bf90611122565b61060e565b6000989192939495969798199182810190811161084557906106ec8a6107ec6107f9946110d3565b905490881b1c16916110d3565b8154801561083257019061082461080f836110d3565b81549060018060a01b039060031b1b19169055565b559085949392913880610616565b634e487b7160e01b865260318a52602486fd5b634e487b7160e01b875260118b52602487fd5b50346101b35760203660031901126101b357356001548110156101b3576001602093527fb10e2d527612073b26eecdfd717e6a320cf44b4afac2b0732d9fcbe2b7fa0cf601549051908152f35b5090346101b3576108b536610fe2565b929091936108c161199a565b6001600160a01b038516946108d7861515611147565b8587526020916003835283882054610aa6578515610a57576108fc600f871115611193565b6002546032811015610a0357600160401b8110156109f057610929836106ec6001938481016002556110d3565b8789526003845284892067ffffffffffffffff88116109dd5761094c8882611228565b8952838920868a5b8981106109cc5750505050875b8681106109a15788887ffedc33fd34859594822c0ff6f3f4f9fc279cc6d5cae53068f706a088e4500872898961099b8a519283928361127b565b0390a280f35b806109b06109c792898961126b565b358a528285526109c284878c206111ed565b611122565b610961565b813583820155908601908301610954565b634e487b7160e01b8a526041835260248afd5b634e487b7160e01b895260418252602489fd5b845162461bcd60e51b8152808301859052602860248201527f63616e6e6f742068617665206d6f7265207468616e2035302074727573746564604482015267206973737565727360c01b6064820152608490fd5b835162461bcd60e51b81529081018390526024808201527f7472757374656420636c61696d20746f706963732063616e6e6f7420626520656044820152636d70747960e01b6064820152608490fd5b835162461bcd60e51b8152908101839052601d60248201527f747275737465642049737375657220616c7265616479206578697374730000006044820152606490fd5b50913461027b578160031936011261027b57602435928035825260205281812090815484101561027b5750602092610b209161110a565b905491519160018060a01b039160031b1c168152f35b5050346101e657816003193601126101e657905490516001600160a01b039091168152602090f35b833461027b578060031936011261027b57610b7761199a565b80546001600160a01b03198116825581906001600160a01b03167f8be0079c531659141344cd1fd0a4f28419497f9722a3daafe3b4186f6b6457e08280a380f35b5050346101e65760203660031901126101e6576020906101dd610bd9610fc7565b61151a565b5090346101b35760209182600319360112610434578035845282528083209281518093808654928381520195835280832092905b828210610c2a57610257868661024d828b038361131a565b83546001600160a01b031687529586019560019384019390910190610c12565b5050346101e657806003193601126101e6576020906101dd610c6a610fc7565b60243590611376565b8382346101e65760203660031901126101e6578035610c9061199a565b600191825492845b848110610ca3578580f35b83610cad82611086565b919054600392831b1c14610cca5750610cc590611122565b610c98565b939491929060001992838101908111610d5b579061032d610ced610cf993611086565b905490881b1c91611086565b8254908115610d485750810192610d0f84611086565b81939154921b1b19169055557f0b1381093c776453c1bbe54fd68be1b235c65db61d099cb50d194b2991e0eec58280a281808080808580f35b634e487b7160e01b875260319052602486fd5b634e487b7160e01b885260118352602488fd5b509190346101e657610d7f36610fe2565b92919390610d8b61199a565b6001600160a01b038581169490610da3861515611147565b858452600391602093838552610dbd8787205415156112a4565b610dca600f831115611193565b8115610f8457859493989796955b87865289855286862054811015610ee557610dfb818888999a9b9c97982061110a565b905490861b1c8088528b875288882054885b8d828210610e2f575b50505050610e2390611122565b98979695949398610dd8565b9b87899e9d99610e4d84849f9e9d9c8f908f908f8b8352522061110a565b9054911b1c1614610e6d57610e6190611122565b9b969798999a9b610e0d565b9082899a9b9c9d9899528d89528a8a206000198201918211610ed2576106ec8f938594610e2397968b8f95610ea78f9198610eb99961110a565b9054911b1c1694528c528d8d2061110a565b88528b8752610ec98989206112e7565b9038808d610e16565b634e487b7160e01b8b5260118f5260248bfd5b50959790969293989150878952835283882067ffffffffffffffff87116109f057610f108782611228565b885282882085895b888110610f7257505050875b868110610f5e5788887fec753cfc52044f61676f18a11e500093a9f2b1cd5e4942bc476f2b0438159bcf898961099b8a519283928361127b565b806109b0610f6d92898961126b565b610f24565b81358382015590850190600101610f18565b865162461bcd60e51b8152808b01869052601c60248201527f636c61696d20746f706963732063616e6e6f7420626520656d707479000000006044820152606490fd5b600435906001600160a01b0382168203610fdd57565b600080fd5b6040600319820112610fdd576004356001600160a01b0381168103610fdd579160243567ffffffffffffffff92838211610fdd5780602383011215610fdd578160040135938411610fdd5760248460051b83010111610fdd576024019190565b6020908160408183019282815285518094520193019160005b828110611069575050505090565b83516001600160a01b03168552938101939281019260010161105b565b6001548110156110bd5760016000527fb10e2d527612073b26eecdfd717e6a320cf44b4afac2b0732d9fcbe2b7fa0cf60190600090565b634e487b7160e01b600052603260045260246000fd5b6002548110156110bd5760026000527f405787fa12a823e0f2b7631cc41b3ba8828b3321ca811111fa75cd3aa3bb5ace0190600090565b80548210156110bd5760005260206000200190600090565b60001981146111315760010190565b634e487b7160e01b600052601160045260246000fd5b1561114e57565b60405162461bcd60e51b815260206004820152601f60248201527f696e76616c696420617267756d656e74202d207a65726f2061646472657373006044820152606490fd5b1561119a57565b60405162461bcd60e51b815260206004820152602560248201527f63616e6e6f742068617665206d6f7265207468616e20313520636c61696d20746044820152646f7069637360d81b6064820152608490fd5b90815491600160401b83101561121257826106ec9160016112109501815561110a565b565b634e487b7160e01b600052604160045260246000fd5b600160401b82116112125780549180825582811061124557505050565b60009182526020822092830192015b82811061126057505050565b818155600101611254565b91908110156110bd5760051b0190565b602080825281018390526001600160fb1b038311610fdd5760409260051b809284830137010190565b156112ab57565b60405162461bcd60e51b81526020600482015260146024820152732727aa1030903a393ab9ba32b21034b9b9bab2b960611b6044820152606490fd5b8054801561130457600019019061130161080f838361110a565b55565b634e487b7160e01b600052603160045260246000fd5b90601f8019910116810190811067ffffffffffffffff82111761121257604052565b6001600160a01b031660009081526003602052604090205461135d57600090565b600190565b80518210156110bd5760209160051b010190565b9060009160018060a01b031682526020906003825260408320916040518093849183825491828152019187528387209387905b8282106113fb575050506113bf9250038361131a565b815191835b8381106113d2575050505090565b826113dd8284611362565b51146113f1576113ec90611122565b6113c4565b5050505050600190565b8554845260019586019588955093810193909101906113a9565b600180549160005b83811061142d5750505050600090565b8161143782611086565b90549060031b1c146114515761144c90611122565b61141d565b5050905090565b67ffffffffffffffff81116112125760051b60200190565b60005b8381106114835750506000910152565b8181015183820152602001611473565b9092919267ffffffffffffffff811161121257604051916114be601f8301601f19166020018461131a565b829482845282820111610fdd576020611210930190611470565b9080601f83011215610fdd5781516114f292602001611493565b90565b9060209161150e81518092818552858086019101611470565b601f01601f1916010190565b600180549182156119945760005b838110611536575050905090565b61153f81611086565b9054906040918251906352c111d160e01b8252600390600493821b1c838301526024916000818481305afa908115611846576000916118f1575b5080519485156118e25761158c86611458565b956115998251978861131a565b8087526115a8601f1991611458565b0191602092368489013760008a5b611856575b5050886000905b6115dc575b505050505050506115d790611122565b611528565b8651811015611851576001600160a01b038981166115fa838a611362565b519184519263c9100bcb60e01b8452898401526000838981855afa801561184657869289928b8a8f9460009586809a819361178d575b5061163a82611086565b905490851b1c03611765576116979261165561168592611086565b9054911b1c998c519a8b998a98899763604b4d3760e11b89528801528601526080604486015260848501906114f5565b838103600319016064850152906114f5565b0392165afa809160009161172f575b50906116f55750865160001981019081116116e15781146116d1576116cb8a91611122565b906115c2565b5050505050505050505050600090565b85601188634e487b7160e01b600052526000fd5b80611726575b1580611710575b6116d1576116cb8a91611122565b50865160001981019081116116e1578114611702565b875191506116fb565b8581813d831161175e575b611744818361131a565b810103126101e6575190811515820361027b5750386116a6565b503d61173a565b50505050505050505050865160001981019081116116e15781146116d1576116cb8a91611122565b9a50985050505050915091503d8084863e6117a8818661131a565b840160c085820312610434578451878601519183831683036118425760608701519567ffffffffffffffff968781116101e657826117e7918a016114d8565b9660808901518181116101b35783611800918b016114d8565b9860a08101519182116101b357019082601f8301121561027b57508f938d96948f93946118378f94968f9b99978c81519101611493565b509196999138611630565b8580fd5b85513d6000823e3d90fd5b6115c7565b81518110156118dd576001600160a01b036118718284611362565b511661187c8a611086565b9054855187810193845291881b1c818601528481526060810167ffffffffffffffff8111828210176118c95785525190208b916118c3916118bd828c611362565b52611122565b906115b6565b8860418b634e487b7160e01b600052526000fd5b6115bb565b50505050505050505050600090565b3d8083833e611900818361131a565b810160209182818303126104345780519067ffffffffffffffff821161199057019281601f8501121561027b5783519061193982611458565b946119468a51968761131a565b828652848087019360051b8201019384116101e6578401915b83831061197157505050505038611579565b82516001600160a01b03811681036101b357815291840191840161195f565b8480fd5b50905090565b6000546001600160a01b031633036119ae57565b606460405162461bcd60e51b815260206004820152602060248201527f4f776e61626c653a2063616c6c6572206973206e6f7420746865206f776e65726044820152fdfea26469706673582212200059497a5f5746314cfda61fa1b5cbcc21201a854dc55c16ddabaf2d6c980dbf64736f6c63430008110033","linkReferences":{}},"methodIdentifiers":{"addClaimTopic(uint256)":"c7b22551","addTrustedIssuer(address,uint256[])":"9f63ea98","claimTopicsToTrustedIssuers(uint256,uint256)":"93e9f801","getTrustedIssuerClaimTopics(address)":"c28fb278","getTrustedIssuers()":"d9dd24c5","getTrustedIssuersForClaimTopic(uint256)":"52c111d1","hasClaimTopic(address,uint256)":"34a89987","isClaimTopicRequired(uint256)":"be36359f","isTrustedIssuer(address)":"ef2ed1a4","owner()":"8da5cb5b","removeClaimTopic(uint256)":"08297846","removeTrustedIssuer(address)":"b93d28eb","renounceOwnership()":"715018a6","requiredClaimTopics(uint256)":"b5fa8693","transferOwnership(address)":"f2fde38b","trustedIssuerClaimTopics(address,uint256)":"ba64c341","trustedIssuers(uint256)":"c801dd40","updateIssuerClaimTopics(address,uint256[])":"04bc7e84","verify(address)":"63a9c3d7"},"id":54}