{"abi":[{"type":"function","name":"FEE_DENOMINATOR","inputs":[],"outputs":[{"name":"","type":"uint16","internalType":"uint16"}],"stateMutability":"view"},{"type":"function","name":"batchBurnTokens","inputs":[{"name":"_token","type":"address","internalType":"address"},{"name":"_fromList","type":"address[]","internalType":"address[]"},{"name":"_amounts","type":"uint256[]","internalType":"uint256[]"},{"name":"orderIDs","type":"string[]","internalType":"string[]"}],"outputs":[],"stateMutability":"nonpayable"},{"type":"function","name":"batchForceTransferTokens","inputs":[{"name":"_token","type":"address","internalType":"address"},{"name":"_userAddresses","type":"address[]","internalType":"address[]"},{"name":"_toAddresses","type":"address[]","internalType":"address[]"},{"name":"_amounts","type":"uint256[]","internalType":"uint256[]"},{"name":"orderIDs","type":"string[]","internalType":"string[]"}],"outputs":[],"stateMutability":"nonpayable"},{"type":"function","name":"batchFreezePartialTokens","inputs":[{"name":"_token","type":"address","internalType":"address"},{"name":"_userAddresses","type":"address[]","internalType":"address[]"},{"name":"_amounts","type":"uint256[]","internalType":"uint256[]"},{"name":"orderIDs","type":"string[]","internalType":"string[]"}],"outputs":[],"stateMutability":"nonpayable"},{"type":"function","name":"batchMintTokens","inputs":[{"name":"_token","type":"address","internalType":"address"},{"name":"_toList","type":"address[]","internalType":"address[]"},{"name":"_amounts","type":"uint256[]","internalType":"uint256[]"},{"name":"orderIDs","type":"string[]","internalType":"string[]"}],"outputs":[],"stateMutability":"nonpayable"},{"type":"function","name":"batchRedemptionAndBurn","inputs":[{"name":"_token","type":"address","internalType":"address"},{"name":"_userAddress","type":"address[]","internalType":"address[]"},{"name":"_burnAmount","type":"uint256[]","internalType":"uint256[]"},{"name":"_principalAmount","type":"uint256[]","internalType":"uint256[]"},{"name":"_profitAmount","type":"uint256[]","internalType":"uint256[]"},{"name":"coin","type":"string","internalType":"string"},{"name":"orderID","type":"string[]","internalType":"string[]"}],"outputs":[],"stateMutability":"nonpayable"},{"type":"function","name":"batchRegisterIdentity","inputs":[{"name":"_userAddress","type":"address[]","internalType":"address[]"},{"name":"_onchainID","type":"address[]","internalType":"contract IIdentity[]"},{"name":"_country","type":"uint16[]","internalType":"uint16[]"},{"name":"_userIDs","type":"string[]","internalType":"string[]"},{"name":"_token","type":"address","internalType":"address"}],"outputs":[],"stateMutability":"nonpayable"},{"type":"function","name":"batchSetAddressFrozen","inputs":[{"name":"_token","type":"address","internalType":"address"},{"name":"_userAddresses","type":"address[]","internalType":"address[]"},{"name":"_freeze","type":"bool[]","internalType":"bool[]"},{"name":"actionIDs","type":"string[]","internalType":"string[]"}],"outputs":[],"stateMutability":"nonpayable"},{"type":"function","name":"batchSettlement","inputs":[{"name":"orderIDs","type":"string[]","internalType":"string[]"}],"outputs":[],"stateMutability":"nonpayable"},{"type":"function","name":"batchShareDividend","inputs":[{"name":"_fund","type":"address","internalType":"address"},{"name":"_address","type":"address[]","internalType":"address[]"},{"name":"_dividend","type":"uint256[]","internalType":"uint256[]"},{"name":"_userIds","type":"string[]","internalType":"string[]"},{"name":"_dividendIds","type":"string[]","internalType":"string[]"},{"name":"stableCoin_","type":"address","internalType":"address"}],"outputs":[],"stateMutability":"nonpayable"},{"type":"function","name":"batchUnFreezePartialTokens","inputs":[{"name":"_token","type":"address","internalType":"address"},{"name":"_userAddresses","type":"address[]","internalType":"address[]"},{"name":"_amounts","type":"uint256[]","internalType":"uint256[]"},{"name":"orderIDs","type":"string[]","internalType":"string[]"}],"outputs":[],"stateMutability":"nonpayable"},{"type":"function","name":"callDeleteIdentity","inputs":[{"name":"_userAddress","type":"address","internalType":"address"},{"name":"_token","type":"address","internalType":"address"},{"name":"actionID","type":"string","internalType":"string"}],"outputs":[],"stateMutability":"nonpayable"},{"type":"function","name":"callUpdateCountry","inputs":[{"name":"_userAddress","type":"address","internalType":"address"},{"name":"_country","type":"uint16","internalType":"uint16"},{"name":"_token","type":"address","internalType":"address"},{"name":"actionID","type":"string","internalType":"string"}],"outputs":[],"stateMutability":"nonpayable"},{"type":"function","name":"callUpdateIdentity","inputs":[{"name":"_userAddress","type":"address","internalType":"address"},{"name":"_identity","type":"address","internalType":"contract IIdentity"},{"name":"_token","type":"address","internalType":"address"},{"name":"actionID","type":"string","internalType":"string"}],"outputs":[],"stateMutability":"nonpayable"},{"type":"function","name":"cancelOrder","inputs":[{"name":"orderID","type":"string","internalType":"string"}],"outputs":[],"stateMutability":"nonpayable"},{"type":"function","name":"deposit","inputs":[{"name":"_token","type":"address","internalType":"address"},{"name":"_amount","type":"uint256","internalType":"uint256"},{"name":"_tokens","type":"uint256","internalType":"uint256"},{"name":"orderID","type":"string","internalType":"string"},{"name":"coin","type":"string","internalType":"string"}],"outputs":[],"stateMutability":"nonpayable"},{"type":"function","name":"fundFactory","inputs":[],"outputs":[{"name":"","type":"address","internalType":"address"}],"stateMutability":"view"},{"type":"function","name":"getStableCoin","inputs":[{"name":"_stablecoin","type":"string","internalType":"string"}],"outputs":[{"name":"","type":"address","internalType":"address"}],"stateMutability":"view"},{"type":"function","name":"getStableCoinName","inputs":[{"name":"stableCoin","type":"address","internalType":"address"}],"outputs":[{"name":"","type":"string","internalType":"string"}],"stateMutability":"view"},{"type":"function","name":"init","inputs":[{"name":"stableCoin_","type":"address[]","internalType":"address[]"},{"name":"_masterFactory","type":"address","internalType":"address"},{"name":"_fundFactory","type":"address","internalType":"address"}],"outputs":[],"stateMutability":"nonpayable"},{"type":"function","name":"investorOrders","inputs":[{"name":"","type":"string","internalType":"string"}],"outputs":[{"name":"investor","type":"address","internalType":"address"},{"name":"asset","type":"address","internalType":"address"},{"name":"value","type":"uint256","internalType":"uint256"},{"name":"tokens","type":"uint256","internalType":"uint256"},{"name":"coin","type":"string","internalType":"string"},{"name":"status","type":"bool","internalType":"bool"}],"stateMutability":"view"},{"type":"function","name":"isStableCoin","inputs":[{"name":"","type":"address","internalType":"address"}],"outputs":[{"name":"","type":"bool","internalType":"bool"}],"stateMutability":"view"},{"type":"function","name":"masterFactory","inputs":[],"outputs":[{"name":"","type":"address","internalType":"address"}],"stateMutability":"view"},{"type":"function","name":"owner","inputs":[],"outputs":[{"name":"","type":"address","internalType":"address"}],"stateMutability":"view"},{"type":"function","name":"pendingOrderAmount","inputs":[{"name":"","type":"string","internalType":"string"}],"outputs":[{"name":"","type":"uint256","internalType":"uint256"}],"stateMutability":"view"},{"type":"function","name":"redemptionAndBurn","inputs":[{"name":"_token","type":"address","internalType":"address"},{"name":"_userAddress","type":"address","internalType":"address"},{"name":"_burnAmount","type":"uint256","internalType":"uint256"},{"name":"_principalAmount","type":"uint256","internalType":"uint256"},{"name":"_profitAmount","type":"uint256","internalType":"uint256"},{"name":"coin","type":"string","internalType":"string"},{"name":"orderID","type":"string","internalType":"string"}],"outputs":[],"stateMutability":"nonpayable"},{"type":"function","name":"redemptionStatus","inputs":[{"name":"","type":"string","internalType":"string"}],"outputs":[{"name":"","type":"bool","internalType":"bool"}],"stateMutability":"view"},{"type":"function","name":"rejectOrder","inputs":[{"name":"orderID","type":"string","internalType":"string"}],"outputs":[],"stateMutability":"nonpayable"},{"type":"function","name":"renounceOwnership","inputs":[],"outputs":[],"stateMutability":"nonpayable"},{"type":"function","name":"rescueAnyERC20Tokens","inputs":[{"name":"_tokenAddr","type":"address","internalType":"address"},{"name":"_to","type":"address","internalType":"address"},{"name":"_amount","type":"uint128","internalType":"uint128"}],"outputs":[],"stateMutability":"nonpayable"},{"type":"function","name":"setFundFactory","inputs":[{"name":"_fundFactory","type":"address","internalType":"address"}],"outputs":[],"stateMutability":"nonpayable"},{"type":"function","name":"setMasterFactory","inputs":[{"name":"_masterFactory","type":"address","internalType":"address"}],"outputs":[],"stateMutability":"nonpayable"},{"type":"function","name":"setNAV","inputs":[{"name":"_token","type":"address","internalType":"address"},{"name":"_latestNAV","type":"uint256","internalType":"uint256"},{"name":"actionID","type":"string","internalType":"string"}],"outputs":[],"stateMutability":"nonpayable"},{"type":"function","name":"setStableCoin","inputs":[{"name":"coin","type":"string","internalType":"string"},{"name":"_stablecoin","type":"address","internalType":"address"}],"outputs":[],"stateMutability":"nonpayable"},{"type":"function","name":"setValuation","inputs":[{"name":"_token","type":"address","internalType":"address"},{"name":"_latestValuation","type":"uint256","internalType":"uint256"},{"name":"actionID","type":"string","internalType":"string"}],"outputs":[],"stateMutability":"nonpayable"},{"type":"function","name":"settlement","inputs":[{"name":"orderID","type":"string","internalType":"string"}],"outputs":[],"stateMutability":"nonpayable"},{"type":"function","name":"totalPendingOrderAmount","inputs":[],"outputs":[{"name":"","type":"uint256","internalType":"uint256"}],"stateMutability":"view"},{"type":"function","name":"transferOwnership","inputs":[{"name":"newOwner","type":"address","internalType":"address"}],"outputs":[],"stateMutability":"nonpayable"},{"type":"event","name":"DividendDistributed","inputs":[{"name":"investor","type":"address","indexed":false,"internalType":"address"},{"name":"amount","type":"uint256","indexed":false,"internalType":"uint256"},{"name":"_userID","type":"string","indexed":false,"internalType":"string"},{"name":"_dividendID","type":"string","indexed":false,"internalType":"string"},{"name":"token","type":"address","indexed":false,"internalType":"address"}],"anonymous":false},{"type":"event","name":"ForceTransferred","inputs":[{"name":"fromAddress","type":"address","indexed":false,"internalType":"address"},{"name":"toAddress","type":"address","indexed":false,"internalType":"address"},{"name":"amount","type":"uint256","indexed":false,"internalType":"uint256"},{"name":"orderID","type":"string","indexed":false,"internalType":"string"},{"name":"token","type":"address","indexed":false,"internalType":"address"}],"anonymous":false},{"type":"event","name":"FundFactoryUpdated","inputs":[{"name":"fundFactory","type":"address","indexed":false,"internalType":"address"}],"anonymous":false},{"type":"event","name":"IdentityUpdated","inputs":[{"name":"userAddress","type":"address","indexed":false,"internalType":"address"},{"name":"token","type":"address","indexed":false,"internalType":"address"},{"name":"actionID","type":"string","indexed":false,"internalType":"string"}],"anonymous":false},{"type":"event","name":"Initialized","inputs":[{"name":"version","type":"uint8","indexed":false,"internalType":"uint8"}],"anonymous":false},{"type":"event","name":"MasterFactoryUpdated","inputs":[{"name":"masterFactory","type":"address","indexed":false,"internalType":"address"}],"anonymous":false},{"type":"event","name":"NAVUpdated","inputs":[{"name":"assetAddress","type":"address","indexed":false,"internalType":"address"},{"name":"fundAddress","type":"address","indexed":false,"internalType":"address"},{"name":"latestNAV","type":"uint256","indexed":false,"internalType":"uint256"},{"name":"actionID","type":"string","indexed":false,"internalType":"string"}],"anonymous":false},{"type":"event","name":"OrderCancelled","inputs":[{"name":"orderID","type":"string","indexed":false,"internalType":"string"},{"name":"userAddress","type":"address","indexed":false,"internalType":"address"},{"name":"orderValue","type":"uint256","indexed":false,"internalType":"uint256"}],"anonymous":false},{"type":"event","name":"OrderCreated","inputs":[{"name":"_asset","type":"address","indexed":false,"internalType":"address"},{"name":"_investor","type":"address","indexed":false,"internalType":"address"},{"name":"amountValue","type":"uint256","indexed":false,"internalType":"uint256"},{"name":"tokens","type":"uint256","indexed":false,"internalType":"uint256"},{"name":"orderID","type":"string","indexed":false,"internalType":"string"},{"name":"coin","type":"string","indexed":false,"internalType":"string"}],"anonymous":false},{"type":"event","name":"OrderRejected","inputs":[{"name":"orderID","type":"string","indexed":false,"internalType":"string"},{"name":"_Issuer","type":"address","indexed":false,"internalType":"address"},{"name":"refundedValue","type":"uint256","indexed":false,"internalType":"uint256"}],"anonymous":false},{"type":"event","name":"OrderSettled","inputs":[{"name":"orderID","type":"string","indexed":false,"internalType":"string"},{"name":"_Issuer","type":"address","indexed":false,"internalType":"address"},{"name":"amountValue","type":"uint256","indexed":false,"internalType":"uint256"},{"name":"tokens","type":"uint256","indexed":false,"internalType":"uint256"}],"anonymous":false},{"type":"event","name":"OwnershipTransferred","inputs":[{"name":"previousOwner","type":"address","indexed":true,"internalType":"address"},{"name":"newOwner","type":"address","indexed":true,"internalType":"address"}],"anonymous":false},{"type":"event","name":"RedemptionAndBurn","inputs":[{"name":"token","type":"address","indexed":false,"internalType":"address"},{"name":"userAddress","type":"address","indexed":false,"internalType":"address"},{"name":"tokensBurned","type":"uint256","indexed":false,"internalType":"uint256"},{"name":"principalAmount","type":"uint256","indexed":false,"internalType":"uint256"},{"name":"profitAmount","type":"uint256","indexed":false,"internalType":"uint256"},{"name":"stableCoin","type":"string","indexed":false,"internalType":"string"},{"name":"amountRedeemed","type":"uint256","indexed":false,"internalType":"uint256"},{"name":"taxCollected","type":"uint256","indexed":false,"internalType":"uint256"},{"name":"orderID","type":"string","indexed":false,"internalType":"string"}],"anonymous":false},{"type":"event","name":"StableCoinUpdated","inputs":[{"name":"coin","type":"string","indexed":false,"internalType":"string"},{"name":"newAddress","type":"address","indexed":false,"internalType":"address"}],"anonymous":false},{"type":"event","name":"TokensBurned","inputs":[{"name":"fromAddress","type":"address","indexed":false,"internalType":"address"},{"name":"amount","type":"uint256","indexed":false,"internalType":"uint256"},{"name":"orderID","type":"string","indexed":false,"internalType":"string"},{"name":"token","type":"address","indexed":false,"internalType":"address"}],"anonymous":false},{"type":"event","name":"TokensMinted","inputs":[{"name":"toAddress","type":"address","indexed":false,"internalType":"address"},{"name":"amount","type":"uint256","indexed":false,"internalType":"uint256"},{"name":"orderID","type":"string","indexed":false,"internalType":"string"},{"name":"token","type":"address","indexed":false,"internalType":"address"}],"anonymous":false},{"type":"event","name":"UserAddressFrozen","inputs":[{"name":"userAddress","type":"address","indexed":false,"internalType":"address"},{"name":"isFrozen","type":"bool","indexed":false,"internalType":"bool"},{"name":"actionID","type":"string","indexed":false,"internalType":"string"},{"name":"token","type":"address","indexed":false,"internalType":"address"}],"anonymous":false},{"type":"event","name":"UserCountryUpdated","inputs":[{"name":"userAddress","type":"address","indexed":false,"internalType":"address"},{"name":"token","type":"address","indexed":false,"internalType":"address"},{"name":"country","type":"uint16","indexed":false,"internalType":"uint16"},{"name":"actionID","type":"string","indexed":false,"internalType":"string"}],"anonymous":false},{"type":"event","name":"UserIdentityDeleted","inputs":[{"name":"userAddress","type":"address","indexed":false,"internalType":"address"},{"name":"token","type":"address","indexed":false,"internalType":"address"},{"name":"actionID","type":"string","indexed":false,"internalType":"string"}],"anonymous":false},{"type":"event","name":"UserIdentityRegistered","inputs":[{"name":"userAddress","type":"address","indexed":false,"internalType":"address"},{"name":"onchainID","type":"address","indexed":false,"internalType":"address"},{"name":"userID","type":"string","indexed":false,"internalType":"string"}],"anonymous":false},{"type":"event","name":"UserTokensFrozen","inputs":[{"name":"fromAddress","type":"address","indexed":false,"internalType":"address"},{"name":"amount","type":"uint256","indexed":false,"internalType":"uint256"},{"name":"orderID","type":"string","indexed":false,"internalType":"string"},{"name":"token","type":"address","indexed":false,"internalType":"address"}],"anonymous":false},{"type":"event","name":"UserTokensUnFrozen","inputs":[{"name":"fromAddress","type":"address","indexed":false,"internalType":"address"},{"name":"amount","type":"uint256","indexed":false,"internalType":"uint256"},{"name":"orderID","type":"string","indexed":false,"internalType":"string"},{"name":"token","type":"address","indexed":false,"internalType":"address"}],"anonymous":false},{"type":"event","name":"ValuationUpdated","inputs":[{"name":"assetAddress","type":"address","indexed":false,"internalType":"address"},{"name":"equityAddress","type":"address","indexed":false,"internalType":"address"},{"name":"latestValuation","type":"uint256","indexed":false,"internalType":"uint256"},{"name":"actionID","type":"string","indexed":false,"internalType":"string"}],"anonymous":false}],"bytecode":{"object":"0x60808060405234610016576149bc908161001c8239f35b600080fdfe60e080604052600436101561001357600080fd5b60003560e01c9081630b5d527c14613e1e5750806316594be414613c7b5780631f581d5014613b41578063239ad8e1146138d457806328f7689b146137ad57806329815a73146134ec57806332f966691461349a5780633dea9e66146134715780633e6e5d1e1461334e57806341e5abb01461320057806348a25c2714612ea95780634aef05b914612b3357806355a0c97114612af4578063577fbe7f14612ac75780635c10a4e814612a795780635f5242911461280c578063661aeb061461269a57806367c2f47d1461215857806369e7fde314611e555780636b1fe10414611e0c578063715018a614611daf57806384e1a0a714611c0c5780638632b4bc146118905780638da5cb5b146118675780638df20731146117db5780638f1417271461168257806395aa78d5146114f85780639babb0aa14611389578063a5de0fc11461128d578063ab368c3e14611232578063c2558ffd1461110b578063cf61c35d14610c47578063d2d2d71614610b8b578063d2ebf05b146104be578063d73792a91461049c578063eafab5fc14610429578063ef71e72a146102555763f2fde38b146101c157600080fd5b34610250576020366003190112610250576101da613e39565b6101e26148c5565b6001600160a01b038116156101fc576101fa9061491d565b005b60405162461bcd60e51b815260206004820152602660248201527f4f776e61626c653a206e6577206f776e657220697320746865207a65726f206160448201526564647265737360d01b6064820152608490fd5b600080fd5b346102505761026336613eab565b6040516307feec1960e21b815233600482015295969295909491939291906020816024816001600160a01b0387165afa80156103e5576102ab916000916103fa575b5061447c565b858114806103f1575b6102bd90614610565b60005b8181106102c957005b6102dc6102d782848b614654565b614664565b906102f06102eb828a88614654565b614722565b6001600160a01b0385163b156102505760405163c69c09cf60e01b81526001600160a01b03938416600482015290151560248201529160009083906044908290849089165af19182156103e5576103d1926103d6575b507fd7ca15d86bee37cd5486fcbea6a61fe23ebdadde5ea146c0bd655b36e31b00d06103766102d783868d614654565b6103846102eb848c8a614654565b906103ba610393858c8c6145cf565b60405194859460018060a01b0316855215156020850152608080604086015284019161445b565b6001600160a01b03881660608301520390a16145c0565b6102c0565b6103df90613f6b565b89610346565b6040513d6000823e3d90fd5b508585146102b4565b61041c915060203d602011610422575b6104148183613f7e565b810190614275565b896102a5565b503d61040a565b34610250576020366003190112610250577f4b9967ce22f44a2436068e5967c559d4464917455b60b69066e4059aabd3b5da6020610465613e39565b61046d6148c5565b6001600160a01b0316610481811515614678565b606780546001600160a01b03191682179055604051908152a1005b3461025057600036600319011261025057602061ffff60665416604051908152f35b346102505760e0366003190112610250576104d7613e39565b60c0526001600160401b03602435818111610250576104fa903690600401613e7b565b909160443581811161025057610514903690600401613e7b565b906064358381116102505761052d903690600401613e7b565b94909260843585811161025057610548903690600401613e7b565b96909560a43581811161025057610563903690600401614046565b60a05260805260c43511610250576105803660c435600401613e7b565b91909883851480610b82575b80610b79575b80610b70575b6105a190614610565b60005b8381106105ad57005b808989896105f38f958f6105ec828c928f8f8e6105de8f86936105d86102d7866105e5988195614654565b9c614654565b359a614654565b3598614654565b35976145cf565b936040516307feec1960e21b815233600482015260208160248160018060a01b0360c051165afa80156103e55761063191600091610b51575061447c565b60665460405163026d3c6760e41b815260c0516001600160a01b03908116600483015260209082906024908290601087901c165afa80156103e55761067e91600091610b32575b5061428d565b60c0516001600160a01b031615610aed5784151580610ae4575b6106a19061420a565b6106d360405160a051608051823760a05160699082019081528190036020019020546001600160a01b031615156142cd565b60ff60405187858237602081898101606d8152030190205416610a9f578761083a575061072a818460405160a051608051823760a051606990820190815281900360200190205433906001600160a01b03166147d4565b60c0516001600160a01b03163b1561025057604051632770a7eb60e21b81526001600160a01b0384811660048301526024820186905260c051919691600091889160449183918591165af19283156103e557610826986000805160206149678339815191529761081e9561082b575b5060405183838237602081858101606d815203019020600160ff1982541617905560405196879660018060a01b0360c05116885260018060a01b03166020880152604087015283606087015260808601526108036101208060a0880152860160a05160805161445b565b9260c0860152600060e086015284830361010086015261445b565b0390a16145c0565b6105a4565b61083490613f6b565b38610799565b6067546040516376afc53160e01b815260c0516001600160a01b0390811660048301529399949390929160209184916024918391165afa80156103e55761089b92600091610a70575b5061089361ffff80921686614515565b911690614528565b946108a68689614548565b916108db838660405160a051608051823760a051606990820190815281900360200190205433906001600160a01b03166147d4565b60405160a051608051823760a0518101906069825260208160018060a01b03930301902054166004602060018060a01b036067541660405192838092637feade7b60e11b82525afa80156103e55761093f928a92600092610a3f575b5033906147d4565b60c0516001600160a01b03163b1561025057604051632770a7eb60e21b81526001600160a01b0386811660048301526024820188905260c0519198916000918a9160449183918591165af19485156103e5576108269a6000805160206149678339815191529961081e97610a30575b5060405185858237602081878101606d815203019020600160ff1982541617905560405198899860018060a01b0360c051168a5260018060a01b031660208a0152604089015260608801526080870152610a176101208060a0890152870160a05160805161445b565b9360c087015260e086015284830361010086015261445b565b610a3990613f6b565b386109ae565b610a6291925060203d602011610a69575b610a5a8183613f7e565b810190614256565b9038610937565b503d610a50565b610a92915060203d602011610a98575b610a8a8183613f7e565b8101906144fb565b38610883565b503d610a80565b60405162461bcd60e51b815260206004820152601a60248201527f4475706c696361746520526564656d7074696f6e204f726465720000000000006044820152606490fd5b50811515610698565b60405162461bcd60e51b815260206004820152601860248201527f5a65726f2041646472657373206e6f7420616c6c6f77656400000000000000006044820152606490fd5b610b4b915060203d602011610422576104148183613f7e565b38610678565b610b6a915060203d602011610422576104148183613f7e565b386102a5565b50888314610598565b50888214610592565b5081841461058c565b34610250576020366003190112610250576004356001600160401b038111610250576020610bc0610bd3923690600401613fba565b8160405193828580945193849201613f23565b8101606c81520301902060018060a01b03808254169060018301541691610c3b600282015491600381015460ff6005610c0e600485016140ad565b9301541693604051968796875260208701526040860152606085015260c0608085015260c0840190613f46565b90151560a08301520390f35b346102505760e036600319011261025057610c60613e39565b610c68613e4f565b6001600160401b039160a43583811161025057610c89903690600401614046565b9360c43590811161025057610ca2903690600401614046565b6040516307feec1960e21b81523360048201526020816024816001600160a01b0389165afa80156103e557610cde916000916110ec575061447c565b60665460405163026d3c6760e41b81526001600160a01b03868116600483015260209082906024908290601087901c165afa80156103e557610d27916000916110cd575061428d565b6001600160a01b03851615610aed576044351515806110c2575b610d4a9061420a565b610d75604051888682376069818a019081528190036020019020546001600160a01b031615156142cd565b60ff60405183858237602081858101606d8152030190205416610a9f57608435610eaf57506040519186848437610dcb8784016069815287606435958692339160208160018060a01b03930301902054166147d4565b6001600160a01b0385163b1561025057604051632770a7eb60e21b81526001600160a01b038781166004830152604480356024840152919591600091879190829084908b165af19081156103e55760008051602061496783398151915298610e9b9661080393610ea0575b5060405185858237602081878101606d815203019020600160ff1982541617905560405198899860018060a01b0316895260018060a01b03166020890152604435604089015285606089015260843560808901526101208060a08a015288019161445b565b0390a1005b610ea990613f6b565b8a610e36565b6067546040516376afc53160e01b81526001600160a01b03878116600483015290929160209184916024918391165afa80156103e557610f03926000916110a3575b5061089361ffff809216608435614515565b91610f1083606435614548565b92610f3e84886040518b8982376069818d0190815281900360200190205433906001600160a01b03166147d4565b604051888682376069818a0190815281900360209081019091205460675460405160016215218560e11b031981526001600160a01b03928316939092909183916004918391165afa80156103e557610fa1928492600092611082575033906147d4565b6001600160a01b0386163b1561025057604051632770a7eb60e21b81526001600160a01b038881166004830152604480356024840152919691600091889190829084908c165af19081156103e55760008051602061496783398151915299610e9b97610a1793611073575b5060405186868237602081888101606d815203019020600160ff19825416179055604051998a9960018060a01b03168a5260018060a01b031660208a015260443560408a015260643560608a015260843560808a01526101208060a08b015289019161445b565b61107c90613f6b565b8b61100c565b61109c91925060203d602011610a6957610a5a8183613f7e565b908c610937565b6110bc915060203d602011610a9857610a8a8183613f7e565b89610ef1565b506064351515610d41565b6110e6915060203d602011610422576104148183613f7e565b89610678565b611105915060203d602011610422576104148183613f7e565b886102a5565b34610250576020366003190112610250576004356001600160401b0381116102505761113b903690600401614046565b9060405182828237602081848101606c8152030190209160018060a01b0383541633036111e357610e9b8360057f7238c54289856123baca2546d37161f2e0b6967231fc8d004dd849d1f4f987e6950161119960ff82541615614555565b60028201916111b76111af600485549301614312565b918254614548565b90556111c68254606554614548565b606555805460ff1916600117905554604051938493339185614592565b60405162461bcd60e51b815260206004820152602160248201527f4f6e6c792043726561746f722063616e2063616e63656c20746865206f7264656044820152603960f91b6064820152608490fd5b34610250576020366003190112610250576004356001600160401b038111610250576112646020913690600401614046565b80604051928337606990820190815281900382019020546040516001600160a01b039091168152f35b3461025057602080600319360112610250576004356001600160401b038111610250576112be903690600401614046565b602460405182848237606c81840190815281900385019020600101546040516307feec1960e21b8152336004820152916001600160a01b039186918491829085165afa80156103e5577f3f0a0230af8a1fea17e75d9d7feb2481581ce19ffa2036eca5f65ccc03910a729561134161136092610e9b95600091611372575061447c565b604051908587833781868101606c8152030190209182541615156144b8565b6005810161119960ff82541615614555565b61041c9150833d8511610422576104148183613f7e565b346102505761139736613eab565b6040516307feec1960e21b815233600482015290966001600160a01b038116969294939290916020816024818b5afa80156103e5576113dd916000916114da575061447c565b828614806114d1575b6113ef90614610565b60005b8681106113fb57005b6114096102d7828985614654565b90611415818688614654565b3591893b15610250576040516340c10f1960e01b81526001600160a01b039190911660048201526024810192909252600082604481838d5af19182156103e557878761081e876114b08f87908f828e6114a36102d78f6114bd9f9585917f9fefa34dab07e51d075774a576a8f4777035e8ad819d9fe29a4d0d85c896b8b99f6114a9986114c2575b50614654565b98614654565b35966145cf565b90604051958695866146ec565b6113f2565b6114cb90613f6b565b3861149d565b508288146113e6565b6114f2915060203d8111610422576104148183613f7e565b8a6102a5565b3461025057608036600319011261025057611511613e39565b60243561ffff811680910361025057611528613e65565b916064356001600160401b03811161025057611548903690600401614046565b6040516304d3863d60e21b81526001600160a01b03956020959087169392918681600481885afa80156103e5578891600091611665575b5016946040516307feec1960e21b815233600482015287816024818a5afa80156103e5576115b591600091611648575b5061472f565b853b1561025057600097604489926040519a8b938492633b239a7f60e01b845216998a60048401528660248401525af19384156103e5577fbbb457c39be4bbf2d0683fadbe6a978eeeae13925cbcb2f512116014ac1ba84997610e9b95611639575b506040519687968752860152604085015260806060850152608084019161445b565b61164290613f6b565b88611617565b61165f9150893d8b11610422576104148183613f7e565b8a6115af565b61167c9150883d8a11610a6957610a5a8183613f7e565b8961157f565b346102505761169036614001565b6040516307feec1960e21b81523360048201526001600160a01b03938481169390926020929091908381602481895afa80156103e5576116d7916000916117c4575061447c565b6116e2851515614678565b828660675416956024604051809881936302d0b07560e61b835260048301525afa9485156103e5576000956117a5575b508260405180976333f73ffb60e11b825283600483015260406024830152816000816117416044820189613f46565b03928a165af19283156103e5577f05da404e46cc9d5730bb36a7a11e56a785cc2c0cd8bd5eea663c70b6a70f480c96610e9b94611787575b5050604051948594856146bb565b8161179d92903d10610422576104148183613f7e565b508680611779565b6117bd919550833d8511610a6957610a5a8183613f7e565b9386611712565b6111059150853d8711610422576104148183613f7e565b34610250576020366003190112610250577fdaf47fcc5f07e8197003f19eb8d76636c6dcc8496d04ac02be45191e2c38edcf6020611817613e39565b61181f6148c5565b6001600160a01b03906118358183161515614678565b6066805462010000600160b01b031916601092831b62010000600160b01b03161790819055604051911c9091168152a1005b34610250576000366003190112610250576033546040516001600160a01b039091168152602090f35b346102505760c0366003190112610250576118a9613e39565b6001600160401b0390602435828111610250576118ca903690600401613e7b565b92604435818111610250576118e3903690600401613e7b565b93606435838111610250576118fc903690600401613e7b565b94909360843590811161025057611917903690600401613e7b565b909790929060a4356001600160a01b0381169003610250576040516321df0da760e01b81526020816004816001600160a01b0387165afa9081156103e557602491602091600091611bef575b506040516307feec1960e21b815233600482015292839182906001600160a01b03165afa9081156103e557600091611bd0575b5015611b9a5787811480611b91575b80611b88575b6119b490614610565b60005b8181106119c057005b808a88886119ec846119e48f978f6114a9828f9b8f6102d78f84906114a393614654565b9790956145cf565b93906001600160a01b0389163b1561025057600094611a3d611a4f93604051998a97889763cc8eb62360e01b895260018060a01b03166004890152602488015260c0604488015260c487019161445b565b8481036003190160648601529161445b565b60018060a01b0360a4351660848301523360a483015203818360018060a01b0389165af19182156103e5578888611aaf848f968f8f6114a9848f99938f6102d78f8497906114a3938692611aa79b6114c25750614654565b9590976145cf565b6040516321df0da760e01b815294916020866004816001600160a01b038e165afa9182156103e557611b5a987facee71e86df0c7727204f017078f06621bc26c1180538851b0cf0ffeb74274e597600094611b5f575b50611b3490611b42949560405198899860018060a01b03168952602089015260a08060408a015288019161445b565b91858303606087015261445b565b6001600160a01b0390911660808301520390a16145c0565b6119b7565b611b42945090611b80611b349260203d602011610a6957610a5a8183613f7e565b945090611b05565b508684146119ab565b508688146119a5565b60405162461bcd60e51b815260206004820152600e60248201526d24b73b30b634b21024b9b9bab2b960911b6044820152606490fd5b611be9915060203d602011610422576104148183613f7e565b8a611996565b611c069150823d8411610a6957610a5a8183613f7e565b8c611963565b3461025057611c1a36613eab565b6040516307feec1960e21b815233600482015290966001600160a01b0381169692949392909160209081816024818c5afa9081156103e557600091611d92575b508015611d3f575b611c6c915061447c565b82861480611d36575b611c7e90614610565b60005b868110611c8a57005b611c986102d7828985614654565b90611ca4818688614654565b3591893b156102505760405163125c4a3360e01b81526001600160a01b039190911660048201526024810192909252600082604481838d5af19182156103e557878761081e876114b08f87908f828e6114a36102d78f611d319f9585917f179ab866bac025885d87e05ce30e1af2650157b7826dfd2ba8d2c56ca5eeb4649f6114a9986114c25750614654565b611c81565b50828814611c75565b5060405163ab190ae760e01b815233600482015281816024818c5afa9081156103e557611c6c92600092611d75575b5050611c62565b611d8b9250803d10610422576104148183613f7e565b8a80611d6e565b611da99150823d8411610422576104148183613f7e565b8a611c5a565b3461025057600036600319011261025057611dc86148c5565b603380546001600160a01b031981169091556000906001600160a01b03167f8be0079c531659141344cd1fd0a4f28419497f9722a3daafe3b4186f6b6457e08280a3005b34610250576020366003190112610250576004356001600160401b03811161025057611e426020610bc081933690600401613fba565b8101606881520301902054604051908152f35b3461025057602080600319360112610250576004356001600160401b03811161025057611e86903690600401614046565b6040519281838537606c8483019081528490038101909320600101546040516307feec1960e21b81523360048201526001600160a01b03949182908290602490829089165afa80156103e557611ee39160009161213b575061447c565b604051828482378181848101606c815203019020611f058582541615156144b8565b6005810160ff8154166120fe5785606754169060018301848882541660246040518096819363064fa30760e41b835260048301525afa9283156103e5576000936120df575b5087611fce6002860194611fc9611f77875492611f6c61ffff80921685614515565b906066541690614528565b95611f828784614548565b9060048a0193611f946111af86614312565b9055611fa38954606554614548565b606555805460ff1916600117905584611fbb846143a5565b54163390868b5416906147d4565b6143a5565b54169060048986541693878b6067541660405193848092637feade7b60e11b82525afa80156103e5576003958c9561200e946000936120c0575b506147d4565b5416968354169201918254873b15610250576040516340c10f1960e01b81526001600160a01b039290921660048301526024820152956000908790604490829084905af19586156103e5577f47986912081b37426c2a4cd13d5e45069e36bba6c5dce0c00ab957f54dfd1466966120b1575b505490549061209c60405195869560808752608087019161445b565b923390850152604084015260608301520390a1005b6120ba90613f6b565b86612080565b6120d89193508b3d8d11610a6957610a5a8183613f7e565b918e612008565b6120f7919350853d8711610a9857610a8a8183613f7e565b9188611f4a565b60405162461bcd60e51b815260048101849052601560248201527413dc99195c88105b1c9958591e4814d95d1d1b1959605a1b6044820152606490fd5b6121529150833d8511610422576104148183613f7e565b866102a5565b346102505760a036600319011261025057612171613e39565b6001600160401b039060643582811161025057612192903690600401614046565b9190608435848111610250576121ac903690600401614046565b90916024946121bd8635151561420a565b6040516304d3863d60e21b81526001600160a01b0396906020816004818a8c165afa9081156103e557889160209160009161267d575b50836040518094819363b9209e3360e01b8352336004840152165afa9081156103e55760009161265e575b501561261a578660405183858237602081858101606c81520301902054166125de578060208860665460101c166040519283809263026d3c6760e41b82528c8c1660048301525afa80156103e55761227d916000916125bf575061428d565b61229f87604051868882376020818881016069815203019020541615156142cd565b60446020886040518789823782818981016069815203019020541660405192838092636eb1769f60e11b825233600483015230878301525afa9081156103e55760009161258d575b508135116125505760405182848237602081848101606c8152030190206001600160601b0360a01b903382825416179055600160405184868237602081868101606c81520301902001908888169082541617905560405182848237600283820191606c835260208185359403019020015560405182848237600383820191606c835260208160443594030190200155600460405183858237602081858101606c8152030190200197841161253c576123a9846123a38a54614073565b8a6141c5565b600097601f85116001146124a7579184939161248e93610e9b97967f89d00660311b88a9841f9336b06d3cbd131a7422012186fa52ea65c9088976539b60009161249c575b508660011b906000198860031b1c19161790555b600560405183858237602081858101606c8152030190200160ff198154169055612442600460405184868237602081868101606c81520301902001614312565b61244e82358254614438565b905561245d8135606554614438565b606555604051988998168852336020890152356040880152604435606088015260c0608088015260c087019161445b565b9184830360a086015261445b565b90508701358c6123ee565b8060005260206000209860005b601f198716811061252457509161248e93917f89d00660311b88a9841f9336b06d3cbd131a7422012186fa52ea65c9088976539a879694610e9b9998601f1981161061250a575b5050600186811b019055612402565b880135600019600389901b60f8161c191690558b806124fb565b878201358b556001909a0199602091820191016124b4565b634e487b7160e01b60009081526041600452fd5b60649060166040519162461bcd60e51b83526020600484015282015275496e73756666696369656e7420416c6c6f77616e636560501b6044820152fd5b90506020813d6020116125b7575b816125a860209383613f7e565b810103126102505751896122e7565b3d915061259b565b6125d8915060203d602011610422576104148183613f7e565b8a610678565b60649060156040519162461bcd60e51b8352602060048401528201527413dc99195c88105b1c9958591e4810dc99585d1959605a1b6044820152fd5b60649060186040519162461bcd60e51b8352602060048401528201527f496e766573746f72206e6f742077686974656c697374656400000000000000006044820152fd5b612677915060203d602011610422576104148183613f7e565b8961221e565b6126949150823d8411610a6957610a5a8183613f7e565b8b6121f3565b34610250576080366003190112610250576126b3613e39565b6001600160a01b036024358181169290839003610250576126d2613e65565b916064356001600160401b038111610250576126f2903690600401614046565b9091604051956304d3863d60e21b87526020968781600481868b165afa80156103e55783916000916127ef575b5016966040516307feec1960e21b815233600482015281816024818c5afa9081156103e557612757926000926127d2575b505061472f565b863b1561025057604460009283604051998a948593638e098ca160e01b85528a16600485015260248401525af19182156103e5577f41f5f1b5440dc91bf54262e08885c3b1a0db88ea60f1d654b7dc736d587f96a695610e9b936127c3575b506040519485948561477b565b6127cc90613f6b565b866127b6565b6127e89250803d10610422576104148183613f7e565b8980612750565b6128069150893d8b11610a6957610a5a8183613f7e565b8961271f565b34610250576040366003190112610250576001600160401b036004358181116102505761283d903690600401614046565b612845613e4f565b61284d6148c5565b6001600160a01b039081168015612a45576040519183858437828481016069815260209485910301902054166129f4576040518385823782818581016069815203019020816001600160601b0360a01b82541617905580600052606a825260406000209483116129de576128cb836128c58754614073565b876141c5565b600094601f841160011461295b57837f6f01448e5ffcdc9bdd3c330e157a49449127471eb1eb480433c915084e79838596600091612950575b508460011b906000198660031b1c19161790555b80600052606b82526040600020600160ff1982541617905561294760405194859460408652604086019161445b565b918301520390a1005b905085013587612904565b601f1984169581600052836000209060005b8881106129c75750857f6f01448e5ffcdc9bdd3c330e157a49449127471eb1eb480433c915084e79838598106129ad575b5050600184811b019055612918565b860135600019600387901b60f8161c19169055868061299e565b90918560018192858b01358155019301910161296d565b634e487b7160e01b600052604160045260246000fd5b60405162461bcd60e51b8152600481018390526024808201527f537461626c65636f696e20696e207573652c2075706461746520646973616c6c6044820152631bddd95960e21b6064820152608490fd5b60405162461bcd60e51b815260206004820152600c60248201526b5a65726f204164647265737360a01b6044820152606490fd5b34610250576020366003190112610250576004356001600160401b0381116102505760ff612ab16020610bc081943690600401613fba565b8101606d81520301902054166040519015158152f35b346102505760003660031901126102505760665460405160109190911c6001600160a01b03168152602090f35b34610250576020366003190112610250576001600160a01b03612b15613e39565b16600052606b602052602060ff604060002054166040519015158152f35b34610250576020366003190112610250576004356001600160401b03811161025057612b63903690600401613e7b565b60005b818110612b6f57005b612b7a8183856145cf565b604051929181818537606c84830181815285900360209081019095206001908101546040516307feec1960e21b8152336004820152919660249392918290859082906001600160a01b03165afa80156103e557612bde91600091612e90575061447c565b6020604051809286868337818701908152030190208054909590612c0c906001600160a01b031615156144b8565b6005860160ff815416612e545760678054888401805460405163064fa30760e41b81526001600160a01b0391821660048201529196919592602092879290918391165afa9081156103e557600494600092612e2f575b50612ce290612c7f60028c015493611f6c61ffff80921686614515565b94612c8a8685614548565b91878d0194612c9b6111af87614312565b905560028d0154612caf6065918254614548565b9055815460ff19161790556001600160a01b03612ccb846143a5565b548c5433926001600160a01b0390911691166147d4565b6001600160a01b0390612cf4906143a5565b548954925460405160016215218560e11b031981529592909116926001600160a01b039081169260209287928391165afa9182156103e557612d3d94600093612e0e57506147d4565b5484546003860180546001600160a01b039384169593919290911690853b15610250576040516340c10f1960e01b81526001600160a01b039290921660048301526024820152936000908590604490829084905af180156103e557612dfa967f47986912081b37426c2a4cd13d5e45069e36bba6c5dce0c00ab957f54dfd146695600292612dff575b5001549054612de1604051948594608080875286019161445b565b91336020850152604084015260608301520390a16145c0565b612b66565b612e0890613f6b565b8a612dc6565b612e2891935060203d602011610a6957610a5a8183613f7e565b918c612008565b612ce2919250612e4d9060203d602011610a9857610a8a8183613f7e565b9190612c62565b60405162461bcd60e51b8152602060048201526015818501527413dc99195c88105b1c9958591e4814d95d1d1b1959605a1b6044820152606490fd5b6114f2915060203d602011610422576104148183613f7e565b34610250576060366003190112610250576001600160401b0360043581811161025057366023820112156102505780600401359182116129de578160051b60405191602093612efa85840185613f7e565b83528383016024809383010191368311610250578301905b8282106131e157505050612f24613e4f565b91612f2d613e65565b6000549060ff8260081c1615948580966131d4575b80156131bd575b15613162576127109060ff199387600186831617600055613150575b506001600160a01b03938461305b81612f7d89614153565b511697898c606a6040519183637573646360e01b9384815260696004820152206001600160601b0360a01b9d8e8254161790558c87612fbb87614176565b511660405195631d5cd91d60e21b9687815260696004820152209182541617905586612fe686614153565b51166000525260086040600020916130076130018454614073565b8461419d565b0190558361301483614176565b5116600052606a8d5260086040600020916130326130018454614073565b0190558261303f82614153565b5116600052606b8c526040600020600185825416179055614176565b5116600052606b895260016040600020918254161790556066549062010000600160b01b039060101b169069ffffffffffffffffffff60b01b1617176066551690606754161760675560ff60005460081c16156130f957506130bc3361491d565b6130c257005b7f7f26b83ff96e1f2b6a682f133852f6798a09c465da95921460cefb38474024989061ff00196000541660005560405160018152a1005b82602b6084926040519262461bcd60e51b845260048401528201527f496e697469616c697a61626c653a20636f6e7472616374206973206e6f74206960448201526a6e697469616c697a696e6760a81b6064820152fd5b61ffff19166101011760005588612f65565b60405162461bcd60e51b815260048101889052602e818701527f496e697469616c697a61626c653a20636f6e747261637420697320616c72656160448201526d191e481a5b9a5d1a585b1a5e995960921b6064820152608490fd5b50303b158015612f495750600160ff841614612f49565b50600160ff841610612f42565b81356001600160a01b0381168103610250578152908501908501612f12565b3461025057606036600319011261025057613219613e39565b613221613e4f565b6044356001600160401b03811161025057613240903690600401614046565b6040516304d3863d60e21b81526020949291906001600160a01b039086816004818986165afa80156103e5578291600091613331575b5016956040516307feec1960e21b815233600482015281816024818b5afa9081156103e5576132ad9260009261331457505061472f565b853b156102505760009560248792604051988993849263a8d29d1d60e01b8452891660048401525af19182156103e5577facbc00f3b4d760100626a5c4800c731d9a908d759af87ce1991c04107f34cd0795610e9b936127c357506040519485948561477b565b61332a9250803d10610422576104148183613f7e565b8880612750565b6133489150883d8a11610a6957610a5a8183613f7e565b88613276565b346102505761335c36614001565b6040516307feec1960e21b81523360048201526001600160a01b03938481169390926020929091908381602481895afa80156103e5576133a3916000916117c4575061447c565b6133ae851515614678565b828660675416956024604051809881936302d0b07560e61b835260048301525afa9485156103e557600095613452575b50826040518097631718108f60e01b8252836004830152604060248301528160008161340d6044820189613f46565b03928a165af19283156103e5577fa66602cdea3fefad4e8c60a5e9dddf12dee81f1af5a35ae80d9b05b39f4d523196610e9b94611787575050604051948594856146bb565b61346a919550833d8511610a6957610a5a8183613f7e565b93866133de565b34610250576000366003190112610250576067546040516001600160a01b039091168152602090f35b34610250576020366003190112610250576001600160a01b036134bb613e39565b16600052606a6020526134e86134d460406000206140ad565b604051918291602083526020830190613f46565b0390f35b346102505760a036600319011261025057613505613e39565b6001600160401b039060243582811161025057613526903690600401613e7b565b91909260443581811161025057613541903690600401613e7b565b926064358381116102505761355a903690600401613e7b565b94909360843590811161025057613575903690600401613e7b565b6040516307feec1960e21b81523360048201529092906020816024816001600160a01b0389165afa9081156103e55760009161378e575b50801561372f575b6135bd9061447c565b86881480613726575b8061371d575b6135d590614610565b60005b8881106135e157005b6135ef6102d7828b8d614654565b9060206136006102d783868b614654565b61360b838c8c614654565b604051639fc1d0e760e01b81526001600160a01b039586166004820152918516602483015235604482015292839060649082906000908b165af180156103e55788886136e26136a18f8f8f906102d7898c6114a36102d7836136f99f9681997fa6b6514306426561fd7a0b3d3954713f8877f050dcde01f94f1b6873d65b1d2b9f9861369b996136fe5750614654565b95614654565b356136ad868b8b6145cf565b909160405195869560018060a01b0316865260018060a01b03166020860152604085015260a0606085015260a084019161445b565b6001600160a01b038a1660808301520390a16145c0565b6135d8565b6137169060203d602011610422576104148183613f7e565b503861149d565b508281146135cc565b508287146135c6565b5060405163ab190ae760e01b81523360048201526020816024816001600160a01b0389165afa80156103e5576135bd9160009161376f575b5090506135b4565b613788915060203d602011610422576104148183613f7e565b8b613767565b6137a7915060203d602011610422576104148183613f7e565b8a6135ac565b34610250576137bb36613eab565b6040516307feec1960e21b815233600482015290966001600160a01b038116969294939290916020816024818b5afa80156103e557613801916000916114da575061447c565b828614806138cb575b61381390614610565b60005b86811061381f57005b61382d6102d7828985614654565b90613839818688614654565b3591893b1561025057604051632770a7eb60e21b81526001600160a01b039190911660048201526024810192909252600082604481838d5af19182156103e557878761081e876114b08f87908f828e6114a36102d78f6138c69f9585917f3dc4a3d05c508f980d33ab2ae14f99cef134d267aa7da13dba7ef141cae7cc7f9f6114a9986114c25750614654565b613816565b5082881461380a565b346102505760a0366003190112610250576001600160401b0360043581811161025057613905903690600401613e7b565b60249291923582811161025057613920903690600401613e7b565b6044949194358481116102505761393b903690600401613e7b565b93909460643590811161025057613956903690600401613e7b565b9190936084359560018060a01b038716809703610250576020600497604051988980926304d3863d60e21b82525afa9687156103e557600097613b20575b506040516307feec1960e21b81523360048201526020816024816001600160a01b038c165afa80156103e5576139d191600091613b01575061472f565b84831480613af8575b80613aef575b6139e990614610565b60005b8381106139f557005b8990613a0b6102d7828961369b83838b8b614654565b613a1682858d614654565b3561ffff81168103610250576001600160a01b038b163b156102505760405163022a501f60e51b81526001600160a01b039485166004820152918416602483015261ffff166044820152916000908390606490829084908e165af180156103e557888861081e613add8f8b8791613ad66102d7848f8f82613aea9f926102d7927f7ec1845e26c9963f1c5cb40bc7540d11cfe02891b7eeefa909cd4508811ac4269f94613ac7956114c25750614654565b986001600160a01b0394614654565b16956145cf565b906040519485948561477b565b6139ec565b508084146139e0565b508085146139da565b613b1a915060203d602011610422576104148183613f7e565b8b6115af565b613b3a91975060203d602011610a6957610a5a8183613f7e565b9589613994565b3461025057606036600319011261025057613b5a613e39565b613b62613e4f565b90604435906fffffffffffffffffffffffffffffffff82168092036102505760009283613bc9613bd78295613b956148c5565b60405163a9059cbb60e01b602082019081526001600160a01b03909616602482015260448101919091529182906064820190565b03601f198101835282613f7e565b51925af1613be36147a4565b81613c4c575b5015613bf157005b60405162461bcd60e51b815260206004820152602d60248201527f5472616e7366657248656c7065723a3a736166655472616e736665723a20747260448201526c185b9cd9995c8819985a5b1959609a1b6064820152608490fd5b8051801592508215613c61575b505081613be9565b613c749250602080918301019101614275565b8180613c59565b3461025057613c8936613eab565b6040516307feec1960e21b815233600482015290966001600160a01b0381169692949392909160209081816024818c5afa9081156103e557600091613e01575b508015613dae575b613cdb915061447c565b82861480613da5575b613ced90614610565b60005b868110613cf957005b613d076102d7828985614654565b90613d13818688614654565b3591893b1561025057604051631fe56f7d60e01b81526001600160a01b039190911660048201526024810192909252600082604481838d5af19182156103e557878761081e876114b08f87908f828e6114a36102d78f613da09f9585917f72cd9f0fa3ef0f2f5d586b23441cc3c15d8131778c87ddd0990533482a9241489f6114a9986114c25750614654565b613cf0565b50828814613ce4565b5060405163ab190ae760e01b815233600482015281816024818c5afa9081156103e557613cdb92600092613de4575b5050613cd1565b613dfa9250803d10610422576104148183613f7e565b8a80613ddd565b613e189150823d8411610422576104148183613f7e565b8a613cc9565b34610250576000366003190112610250576020906065548152f35b600435906001600160a01b038216820361025057565b602435906001600160a01b038216820361025057565b604435906001600160a01b038216820361025057565b9181601f84011215610250578235916001600160401b038311610250576020808501948460051b01011161025057565b6080600319820112610250576004356001600160a01b038116810361025057916001600160401b036024358181116102505783613eea91600401613e7b565b939093926044358381116102505782613f0591600401613e7b565b9390939260643591821161025057613f1f91600401613e7b565b9091565b60005b838110613f365750506000910152565b8181015183820152602001613f26565b90602091613f5f81518092818552858086019101613f23565b601f01601f1916010190565b6001600160401b0381116129de57604052565b90601f801991011681019081106001600160401b038211176129de57604052565b6001600160401b0381116129de57601f01601f191660200190565b81601f8201121561025057803590613fd182613f9f565b92613fdf6040519485613f7e565b8284526020838301011161025057816000926020809301838601378301015290565b6060600319820112610250576004356001600160a01b0381168103610250579160243591604435906001600160401b0382116102505761404391600401613fba565b90565b9181601f84011215610250578235916001600160401b038311610250576020838186019501011161025057565b90600182811c921680156140a3575b602083101461408d57565b634e487b7160e01b600052602260045260246000fd5b91607f1691614082565b90604051918260008254926140c184614073565b90818452600194858116908160001461413057506001146140ed575b50506140eb92500383613f7e565b565b9093915060005260209081600020936000915b8183106141185750506140eb935082010138806140dd565b85548884018501529485019487945091830191614100565b9150506140eb94506020925060ff191682840152151560051b82010138806140dd565b8051156141605760200190565b634e487b7160e01b600052603260045260246000fd5b8051600110156141605760400190565b818110614191575050565b60008155600101614186565b90601f81116141aa575050565b6140eb91600052601f6020600020910160051c810190614186565b9190601f81116141d457505050565b6140eb926000526020600020906020601f840160051c83019310614200575b601f0160051c0190614186565b90915081906141f3565b1561421157565b60405162461bcd60e51b815260206004820152601f60248201527f416d6f756e742073686f756c642062652067726561746572207468616e2030006044820152606490fd5b9081602091031261025057516001600160a01b03811681036102505790565b90816020910312610250575180151581036102505790565b1561429457565b60405162461bcd60e51b8152602060048201526011602482015270105cdcd95d081b9bdd08185b1b1bddd959607a1b6044820152606490fd5b156142d457565b60405162461bcd60e51b81526020600482015260166024820152752ab739bab83837b93a32b21039ba30b13632b1b7b4b760511b6044820152606490fd5b60405190816000825461432481614073565b93600191808316908115614389575060011461434c575b505060209250606881520301902090565b90915060005260209081600020906000915b85831061437557505050506020918101388061433b565b80548784015286945091830191810161435e565b92505050602093915060ff19168252801515028101388061433b565b6040519081600082546143b781614073565b9360019180831690811561441c57506001146143df575b505060209250606981520301902090565b90915060005260209081600020906000915b8583106144085750505050602091810138806143ce565b8054878401528694509183019181016143f1565b92505050602093915060ff1916825280151502810138806143ce565b9190820180921161444557565b634e487b7160e01b600052601160045260246000fd5b908060209392818452848401376000828201840152601f01601f1916010190565b1561448357565b60405162461bcd60e51b815260206004820152600d60248201526c125b9d985b1a59081059d95b9d609a1b6044820152606490fd5b156144bf57565b60405162461bcd60e51b815260206004820152601460248201527313dc99195c88191bd95cc81b9bdd08195e1a5cdd60621b6044820152606490fd5b90816020910312610250575161ffff811681036102505790565b8181029291811591840414171561444557565b8115614532570490565b634e487b7160e01b600052601260045260246000fd5b9190820391821161444557565b1561455c57565b60405162461bcd60e51b815260206004820152600e60248201526d13dc99195c88115e1958dd5d195960921b6044820152606490fd5b906145ac906040939695949660608452606084019161445b565b6001600160a01b0390951660208201520152565b60001981146144455760010190565b91908110156141605760051b81013590601e19813603018212156102505701908135916001600160401b038311610250576020018236038113610250579190565b1561461757565b60405162461bcd60e51b8152602060048201526015602482015274082e4e4c2f240d8cadccee8d040dad2e6dac2e8c6d605b1b6044820152606490fd5b91908110156141605760051b0190565b356001600160a01b03811681036102505790565b1561467f57565b60405162461bcd60e51b8152602060048201526014602482015273496e76616c6964205a65726f204164647265737360601b6044820152606490fd5b6001600160a01b03918216815291166020820152604081019190915260806060820181905261404392910190613f46565b939260609361471b929397969760018060a01b038095168752602087015260806040870152608086019161445b565b9416910152565b3580151581036102505790565b1561473657565b60405162461bcd60e51b815260206004820152601e60248201527f4e6f7420616e204964656e74697479205265676973747279204167656e7400006044820152606490fd5b6001600160a01b039182168152911660208201526060604082018190526140439391019161445b565b3d156147cf573d906147b582613f9f565b916147c36040519384613f7e565b82523d6000602084013e565b606090565b6040516323b872dd60e01b602082019081526001600160a01b039384166024830152939092166044830152606482019390935260009283929091839061481d8160848101613bc9565b51925af16148296147a4565b81614896575b501561483757565b60405162461bcd60e51b815260206004820152603160248201527f5472616e7366657248656c7065723a3a7472616e7366657246726f6d3a207472604482015270185b9cd9995c919c9bdb4819985a5b1959607a1b6064820152608490fd5b80518015925082156148ab575b50503861482f565b6148be9250602080918301019101614275565b38806148a3565b6033546001600160a01b031633036148d957565b606460405162461bcd60e51b815260206004820152602060248201527f4f776e61626c653a2063616c6c6572206973206e6f7420746865206f776e65726044820152fd5b603380546001600160a01b039283166001600160a01b0319821681179092559091167f8be0079c531659141344cd1fd0a4f28419497f9722a3daafe3b4186f6b6457e0600080a356fe61fbeae9845d325c82d1b6a937ed02b5ac4b3cc96c2f2ffb53e62d8b60741d70a2646970667358221220a1f50e7404f825c09f2bd39770f1e1464ec04234c9172512e27d099877a02fbd64736f6c63430008110033","linkReferences":{}},"methodIdentifiers":{"FEE_DENOMINATOR()":"d73792a9","batchBurnTokens(address,address[],uint256[],string[])":"28f7689b","batchForceTransferTokens(address,address[],address[],uint256[],string[])":"29815a73","batchFreezePartialTokens(address,address[],uint256[],string[])":"84e1a0a7","batchMintTokens(address,address[],uint256[],string[])":"9babb0aa","batchRedemptionAndBurn(address,address[],uint256[],uint256[],uint256[],string,string[])":"d2ebf05b","batchRegisterIdentity(address[],address[],uint16[],string[],address)":"239ad8e1","batchSetAddressFrozen(address,address[],bool[],string[])":"ef71e72a","batchSettlement(string[])":"4aef05b9","batchShareDividend(address,address[],uint256[],string[],string[],address)":"8632b4bc","batchUnFreezePartialTokens(address,address[],uint256[],string[])":"16594be4","callDeleteIdentity(address,address,string)":"41e5abb0","callUpdateCountry(address,uint16,address,string)":"95aa78d5","callUpdateIdentity(address,address,address,string)":"661aeb06","cancelOrder(string)":"c2558ffd","deposit(address,uint256,uint256,string,string)":"67c2f47d","fundFactory()":"3dea9e66","getStableCoin(string)":"ab368c3e","getStableCoinName(address)":"32f96669","init(address[],address,address)":"48a25c27","investorOrders(string)":"d2d2d716","isStableCoin(address)":"55a0c971","masterFactory()":"577fbe7f","owner()":"8da5cb5b","pendingOrderAmount(string)":"6b1fe104","redemptionAndBurn(address,address,uint256,uint256,uint256,string,string)":"cf61c35d","redemptionStatus(string)":"5c10a4e8","rejectOrder(string)":"a5de0fc1","renounceOwnership()":"715018a6","rescueAnyERC20Tokens(address,address,uint128)":"1f581d50","setFundFactory(address)":"eafab5fc","setMasterFactory(address)":"8df20731","setNAV(address,uint256,string)":"8f141727","setStableCoin(string,address)":"5f524291","setValuation(address,uint256,string)":"3e6e5d1e","settlement(string)":"69e7fde3","totalPendingOrderAmount()":"0b5d527c","transferOwnership(address)":"f2fde38b"},"id":21}