{"abi":[{"type":"function","name":"FEE_DENOMINATOR","inputs":[],"outputs":[{"name":"","type":"uint16","internalType":"uint16"}],"stateMutability":"view"},{"type":"function","name":"fundFactory","inputs":[],"outputs":[{"name":"","type":"address","internalType":"address"}],"stateMutability":"view"},{"type":"function","name":"investorOrders","inputs":[{"name":"","type":"string","internalType":"string"}],"outputs":[{"name":"investor","type":"address","internalType":"address"},{"name":"asset","type":"address","internalType":"address"},{"name":"value","type":"uint256","internalType":"uint256"},{"name":"tokens","type":"uint256","internalType":"uint256"},{"name":"coin","type":"string","internalType":"string"},{"name":"status","type":"bool","internalType":"bool"}],"stateMutability":"view"},{"type":"function","name":"isStableCoin","inputs":[{"name":"","type":"address","internalType":"address"}],"outputs":[{"name":"","type":"bool","internalType":"bool"}],"stateMutability":"view"},{"type":"function","name":"masterFactory","inputs":[],"outputs":[{"name":"","type":"address","internalType":"address"}],"stateMutability":"view"},{"type":"function","name":"pendingOrderAmount","inputs":[{"name":"","type":"string","internalType":"string"}],"outputs":[{"name":"","type":"uint256","internalType":"uint256"}],"stateMutability":"view"},{"type":"function","name":"redemptionStatus","inputs":[{"name":"","type":"string","internalType":"string"}],"outputs":[{"name":"","type":"bool","internalType":"bool"}],"stateMutability":"view"},{"type":"function","name":"totalPendingOrderAmount","inputs":[],"outputs":[{"name":"","type":"uint256","internalType":"uint256"}],"stateMutability":"view"}],"bytecode":{"object":"0x6080806040523461001657610449908161001c8239f35b600080fdfe60806040818152600436101561001457600080fd5b600091823560e01c9081630b5d527c14610328575080633dea9e661461030057806355a0c971146102bc578063577fbe7f146102905780635c10a4e8146102515780636b1fe10414610217578063d2d2d7161461009f5763d73792a91461007a57600080fd5b3461009b578160031936011261009b5760209061ffff600154169051908152f35b5080fd5b509034610214576100af3661037a565b9180518084519481866100c96020988996878096016103f0565b810160078152030190209160018060a01b038084541693600191828201541692600282015490600383015492600481018251958a82549283831c938381169b8c1561020a575b85108c146101f657848a52898f019b8f9493929181156101d25750600114610195575b50505050509060ff6005869594936101516101809860e09d0388610342565b0154169581519a8b998a52890152870152606086015260c060808601525180938160c0870152868601906103f0565b151560a0830152601f01601f19168101030190f35b908094939d50528b83205b8284106101bf5750505085019098019760ff8a82610151610180610132565b80548985018e0152928c019281016101a0565b60ff19168d525050505090151560051b860101985060ff8a82610151610180610132565b634e487b7160e01b83526022600452602483fd5b94607f169461010f565b80fd5b503461009b5760209061023f8261022d3661037a565b818451938285809451938492016103f0565b81016003815203019020549051908152f35b503461009b5760209060ff61027b836102693661037a565b818551938285809451938492016103f0565b81016008815203019020541690519015158152f35b503461009b578160031936011261009b57600154905160109190911c6001600160a01b03168152602090f35b503461009b57602036600319011261009b576004356001600160a01b038116908190036102fc57818360ff92602095526006855220541690519015158152f35b8280fd5b503461009b578160031936011261009b5760025490516001600160a01b039091168152602090f35b83903461009b578160031936011261009b57602091548152f35b90601f8019910116810190811067ffffffffffffffff82111761036457604052565b634e487b7160e01b600052604160045260246000fd5b60206003198201126103eb5767ffffffffffffffff6004358181116103eb57826023820112156103eb57806004013591821161036457604051926103c8601f8401601f191660200185610342565b828452602483830101116103eb5781600092602460209301838601378301015290565b600080fd5b60005b8381106104035750506000910152565b81810151838201526020016103f356fea26469706673582212206ba4073dd985eb89fb052fce05965516b6fc0e52cfaceb491cc696c4508d2bc764736f6c63430008110033","linkReferences":{}},"methodIdentifiers":{"FEE_DENOMINATOR()":"d73792a9","fundFactory()":"3dea9e66","investorOrders(string)":"d2d2d716","isStableCoin(address)":"55a0c971","masterFactory()":"577fbe7f","pendingOrderAmount(string)":"6b1fe104","redemptionStatus(string)":"5c10a4e8","totalPendingOrderAmount()":"0b5d527c"},"id":23}