{"abi":[{"type":"function","name":"addAgent","inputs":[{"name":"_agent","type":"address","internalType":"address"}],"outputs":[],"stateMutability":"nonpayable"},{"type":"function","name":"addTA","inputs":[{"name":"_agent","type":"address","internalType":"address"}],"outputs":[],"stateMutability":"nonpayable"},{"type":"function","name":"isAgent","inputs":[{"name":"_agent","type":"address","internalType":"address"}],"outputs":[{"name":"","type":"bool","internalType":"bool"}],"stateMutability":"view"},{"type":"function","name":"isTA","inputs":[{"name":"_agent","type":"address","internalType":"address"}],"outputs":[{"name":"","type":"bool","internalType":"bool"}],"stateMutability":"view"},{"type":"function","name":"owner","inputs":[],"outputs":[{"name":"","type":"address","internalType":"address"}],"stateMutability":"view"},{"type":"function","name":"removeAgent","inputs":[{"name":"_agent","type":"address","internalType":"address"}],"outputs":[],"stateMutability":"nonpayable"},{"type":"function","name":"removeTA","inputs":[{"name":"_agent","type":"address","internalType":"address"}],"outputs":[],"stateMutability":"nonpayable"},{"type":"function","name":"renounceOwnership","inputs":[],"outputs":[],"stateMutability":"nonpayable"},{"type":"function","name":"transferOwnership","inputs":[{"name":"newOwner","type":"address","internalType":"address"}],"outputs":[],"stateMutability":"nonpayable"},{"type":"event","name":"AgentAdded","inputs":[{"name":"_agent","type":"address","indexed":true,"internalType":"address"}],"anonymous":false},{"type":"event","name":"AgentRemoved","inputs":[{"name":"_agent","type":"address","indexed":true,"internalType":"address"}],"anonymous":false},{"type":"event","name":"Initialized","inputs":[{"name":"version","type":"uint8","indexed":false,"internalType":"uint8"}],"anonymous":false},{"type":"event","name":"OwnershipTransferred","inputs":[{"name":"previousOwner","type":"address","indexed":true,"internalType":"address"},{"name":"newOwner","type":"address","indexed":true,"internalType":"address"}],"anonymous":false},{"type":"event","name":"taAdded","inputs":[{"name":"_agent","type":"address","indexed":true,"internalType":"address"}],"anonymous":false},{"type":"event","name":"taRemoved","inputs":[{"name":"_agent","type":"address","indexed":true,"internalType":"address"}],"anonymous":false}],"bytecode":{"object":"0x60808060405234610016576106ff908161001c8239f35b600080fdfe608060408181526004908136101561001657600080fd5b600092833560e01c9081631ffbb064146104fa575080634788598c1461048857806358b5b5c114610404578063715018a6146103a457806384e79842146102ee5780638da5cb5b146102c557806397a6278e146101f7578063ab190ae71461015c5763f2fde38b1461008757600080fd5b34610158576020366003190112610158576001600160a01b03823581811693919290849003610154576100b8610671565b8315610102575050603354826bffffffffffffffffffffffff60a01b821617603355167f8be0079c531659141344cd1fd0a4f28419497f9722a3daafe3b4186f6b6457e08380a380f35b906020608492519162461bcd60e51b8352820152602660248201527f4f776e61626c653a206e6577206f776e657220697320746865207a65726f206160448201526564647265737360d01b6064820152fd5b8480fd5b8280fd5b509190346101f35760203660031901126101f35780356001600160a01b03811691908290036101585781156101a55760208460ff81868681526066855220541690519015158152f35b608490602085519162461bcd60e51b8352820152602260248201527f526f6c65733a206163636f756e7420697320746865207a65726f206164647265604482015261737360f01b6064820152fd5b5080fd5b50346101585760203660031901126101585781356001600160a01b03811692908381036101545761023a9061022a610671565b61023585151561058f565b61064e565b15610279575081835260656020528220805460ff191690557fed9c8ad8d5a0a66898ea49d2956929c93ae2e8bd50281b2ed897c5d1a6737e0b8280a280f35b6020608492519162461bcd60e51b8352820152602160248201527f526f6c65733a206163636f756e7420646f6573206e6f74206861766520726f6c6044820152606560f81b6064820152fd5b8382346101f357816003193601126101f35760335490516001600160a01b039091168152602090f35b50346101585760203660031901126101585781356001600160a01b0381169290838103610154576103219061022a610671565b610362575081835260656020528220805460ff191660011790557ff68e73cec97f2d70aa641fb26e87a4383686e2efacb648f2165aeb02ac562ec58280a280f35b6020606492519162461bcd60e51b8352820152601f60248201527f526f6c65733a206163636f756e7420616c72656164792068617320726f6c65006044820152fd5b83346104015780600319360112610401576103bd610671565b603380546001600160a01b0319811690915581906001600160a01b03167f8be0079c531659141344cd1fd0a4f28419497f9722a3daafe3b4186f6b6457e08280a380f35b80fd5b50346101585760203660031901126101585781356001600160a01b03811692908381036101545761044790610437610671565b61044285151561058f565b6105db565b610362575081835260666020528220805460ff191660011790557f4f89f64d04cc833c53d6284af6b75785fd83d2e9737936a817421f3fa4fa777e8280a280f35b50346101585760203660031901126101585781356001600160a01b0381169290838103610154576104bb90610437610671565b15610279575081835260666020528220805460ff191690557f82f1efed5d891d7ba766c32612c2a36d22f2feddccbdaf31c6fb2ea7c52b287c8280a280f35b849150346101f35760203660031901126101f35783356001600160a01b03811691908290036101585781156105435760208460ff81868681526065855220541690519015158152f35b62461bcd60e51b8152602085820152602260248201527f526f6c65733a206163636f756e7420697320746865207a65726f206164647265604482015261737360f01b6064820152608490fd5b1561059657565b60405162461bcd60e51b815260206004820152601f60248201527f696e76616c696420617267756d656e74202d207a65726f2061646472657373006044820152606490fd5b6001600160a01b031680156105fe57600052606660205260ff6040600020541690565b60405162461bcd60e51b815260206004820152602260248201527f526f6c65733a206163636f756e7420697320746865207a65726f206164647265604482015261737360f01b6064820152608490fd5b6001600160a01b031680156105fe57600052606560205260ff6040600020541690565b6033546001600160a01b0316330361068557565b606460405162461bcd60e51b815260206004820152602060248201527f4f776e61626c653a2063616c6c6572206973206e6f7420746865206f776e65726044820152fdfea2646970667358221220dfcf68373c7f625faf888930f47facf783a515bfd5654d9354e2b30d081e779e64736f6c63430008110033","linkReferences":{}},"methodIdentifiers":{"addAgent(address)":"84e79842","addTA(address)":"58b5b5c1","isAgent(address)":"1ffbb064","isTA(address)":"ab190ae7","owner()":"8da5cb5b","removeAgent(address)":"97a6278e","removeTA(address)":"4788598c","renounceOwnership()":"715018a6","transferOwnership(address)":"f2fde38b"},"id":83}