{"abi":[{"type":"constructor","inputs":[],"stateMutability":"nonpayable"},{"type":"function","name":"bindCompliance","inputs":[{"name":"_compliance","type":"address","internalType":"address"}],"outputs":[],"stateMutability":"nonpayable"},{"type":"function","name":"canComplianceBind","inputs":[{"name":"","type":"address","internalType":"address"}],"outputs":[{"name":"","type":"bool","internalType":"bool"}],"stateMutability":"view"},{"type":"function","name":"getHoldTime","inputs":[{"name":"_compliance","type":"address","internalType":"address"}],"outputs":[{"name":"","type":"uint256","internalType":"uint256"}],"stateMutability":"view"},{"type":"function","name":"holdTime","inputs":[{"name":"","type":"address","internalType":"address"}],"outputs":[{"name":"","type":"uint256","internalType":"uint256"}],"stateMutability":"view"},{"type":"function","name":"initialize","inputs":[],"outputs":[],"stateMutability":"nonpayable"},{"type":"function","name":"isComplianceBound","inputs":[{"name":"_compliance","type":"address","internalType":"address"}],"outputs":[{"name":"","type":"bool","internalType":"bool"}],"stateMutability":"view"},{"type":"function","name":"isHoldTimeSet","inputs":[{"name":"","type":"address","internalType":"address"}],"outputs":[{"name":"","type":"bool","internalType":"bool"}],"stateMutability":"view"},{"type":"function","name":"isHoldtimeSet","inputs":[{"name":"_compilance","type":"address","internalType":"address"}],"outputs":[{"name":"","type":"bool","internalType":"bool"}],"stateMutability":"view"},{"type":"function","name":"isPlugAndPlay","inputs":[],"outputs":[{"name":"","type":"bool","internalType":"bool"}],"stateMutability":"pure"},{"type":"function","name":"moduleBurnAction","inputs":[{"name":"_from","type":"address","internalType":"address"},{"name":"_value","type":"uint256","internalType":"uint256"}],"outputs":[],"stateMutability":"nonpayable"},{"type":"function","name":"moduleCheck","inputs":[{"name":"_from","type":"address","internalType":"address"},{"name":"","type":"address","internalType":"address"},{"name":"","type":"uint256","internalType":"uint256"},{"name":"_compliance","type":"address","internalType":"address"}],"outputs":[{"name":"","type":"bool","internalType":"bool"}],"stateMutability":"view"},{"type":"function","name":"moduleMintAction","inputs":[{"name":"_to","type":"address","internalType":"address"},{"name":"_value","type":"uint256","internalType":"uint256"}],"outputs":[],"stateMutability":"nonpayable"},{"type":"function","name":"moduleTransferAction","inputs":[{"name":"_from","type":"address","internalType":"address"},{"name":"","type":"address","internalType":"address"},{"name":"_value","type":"uint256","internalType":"uint256"}],"outputs":[],"stateMutability":"nonpayable"},{"type":"function","name":"name","inputs":[],"outputs":[{"name":"_name","type":"string","internalType":"string"}],"stateMutability":"pure"},{"type":"function","name":"owner","inputs":[],"outputs":[{"name":"","type":"address","internalType":"address"}],"stateMutability":"view"},{"type":"function","name":"proxiableUUID","inputs":[],"outputs":[{"name":"","type":"bytes32","internalType":"bytes32"}],"stateMutability":"view"},{"type":"function","name":"renounceOwnership","inputs":[],"outputs":[],"stateMutability":"nonpayable"},{"type":"function","name":"setHoldTime","inputs":[{"name":"holdTime_","type":"uint256","internalType":"uint256"}],"outputs":[],"stateMutability":"nonpayable"},{"type":"function","name":"transferOwnership","inputs":[{"name":"newOwner","type":"address","internalType":"address"}],"outputs":[],"stateMutability":"nonpayable"},{"type":"function","name":"unbindCompliance","inputs":[{"name":"_compliance","type":"address","internalType":"address"}],"outputs":[],"stateMutability":"nonpayable"},{"type":"function","name":"upgradeTo","inputs":[{"name":"newImplementation","type":"address","internalType":"address"}],"outputs":[],"stateMutability":"nonpayable"},{"type":"function","name":"upgradeToAndCall","inputs":[{"name":"newImplementation","type":"address","internalType":"address"},{"name":"data","type":"bytes","internalType":"bytes"}],"outputs":[],"stateMutability":"payable"},{"type":"event","name":"AdminChanged","inputs":[{"name":"previousAdmin","type":"address","indexed":false,"internalType":"address"},{"name":"newAdmin","type":"address","indexed":false,"internalType":"address"}],"anonymous":false},{"type":"event","name":"BeaconUpgraded","inputs":[{"name":"beacon","type":"address","indexed":true,"internalType":"address"}],"anonymous":false},{"type":"event","name":"ComplianceBound","inputs":[{"name":"_compliance","type":"address","indexed":true,"internalType":"address"}],"anonymous":false},{"type":"event","name":"ComplianceUnbound","inputs":[{"name":"_compliance","type":"address","indexed":true,"internalType":"address"}],"anonymous":false},{"type":"event","name":"HoldTimeUpdated","inputs":[{"name":"compliance","type":"address","indexed":true,"internalType":"address"},{"name":"holdTimeValue","type":"uint256","indexed":false,"internalType":"uint256"}],"anonymous":false},{"type":"event","name":"Initialized","inputs":[{"name":"version","type":"uint8","indexed":false,"internalType":"uint8"}],"anonymous":false},{"type":"event","name":"OwnershipTransferred","inputs":[{"name":"previousOwner","type":"address","indexed":true,"internalType":"address"},{"name":"newOwner","type":"address","indexed":true,"internalType":"address"}],"anonymous":false},{"type":"event","name":"Upgraded","inputs":[{"name":"implementation","type":"address","indexed":true,"internalType":"address"}],"anonymous":false}],"bytecode":{"object":"0x60a080604052346100dc57306080526000549060ff8260081c1661008a575060ff8082161061004f575b60405161155990816100e282396080518181816105af015281816106d50152610b0f0152f35b60ff90811916176000557f7f26b83ff96e1f2b6a682f133852f6798a09c465da95921460cefb3847402498602060405160ff8152a138610029565b62461bcd60e51b815260206004820152602760248201527f496e697469616c697a61626c653a20636f6e747261637420697320696e697469604482015266616c697a696e6760c81b6064820152608490fd5b600080fdfe60406080815260048036101561001457600080fd5b600091823560e01c8063013b7ce414610eec5780630694a5fb14610e5357806306fdde0314610de25780632cb7e1ec14610dbf5780632e2d9899146103875780633659cfe614610ae8578063372491a2146102e55780634a93254414610a0e5780634cf4d295146109c35780634f1ef2861461065c5780634fd6a94a1461034f57806352d1902d1461059a578063715018a61461053d5780638129fc1c146103ee5780638da5cb5b146103c5578063979bfe7714610387578063bc0c76db1461034f578063bcc2105314610329578063e6f5e8071461030e578063f104a8c9146102e5578063f2fde38b146102535763f94553011461011257600080fd5b3461024f576020908160031936011261024b57823592338552600080516020611504833981519152835261014b60ff83872054166110c6565b428411156101f25733855260ca835260ff82862054166101b15750907f404e33b78ba3764d8b4962ffffbb09f87b7d48f19cb28fbf3a39a17764c4f1e79133855260c98252838186205560ca8252808520600160ff19825416179055519283523392a280f35b82606492519162461bcd60e51b8352820152601e60248201527f5265736574206f6620486f6c642054696d65206e6f7420616c6c6f77656400006044820152fd5b82608492519162461bcd60e51b8352820152602f60248201527f486f6c642054696d652063616e6e6f74206265206c657373207468616e20637560448201526e07272656e742074696d657374616d7608c1b6064820152fd5b8380fd5b8280fd5b50903461024f57602036600319011261024f5761026e610f3a565b916102776112b4565b6001600160a01b0383161561029357836102908461130c565b80f35b906020608492519162461bcd60e51b8352820152602660248201527f4f776e61626c653a206e6577206f776e657220697320746865207a65726f206160448201526564647265737360d01b6064820152fd5b83823461030a57366003190112610307576102fe610f3a565b50610290611172565b80fd5b5080fd5b83823461030a578160031936011261030a5751908152602090f35b83823461030a57602036600319011261030a57602090610347610f3a565b505160018152f35b83823461030a57602036600319011261030a5760209181906001600160a01b03610377610f3a565b16815260c9845220549051908152f35b83823461030a57602036600319011261030a5760209160ff9082906001600160a01b036103b2610f3a565b16815260ca855220541690519015158152f35b83823461030a578160031936011261030a5760335490516001600160a01b039091168152602090f35b50903461024f578260031936011261024f57825460ff8160081c161591828093610530575b8015610519575b156104bf575060ff1981166001178455816104ae575b5061045360ff845460081c1661044581611112565b61044e81611112565b611112565b61045c3361130c565b82549061046e60ff8360081c16611112565b610476578280f35b61ff001916825551600181527f7f26b83ff96e1f2b6a682f133852f6798a09c465da95921460cefb384740249890602090a138808280f35b61ffff191661010117835538610430565b608490602085519162461bcd60e51b8352820152602e60248201527f496e697469616c697a61626c653a20636f6e747261637420697320616c72656160448201526d191e481a5b9a5d1a585b1a5e995960921b6064820152fd5b50303b15801561041a5750600160ff83161461041a565b50600160ff831610610413565b83346103075780600319360112610307576105566112b4565b603380546001600160a01b0319811690915581906001600160a01b03167f8be0079c531659141344cd1fd0a4f28419497f9722a3daafe3b4186f6b6457e08280a380f35b509134610307578060031936011261030757507f00000000000000000000000000000000000000000000000000000000000000006001600160a01b031630036105f457602082516000805160206114e48339815191528152f35b6020608492519162461bcd60e51b8352820152603860248201527f555550535570677261646561626c653a206d757374206e6f742062652063616c60448201527f6c6564207468726f7567682064656c656761746563616c6c00000000000000006064820152fd5b508060031936011261024f57610670610f3a565b9160249182359067ffffffffffffffff82116109bf57366023830112156109bf578183013561069e81611008565b6106aa83519182610fe6565b81815287602094858301933689828401011161024f5780898893018637830101526001600160a01b037f000000000000000000000000000000000000000000000000000000000000000081169061070330831415611355565b6107206000805160206114e48339815191529282845416146113b6565b6107286112b4565b7f4910fdfa16fed3260ed0e7147f7cc6da11a60208b5b9406d12a635614ffd91435460ff161561076357505050505050505061029090611417565b88959799949698169086516352d1902d60e01b815288818b81865afa86918161098c575b506107e557875162461bcd60e51b8152808b018a9052602e818d01527f45524331393637557067726164653a206e657720696d706c656d656e7461746960448201526d6f6e206973206e6f74205555505360901b6064820152608490fd5b99929498919395990361093a576107fb89611417565b8551927fbc7cd75a20ee27fd9adebab32041f755214dbc6bffa90cc0225b39da2e5c2d3b8980a2835115801590610932575b61083e575b50505050505050905080f35b883b156108e45750505093809581926108c39651915af43d156108d157660819985a5b195960ca1b3d9261087184611008565b9361087e82519586610fe6565b84523d878686013e5b7f416464726573733a206c6f772d6c6576656c2064656c65676174652063616c6c8151956108b487610fb4565b602787528601528401526114a7565b508038808080808080610832565b660819985a5b195960ca1b606092610887565b62461bcd60e51b835282018690526026908201527f416464726573733a2064656c65676174652063616c6c20746f206e6f6e2d636f6044820152651b9d1c9858dd60d21b6064820152608490fd5b50600161082d565b60296084928888519362461bcd60e51b85528401528201527f45524331393637557067726164653a20756e737570706f727465642070726f786044820152681a58589b195555525160ba1b6064820152fd5b9091508981813d83116109b8575b6109a48183610fe6565b810103126109b457519038610787565b8680fd5b503d61099a565b8580fd5b83823461030a57602036600319011261030a5760209160ff9082906001600160a01b036109ee610f3a565b168152600080516020611504833981519152855220541690519015158152f35b503461024f57602036600319011261024f576001600160a01b03610a30610f3a565b1691610a3d831515611024565b828452600080516020611504833981519152908160205260ff8386205416610aa55750610a6b833314611070565b8284526020528220805460ff191660011790557f1f7b76c58fb697eb53c6c7c1becb96911516a136e24d7ced386b2355358b75a38280a280f35b606490602084519162461bcd60e51b8352820152601860248201527f636f6d706c69616e636520616c726561647920626f756e6400000000000000006044820152fd5b50903461024f5760208060031936011261024b57610b04610f3a565b926001600160a01b037f00000000000000000000000000000000000000000000000000000000000000008116610b3c30821415611355565b610b596000805160206114e48339815191529183835416146113b6565b610b616112b4565b8251908482019282841067ffffffffffffffff851117610dac578385528883527f4910fdfa16fed3260ed0e7147f7cc6da11a60208b5b9406d12a635614ffd91435460ff1615610bbb575050505050505061029090611417565b879894959697169085516352d1902d60e01b815287818a81865afa869181610d7d575b50610c3d57865162461bcd60e51b8152808a01899052602e60248201527f45524331393637557067726164653a206e657720696d706c656d656e7461746960448201526d6f6e206973206e6f74205555505360901b6064820152608490fd5b97919293949703610d2857610c5188611417565b8451917fbc7cd75a20ee27fd9adebab32041f755214dbc6bffa90cc0225b39da2e5c2d3b8880a2825115801590610d21575b610c93575b505050505050905080f35b873b15610cd25750509380958192610cc59651915af43d156108d157660819985a5b195960ca1b3d9261087184611008565b5080388080808080610c88565b62461bcd60e51b82528101859052602660248201527f416464726573733a2064656c65676174652063616c6c20746f206e6f6e2d636f6044820152651b9d1c9858dd60d21b6064820152608490fd5b5086610c83565b845162461bcd60e51b8152908101869052602960248201527f45524331393637557067726164653a20756e737570706f727465642070726f786044820152681a58589b195555525160ba1b6064820152608490fd5b9091508881813d8311610da5575b610d958183610fe6565b810103126109b457519038610bde565b503d610d8b565b634e487b7160e01b895260418752602489fd5b833461030757606036600319011261030757610dd9610f3a565b506102fe610f55565b5082903461030a578160031936011261030a578051918183019083821067ffffffffffffffff831117610e405750610e3c93508152600e82526d486f6c6454696d654d6f64756c6560901b60208301525191829182610f6b565b0390f35b634e487b7160e01b815260418552602490fd5b83823461030a57602036600319011261030a57610e6e610f3a565b903383526000805160206115048339815191529182602052610e9560ff83862054166110c6565b6001600160a01b031691610eaa831515611024565b610eb5833314611070565b8284526020528220805460ff191690557f408b49d9be1c914c52a0227e18a077e5a892dddf32a26cfa94a5d9708fad77188280a280f35b83823461030a57608036600319011261030a57610f07610f3a565b610f0f610f55565b50606435926001600160a01b03841684036103075750602092610f319161119b565b90519015158152f35b600435906001600160a01b0382168203610f5057565b600080fd5b602435906001600160a01b0382168203610f5057565b6020808252825181830181905290939260005b828110610fa057505060409293506000838284010152601f8019910116010190565b818101860151848201604001528501610f7e565b6060810190811067ffffffffffffffff821117610fd057604052565b634e487b7160e01b600052604160045260246000fd5b90601f8019910116810190811067ffffffffffffffff821117610fd057604052565b67ffffffffffffffff8111610fd057601f01601f191660200190565b1561102b57565b60405162461bcd60e51b815260206004820152601f60248201527f696e76616c696420617267756d656e74202d207a65726f2061646472657373006044820152606490fd5b1561107757565b60405162461bcd60e51b815260206004820152602160248201527f6f6e6c7920636f6d706c69616e636520636f6e74726163742063616e2063616c6044820152601b60fa1b6064820152608490fd5b156110cd57565b60405162461bcd60e51b815260206004820152601e60248201527f6f6e6c7920626f756e6420636f6d706c69616e63652063616e2063616c6c00006044820152606490fd5b1561111957565b60405162461bcd60e51b815260206004820152602b60248201527f496e697469616c697a61626c653a20636f6e7472616374206973206e6f74206960448201526a6e697469616c697a696e6760a81b6064820152608490fd5b3360005260008051602061150483398151915260205261119960ff604060002054166110c6565b565b6001600160a01b039190821690816111b557505050600190565b821691604051630d47dbe560e31b81526020928382600481885afa90811561126e57849260009261127a575b5060249060405194859384926307feec1960e21b84526004840152165afa90811561126e57600091611238575b501561121b575050600190565b60c99160005252604060002054421061123357600190565b600090565b8281813d8311611267575b61124d8183610fe6565b8101031261030a575190811515820361030757503861120e565b503d611243565b6040513d6000823e3d90fd5b909281813d83116112ad575b6112908183610fe6565b8101031261030a57519083821682036103075750839160246111e1565b503d611286565b6033546001600160a01b031633036112c857565b606460405162461bcd60e51b815260206004820152602060248201527f4f776e61626c653a2063616c6c6572206973206e6f7420746865206f776e65726044820152fd5b603380546001600160a01b039283166001600160a01b0319821681179092559091167f8be0079c531659141344cd1fd0a4f28419497f9722a3daafe3b4186f6b6457e0600080a3565b1561135c57565b60405162461bcd60e51b815260206004820152602c60248201527f46756e6374696f6e206d7573742062652063616c6c6564207468726f7567682060448201526b19195b1959d85d1958d85b1b60a21b6064820152608490fd5b156113bd57565b60405162461bcd60e51b815260206004820152602c60248201527f46756e6374696f6e206d7573742062652063616c6c6564207468726f7567682060448201526b6163746976652070726f787960a01b6064820152608490fd5b803b1561144c576000805160206114e483398151915280546001600160a01b0319166001600160a01b03909216919091179055565b60405162461bcd60e51b815260206004820152602d60248201527f455243313936373a206e657720696d706c656d656e746174696f6e206973206e60448201526c1bdd08184818dbdb9d1c9858dd609a1b6064820152608490fd5b909190156114b3575090565b8151156114c35750805190602001fd5b60405162461bcd60e51b81529081906114df9060048301610f6b565b0390fdfe360894a13ba1a3210667c828492db98dca3e2076cc3735a920a3ca505d382bbcf6cc97de1266c180cd39f3b311632644143ce7873d2927755382ad4b39e8ae00a2646970667358221220ec45cd7ed320e8f6e36687bb77ff35b75be72bec6023c74d610cd7da337becf664736f6c63430008110033","linkReferences":{}},"methodIdentifiers":{"bindCompliance(address)":"4a932544","canComplianceBind(address)":"bcc21053","getHoldTime(address)":"4fd6a94a","holdTime(address)":"bc0c76db","initialize()":"8129fc1c","isComplianceBound(address)":"4cf4d295","isHoldTimeSet(address)":"979bfe77","isHoldtimeSet(address)":"2e2d9899","isPlugAndPlay()":"e6f5e807","moduleBurnAction(address,uint256)":"372491a2","moduleCheck(address,address,uint256,address)":"013b7ce4","moduleMintAction(address,uint256)":"f104a8c9","moduleTransferAction(address,address,uint256)":"2cb7e1ec","name()":"06fdde03","owner()":"8da5cb5b","proxiableUUID()":"52d1902d","renounceOwnership()":"715018a6","setHoldTime(uint256)":"f9455301","transferOwnership(address)":"f2fde38b","unbindCompliance(address)":"0694a5fb","upgradeTo(address)":"3659cfe6","upgradeToAndCall(address,bytes)":"4f1ef286"},"id":16}