{"abi":[{"type":"constructor","inputs":[],"stateMutability":"nonpayable"},{"type":"function","name":"addAllowedCountry","inputs":[{"name":"_country","type":"uint16","internalType":"uint16"}],"outputs":[],"stateMutability":"nonpayable"},{"type":"function","name":"batchAllowCountries","inputs":[{"name":"_countries","type":"uint16[]","internalType":"uint16[]"}],"outputs":[],"stateMutability":"nonpayable"},{"type":"function","name":"batchDisallowCountries","inputs":[{"name":"_countries","type":"uint16[]","internalType":"uint16[]"}],"outputs":[],"stateMutability":"nonpayable"},{"type":"function","name":"bindCompliance","inputs":[{"name":"_compliance","type":"address","internalType":"address"}],"outputs":[],"stateMutability":"nonpayable"},{"type":"function","name":"canComplianceBind","inputs":[{"name":"","type":"address","internalType":"address"}],"outputs":[{"name":"","type":"bool","internalType":"bool"}],"stateMutability":"view"},{"type":"function","name":"initialize","inputs":[],"outputs":[],"stateMutability":"nonpayable"},{"type":"function","name":"isComplianceBound","inputs":[{"name":"_compliance","type":"address","internalType":"address"}],"outputs":[{"name":"","type":"bool","internalType":"bool"}],"stateMutability":"view"},{"type":"function","name":"isCountryAllowed","inputs":[{"name":"_compliance","type":"address","internalType":"address"},{"name":"_country","type":"uint16","internalType":"uint16"}],"outputs":[{"name":"","type":"bool","internalType":"bool"}],"stateMutability":"view"},{"type":"function","name":"isPlugAndPlay","inputs":[],"outputs":[{"name":"","type":"bool","internalType":"bool"}],"stateMutability":"pure"},{"type":"function","name":"moduleBurnAction","inputs":[{"name":"_from","type":"address","internalType":"address"},{"name":"_value","type":"uint256","internalType":"uint256"}],"outputs":[],"stateMutability":"nonpayable"},{"type":"function","name":"moduleCheck","inputs":[{"name":"","type":"address","internalType":"address"},{"name":"_to","type":"address","internalType":"address"},{"name":"","type":"uint256","internalType":"uint256"},{"name":"_compliance","type":"address","internalType":"address"}],"outputs":[{"name":"","type":"bool","internalType":"bool"}],"stateMutability":"view"},{"type":"function","name":"moduleMintAction","inputs":[{"name":"_to","type":"address","internalType":"address"},{"name":"_value","type":"uint256","internalType":"uint256"}],"outputs":[],"stateMutability":"nonpayable"},{"type":"function","name":"moduleTransferAction","inputs":[{"name":"_from","type":"address","internalType":"address"},{"name":"_to","type":"address","internalType":"address"},{"name":"_value","type":"uint256","internalType":"uint256"}],"outputs":[],"stateMutability":"nonpayable"},{"type":"function","name":"name","inputs":[],"outputs":[{"name":"_name","type":"string","internalType":"string"}],"stateMutability":"pure"},{"type":"function","name":"owner","inputs":[],"outputs":[{"name":"","type":"address","internalType":"address"}],"stateMutability":"view"},{"type":"function","name":"proxiableUUID","inputs":[],"outputs":[{"name":"","type":"bytes32","internalType":"bytes32"}],"stateMutability":"view"},{"type":"function","name":"removeAllowedCountry","inputs":[{"name":"_country","type":"uint16","internalType":"uint16"}],"outputs":[],"stateMutability":"nonpayable"},{"type":"function","name":"renounceOwnership","inputs":[],"outputs":[],"stateMutability":"nonpayable"},{"type":"function","name":"transferOwnership","inputs":[{"name":"newOwner","type":"address","internalType":"address"}],"outputs":[],"stateMutability":"nonpayable"},{"type":"function","name":"unbindCompliance","inputs":[{"name":"_compliance","type":"address","internalType":"address"}],"outputs":[],"stateMutability":"nonpayable"},{"type":"function","name":"upgradeTo","inputs":[{"name":"newImplementation","type":"address","internalType":"address"}],"outputs":[],"stateMutability":"nonpayable"},{"type":"function","name":"upgradeToAndCall","inputs":[{"name":"newImplementation","type":"address","internalType":"address"},{"name":"data","type":"bytes","internalType":"bytes"}],"outputs":[],"stateMutability":"payable"},{"type":"event","name":"AdminChanged","inputs":[{"name":"previousAdmin","type":"address","indexed":false,"internalType":"address"},{"name":"newAdmin","type":"address","indexed":false,"internalType":"address"}],"anonymous":false},{"type":"event","name":"BeaconUpgraded","inputs":[{"name":"beacon","type":"address","indexed":true,"internalType":"address"}],"anonymous":false},{"type":"event","name":"ComplianceBound","inputs":[{"name":"_compliance","type":"address","indexed":true,"internalType":"address"}],"anonymous":false},{"type":"event","name":"ComplianceUnbound","inputs":[{"name":"_compliance","type":"address","indexed":true,"internalType":"address"}],"anonymous":false},{"type":"event","name":"CountryAllowed","inputs":[{"name":"_compliance","type":"address","indexed":false,"internalType":"address"},{"name":"_country","type":"uint16","indexed":false,"internalType":"uint16"}],"anonymous":false},{"type":"event","name":"CountryUnallowed","inputs":[{"name":"_compliance","type":"address","indexed":false,"internalType":"address"},{"name":"_country","type":"uint16","indexed":false,"internalType":"uint16"}],"anonymous":false},{"type":"event","name":"Initialized","inputs":[{"name":"version","type":"uint8","indexed":false,"internalType":"uint8"}],"anonymous":false},{"type":"event","name":"OwnershipTransferred","inputs":[{"name":"previousOwner","type":"address","indexed":true,"internalType":"address"},{"name":"newOwner","type":"address","indexed":true,"internalType":"address"}],"anonymous":false},{"type":"event","name":"Upgraded","inputs":[{"name":"implementation","type":"address","indexed":true,"internalType":"address"}],"anonymous":false},{"type":"error","name":"CountryAlreadyAllowed","inputs":[{"name":"_compliance","type":"address","internalType":"address"},{"name":"_country","type":"uint16","internalType":"uint16"}]},{"type":"error","name":"CountryNotAllowed","inputs":[{"name":"_compliance","type":"address","internalType":"address"},{"name":"_country","type":"uint16","internalType":"uint16"}]}],"bytecode":{"object":"0x60a080604052346100dc57306080526000549060ff8260081c1661008a575060ff8082161061004f575b60405161185390816100e2823960805181818161066c0152818161087d0152610cb70152f35b60ff90811916176000557f7f26b83ff96e1f2b6a682f133852f6798a09c465da95921460cefb3847402498602060405160ff8152a138610029565b62461bcd60e51b815260206004820152602760248201527f496e697469616c697a61626c653a20636f6e747261637420697320696e697469604482015266616c697a696e6760c81b6064820152608490fd5b600080fdfe6080604081815260048036101561001557600080fd5b600092833560e01c908163013b7ce4146110ef575080630694a5fb1461105657806306fdde0314610fe15780630f4f090414610f8a5780632cb7e1ec14610f675780633659cfe614610c91578063372491a2146101a95780634a93254414610bb65780634cf4d29514610b6b5780634f1ef286146108035780634f44425e1461071957806352d1902d14610657578063715018a6146105fa578063771c52811461054b5780638129fc1c146103fd578063817544c3146103105780638da5cb5b146102e7578063bcc21053146102c1578063c08e1502146101ee578063e6f5e807146101d2578063f104a8c9146101a95763f2fde38b1461011557600080fd5b346101a55760203660031901126101a55761012e611299565b916101376115b2565b6001600160a01b0383161561015357836101508461160a565b80f35b906020608492519162461bcd60e51b8352820152602660248201527f4f776e61626c653a206e6577206f776e657220697320746865207a65726f206160448201526564647265737360d01b6064820152fd5b8280fd5b5050346101ce573660031901126101cb576101c2611299565b50610150611589565b80fd5b5080fd5b5050346101ce57816003193601126101ce576020905160018152f35b5050346101ce576101fe36611394565b9190913384526020926000805160206117fe833981519152845261022760ff8487205416611483565b845b828110610234578580f35b6102bc9033875260c9865284872061ffff610258610253848888611554565b61157a565b1688528652848720805460ff191690557f35c7374bcb82f2355cb703c8ab6162f87fe83b99618bdb78c6d19b07ddf060a26102b461029a610253848888611554565b875133815261ffff90911660208201529081906040820190565b0390a161152f565b610229565b5050346101ce5760203660031901126101ce576020906102df611299565b505160018152f35b5050346101ce57816003193601126101ce5760335490516001600160a01b039091168152602090f35b5090346101a557602091826003193601126103f95761032d611313565b923385526000805160206117fe833981519152815261035160ff8487205416611483565b33855260c981528285209161ffff851692838752825260ff8487205416156103ce57503380865260c98252838620928652919052818420805460ff19169055905190815261ffff90911660208201527f35c7374bcb82f2355cb703c8ab6162f87fe83b99618bdb78c6d19b07ddf060a29080604081015b0390a180f35b835163236a687560e11b81523391810191825261ffff861660208301529081906040010390fd5b0390fd5b8380fd5b50346101a557826003193601126101a557825460ff8160081c16159182809361053e575b8015610527575b156104cd575060ff1981166001178455816104bc575b5061046160ff845460081c16610453816114cf565b61045c816114cf565b6114cf565b61046a3361160a565b82549061047c60ff8360081c166114cf565b610484578280f35b61ff001916825551600181527f7f26b83ff96e1f2b6a682f133852f6798a09c465da95921460cefb384740249890602090a138808280f35b61ffff19166101011783553861043e565b608490602085519162461bcd60e51b8352820152602e60248201527f496e697469616c697a61626c653a20636f6e747261637420697320616c72656160448201526d191e481a5b9a5d1a585b1a5e995960921b6064820152fd5b50303b1580156104285750600160ff831614610428565b50600160ff831610610421565b5050346101ce5761055b36611394565b9190913384526020926000805160206117fe833981519152845261058460ff8487205416611483565b845b828110610591578580f35b6105f59033875260c9865284872061ffff6105b0610253848888611554565b1688528652848720805460ff191660011790557f48c279381632bf87fca2680865a7384b6eb20716fd96b882b305a2198930a0746102b461029a610253848888611554565b610586565b83346101cb57806003193601126101cb576106136115b2565b603380546001600160a01b0319811690915581906001600160a01b03167f8be0079c531659141344cd1fd0a4f28419497f9722a3daafe3b4186f6b6457e08280a380f35b5082346101cb57806003193601126101cb57507f00000000000000000000000000000000000000000000000000000000000000006001600160a01b031630036106b157602082516000805160206117de8339815191528152f35b6020608492519162461bcd60e51b8352820152603860248201527f555550535570677261646561626c653a206d757374206e6f742062652063616c60448201527f6c6564207468726f7567682064656c656761746563616c6c00000000000000006064820152fd5b5090346101a557602091826003193601126103f957610736611313565b923385526000805160206117fe833981519152815261075a60ff8487205416611483565b33855260c981528285209161ffff8516928387528252600160ff85882054161515146107dc57503380865260c98252838620928652919052818420805460ff19166001179055905190815261ffff90911660208201527f48c279381632bf87fca2680865a7384b6eb20716fd96b882b305a2198930a0749080604081016103c8565b835163af6d613560e01b81523391810191825261ffff861660208301529081906040010390fd5b5090806003193601126101a557610818611299565b9160249182359067ffffffffffffffff8211610b675736602383011215610b67578183013561084681611378565b61085283519182611356565b8181528760209485830193368982840101116101a55780898893018637830101526001600160a01b037f00000000000000000000000000000000000000000000000000000000000000008116906108ab30831415611653565b6108c86000805160206117de8339815191529282845416146116b4565b6108d06115b2565b7f4910fdfa16fed3260ed0e7147f7cc6da11a60208b5b9406d12a635614ffd91435460ff161561090b57505050505050505061015090611715565b88959799949698169086516352d1902d60e01b815288818b81865afa869181610b34575b5061098d57875162461bcd60e51b8152808b018a9052602e818d01527f45524331393637557067726164653a206e657720696d706c656d656e7461746960448201526d6f6e206973206e6f74205555505360901b6064820152608490fd5b999294989193959903610ae2576109a389611715565b8551927fbc7cd75a20ee27fd9adebab32041f755214dbc6bffa90cc0225b39da2e5c2d3b8980a2835115801590610ada575b6109e6575b50505050505050905080f35b883b15610a8c575050509380958192610a6b9651915af43d15610a7957660819985a5b195960ca1b3d92610a1984611378565b93610a2682519586611356565b84523d878686013e5b7f416464726573733a206c6f772d6c6576656c2064656c65676174652063616c6c815195610a5c87611324565b602787528601528401526117a5565b5080388080808080806109da565b660819985a5b195960ca1b606092610a2f565b62461bcd60e51b835282018690526026908201527f416464726573733a2064656c65676174652063616c6c20746f206e6f6e2d636f6044820152651b9d1c9858dd60d21b6064820152608490fd5b5060016109d5565b60296084928888519362461bcd60e51b85528401528201527f45524331393637557067726164653a20756e737570706f727465642070726f786044820152681a58589b195555525160ba1b6064820152fd5b9091508981813d8311610b60575b610b4c8183611356565b81010312610b5c5751903861092f565b8680fd5b503d610b42565b8580fd5b5050346101ce5760203660031901126101ce5760209160ff9082906001600160a01b03610b96611299565b1681526000805160206117fe833981519152855220541690519015158152f35b5090346101a55760203660031901126101a5576001600160a01b03610bd9611299565b1691610be68315156113e1565b8284526000805160206117fe833981519152908160205260ff8386205416610c4e5750610c1483331461142d565b8284526020528220805460ff191660011790557f1f7b76c58fb697eb53c6c7c1becb96911516a136e24d7ced386b2355358b75a38280a280f35b606490602084519162461bcd60e51b8352820152601860248201527f636f6d706c69616e636520616c726561647920626f756e6400000000000000006044820152fd5b50346101a5576020806003193601126103f957610cac611299565b926001600160a01b037f00000000000000000000000000000000000000000000000000000000000000008116610ce430821415611653565b610d016000805160206117de8339815191529183835416146116b4565b610d096115b2565b8251908482019282841067ffffffffffffffff851117610f54578385528883527f4910fdfa16fed3260ed0e7147f7cc6da11a60208b5b9406d12a635614ffd91435460ff1615610d63575050505050505061015090611715565b879894959697169085516352d1902d60e01b815287818a81865afa869181610f25575b50610de557865162461bcd60e51b8152808a01899052602e60248201527f45524331393637557067726164653a206e657720696d706c656d656e7461746960448201526d6f6e206973206e6f74205555505360901b6064820152608490fd5b97919293949703610ed057610df988611715565b8451917fbc7cd75a20ee27fd9adebab32041f755214dbc6bffa90cc0225b39da2e5c2d3b8880a2825115801590610ec9575b610e3b575b505050505050905080f35b873b15610e7a5750509380958192610e6d9651915af43d15610a7957660819985a5b195960ca1b3d92610a1984611378565b5080388080808080610e30565b62461bcd60e51b82528101859052602660248201527f416464726573733a2064656c65676174652063616c6c20746f206e6f6e2d636f6044820152651b9d1c9858dd60d21b6064820152608490fd5b5086610e2b565b845162461bcd60e51b8152908101869052602960248201527f45524331393637557067726164653a20756e737570706f727465642070726f786044820152681a58589b195555525160ba1b6064820152608490fd5b9091508881813d8311610f4d575b610f3d8183611356565b81010312610b5c57519038610d86565b503d610f33565b634e487b7160e01b895260418752602489fd5b83346101cb5760603660031901126101cb57610f81611299565b506101c26112b4565b5050346101ce57806003193601126101ce57610fa4611299565b6024359061ffff82168092036103f9576001600160a01b0316835260c960209081528284209184529081529181902054905160ff90911615158152f35b509190346101ce57816003193601126101ce578051918183019083821067ffffffffffffffff831117611043575061103f935081526012825271436f756e747279416c6c6f774d6f64756c6560701b602083015251918291826112ca565b0390f35b634e487b7160e01b815260418552602490fd5b5050346101ce5760203660031901126101ce57611071611299565b903383526000805160206117fe833981519152918260205261109860ff8386205416611483565b6001600160a01b0316916110ad8315156113e1565b6110b883331461142d565b8284526020528220805460ff191690557f408b49d9be1c914c52a0227e18a077e5a892dddf32a26cfa94a5d9708fad77188280a280f35b939050346101cb5760803660031901126101cb5761110b611299565b506111146112b4565b6001600160a01b0360643581811692908390036103f957630d47dbe560e31b875260209687818781875afa90811561125657839189918791611260575b50878951809481936304d3863d60e21b8352165afa9081156112565790889392918691611216575b50908260249289519889958694637e42683b60e01b86521690840152165afa90811561120c579082918593916111cc575b60ff9450825260c9865261ffff83832091168252855220541690519015158152f35b925050918481813d8311611205575b6111e58183611356565b810103126101a5575161ffff811681036101a55791839160ff93906111aa565b503d6111db565b84513d84823e3d90fd5b848193949592503d831161124f575b61122f8183611356565b8101031261124b5751828116810361124b578792919082611179565b8480fd5b503d611225565b87513d87823e3d90fd5b92505081813d8311611292575b6112778183611356565b8101031261124b5751828116810361124b5787839138611151565b503d61126d565b600435906001600160a01b03821682036112af57565b600080fd5b602435906001600160a01b03821682036112af57565b6020808252825181830181905290939260005b8281106112ff57505060409293506000838284010152601f8019910116010190565b8181018601518482016040015285016112dd565b6004359061ffff821682036112af57565b6060810190811067ffffffffffffffff82111761134057604052565b634e487b7160e01b600052604160045260246000fd5b90601f8019910116810190811067ffffffffffffffff82111761134057604052565b67ffffffffffffffff811161134057601f01601f191660200190565b9060206003198301126112af5760043567ffffffffffffffff928382116112af57806023830112156112af5781600401359384116112af5760248460051b830101116112af576024019190565b156113e857565b60405162461bcd60e51b815260206004820152601f60248201527f696e76616c696420617267756d656e74202d207a65726f2061646472657373006044820152606490fd5b1561143457565b60405162461bcd60e51b815260206004820152602160248201527f6f6e6c7920636f6d706c69616e636520636f6e74726163742063616e2063616c6044820152601b60fa1b6064820152608490fd5b1561148a57565b60405162461bcd60e51b815260206004820152601e60248201527f6f6e6c7920626f756e6420636f6d706c69616e63652063616e2063616c6c00006044820152606490fd5b156114d657565b60405162461bcd60e51b815260206004820152602b60248201527f496e697469616c697a61626c653a20636f6e7472616374206973206e6f74206960448201526a6e697469616c697a696e6760a81b6064820152608490fd5b600019811461153e5760010190565b634e487b7160e01b600052601160045260246000fd5b91908110156115645760051b0190565b634e487b7160e01b600052603260045260246000fd5b3561ffff811681036112af5790565b336000526000805160206117fe8339815191526020526115b060ff60406000205416611483565b565b6033546001600160a01b031633036115c657565b606460405162461bcd60e51b815260206004820152602060248201527f4f776e61626c653a2063616c6c6572206973206e6f7420746865206f776e65726044820152fd5b603380546001600160a01b039283166001600160a01b0319821681179092559091167f8be0079c531659141344cd1fd0a4f28419497f9722a3daafe3b4186f6b6457e0600080a3565b1561165a57565b60405162461bcd60e51b815260206004820152602c60248201527f46756e6374696f6e206d7573742062652063616c6c6564207468726f7567682060448201526b19195b1959d85d1958d85b1b60a21b6064820152608490fd5b156116bb57565b60405162461bcd60e51b815260206004820152602c60248201527f46756e6374696f6e206d7573742062652063616c6c6564207468726f7567682060448201526b6163746976652070726f787960a01b6064820152608490fd5b803b1561174a576000805160206117de83398151915280546001600160a01b0319166001600160a01b03909216919091179055565b60405162461bcd60e51b815260206004820152602d60248201527f455243313936373a206e657720696d706c656d656e746174696f6e206973206e60448201526c1bdd08184818dbdb9d1c9858dd609a1b6064820152608490fd5b909190156117b1575090565b8151156117c15750805190602001fd5b60405162461bcd60e51b81529081906103f590600483016112ca56fe360894a13ba1a3210667c828492db98dca3e2076cc3735a920a3ca505d382bbcf6cc97de1266c180cd39f3b311632644143ce7873d2927755382ad4b39e8ae00a2646970667358221220c89c2b60cc436476d9a6ad0d244c8ffd59f800620a5016cbc737b5180d994f7e64736f6c63430008110033","linkReferences":{}},"methodIdentifiers":{"addAllowedCountry(uint16)":"4f44425e","batchAllowCountries(uint16[])":"771c5281","batchDisallowCountries(uint16[])":"c08e1502","bindCompliance(address)":"4a932544","canComplianceBind(address)":"bcc21053","initialize()":"8129fc1c","isComplianceBound(address)":"4cf4d295","isCountryAllowed(address,uint16)":"0f4f0904","isPlugAndPlay()":"e6f5e807","moduleBurnAction(address,uint256)":"372491a2","moduleCheck(address,address,uint256,address)":"013b7ce4","moduleMintAction(address,uint256)":"f104a8c9","moduleTransferAction(address,address,uint256)":"2cb7e1ec","name()":"06fdde03","owner()":"8da5cb5b","proxiableUUID()":"52d1902d","removeAllowedCountry(uint16)":"817544c3","renounceOwnership()":"715018a6","transferOwnership(address)":"f2fde38b","unbindCompliance(address)":"0694a5fb","upgradeTo(address)":"3659cfe6","upgradeToAndCall(address,bytes)":"4f1ef286"},"id":14}