{"abi":[{"type":"constructor","inputs":[{"name":"_implementationAuthority","type":"address","internalType":"address"},{"name":"initialManagementKey","type":"address","internalType":"address"}],"stateMutability":"nonpayable"},{"type":"fallback","stateMutability":"payable"},{"type":"function","name":"implementationAuthority","inputs":[],"outputs":[{"name":"","type":"address","internalType":"address"}],"stateMutability":"view"}],"bytecode":{"object":"0x6080604090808252346101d457818161041f803803809161002082856101d9565b8339810103126101d457806004610039610046936101fc565b91602093848092016101fc565b6001600160a01b038481169161005d831515610210565b169361006a851515610210565b7f821f3e4d3d679f19eacc940c87acf846ea6eae24a63058ea750304437a62aafc55855163557887a160e11b815292839182905afa9081156101c957600091610191575b50835163189acdbd60e31b8482019081526024808301949094529281526001600160401b03929091606083019184831184841017610175576000938493885251915af4903d1561018b573d90811161017557835190610116601f8201601f19168501836101d9565b81526000833d92013e5b156101335750516101c2908161025d8239f35b606491519062461bcd60e51b82526004820152601660248201527f496e697469616c697a6174696f6e206661696c65642e000000000000000000006044820152fd5b634e487b7160e01b600052604160045260246000fd5b50610120565b908382813d83116101c2575b6101a781836101d9565b810103126101bf57506101b9906101fc565b386100ae565b80fd5b503d61019d565b84513d6000823e3d90fd5b600080fd5b601f909101601f19168101906001600160401b0382119082101761017557604052565b51906001600160a01b03821682036101d457565b1561021757565b60405162461bcd60e51b815260206004820152601f60248201527f696e76616c696420617267756d656e74202d207a65726f2061646472657373006044820152606490fdfe60808060405260043610156100c1575b7f821f3e4d3d679f19eacc940c87acf846ea6eae24a63058ea750304437a62aafc546000918291602090829060049082906001600160a01b031663557887a160e11b82525afa9081156100b4575b8291610087575b503682803781369161270f195a01f43d90816000803e15610083576000f35b6000fd5b6100a691506020903d82116100ac575b6100a08261011f565b01610158565b38610064565b3d9150610097565b6100bc61017f565b61005d565b6000803560e01c632307f882146100d8575061000f565b903461011b578160031936011261011b577f821f3e4d3d679f19eacc940c87acf846ea6eae24a63058ea750304437a62aafc546001600160a01b03168152602090f35b5080fd5b601f80199101166080016080811067ffffffffffffffff82111761014257604052565b634e487b7160e01b600052604160045260246000fd5b602090607f19011261017a576080516001600160a01b038116810361017a5790565b600080fd5b506040513d6000823e3d90fdfea2646970667358221220b3d936a608ce0dfc4f292805bb4ea65fa7b46985ee5ae2f039d89cbdfda9ef6864736f6c63430008110033","linkReferences":{}},"methodIdentifiers":{"implementationAuthority()":"2307f882"},"id":50}