{"abi":[{"type":"constructor","inputs":[{"name":"initialManagementKey","type":"address","internalType":"address"}],"stateMutability":"nonpayable"},{"type":"function","name":"addClaim","inputs":[{"name":"_topic","type":"uint256","internalType":"uint256"},{"name":"_scheme","type":"uint256","internalType":"uint256"},{"name":"_issuer","type":"address","internalType":"address"},{"name":"_signature","type":"bytes","internalType":"bytes"},{"name":"_data","type":"bytes","internalType":"bytes"},{"name":"_uri","type":"string","internalType":"string"}],"outputs":[{"name":"claimRequestId","type":"bytes32","internalType":"bytes32"}],"stateMutability":"nonpayable"},{"type":"function","name":"addKey","inputs":[{"name":"_key","type":"bytes32","internalType":"bytes32"},{"name":"_purpose","type":"uint256","internalType":"uint256"},{"name":"_type","type":"uint256","internalType":"uint256"}],"outputs":[{"name":"success","type":"bool","internalType":"bool"}],"stateMutability":"nonpayable"},{"type":"function","name":"approve","inputs":[{"name":"_id","type":"uint256","internalType":"uint256"},{"name":"_approve","type":"bool","internalType":"bool"}],"outputs":[{"name":"success","type":"bool","internalType":"bool"}],"stateMutability":"nonpayable"},{"type":"function","name":"execute","inputs":[{"name":"_to","type":"address","internalType":"address"},{"name":"_value","type":"uint256","internalType":"uint256"},{"name":"_data","type":"bytes","internalType":"bytes"}],"outputs":[{"name":"executionId","type":"uint256","internalType":"uint256"}],"stateMutability":"payable"},{"type":"function","name":"getClaim","inputs":[{"name":"_claimId","type":"bytes32","internalType":"bytes32"}],"outputs":[{"name":"topic","type":"uint256","internalType":"uint256"},{"name":"scheme","type":"uint256","internalType":"uint256"},{"name":"issuer","type":"address","internalType":"address"},{"name":"signature","type":"bytes","internalType":"bytes"},{"name":"data","type":"bytes","internalType":"bytes"},{"name":"uri","type":"string","internalType":"string"}],"stateMutability":"view"},{"type":"function","name":"getClaimIdsByTopic","inputs":[{"name":"_topic","type":"uint256","internalType":"uint256"}],"outputs":[{"name":"claimIds","type":"bytes32[]","internalType":"bytes32[]"}],"stateMutability":"view"},{"type":"function","name":"getKey","inputs":[{"name":"_key","type":"bytes32","internalType":"bytes32"}],"outputs":[{"name":"purposes","type":"uint256[]","internalType":"uint256[]"},{"name":"keyType","type":"uint256","internalType":"uint256"},{"name":"key","type":"bytes32","internalType":"bytes32"}],"stateMutability":"view"},{"type":"function","name":"getKeyPurposes","inputs":[{"name":"_key","type":"bytes32","internalType":"bytes32"}],"outputs":[{"name":"_purposes","type":"uint256[]","internalType":"uint256[]"}],"stateMutability":"view"},{"type":"function","name":"getKeysByPurpose","inputs":[{"name":"_purpose","type":"uint256","internalType":"uint256"}],"outputs":[{"name":"keys","type":"bytes32[]","internalType":"bytes32[]"}],"stateMutability":"view"},{"type":"function","name":"getRecoveredAddress","inputs":[{"name":"sig","type":"bytes","internalType":"bytes"},{"name":"dataHash","type":"bytes32","internalType":"bytes32"}],"outputs":[{"name":"addr","type":"address","internalType":"address"}],"stateMutability":"pure"},{"type":"function","name":"initialize","inputs":[{"name":"initialManagementKey","type":"address","internalType":"address"}],"outputs":[],"stateMutability":"nonpayable"},{"type":"function","name":"isClaimRevoked","inputs":[{"name":"_sig","type":"bytes","internalType":"bytes"}],"outputs":[{"name":"","type":"bool","internalType":"bool"}],"stateMutability":"view"},{"type":"function","name":"isClaimValid","inputs":[{"name":"_identity","type":"address","internalType":"contract IIdentity"},{"name":"claimTopic","type":"uint256","internalType":"uint256"},{"name":"sig","type":"bytes","internalType":"bytes"},{"name":"data","type":"bytes","internalType":"bytes"}],"outputs":[{"name":"claimValid","type":"bool","internalType":"bool"}],"stateMutability":"view"},{"type":"function","name":"keyHasPurpose","inputs":[{"name":"_key","type":"bytes32","internalType":"bytes32"},{"name":"_purpose","type":"uint256","internalType":"uint256"}],"outputs":[{"name":"result","type":"bool","internalType":"bool"}],"stateMutability":"view"},{"type":"function","name":"removeClaim","inputs":[{"name":"_claimId","type":"bytes32","internalType":"bytes32"}],"outputs":[{"name":"success","type":"bool","internalType":"bool"}],"stateMutability":"nonpayable"},{"type":"function","name":"removeKey","inputs":[{"name":"_key","type":"bytes32","internalType":"bytes32"},{"name":"_purpose","type":"uint256","internalType":"uint256"}],"outputs":[{"name":"success","type":"bool","internalType":"bool"}],"stateMutability":"nonpayable"},{"type":"function","name":"revokeClaim","inputs":[{"name":"_claimId","type":"bytes32","internalType":"bytes32"},{"name":"_identity","type":"address","internalType":"address"}],"outputs":[{"name":"","type":"bool","internalType":"bool"}],"stateMutability":"nonpayable"},{"type":"function","name":"revokeClaimBySignature","inputs":[{"name":"signature","type":"bytes","internalType":"bytes"}],"outputs":[],"stateMutability":"nonpayable"},{"type":"function","name":"revokedClaims","inputs":[{"name":"","type":"bytes","internalType":"bytes"}],"outputs":[{"name":"","type":"bool","internalType":"bool"}],"stateMutability":"view"},{"type":"function","name":"version","inputs":[],"outputs":[{"name":"","type":"string","internalType":"string"}],"stateMutability":"pure"},{"type":"event","name":"Approved","inputs":[{"name":"executionId","type":"uint256","indexed":true,"internalType":"uint256"},{"name":"approved","type":"bool","indexed":false,"internalType":"bool"}],"anonymous":false},{"type":"event","name":"ClaimAdded","inputs":[{"name":"claimId","type":"bytes32","indexed":true,"internalType":"bytes32"},{"name":"topic","type":"uint256","indexed":true,"internalType":"uint256"},{"name":"scheme","type":"uint256","indexed":false,"internalType":"uint256"},{"name":"issuer","type":"address","indexed":true,"internalType":"address"},{"name":"signature","type":"bytes","indexed":false,"internalType":"bytes"},{"name":"data","type":"bytes","indexed":false,"internalType":"bytes"},{"name":"uri","type":"string","indexed":false,"internalType":"string"}],"anonymous":false},{"type":"event","name":"ClaimChanged","inputs":[{"name":"claimId","type":"bytes32","indexed":true,"internalType":"bytes32"},{"name":"topic","type":"uint256","indexed":true,"internalType":"uint256"},{"name":"scheme","type":"uint256","indexed":false,"internalType":"uint256"},{"name":"issuer","type":"address","indexed":true,"internalType":"address"},{"name":"signature","type":"bytes","indexed":false,"internalType":"bytes"},{"name":"data","type":"bytes","indexed":false,"internalType":"bytes"},{"name":"uri","type":"string","indexed":false,"internalType":"string"}],"anonymous":false},{"type":"event","name":"ClaimRemoved","inputs":[{"name":"claimId","type":"bytes32","indexed":true,"internalType":"bytes32"},{"name":"topic","type":"uint256","indexed":true,"internalType":"uint256"},{"name":"scheme","type":"uint256","indexed":false,"internalType":"uint256"},{"name":"issuer","type":"address","indexed":true,"internalType":"address"},{"name":"signature","type":"bytes","indexed":false,"internalType":"bytes"},{"name":"data","type":"bytes","indexed":false,"internalType":"bytes"},{"name":"uri","type":"string","indexed":false,"internalType":"string"}],"anonymous":false},{"type":"event","name":"ClaimRevoked","inputs":[{"name":"signature","type":"bytes","indexed":true,"internalType":"bytes"}],"anonymous":false},{"type":"event","name":"Executed","inputs":[{"name":"executionId","type":"uint256","indexed":true,"internalType":"uint256"},{"name":"to","type":"address","indexed":true,"internalType":"address"},{"name":"value","type":"uint256","indexed":true,"internalType":"uint256"},{"name":"data","type":"bytes","indexed":false,"internalType":"bytes"}],"anonymous":false},{"type":"event","name":"ExecutionFailed","inputs":[{"name":"executionId","type":"uint256","indexed":true,"internalType":"uint256"},{"name":"to","type":"address","indexed":true,"internalType":"address"},{"name":"value","type":"uint256","indexed":true,"internalType":"uint256"},{"name":"data","type":"bytes","indexed":false,"internalType":"bytes"}],"anonymous":false},{"type":"event","name":"ExecutionRequested","inputs":[{"name":"executionId","type":"uint256","indexed":true,"internalType":"uint256"},{"name":"to","type":"address","indexed":true,"internalType":"address"},{"name":"value","type":"uint256","indexed":true,"internalType":"uint256"},{"name":"data","type":"bytes","indexed":false,"internalType":"bytes"}],"anonymous":false},{"type":"event","name":"KeyAdded","inputs":[{"name":"key","type":"bytes32","indexed":true,"internalType":"bytes32"},{"name":"purpose","type":"uint256","indexed":true,"internalType":"uint256"},{"name":"keyType","type":"uint256","indexed":true,"internalType":"uint256"}],"anonymous":false},{"type":"event","name":"KeyRemoved","inputs":[{"name":"key","type":"bytes32","indexed":true,"internalType":"bytes32"},{"name":"purpose","type":"uint256","indexed":true,"internalType":"uint256"},{"name":"keyType","type":"uint256","indexed":true,"internalType":"uint256"}],"anonymous":false}],"bytecode":{"object":"0x60803462000227576001600160401b0390601f62002fb938819003918201601f19168301929184841183851017620001cd57808392604095865283396020928391810103126200022757516001600160a01b03811690819003620002275760065461ffff19168115620001e357610101176006558251918083019182528083528383019183831086841117620001cd5782855283519020916000958387526060600195868552856002898b20015501908282109082111762000179578552838152828652838252848620908154858355808610620001a3575b509086528186209084875b8181106200018d575050505081855282808587200155828552600281528385209081549168010000000000000000831015620001795784830180825583101562000165577f480000bb1edad8ca1470381cc334b1917fbd51c6531f3a623ea8e0ec7e38a6e99287928592879899528320015580a451612d8c90816200022d8239f35b634e487b7160e01b87526032600452602487fd5b634e487b7160e01b87526041600452602487fd5b8460ff84511693019281850155018590620000e3565b8288528580858a2092830192015b828110620001c1575050620000d8565b898155018690620001b1565b634e487b7160e01b600052604160045260246000fd5b835162461bcd60e51b815260048101849052601f60248201527f696e76616c696420617267756d656e74202d207a65726f2061646472657373006044820152606490fd5b600080fdfe6080604052600436101561001257600080fd5b60003560e01c806312aaac7014611a775780631d3812401461184d5780632646b264146118135780634eee424a1461154157806353d413c51461118057806354fd4d501461113a57806373c3370814610f58578063747442d314610f1757806380e9e9e114610ead5780639010f72614610e375780639f7f9edd14610d22578063b1a34e0d1461078a578063b61d27f614610504578063c0969a6e14610497578063c3b129e31461043d578063c4d66de814610294578063c9100bcb146101c5578063d202158d146101a2578063d2345249146101415763fb307b34146100f857600080fd5b3461013c57602036600319011261013c5760043560005260016020526101386101246040600020611fbb565b604051918291602083526020830190611ada565b0390f35b600080fd5b3461013c57602036600319011261013c576004356001600160401b03811161013c5760ff61018c602061017981943690600401611bd2565b8160405193828580945193849201611c06565b8101603881520301902054166040519015158152f35b3461013c5760206101bb6101b536611bf0565b90612a62565b6040519015158152f35b3461013c57602036600319011261013c5760043560005260046020526040600020546001604060002001549061013861024261028661024261027861024260018060a01b0360026040600020015416610255600360406000200161024960046040600020016102496005604060002001936040519788809261209c565b0387611b5f565b6040519788809261209c565b60405198899889526020890152604088015260c0606088015260c0870190611c29565b908582036080870152611c29565b9083820360a0850152611c29565b3461013c5760208060031936011261013c576001600160a01b036102b6611c4e565b1680156103f8576006549060ff918281161580156103ef575b156103aa5761ffff1916610101176006556040518381019182528381526102f581611b44565b5190208060005260019283928382528260026040600020015560405161031a81611b0e565b848152836000528483526040600020906103338261200a565b90600052826000208560005b8181106103965750808660028782600052838152838060406000200155836000525261036f816040600020612076565b7f480000bb1edad8ca1470381cc334b1917fbd51c6531f3a623ea8e0ec7e38a6e9600080a4005b85858551169401938184015501869061033f565b60405162461bcd60e51b815260048101859052601e60248201527f496e697469616c206b65792077617320616c72656164792073657475702e00006044820152606490fd5b50303b156102cf565b60405162461bcd60e51b815260048101839052601f60248201527f696e76616c696420617267756d656e74202d207a65726f2061646472657373006044820152606490fd5b3461013c57604036600319011261013c576004356001600160401b03811161013c5761048561047d6104756020933690600401611bd2565b602435612c69565b919091612af7565b6040516001600160a01b039091168152f35b3461013c57608036600319011261013c576004356001600160a01b038116810361013c576001600160401b0360443581811161013c576104db903690600401611bd2565b9160643591821161013c576020926104fa6101bb933690600401611bd2565b9160243590611e09565b606036600319011261013c57610518611c4e565b6001600160401b039060243560443583811161013c5761053c903690600401611bd2565b916001916105558360ff60065460081c16151514611c9f565b6000805480825260036020908152604090922080546001600160a01b0319166001600160a01b0390951694851781558581018490558651929791966002909101929182116107745782826105b589946105af899754611f16565b84611f67565b89601f82116001146106e25791817f8afcfabcb00e47a53a8fc3e9f23ff47ee1926194bb1350dd007c50b412a6cee89492610625946000916106d7575b50600019600383901b1c1916908a1b1790555b610610600054611fac565b6000556040519182918b83528b830190611c29565b0390a46106496040518581019033825286815261064181611b44565b5190206127fd565b1561067757506106649060ff60065460081c16151514611c9f565b61066d81612132565b505b604051908152f35b301415806106b0575b61068b575b5061066f565b6106a09060ff60065460081c16151514611c9f565b6106a981612132565b5082610685565b506106d2604051848101903382528581526106ca81611b44565b51902061292a565b610680565b90508301518d6105f2565b60008381528b81208a93929091601f198416908e5b82821061075757505091839161062596947f8afcfabcb00e47a53a8fc3e9f23ff47ee1926194bb1350dd007c50b412a6cee89896941061073e575b5050811b019055610605565b85015160001960f88460031b161c191690558d80610732565b8389015185558c9a508e99508d969094019392830192018e6106f7565b634e487b7160e01b600052604160045260246000fd5b3461013c5760031960c03682011261013c57604435906001600160a01b038216820361013c576064356001600160401b03811161013c576107cf903690600401611bd2565b6084356001600160401b03811161013c576107ee903690600401611bd2565b9060a4356001600160401b03811161013c573660238201121561013c5761081f903690602481600401359101611b9b565b92610836600160ff60065460081c16151514611c9f565b3033148015610cf4575b6108499061270e565b306001600160a01b03861603610c07575b50604080516001600160a01b038616602082019081526004358284015291815261088381611b29565b51902092836000526004602052600435604060002055602435600160406000200155600360406000200182516001600160401b038111610774576108cb816105af8454611f16565b806020601f8211600114610ba057600091610b95575b508160011b916000199060031b1c19161790555b836000526004602052600460406000200183516001600160401b03811161077457610924816105af8454611f16565b806020601f8211600114610b2e57600091610b23575b508160011b916000199060031b1c19161790555b8360005260046020526005604060002001948151916001600160401b03831161077457868361098488956105af60209b54611f16565b88601f8211600114610abb5760009082610ab0575b508160011b916000199060031b1c19161790555b60008381526004885260409020600201546001600160a01b03838116911614610a63577f46149b18aa084502c3f12bc75e19eda8bda8d102b82cce8474677a6d0d5f43c59160043560005260058852610a0a846040600020612076565b8360005260048852600260406000200160018060a01b0382166bffffffffffffffffffffffff60a01b825416179055610a5860405192839260018060a01b0316976004359760243585612775565b0390a4604051908152f35b6040516001600160a01b0390921694600435947f3bab293fc00db832d7619a9299914251b8747c036867ec056cbd506f60135b1393928392610aa89260243585612775565b0390a461066f565b90508301518a610999565b82600052896000209060005b601f1984168110610b095750908291600193601f19811610610af0575b5050811b0190556109ad565b85015160001960f88460031b161c191690558a80610ae4565b8186015183558a9750600190920191908b01908b01610ac7565b90508501518861093a565b91508260005260206000206000925b601f1983168410610b7d576001935082601f19811610610b64575b5050811b01905561094e565b87015160001960f88460031b161c191690558880610b58565b87810151825560209384019360019092019101610b3d565b9050840151886108e1565b91508260005260206000206000925b601f1983168410610bef576001935082601f19811610610bd6575b5050811b0190556108f5565b86015160001960f88460031b161c191690558880610bca565b86810151825560209384019360019092019101610baf565b6020610c50916040518093819263604b4d3760e11b8352306004840152600435602484015260806044840152610c406084840188611c29565b9083820301606484015287611c29565b03816001600160a01b0389165afa908115610ce857600091610cae575b5015610c79578461085a565b60405162461bcd60e51b815260206004820152600d60248201526c696e76616c696420636c61696d60981b6044820152606490fd5b90506020813d8211610ce0575b81610cc860209383611b5f565b8101031261013c5751801515810361013c5785610c6d565b3d9150610cbb565b6040513d6000823e3d90fd5b50610849610d1b604051602081019033825260208152610d1381611b44565b519020612899565b9050610840565b3461013c57602036600319011261013c576001600160401b0360043581811161013c573660238201121561013c57806004013591821161013c576024810190602483369201011161013c57610d83600160ff60065460081c16151514611c9f565b3033148015610e11575b610d9690611d07565b610db860ff604051848482376020818681016038815203019020541615611d6c565b604051828282376020818481016038815203019020600160ff198254161790558160405192839283378101600081520390207f7f484e37f24c0a92f81dd74afa3027b3ea31f2e9fb6b9fa29fe9865f81ac5569600080a2005b50610d96610e3060405160208101903382526020815261064181611b44565b9050610d8d565b3461013c5760208060031936011261013c5760043560005260028152604060002090604051908181845491828152019360005281600020916000905b828210610e965761013885610e8a81890382611b5f565b60405191829182611c64565b835486529485019460019384019390910190610e73565b3461013c5760208060031936011261013c5760043560005260058152604060002090604051908181845491828152019360005281600020916000905b828210610f005761013885610e8a81890382611b5f565b835486529485019460019384019390910190610ee9565b3461013c57604036600319011261013c57602435801515810361013c576101bb602091610f50600160ff60065460081c16151514611c9f565b60043561249c565b3461013c57604036600319011261013c576001600160a01b036024358181169081900361013c576000602491610f9a600160ff60065460081c16151514611c9f565b3033148015611114575b610fad90611d07565b6040519283809263c9100bcb60e01b825260043560048301525afa918215610ce857600092611078575b6020611044846040519061100c60ff825193868181860196610ffa81838a611c06565b81016038815203019020541615611d6c565b6040518481835161101e818388611c06565b81016038815203019020600160ff19825416179055604051928392839251928391611c06565b8101039020604051907f7f484e37f24c0a92f81dd74afa3027b3ea31f2e9fb6b9fa29fe9865f81ac5569600080a260018152f35b9091503d806000843e61108b8184611b5f565b82019060c08383031261013c5760408301519081160361013c5760608201516001600160401b039081811161013c57826110c6918501611def565b92608081015182811161013c57836110df918301611def565b5060a081015191821161013c57019181601f8401121561013c5761110d611044928460208096519101611db8565b5091610fd7565b50610fad61113360405160208101903382526020815261064181611b44565b9050610fa4565b3461013c57600036600319011261013c5761013860405161115a81611b44565b6005815264322e302e3160d81b6020820152604051918291602083526020830190611c29565b3461013c5761118e36611bf0565b9060016111a68160ff60065460081c16151514611c9f565b303314801561151b575b6111b990611d07565b81600052602092818452600290838260406000200154036114cc57836000528285526111e86040600020611fbb565b916000845b611447575b835160001991908281019081116113ac576112106112189187612034565b519186612034565b528560005284875260406000208451906001600160401b03821161077457600160401b821161077457805482825580831061142a575b5088860190600052886000208760005b8481106114185750505050508560005284875260406000208054801561140257820161128a818361205e565b9290805485600395861b1b19169055556000908460005283895286604060002054905b6113c2575b85600052848a526040600020918482019182116113ac576112d96112f0926113099461205e565b9054911b1c9286600052858b52604060002061205e565b819391549060031b600019811b9283911b169119161790565b90558260005281875261131f60406000206126e4565b85600052848752846040600020015493519081019081116113ac571561136e575b50604051937f585a4aef50f8267a92b32412b331b20f7f8b96f2245b253b9cc50dcc621d3397600080a48152f35b60009085825284875260408220805483825580611394575b508286820155015585611340565b8184528884206113a691810190611f50565b88611386565b634e487b7160e01b600052601160045260246000fd5b9185600052848a52886113d982604060002061205e565b905490841b1c146113fc576113ed90611fac565b91878184106112ad57506112b2565b916112b2565b634e487b7160e01b600052603160045260246000fd5b8b84519401938184015501889061125e565b6114419082600052838b6000209182019101611f50565b8961124e565b826114528286612034565b51146114c75761146190611fac565b8084511461146f57846111ed565b60405162461bcd60e51b815260048101889052602a60248201527f4e6f6e4578697374696e673a204b657920646f65736e27742068617665207375604482015269636820707572706f736560b01b6064820152608490fd5b6111f2565b60405162461bcd60e51b815260048101869052602160248201527f4e6f6e4578697374696e673a204b65792069736e2774207265676973746572656044820152601960fa1b6064820152608490fd5b506111b961153a60405160208101903382526020815261064181611b44565b90506111b0565b3461013c5760208060031936011261013c5760043560019061156e8260ff60065460081c16151514611c9f565b30331480156117ef575b6115819061270e565b8060005260048352604060002054908115611796576000918060005260059283865284604060002054905b611755575b8260005284875260406000209160001982019182116113ac576115da61160e926115ef9461205e565b9390549185600052878a52604060002061205e565b91909360031b1c9083549060031b600019811b9283911b169119161790565b90558060005282855261162460406000206126e4565b8160005260048552836040600020015490827f3cf57863a89432c61c4a27073c6ee39e8a764bff5a05aebfbcdcdc80b2e6130a8760018060a01b0360026040600020015416946116be60036040600020016116b060046040600020016116a28c6040600020019360806040519889988952880152608087019061209c565b90858203604087015261209c565b90838203606085015261209c565b0390a46000526004835280604060002060008155600084820155600060028201556116eb600382016127b1565b6116f7600482016127b1565b016117028154611f16565b9182611714575b505050604051908152f35b8284601f6000951160011461173057505050555b828080611709565b61174992848652601f8887209301901c82019101611f50565b81848120915555611728565b90826000528487528361176c82604060002061205e565b90549060031b1c146117905761178190611fac565b90858183106115ac57506115b1565b906115b1565b60405162461bcd60e51b815260048101859052602b60248201527f4e6f6e4578697374696e673a205468657265206973206e6f20636c61696d207760448201526a1a5d1a081d1a1a5cc8125160aa1b6064820152608490fd5b5061158161180c60405185810190338252868152610d1381611b44565b9050611578565b3461013c57602036600319011261013c576004356001600160401b03811161013c576101bb6118486020923690600401611bd2565b611ee6565b3461013c57606036600319011261013c576004356024908135916044928335906001926118858460ff60065460081c16151514611c9f565b3033148015611a51575b61189890611d07565b846000528360209681885286600260406000200154146000146119e0579050856000528487526118cb6040600020611fbb565b6000865b611960575b505050846000528386526040600020805491600160401b83101561194c57506112f0826119069287869501815561205e565b90555b806000526002855261191f846040600020612076565b604051937f480000bb1edad8ca1470381cc334b1917fbd51c6531f3a623ea8e0ec7e38a6e9600080a48152f35b634e487b7160e01b60009081526041600452fd5b81518110156119db57846119748284612034565b511461198e5790611986879392611fac565b9091926118cf565b60405162461bcd60e51b8152600481018a90526021818601527f436f6e666c6963743a204b657920616c72656164792068617320707572706f7381850152606560f81b6064820152608490fd5b6118d4565b505050836002604060002001556040516119f981611b0e565b81815284600052838652604060002090611a128261200a565b9060005285600020908460005b818110611a3f575050505083600052828552818360406000200155611909565b88835193019281850155018590611a1f565b50611898611a7060405160208101903382526020815261064181611b44565b905061188f565b3461013c57602036600319011261013c576004356000526001602052611acb6040600020600160406000200154611ab660026040600020015492611fbb565b91604051938493606085526060850190611ada565b91602084015260408301520390f35b90815180825260208080930193019160005b828110611afa575050505090565b835185529381019392810192600101611aec565b602081019081106001600160401b0382111761077457604052565b606081019081106001600160401b0382111761077457604052565b604081019081106001600160401b0382111761077457604052565b90601f801991011681019081106001600160401b0382111761077457604052565b6001600160401b03811161077457601f01601f191660200190565b929192611ba782611b80565b91611bb56040519384611b5f565b82948184528183011161013c578281602093846000960137010152565b9080601f8301121561013c57816020611bed93359101611b9b565b90565b604090600319011261013c576004359060243590565b60005b838110611c195750506000910152565b8181015183820152602001611c09565b90602091611c4281518092818552858086019101611c06565b601f01601f1916010190565b600435906001600160a01b038216820361013c57565b6020908160408183019282815285518094520193019160005b828110611c8b575050505090565b835185529381019392810192600101611c7d565b15611ca657565b60405162461bcd60e51b815260206004820152603360248201527f496e746572616374696e67207769746820746865206c69627261727920636f6e6044820152723a3930b1ba1034b9903337b93134b23232b71760691b6064820152608490fd5b15611d0e57565b60405162461bcd60e51b815260206004820152603060248201527f5065726d697373696f6e733a2053656e64657220646f6573206e6f742068617660448201526f65206d616e6167656d656e74206b657960801b6064820152608490fd5b15611d7357565b60405162461bcd60e51b815260206004820152601f60248201527f436f6e666c6963743a20436c61696d20616c7265616479207265766f6b6564006044820152606490fd5b90929192611dc581611b80565b91611dd36040519384611b5f565b82948284528282011161013c576020611ded930190611c06565b565b9080601f8301121561013c578151611bed92602001611db8565b611e9e83611ea693611e48611e56611ebf9798604051928391602083019560018060a01b03809a16875260408401526060808401526080830190611c29565b03601f198101835282611b5f565b51902060405160208101917f19457468657265756d205369676e6564204d6573736167653a0a3332000000008352603c820152603c8152611e9681611b29565b519020612c69565b929092612af7565b60405190602082019216825260208152610d1381611b44565b9081611ed5575b50611ed057600090565b600190565b611edf9150611ee6565b1538611ec6565b611f01602060ff928160405193828580945193849201611c06565b810160388152030190205416611ed057600090565b90600182811c92168015611f46575b6020831014611f3057565b634e487b7160e01b600052602260045260246000fd5b91607f1691611f25565b818110611f5b575050565b60008155600101611f50565b9190601f8111611f7657505050565b611ded926000526020600020906020601f840160051c83019310611fa2575b601f0160051c0190611f50565b9091508190611f95565b60001981146113ac5760010190565b9060405191828154918282526020928383019160005283600020936000905b828210611ff057505050611ded92500383611b5f565b855484526001958601958895509381019390910190611fda565b8054600182558060011061201c575050565b611ded91600052600160206000209182019101611f50565b80518210156120485760209160051b010190565b634e487b7160e01b600052603260045260246000fd5b80548210156120485760005260206000200190600090565b805490600160401b82101561077457816112f09160016120989401815561205e565b9055565b90600092918054916120ad83611f16565b91828252600193848116908160001461210f57506001146120cf575b50505050565b90919394506000526020928360002092846000945b8386106120fb5750505050010190388080806120c9565b8054858701830152940193859082016120e4565b9294505050602093945060ff191683830152151560051b010190388080806120c9565b6000805482101561244757818152600391602090838252604060ff85828620015460081c1661240957818452848352808420546001600160a01b039030908216036123a15761218f82518581019033825286815261064181611b44565b15612351575b815195837fb3932da477fe5d6c8ff2eafef050c0f3a1af18fc07121001482600f36f3715d8866001998a8152a2838652808552808387200160ff1990888282541617905586838582205416898683200154600287842001908b88519285968154906121ff82611f16565b93821691821561233d575050600114612302575b505081849503925af13d156122fd573d61222c81611b80565b9061223986519283611b5f565b815287873d92013e5b156122ac5783865280855282862001805461ff001916610100179055938190208054868201549251858152929516937f1f920dbda597d7bf95035464170fa58d0a4b57f13a1c315ace6793b9f63688b8929182916122a6919083019060020161209c565b0390a490565b907fe10c49d9f7c71da23262367013434763cfdb2332267641728d25cd712c5c6a68929184879896975286528187205416938187200154946122a6600283892001925192828493845283019061209c565b612242565b90955084528984208a8d86925b8884106123255750505050818495810195612213565b8054868501528e975092909101918c918f910161230f565b168552505080151502820194508184612213565b815162461bcd60e51b815260048101859052602360248201527f53656e64657220646f6573206e6f742068617665206d616e6167656d656e74206044820152626b657960e81b6064820152608490fd5b6123c18251858101903382528681526123b981611b44565b5190206129cd565b61219557815162461bcd60e51b815260048101859052601f60248201527f53656e64657220646f6573206e6f74206861766520616374696f6e206b6579006044820152606490fd5b5162461bcd60e51b815260048101839052601860248201527714995c5d595cdd08185b1c9958591e48195e1958dd5d195960421b6044820152606490fd5b60405162461bcd60e51b815260206004820152602760248201527f43616e6e6f7420617070726f76652061206e6f6e2d6578697374696e6720657860448201526632b1baba34b7b760c91b6064820152608490fd5b60009081548110156124475780825260039060209180835260409060ff81838720015460081c166126a557828552808452818520546001600160a01b0391903090831603612645576124fc83518681019033825287815261064181611b44565b156125f5575b837fb3932da477fe5d6c8ff2eafef050c0f3a1af18fc07121001482600f36f3715d8868551991515998a8152a260019687036125dc57838652808552808387200160ff1990888282541617905586838582205416898683200154600287842001908b885192859681549061257582611f16565b93821691821561233d5750506001146125a157505081849503925af13d156122fd573d61222c81611b80565b90955084528984208a8d86925b8884106125c45750505050818495810195612213565b8054868501528e975092909101918c918f91016125ae565b928552509181905290822001805460ff19169055919050565b825162461bcd60e51b815260048101869052602360248201527f53656e64657220646f6573206e6f742068617665206d616e6167656d656e74206044820152626b657960e81b6064820152608490fd5b61265d8351868101903382528781526123b981611b44565b61250257825162461bcd60e51b815260048101869052601f60248201527f53656e64657220646f6573206e6f74206861766520616374696f6e206b6579006044820152606490fd5b815162461bcd60e51b815260048101859052601860248201527714995c5d595cdd08185b1c9958591e48195e1958dd5d195960421b6044820152606490fd5b805490811561140257600019918201916126fe838361205e565b909182549160031b1b1916905555565b1561271557565b60405162461bcd60e51b815260206004820152603260248201527f5065726d697373696f6e733a2053656e64657220646f6573206e6f74206861766044820152716520636c61696d207369676e6572206b657960701b6064820152608490fd5b92612795611bed95936127a3938652608060208701526080860190611c29565b908482036040860152611c29565b916060818403910152611c29565b6127bb8154611f16565b90816127c5575050565b81601f600093116001146127d7575055565b818352602083206127f391601f0160051c810190600101611f50565b8160208120915555565b600052600180602052604060002060026040519161281a83611b29565b61282381611fbb565b835283810154602084015201548060408301521561289257600090825b61284d575b505050600090565b805191825181101561288c5783612865828295612034565b51148015612887575b6128815761287b90611fac565b91612840565b50505090565b61286e565b50612845565b5050600090565b60005260018060205260406000206002604051916128b683611b29565b6128bf81611fbb565b835283810154602084015201548060408301521561289257600090825b6128e857505050600090565b805191825181101561288c576128ff818594612034565b5183811490811561291f575b506128815761291990611fac565b916128dc565b60039150143861290b565b60005260018060205260406000206040519061294582611b29565b61294e81611fbb565b82528281015460208301526002809101548060408401521561284557600091835b61297d575b50505050600090565b80519283518110156129c757612994818695612034565b51838582149182156129bd575b50506129b6576129b090611fac565b9261296f565b5050505090565b14905083386129a1565b50612974565b6000526001806020526040600020604051906129e882611b29565b6129f181611fbb565b82528281015460208301526002809101548060408401521561284557600091835b612a1f5750505050600090565b80519283518110156129c757612a36818695612034565b5183858214918215612a58575b50506129b657612a5290611fac565b92612a12565b1490508338612a43565b60005260019081602052604060002090600260405192612a8184611b29565b612a8a81611fbb565b845284810154602085015201548060408401521561284557600091835b612ab45750505050600090565b80519283518110156129c757612acb818695612034565b5183858214918215612aed575b50506129b657612ae790611fac565b92612aa7565b1490508338612ad8565b6005811015612c535780612b085750565b60018103612b555760405162461bcd60e51b815260206004820152601860248201527f45434453413a20696e76616c6964207369676e617475726500000000000000006044820152606490fd5b60028103612ba25760405162461bcd60e51b815260206004820152601f60248201527f45434453413a20696e76616c6964207369676e6174757265206c656e677468006044820152606490fd5b60038103612bfa5760405162461bcd60e51b815260206004820152602260248201527f45434453413a20696e76616c6964207369676e6174757265202773272076616c604482015261756560f01b6064820152608490fd5b600414612c0357565b60405162461bcd60e51b815260206004820152602260248201527f45434453413a20696e76616c6964207369676e6174757265202776272076616c604482015261756560f01b6064820152608490fd5b634e487b7160e01b600052602160045260246000fd5b906041815114600014612c9757612c93916020820151906060604084015193015160001a90612ca1565b9091565b5050600090600290565b9291907f7fffffffffffffffffffffffffffffff5d576e7357a4501ddfe92f46681b20a08311612d4a5760ff16601b81141580612d3f575b612d33579160809493916020936040519384528484015260408301526060820152600093849182805260015afa15612d265781516001600160a01b03811615612d20579190565b50600190565b50604051903d90823e3d90fd5b50505050600090600490565b50601c811415612cd9565b5050505060009060039056fea26469706673582212207eff597c1923c553e75b98b74caeccdfad774ffeb181bb973eafcfd574ac4eaa64736f6c63430008110033","linkReferences":{}},"methodIdentifiers":{"addClaim(uint256,uint256,address,bytes,bytes,string)":"b1a34e0d","addKey(bytes32,uint256,uint256)":"1d381240","approve(uint256,bool)":"747442d3","execute(address,uint256,bytes)":"b61d27f6","getClaim(bytes32)":"c9100bcb","getClaimIdsByTopic(uint256)":"80e9e9e1","getKey(bytes32)":"12aaac70","getKeyPurposes(bytes32)":"fb307b34","getKeysByPurpose(uint256)":"9010f726","getRecoveredAddress(bytes,bytes32)":"c3b129e3","initialize(address)":"c4d66de8","isClaimRevoked(bytes)":"2646b264","isClaimValid(address,uint256,bytes,bytes)":"c0969a6e","keyHasPurpose(bytes32,uint256)":"d202158d","removeClaim(bytes32)":"4eee424a","removeKey(bytes32,uint256)":"53d413c5","revokeClaim(bytes32,address)":"73c33708","revokeClaimBySignature(bytes)":"9f7f9edd","revokedClaims(bytes)":"d2345249","version()":"54fd4d50"},"id":40}