{"abi":[{"type":"function","name":"allowance","inputs":[{"name":"owner","type":"address","internalType":"address"},{"name":"spender","type":"address","internalType":"address"}],"outputs":[{"name":"","type":"uint256","internalType":"uint256"}],"stateMutability":"view"},{"type":"function","name":"approve","inputs":[{"name":"spender","type":"address","internalType":"address"},{"name":"amount","type":"uint256","internalType":"uint256"}],"outputs":[{"name":"","type":"bool","internalType":"bool"}],"stateMutability":"nonpayable"},{"type":"function","name":"balanceOf","inputs":[{"name":"account","type":"address","internalType":"address"}],"outputs":[{"name":"","type":"uint256","internalType":"uint256"}],"stateMutability":"view"},{"type":"function","name":"burn","inputs":[{"name":"from","type":"address","internalType":"address"},{"name":"amount","type":"uint256","internalType":"uint256"}],"outputs":[],"stateMutability":"nonpayable"},{"type":"function","name":"decimals","inputs":[],"outputs":[{"name":"","type":"uint8","internalType":"uint8"}],"stateMutability":"view"},{"type":"function","name":"decreaseAllowance","inputs":[{"name":"spender","type":"address","internalType":"address"},{"name":"subtractedValue","type":"uint256","internalType":"uint256"}],"outputs":[{"name":"","type":"bool","internalType":"bool"}],"stateMutability":"nonpayable"},{"type":"function","name":"increaseAllowance","inputs":[{"name":"spender","type":"address","internalType":"address"},{"name":"addedValue","type":"uint256","internalType":"uint256"}],"outputs":[{"name":"","type":"bool","internalType":"bool"}],"stateMutability":"nonpayable"},{"type":"function","name":"init","inputs":[{"name":"name_","type":"string","internalType":"string"},{"name":"symbol_","type":"string","internalType":"string"},{"name":"decimals_","type":"uint8","internalType":"uint8"}],"outputs":[],"stateMutability":"nonpayable"},{"type":"function","name":"mint","inputs":[{"name":"to","type":"address","internalType":"address"},{"name":"amount","type":"uint256","internalType":"uint256"}],"outputs":[],"stateMutability":"nonpayable"},{"type":"function","name":"name","inputs":[],"outputs":[{"name":"","type":"string","internalType":"string"}],"stateMutability":"view"},{"type":"function","name":"owner","inputs":[],"outputs":[{"name":"","type":"address","internalType":"address"}],"stateMutability":"view"},{"type":"function","name":"renounceOwnership","inputs":[],"outputs":[],"stateMutability":"nonpayable"},{"type":"function","name":"symbol","inputs":[],"outputs":[{"name":"","type":"string","internalType":"string"}],"stateMutability":"view"},{"type":"function","name":"totalSupply","inputs":[],"outputs":[{"name":"","type":"uint256","internalType":"uint256"}],"stateMutability":"view"},{"type":"function","name":"transfer","inputs":[{"name":"to","type":"address","internalType":"address"},{"name":"amount","type":"uint256","internalType":"uint256"}],"outputs":[{"name":"","type":"bool","internalType":"bool"}],"stateMutability":"nonpayable"},{"type":"function","name":"transferFrom","inputs":[{"name":"from","type":"address","internalType":"address"},{"name":"to","type":"address","internalType":"address"},{"name":"amount","type":"uint256","internalType":"uint256"}],"outputs":[{"name":"","type":"bool","internalType":"bool"}],"stateMutability":"nonpayable"},{"type":"function","name":"transferOwnership","inputs":[{"name":"newOwner","type":"address","internalType":"address"}],"outputs":[],"stateMutability":"nonpayable"},{"type":"event","name":"Approval","inputs":[{"name":"owner","type":"address","indexed":true,"internalType":"address"},{"name":"spender","type":"address","indexed":true,"internalType":"address"},{"name":"value","type":"uint256","indexed":false,"internalType":"uint256"}],"anonymous":false},{"type":"event","name":"Initialized","inputs":[{"name":"version","type":"uint8","indexed":false,"internalType":"uint8"}],"anonymous":false},{"type":"event","name":"OwnershipTransferred","inputs":[{"name":"previousOwner","type":"address","indexed":true,"internalType":"address"},{"name":"newOwner","type":"address","indexed":true,"internalType":"address"}],"anonymous":false},{"type":"event","name":"Transfer","inputs":[{"name":"from","type":"address","indexed":true,"internalType":"address"},{"name":"to","type":"address","indexed":true,"internalType":"address"},{"name":"value","type":"uint256","indexed":false,"internalType":"uint256"}],"anonymous":false}],"bytecode":{"object":"0x6080806040523461001657611196908161001c8239f35b600080fdfe608080604052600436101561001357600080fd5b60003560e01c90816306fdde0314610bf157508063095ea7b314610bcb57806318160ddd14610bad57806323b872dd14610aef578063313ce56714610ace5780633950935114610a7d57806340c10f19146109b457806370a082311461097a578063715018a61461091d5780638da5cb5b146108f457806395d89b41146108165780639dc29fac146106e6578063a457c2d71461063f578063a9059cbb1461060e578063dd62ed3e146105bd578063f2fde38b1461052e5763f57b0182146100da57600080fd5b346105295760603660031901126105295760043567ffffffffffffffff81116105295761010b903690600401610d19565b60243567ffffffffffffffff81116105295761012b903690600401610d19565b60443560ff81168103610529576000549160ff8360081c16159283809461051c575b8015610505575b156104a95760ff19811660011760005583610497575b5061018560ff60005460081c16610180816110e0565b6110e0565b835167ffffffffffffffff8111610397576101a1603654610d70565b601f811161042a575b50602094601f82116001146103b8579481929394956000926103ad575b50508160011b916000199060031b1c1916176036555b80519067ffffffffffffffff8211610397576101fa603754610d70565b601f8111610332575b50602090601f83116001146102a95760ff9392916000918361029e575b50508160011b916000199060031b1c1916176037555b1660ff19603854161760385561025760ff60005460081c16610180816110e0565b61026033611097565b61026657005b61ff0019600054166000557f7f26b83ff96e1f2b6a682f133852f6798a09c465da95921460cefb3847402498602060405160018152a1005b015190503880610220565b90601f1983169160376000527f42a7b7dd785cd69714a189dffb3fd7d7174edc9ece837694ce50f7078f7c31ae9260005b81811061031a575091600193918560ff97969410610301575b505050811b01603755610236565b015160001960f88460031b161c191690553880806102f3565b929360206001819287860151815501950193016102da565b60376000527f42a7b7dd785cd69714a189dffb3fd7d7174edc9ece837694ce50f7078f7c31ae601f840160051c8101916020851061038d575b601f0160051c01905b8181106103815750610203565b60008155600101610374565b909150819061036b565b634e487b7160e01b600052604160045260246000fd5b0151905038806101c7565b601f1982169560366000526000805160206111418339815191529160005b888110610412575083600195969798106103f9575b505050811b016036556101dd565b015160001960f88460031b161c191690553880806103eb565b919260206001819286850151815501940192016103d6565b6036600052601f820160051c600080516020611141833981519152019060208310610481575b601f0160051c60008051602061114183398151915201905b81811061047557506101aa565b60008155600101610468565b6000805160206111418339815191529150610450565b61ffff1916610101176000553861016a565b60405162461bcd60e51b815260206004820152602e60248201527f496e697469616c697a61626c653a20636f6e747261637420697320616c72656160448201526d191e481a5b9a5d1a585b1a5e995960921b6064820152608490fd5b50303b1580156101545750600160ff821614610154565b50600160ff82161061014d565b600080fd5b3461052957602036600319011261052957610547610ccb565b61054f61103f565b6001600160a01b038116156105695761056790611097565b005b60405162461bcd60e51b815260206004820152602660248201527f4f776e61626c653a206e6577206f776e657220697320746865207a65726f206160448201526564647265737360d01b6064820152608490fd5b34610529576040366003190112610529576105d6610ccb565b6105de610ce1565b9060018060a01b038091166000526034602052604060002091166000526020526020604060002054604051908152f35b346105295760403660031901126105295761063461062a610ccb565b6024359033610dcd565b602060405160018152f35b3461052957604036600319011261052957610658610ccb565b60243590336000526034602052604060002060018060a01b038216600052602052604060002054918083106106935761063492039033610f3d565b60405162461bcd60e51b815260206004820152602560248201527f45524332303a2064656372656173656420616c6c6f77616e63652062656c6f77604482015264207a65726f60d81b6064820152608490fd5b34610529576040366003190112610529576106ff610ccb565b6024359061070b61103f565b6001600160a01b031680156107c75780600052603360205260406000205491808310610777576020817fddf252ad1be2c89b69c2b068fc378daa952ba7f163c4a11628f55a4df523b3ef92600095858752603384520360408620558060355403603555604051908152a3005b60405162461bcd60e51b815260206004820152602260248201527f45524332303a206275726e20616d6f756e7420657863656564732062616c616e604482015261636560f01b6064820152608490fd5b60405162461bcd60e51b815260206004820152602160248201527f45524332303a206275726e2066726f6d20746865207a65726f206164647265736044820152607360f81b6064820152608490fd5b3461052957600036600319011261052957604051600060375461083881610d70565b808452906001908181169081156108cd5750600114610872575b61086e8461086281860382610cf7565b60405191829182610c82565b0390f35b6037600090815292507f42a7b7dd785cd69714a189dffb3fd7d7174edc9ece837694ce50f7078f7c31ae5b8284106108b557505050810160200161086282610852565b8054602085870181019190915290930192810161089d565b60ff191660208087019190915292151560051b850190920192506108629150839050610852565b34610529576000366003190112610529576066546040516001600160a01b039091168152602090f35b346105295760003660031901126105295761093661103f565b606680546001600160a01b031981169091556000906001600160a01b03167f8be0079c531659141344cd1fd0a4f28419497f9722a3daafe3b4186f6b6457e08280a3005b34610529576020366003190112610529576001600160a01b0361099b610ccb565b1660005260336020526020604060002054604051908152f35b34610529576040366003190112610529576109cd610ccb565b602435906109d961103f565b6001600160a01b0316908115610a38577fddf252ad1be2c89b69c2b068fc378daa952ba7f163c4a11628f55a4df523b3ef602082610a1b600094603554610daa565b6035558484526033825260408420818154019055604051908152a3005b60405162461bcd60e51b815260206004820152601f60248201527f45524332303a206d696e7420746f20746865207a65726f2061646472657373006044820152606490fd5b3461052957604036600319011261052957610634610a99610ccb565b336000526034602052604060002060018060a01b038216600052602052610ac7602435604060002054610daa565b9033610f3d565b3461052957600036600319011261052957602060ff60385416604051908152f35b3461052957606036600319011261052957610b08610ccb565b610b10610ce1565b6044359060018060a01b0383166000526034602052604060002033600052602052604060002054926000198403610b4c575b6106349350610dcd565b828410610b6857610b638361063495033383610f3d565b610b42565b60405162461bcd60e51b815260206004820152601d60248201527f45524332303a20696e73756666696369656e7420616c6c6f77616e63650000006044820152606490fd5b34610529576000366003190112610529576020603554604051908152f35b3461052957604036600319011261052957610634610be7610ccb565b6024359033610f3d565b34610529576000366003190112610529576000603654610c1081610d70565b808452906001908181169081156108cd5750600114610c395761086e8461086281860382610cf7565b6036600090815292506000805160206111418339815191525b828410610c6a57505050810160200161086282610852565b80546020858701810191909152909301928101610c52565b6020808252825181830181905290939260005b828110610cb757505060409293506000838284010152601f8019910116010190565b818101860151848201604001528501610c95565b600435906001600160a01b038216820361052957565b602435906001600160a01b038216820361052957565b90601f8019910116810190811067ffffffffffffffff82111761039757604052565b81601f820112156105295780359067ffffffffffffffff82116103975760405192610d4e601f8401601f191660200185610cf7565b8284526020838301011161052957816000926020809301838601378301015290565b90600182811c92168015610da0575b6020831014610d8a57565b634e487b7160e01b600052602260045260246000fd5b91607f1691610d7f565b91908201809211610db757565b634e487b7160e01b600052601160045260246000fd5b6001600160a01b03908116918215610eea5716918215610e995760008281526033602052604081205491808310610e4557604082827fddf252ad1be2c89b69c2b068fc378daa952ba7f163c4a11628f55a4df523b3ef95876020965260338652038282205586815220818154019055604051908152a3565b60405162461bcd60e51b815260206004820152602660248201527f45524332303a207472616e7366657220616d6f756e7420657863656564732062604482015265616c616e636560d01b6064820152608490fd5b60405162461bcd60e51b815260206004820152602360248201527f45524332303a207472616e7366657220746f20746865207a65726f206164647260448201526265737360e81b6064820152608490fd5b60405162461bcd60e51b815260206004820152602560248201527f45524332303a207472616e736665722066726f6d20746865207a65726f206164604482015264647265737360d81b6064820152608490fd5b6001600160a01b03908116918215610fee5716918215610f9e5760207f8c5be1e5ebec7d5bd14f71427d1e84f3dd0314c0f7b2291e5b200ac8c7c3b925918360005260348252604060002085600052825280604060002055604051908152a3565b60405162461bcd60e51b815260206004820152602260248201527f45524332303a20617070726f766520746f20746865207a65726f206164647265604482015261737360f01b6064820152608490fd5b60405162461bcd60e51b8152602060048201526024808201527f45524332303a20617070726f76652066726f6d20746865207a65726f206164646044820152637265737360e01b6064820152608490fd5b6066546001600160a01b0316330361105357565b606460405162461bcd60e51b815260206004820152602060248201527f4f776e61626c653a2063616c6c6572206973206e6f7420746865206f776e65726044820152fd5b606680546001600160a01b039283166001600160a01b0319821681179092559091167f8be0079c531659141344cd1fd0a4f28419497f9722a3daafe3b4186f6b6457e0600080a3565b156110e757565b60405162461bcd60e51b815260206004820152602b60248201527f496e697469616c697a61626c653a20636f6e7472616374206973206e6f74206960448201526a6e697469616c697a696e6760a81b6064820152608490fdfe4a11f94e20a93c79f6ec743a1954ec4fc2c08429ae2122118bf234b2185c81b8a2646970667358221220cc649a36cf7bc87ca445e454da173c3d9491c9b90b9ebcf3f9a583402933ab6864736f6c63430008110033","linkReferences":{}},"methodIdentifiers":{"allowance(address,address)":"dd62ed3e","approve(address,uint256)":"095ea7b3","balanceOf(address)":"70a08231","burn(address,uint256)":"9dc29fac","decimals()":"313ce567","decreaseAllowance(address,uint256)":"a457c2d7","increaseAllowance(address,uint256)":"39509351","init(string,string,uint8)":"f57b0182","mint(address,uint256)":"40c10f19","name()":"06fdde03","owner()":"8da5cb5b","renounceOwnership()":"715018a6","symbol()":"95d89b41","totalSupply()":"18160ddd","transfer(address,uint256)":"a9059cbb","transferFrom(address,address,uint256)":"23b872dd","transferOwnership(address)":"f2fde38b"},"id":88}