{"abi":[{"type":"constructor","inputs":[],"stateMutability":"nonpayable"},{"type":"fallback","stateMutability":"payable"},{"type":"receive","stateMutability":"payable"},{"type":"function","name":"implementation","inputs":[],"outputs":[{"name":"impl","type":"address","internalType":"address"}],"stateMutability":"view"},{"type":"function","name":"maintenance","inputs":[],"outputs":[{"name":"_maintenance","type":"bool","internalType":"bool"}],"stateMutability":"view"},{"type":"function","name":"proxyOwner","inputs":[],"outputs":[{"name":"owner","type":"address","internalType":"address"}],"stateMutability":"view"},{"type":"function","name":"setMaintenance","inputs":[{"name":"_maintenance","type":"bool","internalType":"bool"}],"outputs":[],"stateMutability":"nonpayable"},{"type":"function","name":"transferProxyOwnership","inputs":[{"name":"newOwner","type":"address","internalType":"address"}],"outputs":[],"stateMutability":"nonpayable"},{"type":"function","name":"upgradeTo","inputs":[{"name":"newImplementation","type":"address","internalType":"address"}],"outputs":[],"stateMutability":"nonpayable"},{"type":"function","name":"upgradeToAndCall","inputs":[{"name":"newImplementation","type":"address","internalType":"address"},{"name":"data","type":"bytes","internalType":"bytes"}],"outputs":[],"stateMutability":"payable"},{"type":"event","name":"ProxyOwnershipTransferred","inputs":[{"name":"previousOwner","type":"address","indexed":false,"internalType":"address"},{"name":"newOwner","type":"address","indexed":false,"internalType":"address"}],"anonymous":false},{"type":"event","name":"Upgraded","inputs":[{"name":"implementation","type":"address","indexed":true,"internalType":"address"}],"anonymous":false}],"bytecode":{"object":"0x6080806040523461003957337f85bd7031deaf76b80f9733e7da132fe310adf86a8e73260691b76988b4b7e35d556106a1908161003f8239f35b600080fdfe6080604052600436101561002c575b361561001f575b61001d6105bf565b005b6100276105bf565b610015565b6000803560e01c908163025313a2146100bb575080633659cfe6146100b25780634f1ef286146100a95780635c60da1b146100a0578063612f2f37146100975780636c376cc51461008e5763f1739cae0361000e5761008961030f565b61000e565b506100896102cf565b5061008961026b565b5061008961023d565b506100896101c0565b50610089610107565b346100ee57806003193601126100ee5760008051602061064c833981519152546001600160a01b03166080908152602090f35b80fd5b6001600160a01b0381160361010257565b600080fd5b50346101025760203660031901126101025761001d600435610128816100f1565b61014a60018060a01b0360008051602061064c83398151915254163314610395565b610554565b50634e487b7160e01b600052604160045260246000fd5b90601f8019910116810190811067ffffffffffffffff82111761018857604052565b61019061014f565b604052565b60209067ffffffffffffffff81116101b3575b601f01601f19160190565b6101bb61014f565b6101a8565b506040366003190112610102576004356101d9816100f1565b6024359067ffffffffffffffff821161010257366023830112156101025781600401359061020682610195565b916102146040519384610166565b808352366024828601011161010257602081600092602461001d97018387013784010152610443565b50346101025760003660031901126101025760206102596104ae565b6040516001600160a01b039091168152f35b5034610102576020366003190112610102576004358015158103610102576102ab60018060a01b0360008051602061064c83398151915254163314610395565b7fce60c5db904241f4fe710c6b7d7c2e6f59bb4f2afc9ad1549ac9b29eb7f522b655005b50346101025760003660031901126101025760207fce60c5db904241f4fe710c6b7d7c2e6f59bb4f2afc9ad1549ac9b29eb7f522b6546040519015158152f35b50346101025760203660031901126101025760043561032d816100f1565b60008051602061064c83398151915280547f5a3e66efaa1e445ebd894728a69d6959842ea1e97bd79b892797106e270efcd9906040906001600160a01b039081169061037a338314610395565b85166103878115156103ed565b82519182526020820152a155005b1561039c57565b60405162461bcd60e51b815260206004820152602360248201527f4f776e6564557067726164656162696c69747950726f78793a20464f524249446044820152622222a760e91b6064820152608490fd5b156103f457565b60405162461bcd60e51b815260206004820152602160248201527f4f776e6564557067726164656162696c69747950726f78793a20494e56414c496044820152601160fa1b6064820152608490fd5b60006104a792610470829361014a60018060a01b0360008051602061064c83398151915254163314610395565b60208151910134305af13d156104a9573d61048a81610195565b906104986040519283610166565b8152600060203d92013e6103ed565b565b6103ed565b7fe64bc1454d00fa92a6df0fa38118ada362b2fe0056be7c885f77a79cabe48ba4546001600160a01b03166000811561054f575060206004916040519283809263557887a160e11b82525afa9081156105435760009161050c575090565b906020823d821161053b575b8161052560209383610166565b810103126100ee575051610538816100f1565b90565b3d9150610518565b6040513d6000823e3d90fd5b905090565b61055c6104ae565b6001600160a01b03808316929161057691168314156103ed565b7fe64bc1454d00fa92a6df0fa38118ada362b2fe0056be7c885f77a79cabe48ba4557fbc7cd75a20ee27fd9adebab32041f755214dbc6bffa90cc0225b39da2e5c2d3b600080a2565b507fce60c5db904241f4fe710c6b7d7c2e6f59bb4f2afc9ad1549ac9b29eb7f522b654610624575b6105ef6104ae565b6106036001600160a01b03821615156103ed565b60008060405192368285378336915af4903d91826000833e1561062257f35bfd5b61064660018060a01b0360008051602061064c83398151915254163314610395565b6105e756fe85bd7031deaf76b80f9733e7da132fe310adf86a8e73260691b76988b4b7e35da2646970667358221220291a185e79edea8bb1d8a100cf4bc679d6c980199bc0b9dd3ad0beea2d34b53564736f6c63430008110033","linkReferences":{}},"methodIdentifiers":{"implementation()":"5c60da1b","maintenance()":"6c376cc5","proxyOwner()":"025313a2","setMaintenance(bool)":"612f2f37","transferProxyOwnership(address)":"f1739cae","upgradeTo(address)":"3659cfe6","upgradeToAndCall(address,bytes)":"4f1ef286"},"id":61}