{"abi":[{"type":"function","name":"wrapper","inputs":[],"outputs":[{"name":"","type":"address","internalType":"address"}],"stateMutability":"view"},{"type":"function","name":"wrapperSet","inputs":[],"outputs":[{"name":"","type":"bool","internalType":"bool"}],"stateMutability":"view"},{"type":"event","name":"WrapperUpdated","inputs":[{"name":"Wrapper","type":"address","indexed":false,"internalType":"address"},{"name":"_status","type":"bool","indexed":false,"internalType":"bool"}],"anonymous":false}],"bytecode":{"object":"0x608080604052346100155760ba908161001b8239f35b600080fdfe6080806040526004361015601257600080fd5b600090813560e01c908163a472a7dc146061575063ac210cc714603457600080fd5b34605e5780600319360112605e5760035460405160089190911c6001600160a01b03168152602090f35b80fd5b9050346080578160031936011260805760209060ff6003541615158152f35b5080fdfea26469706673582212201c18d8d768807c644f2eb89e341134ec6c6039538f64695da193bee6d5daa16d64736f6c63430008110033","linkReferences":{}},"methodIdentifiers":{"wrapper()":"ac210cc7","wrapperSet()":"a472a7dc"},"id":10}