{"abi":[{"type":"constructor","inputs":[{"name":"implementationAuthority","type":"address","internalType":"address"}],"stateMutability":"nonpayable"},{"type":"fallback","stateMutability":"payable"},{"type":"function","name":"getImplementationAuthority","inputs":[],"outputs":[{"name":"","type":"address","internalType":"address"}],"stateMutability":"view"},{"type":"function","name":"setImplementationAuthority","inputs":[{"name":"_newImplementationAuthority","type":"address","internalType":"address"}],"outputs":[],"stateMutability":"nonpayable"},{"type":"event","name":"ImplementationAuthoritySet","inputs":[{"name":"_implementationAuthority","type":"address","indexed":true,"internalType":"address"}],"anonymous":false},{"type":"event","name":"Initialized","inputs":[{"name":"version","type":"uint8","indexed":false,"internalType":"uint8"}],"anonymous":false}],"bytecode":{"object":"0x6080604090808252346102105761002c9061082880380380916100228285610215565b833981019061024e565b6001600160a01b0381169081156101cc577f821f3e4d3d679f19eacc940c87acf846ea6eae24a63058ea750304437a62aafc5581519081600091807f3b1074392ed8e8424715d0dda2197eede67080b377fc8370e26f3e882207f6b88480a2636ff6e83f60e01b825281600460209586935afa9081156101c2578291610195575b5083516370e39c9560e11b848201908152600482526001600160401b039291808701848111828210176101815787525184928392905af4913d1561017a573d91821161016657845191610109601f8201601f1916860184610215565b8252833d92013e5b156101245750516105ba908161026e8239f35b606491519062461bcd60e51b82526004820152601660248201527f496e697469616c697a6174696f6e206661696c65642e000000000000000000006044820152fd5b634e487b7160e01b81526041600452602490fd5b5050610111565b634e487b7160e01b86526041600452602486fd5b6101b59150833d85116101bb575b6101ad8183610215565b81019061024e565b386100ad565b503d6101a3565b84513d84823e3d90fd5b825162461bcd60e51b815260206004820152601f60248201527f696e76616c696420617267756d656e74202d207a65726f2061646472657373006044820152606490fd5b600080fd5b601f909101601f19168101906001600160401b0382119082101761023857604052565b634e487b7160e01b600052604160045260246000fd5b9081602091031261021057516001600160a01b0381168103610210579056fe60406080815260048036101561001a575b6100186104ce565b005b600091823560e01c80632d5f11871461032b576392dd9d651461003d5750610010565b346103275760209182600319360112610323576100ef6101019282359261006384610362565b60008051602061056583398151915254610087906001600160a01b03163314610378565b6001600160a01b038481169661009e8815156103da565b835163709bc7f360e01b81528290828186818d5afa908115610316575b8b916102f9575b5016151592836102a0575b83610247575b836101ee575b83610195575b83610128575b5050509050610483565b60008051602061056583398151915255565b7f3b1074392ed8e8424715d0dda2197eede67080b377fc8370e26f3e882207f6b88280a280f35b9193819350518092637f6e602960e11b8252818a5afa918215610188575b889261015b575b5050161515803880806100e5565b61017a9250803d10610181575b6101728183610426565b81019061045e565b388061014d565b503d610168565b610190610476565b610146565b92508184516361f8982560e01b8152828186818d5afa9081156101e1575b8b916101c4575b50161515926100df565b6101db9150833d8511610181576101728183610426565b386101ba565b6101e9610476565b6101b3565b9250818451639e3e7bb960e01b8152828186818d5afa90811561023a575b8b9161021d575b50161515926100d9565b6102349150833d8511610181576101728183610426565b38610213565b610242610476565b61020c565b9250818451631ee9ce8b60e01b8152828186818d5afa908115610293575b8b91610276575b50161515926100d3565b61028d9150833d8511610181576101728183610426565b3861026c565b61029b610476565b610265565b9250818451636ff6e83f60e01b8152828186818d5afa9081156102ec575b8b916102cf575b50161515926100cd565b6102e69150833d8511610181576101728183610426565b386102c5565b6102f4610476565b6102be565b6103109150833d8511610181576101728183610426565b386100c2565b61031e610476565b6100bb565b8380fd5b8280fd5b833461035f578060031936011261035f57600080516020610565833981519152546001600160a01b03166080908152602090f35b80fd5b6001600160a01b0381160361037357565b600080fd5b1561037f57565b60405162461bcd60e51b815260206004820152602d60248201527f6f6e6c792063757272656e7420696d706c656d656e746174696f6e417574686f60448201526c1c9a5d1e4818d85b8818d85b1b609a1b6064820152608490fd5b156103e157565b60405162461bcd60e51b815260206004820152601f60248201527f696e76616c696420617267756d656e74202d207a65726f2061646472657373006044820152606490fd5b90601f8019910116810190811067ffffffffffffffff82111761044857604052565b634e487b7160e01b600052604160045260246000fd5b90816020910312610373575161047381610362565b90565b506040513d6000823e3d90fd5b1561048a57565b606460405162461bcd60e51b815260206004820152602060248201527f696e76616c696420496d706c656d656e746174696f6e20417574686f726974796044820152fd5b5060008051602061056583398151915254604051636ff6e83f60e01b8152600091829190602090829060049082906001600160a01b03165afa908115610557575b8291610539575b503682803781369161270f195a01f43d90816000803e15610535576000f35b6000fd5b610551915060203d8111610181576101728183610426565b38610516565b61055f610476565b61050f56fe821f3e4d3d679f19eacc940c87acf846ea6eae24a63058ea750304437a62aafca2646970667358221220003f44292fc12d9c0aba48cc0aea5a5e1ead6c097ace91d54b7c8dbe0f961dd764736f6c63430008110033","linkReferences":{}},"methodIdentifiers":{"getImplementationAuthority()":"2d5f1187","setImplementationAuthority(address)":"92dd9d65"},"id":57}