{"abi":[{"type":"function","name":"addAgent","inputs":[{"name":"_agent","type":"address","internalType":"address"}],"outputs":[],"stateMutability":"nonpayable"},{"type":"function","name":"addIdentityToStorage","inputs":[{"name":"_userAddress","type":"address","internalType":"address"},{"name":"_identity","type":"address","internalType":"contract IIdentity"},{"name":"_country","type":"uint16","internalType":"uint16"}],"outputs":[],"stateMutability":"nonpayable"},{"type":"function","name":"addTA","inputs":[{"name":"_agent","type":"address","internalType":"address"}],"outputs":[],"stateMutability":"nonpayable"},{"type":"function","name":"bindIdentityRegistry","inputs":[{"name":"_identityRegistry","type":"address","internalType":"address"}],"outputs":[],"stateMutability":"nonpayable"},{"type":"function","name":"init","inputs":[],"outputs":[],"stateMutability":"nonpayable"},{"type":"function","name":"isAgent","inputs":[{"name":"_agent","type":"address","internalType":"address"}],"outputs":[{"name":"","type":"bool","internalType":"bool"}],"stateMutability":"view"},{"type":"function","name":"isTA","inputs":[{"name":"_agent","type":"address","internalType":"address"}],"outputs":[{"name":"","type":"bool","internalType":"bool"}],"stateMutability":"view"},{"type":"function","name":"linkedIdentityRegistries","inputs":[],"outputs":[{"name":"","type":"address[]","internalType":"address[]"}],"stateMutability":"view"},{"type":"function","name":"modifyStoredIdentity","inputs":[{"name":"_userAddress","type":"address","internalType":"address"},{"name":"_identity","type":"address","internalType":"contract IIdentity"}],"outputs":[],"stateMutability":"nonpayable"},{"type":"function","name":"modifyStoredInvestorCountry","inputs":[{"name":"_userAddress","type":"address","internalType":"address"},{"name":"_country","type":"uint16","internalType":"uint16"}],"outputs":[],"stateMutability":"nonpayable"},{"type":"function","name":"owner","inputs":[],"outputs":[{"name":"","type":"address","internalType":"address"}],"stateMutability":"view"},{"type":"function","name":"removeAgent","inputs":[{"name":"_agent","type":"address","internalType":"address"}],"outputs":[],"stateMutability":"nonpayable"},{"type":"function","name":"removeIdentityFromStorage","inputs":[{"name":"_userAddress","type":"address","internalType":"address"}],"outputs":[],"stateMutability":"nonpayable"},{"type":"function","name":"removeTA","inputs":[{"name":"_agent","type":"address","internalType":"address"}],"outputs":[],"stateMutability":"nonpayable"},{"type":"function","name":"renounceOwnership","inputs":[],"outputs":[],"stateMutability":"nonpayable"},{"type":"function","name":"storedIdentity","inputs":[{"name":"_userAddress","type":"address","internalType":"address"}],"outputs":[{"name":"","type":"address","internalType":"contract IIdentity"}],"stateMutability":"view"},{"type":"function","name":"storedInvestorCountry","inputs":[{"name":"_userAddress","type":"address","internalType":"address"}],"outputs":[{"name":"","type":"uint16","internalType":"uint16"}],"stateMutability":"view"},{"type":"function","name":"transferOwnership","inputs":[{"name":"newOwner","type":"address","internalType":"address"}],"outputs":[],"stateMutability":"nonpayable"},{"type":"function","name":"unbindIdentityRegistry","inputs":[{"name":"_identityRegistry","type":"address","internalType":"address"}],"outputs":[],"stateMutability":"nonpayable"},{"type":"event","name":"AgentAdded","inputs":[{"name":"_agent","type":"address","indexed":true,"internalType":"address"}],"anonymous":false},{"type":"event","name":"AgentRemoved","inputs":[{"name":"_agent","type":"address","indexed":true,"internalType":"address"}],"anonymous":false},{"type":"event","name":"CountryModified","inputs":[{"name":"investorAddress","type":"address","indexed":true,"internalType":"address"},{"name":"country","type":"uint16","indexed":true,"internalType":"uint16"}],"anonymous":false},{"type":"event","name":"IdentityModified","inputs":[{"name":"oldIdentity","type":"address","indexed":true,"internalType":"contract IIdentity"},{"name":"newIdentity","type":"address","indexed":true,"internalType":"contract IIdentity"}],"anonymous":false},{"type":"event","name":"IdentityRegistryBound","inputs":[{"name":"identityRegistry","type":"address","indexed":true,"internalType":"address"}],"anonymous":false},{"type":"event","name":"IdentityRegistryUnbound","inputs":[{"name":"identityRegistry","type":"address","indexed":true,"internalType":"address"}],"anonymous":false},{"type":"event","name":"IdentityStored","inputs":[{"name":"investorAddress","type":"address","indexed":true,"internalType":"address"},{"name":"identity","type":"address","indexed":true,"internalType":"contract IIdentity"}],"anonymous":false},{"type":"event","name":"IdentityUnstored","inputs":[{"name":"investorAddress","type":"address","indexed":true,"internalType":"address"},{"name":"identity","type":"address","indexed":true,"internalType":"contract IIdentity"}],"anonymous":false},{"type":"event","name":"Initialized","inputs":[{"name":"version","type":"uint8","indexed":false,"internalType":"uint8"}],"anonymous":false},{"type":"event","name":"OwnershipTransferred","inputs":[{"name":"previousOwner","type":"address","indexed":true,"internalType":"address"},{"name":"newOwner","type":"address","indexed":true,"internalType":"address"}],"anonymous":false},{"type":"event","name":"taAdded","inputs":[{"name":"_agent","type":"address","indexed":true,"internalType":"address"}],"anonymous":false},{"type":"event","name":"taRemoved","inputs":[{"name":"_agent","type":"address","indexed":true,"internalType":"address"}],"anonymous":false}],"bytecode":{"object":"0x6080806040523461001657611246908161001c8239f35b600080fdfe6040608081526004908136101561001557600080fd5b600091823560e01c80631ffbb06414610de45780634788598c14610d1b57806358b5b5c114610c55578063690a49f914610b28578063715018a614610acb578063727e13bc14610a8b5780637988d3a514610a5057806384e79842146109e85780638da5cb5b146109bf57806397a012f7146107d457806397a6278e1461076c5780639f3418d5146106ae578063a53410dd1461058f578063ab190ae7146104fb578063bf9eb95914610408578063cf191bcd14610378578063e1c7392a14610247578063e805cf86146101865763f2fde38b146100f257600080fd5b346101825760203660031901126101825761010b610e13565b9161011461116f565b6001600160a01b03831615610130578361012d846111c7565b80f35b906020608492519162461bcd60e51b8352820152602660248201527f4f776e61626c653a206e6577206f776e657220697320746865207a65726f206160448201526564647265737360d01b6064820152fd5b8280fd5b5050346102435780600319360112610243576101a0610e13565b906101a9610e2e565b916101bb6101b633611079565b610e44565b6001600160a01b0390811680151580610238575b6101d890610ea7565b80855260676020526101f08284872054161515610ef3565b8452606760205290832080546001600160a01b03198116938316938417909155167f556ce885dfcea52155c773f1ed2e58781c51945c13030ab8f793c61f51d1b8088380a380f35b5083821615156101cf565b5080fd5b5034610182578260031936011261018257825460ff8160081c16159182809361036b575b8015610354575b156102fa575060ff1981166001178455816102e9575b506102a260ff845460081c1661029d8161110f565b61110f565b6102ab336111c7565b6102b3575080f35b60207f7f26b83ff96e1f2b6a682f133852f6798a09c465da95921460cefb38474024989161ff001984541684555160018152a180f35b61ffff191661010117835538610288565b608490602085519162461bcd60e51b8352820152602e60248201527f496e697469616c697a61626c653a20636f6e747261637420697320616c72656160448201526d191e481a5b9a5d1a585b1a5e995960921b6064820152fd5b50303b1580156102725750600160ff831614610272565b50600160ff83161061026b565b50503461024357602036600319011261024357610393610e13565b61039f6101b633611079565b6001600160a01b039081169083906103b8831515610ea7565b82825260676020526103d08185842054161515610ef3565b82825260676020528382205416928120557fca6a4c3370b859312246e7f086284076e557997e10d856b716c23ab67067790b8380a380f35b5091346104f857806003193601126104f857815180916068549384835260208093018095606884527fa2153420d844928b4421650203c77babc8b33d7f2e7b450e2966db0c2209775390845b868282106104db5750505050849003601f01601f191684019567ffffffffffffffff8711858810176104c8575085815282865292518583018190528594938501939290915b8281106104a857505050500390f35b83516001600160a01b031685528695509381019392810192600101610499565b634e487b7160e01b835260419052602482fd5b83546001600160a01b031685529093019260019283019201610454565b80fd5b50829034610243576020366003190112610243576001600160a01b0361051f610e13565b169081156105415760208460ff81868681526066855220541690519015158152f35b608490602085519162461bcd60e51b8352820152602260248201527f526f6c65733a206163636f756e7420697320746865207a65726f206164647265604482015261737360f01b6064820152fd5b5034610182576060366003190112610182576105a9610e13565b6105b1610e2e565b926044359161ffff831683036106aa576105cd6101b633611079565b6001600160a01b03908116938415158061069f575b6105eb90610ea7565b84875260676020528183882054166106635750838652606760205281862080546001600160a01b0319169590911694851790558420805461ffff60a01b191660a09290921b61ffff60a01b169190911790557e30dea7e9c9afaa2e3c9810f2fc9b5181f1bad74ca5a8db85f746a33585e7478380a380f35b606490602084519162461bcd60e51b83528201526016602482015275616464726573732073746f72656420616c726561647960501b6044820152fd5b5085821615156105e2565b8580fd5b5050346102435780600319360112610243576106c8610e13565b6024359161ffff83169283810361076857610741916106e96101b633611079565b6001600160a01b039384169361071890610704861515610ea7565b858852606760205282882054161515610ef3565b83865260676020528520805461ffff60a01b191660a09290921b61ffff60a01b16919091179055565b7f20965fcdc6eed7ae398065b40ece4e732ba667992ca819fc54e80e9f2047c4cf8380a380f35b8480fd5b83346104f85760203660031901126104f857610786610e13565b61078e61116f565b6001600160a01b038116906107ad906107a8831515610ea7565b610ffb565b7fed9c8ad8d5a0a66898ea49d2956929c93ae2e8bd50281b2ed897c5d1a6737e0b8280a280f35b509034610182576020366003190112610182576107ef610e13565b6001600160a01b0380821693919284151592909161080c84610ea7565b6068805493841561097d5750875b848110610885575b8888610839896107a88a61083461116f565b610ea7565b807fed9c8ad8d5a0a66898ea49d2956929c93ae2e8bd50281b2ed897c5d1a6737e0b8380a27f51f353eb5801583fdf2706e43c045b62fdf6b1566820b349390616363ecf72c98280a280f35b828861089083610f38565b929054600393841b1c16146108c4575060001981146108b15760010161081a565b634e487b7160e01b895260118452602489fd5b939897969594919291600019919082810190811161096a57906108fa846108ed61091e94610f38565b905490891b1c1691610f38565b90919082549060031b9160018060a01b039283811b93849216901b16911916179055565b825480156109575761083997989950906107a89594939291019261094184610f38565b81939154921b1b19169055559192388080610822565b634e487b7160e01b895260318a52602489fd5b634e487b7160e01b8a5260118b5260248afd5b5162461bcd60e51b8152602081850152601f60248201527f6964656e74697479207265676973747279206973206e6f742073746f726564006044820152606490fd5b50503461024357816003193601126102435760335490516001600160a01b039091168152602090f35b83346104f85760203660031901126104f857610a02610e13565b610a0a61116f565b6001600160a01b03811690610a2990610a24831515610ea7565b610f85565b7ff68e73cec97f2d70aa641fb26e87a4383686e2efacb648f2165aeb02ac562ec58280a280f35b505034610243576020366003190112610243576020916001600160a01b0390829082610a7a610e13565b168152606785522054169051908152f35b5050346102435760203660031901126102435760209161ffff9082906001600160a01b03610ab7610e13565b16815260678552205460a01c169051908152f35b83346104f857806003193601126104f857610ae461116f565b603380546001600160a01b0319811690915581906001600160a01b03167f8be0079c531659141344cd1fd0a4f28419497f9722a3daafe3b4186f6b6457e08280a380f35b5091903461024357602036600319011261024357610b44610e13565b6001600160a01b0381169182151590610b5c82610ea7565b61012c6068541015610c055750610b759061083461116f565b610b7e81610f85565b817ff68e73cec97f2d70aa641fb26e87a4383686e2efacb648f2165aeb02ac562ec58480a260685468010000000000000000811015610bf257906108fa826001610bcb9401606855610f38565b7f500c250171aa20e861b680f93502547b9d436eda7d4c537fc360db6e0c6eedfb8280a280f35b634e487b7160e01b845260418552602484fd5b5162461bcd60e51b8152602081870152602560248201527f63616e6e6f742062696e64206d6f7265207468616e2033303020495220746f20604482015264312049525360d81b6064820152608490fd5b50903461018257602036600319011261018257610c70610e13565b91610c7961116f565b6001600160a01b03831692610c9890610c93851515610ea7565b6110ec565b610cd9575081835260666020528220805460ff191660011790557f4f89f64d04cc833c53d6284af6b75785fd83d2e9737936a817421f3fa4fa777e8280a280f35b6020606492519162461bcd60e51b8352820152601f60248201527f526f6c65733a206163636f756e7420616c72656164792068617320726f6c65006044820152fd5b50903461018257602036600319011261018257610d36610e13565b91610d3f61116f565b6001600160a01b03831692610d5990610c93851515610ea7565b15610d98575081835260666020528220805460ff191690557f82f1efed5d891d7ba766c32612c2a36d22f2feddccbdaf31c6fb2ea7c52b287c8280a280f35b6020608492519162461bcd60e51b8352820152602160248201527f526f6c65733a206163636f756e7420646f6573206e6f74206861766520726f6c6044820152606560f81b6064820152fd5b50503461024357602036600319011261024357602090610e0a610e05610e13565b611079565b90519015158152f35b600435906001600160a01b0382168203610e2957565b600080fd5b602435906001600160a01b0382168203610e2957565b15610e4b57565b60405162461bcd60e51b815260206004820152602e60248201527f4167656e74526f6c653a2063616c6c657220646f6573206e6f7420686176652060448201526d746865204167656e7420726f6c6560901b6064820152608490fd5b15610eae57565b60405162461bcd60e51b815260206004820152601f60248201527f696e76616c696420617267756d656e74202d207a65726f2061646472657373006044820152606490fd5b15610efa57565b60405162461bcd60e51b81526020600482015260166024820152751859191c995cdcc81b9bdd081cdd1bdc9959081e595d60521b6044820152606490fd5b606854811015610f6f5760686000527fa2153420d844928b4421650203c77babc8b33d7f2e7b450e2966db0c220977530190600090565b634e487b7160e01b600052603260045260246000fd5b610f8e81611079565b610fb6576001600160a01b03166000908152606560205260409020805460ff19166001179055565b60405162461bcd60e51b815260206004820152601f60248201527f526f6c65733a206163636f756e7420616c72656164792068617320726f6c65006044820152606490fd5b61100481611079565b1561102a576001600160a01b03166000908152606560205260409020805460ff19169055565b60405162461bcd60e51b815260206004820152602160248201527f526f6c65733a206163636f756e7420646f6573206e6f74206861766520726f6c6044820152606560f81b6064820152608490fd5b6001600160a01b0316801561109c57600052606560205260ff6040600020541690565b60405162461bcd60e51b815260206004820152602260248201527f526f6c65733a206163636f756e7420697320746865207a65726f206164647265604482015261737360f01b6064820152608490fd5b6001600160a01b0316801561109c57600052606660205260ff6040600020541690565b1561111657565b60405162461bcd60e51b815260206004820152602b60248201527f496e697469616c697a61626c653a20636f6e7472616374206973206e6f74206960448201526a6e697469616c697a696e6760a81b6064820152608490fd5b6033546001600160a01b0316330361118357565b606460405162461bcd60e51b815260206004820152602060248201527f4f776e61626c653a2063616c6c6572206973206e6f7420746865206f776e65726044820152fd5b603380546001600160a01b039283166001600160a01b0319821681179092559091167f8be0079c531659141344cd1fd0a4f28419497f9722a3daafe3b4186f6b6457e0600080a356fea2646970667358221220749836e027aaab2f84e678bc2e840622950f52bbabe91c79614d0eb8f95297c764736f6c63430008110033","linkReferences":{}},"methodIdentifiers":{"addAgent(address)":"84e79842","addIdentityToStorage(address,address,uint16)":"a53410dd","addTA(address)":"58b5b5c1","bindIdentityRegistry(address)":"690a49f9","init()":"e1c7392a","isAgent(address)":"1ffbb064","isTA(address)":"ab190ae7","linkedIdentityRegistries()":"bf9eb959","modifyStoredIdentity(address,address)":"e805cf86","modifyStoredInvestorCountry(address,uint16)":"9f3418d5","owner()":"8da5cb5b","removeAgent(address)":"97a6278e","removeIdentityFromStorage(address)":"cf191bcd","removeTA(address)":"4788598c","renounceOwnership()":"715018a6","storedIdentity(address)":"7988d3a5","storedInvestorCountry(address)":"727e13bc","transferOwnership(address)":"f2fde38b","unbindIdentityRegistry(address)":"97a012f7"},"id":72}