{"abi":[{"type":"function","name":"version","inputs":[],"outputs":[{"name":"","type":"string","internalType":"string"}],"stateMutability":"pure"}],"bytecode":{"object":"0x608080604052346100155760f2908161001b8239f35b600080fdfe60806004361015600e57600080fd5b600090813560e01c6354fd4d5014602457600080fd5b3460b8578160031936011260b85760409081810181811067ffffffffffffffff82111760a45782526005815260209064322e302e3160d81b8282015282519382859384528251928382860152825b848110608f57505050828201840152601f01601f19168101030190f35b81810183015188820188015287955082016072565b634e487b7160e01b84526041600452602484fd5b5080fdfea264697066735822122055c9449b5f8090010bce0ffa68672bed08ecda409abf51e26b6e068eeaacf73c64736f6c63430008110033","linkReferences":{}},"methodIdentifiers":{"version()":"54fd4d50"},"id":55}