{"abi":[{"type":"constructor","inputs":[{"name":"initialManagementKey","type":"address","internalType":"address"},{"name":"_isLibrary","type":"bool","internalType":"bool"}],"stateMutability":"nonpayable"},{"type":"function","name":"addClaim","inputs":[{"name":"_topic","type":"uint256","internalType":"uint256"},{"name":"_scheme","type":"uint256","internalType":"uint256"},{"name":"_issuer","type":"address","internalType":"address"},{"name":"_signature","type":"bytes","internalType":"bytes"},{"name":"_data","type":"bytes","internalType":"bytes"},{"name":"_uri","type":"string","internalType":"string"}],"outputs":[{"name":"claimRequestId","type":"bytes32","internalType":"bytes32"}],"stateMutability":"nonpayable"},{"type":"function","name":"addKey","inputs":[{"name":"_key","type":"bytes32","internalType":"bytes32"},{"name":"_purpose","type":"uint256","internalType":"uint256"},{"name":"_type","type":"uint256","internalType":"uint256"}],"outputs":[{"name":"success","type":"bool","internalType":"bool"}],"stateMutability":"nonpayable"},{"type":"function","name":"approve","inputs":[{"name":"_id","type":"uint256","internalType":"uint256"},{"name":"_approve","type":"bool","internalType":"bool"}],"outputs":[{"name":"success","type":"bool","internalType":"bool"}],"stateMutability":"nonpayable"},{"type":"function","name":"execute","inputs":[{"name":"_to","type":"address","internalType":"address"},{"name":"_value","type":"uint256","internalType":"uint256"},{"name":"_data","type":"bytes","internalType":"bytes"}],"outputs":[{"name":"executionId","type":"uint256","internalType":"uint256"}],"stateMutability":"payable"},{"type":"function","name":"getClaim","inputs":[{"name":"_claimId","type":"bytes32","internalType":"bytes32"}],"outputs":[{"name":"topic","type":"uint256","internalType":"uint256"},{"name":"scheme","type":"uint256","internalType":"uint256"},{"name":"issuer","type":"address","internalType":"address"},{"name":"signature","type":"bytes","internalType":"bytes"},{"name":"data","type":"bytes","internalType":"bytes"},{"name":"uri","type":"string","internalType":"string"}],"stateMutability":"view"},{"type":"function","name":"getClaimIdsByTopic","inputs":[{"name":"_topic","type":"uint256","internalType":"uint256"}],"outputs":[{"name":"claimIds","type":"bytes32[]","internalType":"bytes32[]"}],"stateMutability":"view"},{"type":"function","name":"getKey","inputs":[{"name":"_key","type":"bytes32","internalType":"bytes32"}],"outputs":[{"name":"purposes","type":"uint256[]","internalType":"uint256[]"},{"name":"keyType","type":"uint256","internalType":"uint256"},{"name":"key","type":"bytes32","internalType":"bytes32"}],"stateMutability":"view"},{"type":"function","name":"getKeyPurposes","inputs":[{"name":"_key","type":"bytes32","internalType":"bytes32"}],"outputs":[{"name":"_purposes","type":"uint256[]","internalType":"uint256[]"}],"stateMutability":"view"},{"type":"function","name":"getKeysByPurpose","inputs":[{"name":"_purpose","type":"uint256","internalType":"uint256"}],"outputs":[{"name":"keys","type":"bytes32[]","internalType":"bytes32[]"}],"stateMutability":"view"},{"type":"function","name":"initialize","inputs":[{"name":"initialManagementKey","type":"address","internalType":"address"}],"outputs":[],"stateMutability":"nonpayable"},{"type":"function","name":"keyHasPurpose","inputs":[{"name":"_key","type":"bytes32","internalType":"bytes32"},{"name":"_purpose","type":"uint256","internalType":"uint256"}],"outputs":[{"name":"result","type":"bool","internalType":"bool"}],"stateMutability":"view"},{"type":"function","name":"removeClaim","inputs":[{"name":"_claimId","type":"bytes32","internalType":"bytes32"}],"outputs":[{"name":"success","type":"bool","internalType":"bool"}],"stateMutability":"nonpayable"},{"type":"function","name":"removeKey","inputs":[{"name":"_key","type":"bytes32","internalType":"bytes32"},{"name":"_purpose","type":"uint256","internalType":"uint256"}],"outputs":[{"name":"success","type":"bool","internalType":"bool"}],"stateMutability":"nonpayable"},{"type":"function","name":"version","inputs":[],"outputs":[{"name":"","type":"string","internalType":"string"}],"stateMutability":"pure"},{"type":"event","name":"Approved","inputs":[{"name":"executionId","type":"uint256","indexed":true,"internalType":"uint256"},{"name":"approved","type":"bool","indexed":false,"internalType":"bool"}],"anonymous":false},{"type":"event","name":"ClaimAdded","inputs":[{"name":"claimId","type":"bytes32","indexed":true,"internalType":"bytes32"},{"name":"topic","type":"uint256","indexed":true,"internalType":"uint256"},{"name":"scheme","type":"uint256","indexed":false,"internalType":"uint256"},{"name":"issuer","type":"address","indexed":true,"internalType":"address"},{"name":"signature","type":"bytes","indexed":false,"internalType":"bytes"},{"name":"data","type":"bytes","indexed":false,"internalType":"bytes"},{"name":"uri","type":"string","indexed":false,"internalType":"string"}],"anonymous":false},{"type":"event","name":"ClaimChanged","inputs":[{"name":"claimId","type":"bytes32","indexed":true,"internalType":"bytes32"},{"name":"topic","type":"uint256","indexed":true,"internalType":"uint256"},{"name":"scheme","type":"uint256","indexed":false,"internalType":"uint256"},{"name":"issuer","type":"address","indexed":true,"internalType":"address"},{"name":"signature","type":"bytes","indexed":false,"internalType":"bytes"},{"name":"data","type":"bytes","indexed":false,"internalType":"bytes"},{"name":"uri","type":"string","indexed":false,"internalType":"string"}],"anonymous":false},{"type":"event","name":"ClaimRemoved","inputs":[{"name":"claimId","type":"bytes32","indexed":true,"internalType":"bytes32"},{"name":"topic","type":"uint256","indexed":true,"internalType":"uint256"},{"name":"scheme","type":"uint256","indexed":false,"internalType":"uint256"},{"name":"issuer","type":"address","indexed":true,"internalType":"address"},{"name":"signature","type":"bytes","indexed":false,"internalType":"bytes"},{"name":"data","type":"bytes","indexed":false,"internalType":"bytes"},{"name":"uri","type":"string","indexed":false,"internalType":"string"}],"anonymous":false},{"type":"event","name":"Executed","inputs":[{"name":"executionId","type":"uint256","indexed":true,"internalType":"uint256"},{"name":"to","type":"address","indexed":true,"internalType":"address"},{"name":"value","type":"uint256","indexed":true,"internalType":"uint256"},{"name":"data","type":"bytes","indexed":false,"internalType":"bytes"}],"anonymous":false},{"type":"event","name":"ExecutionFailed","inputs":[{"name":"executionId","type":"uint256","indexed":true,"internalType":"uint256"},{"name":"to","type":"address","indexed":true,"internalType":"address"},{"name":"value","type":"uint256","indexed":true,"internalType":"uint256"},{"name":"data","type":"bytes","indexed":false,"internalType":"bytes"}],"anonymous":false},{"type":"event","name":"ExecutionRequested","inputs":[{"name":"executionId","type":"uint256","indexed":true,"internalType":"uint256"},{"name":"to","type":"address","indexed":true,"internalType":"address"},{"name":"value","type":"uint256","indexed":true,"internalType":"uint256"},{"name":"data","type":"bytes","indexed":false,"internalType":"bytes"}],"anonymous":false},{"type":"event","name":"KeyAdded","inputs":[{"name":"key","type":"bytes32","indexed":true,"internalType":"bytes32"},{"name":"purpose","type":"uint256","indexed":true,"internalType":"uint256"},{"name":"keyType","type":"uint256","indexed":true,"internalType":"uint256"}],"anonymous":false},{"type":"event","name":"KeyRemoved","inputs":[{"name":"key","type":"bytes32","indexed":true,"internalType":"bytes32"},{"name":"purpose","type":"uint256","indexed":true,"internalType":"uint256"},{"name":"keyType","type":"uint256","indexed":true,"internalType":"uint256"}],"anonymous":false}],"bytecode":{"object":"0x608034620002d4576001600160401b0390620027bc90601f38839003908101601f191682019084821183831017620002195780839160409586948552833981010312620002d45780516001600160a01b03811690819003620002d45760208092015191821592831503620002d45761ffff19928360065416908160065583156200029057156200027d57506006549260ff9384811615801562000273575b156200022f57166101011760065583518181019283528181529283850192868411858510176200021957838652845190209260009684885260606001968786528660028a8c20015501908282109082111762000205578652848152838752848352858720908154868355808710620001db575b5090875282872085885b818110620001c657505050505081855282808587200155828552600281528385209081549168010000000000000000831015620001b2578483018082558310156200019e577f480000bb1edad8ca1470381cc334b1917fbd51c6531f3a623ea8e0ec7e38a6e99287928592879899528320015580a45b516124e29081620002da8239f35b634e487b7160e01b87526032600452602487fd5b634e487b7160e01b87526041600452602487fd5b8585855116940193818401550186906200011a565b8289528680868b2092830192015b828110620001f957505062000110565b8a8155018790620001e9565b634e487b7160e01b88526041600452602488fd5b634e487b7160e01b600052604160045260246000fd5b855162461bcd60e51b815260048101849052601e60248201527f496e697469616c206b65792077617320616c72656164792073657475702e00006044820152606490fd5b50303b156200009d565b9250505060019192501760065562000190565b855162461bcd60e51b815260048101849052601f60248201527f696e76616c696420617267756d656e74202d207a65726f2061646472657373006044820152606490fd5b600080fdfe6080604052600436101561001257600080fd5b60003560e01c806312aaac70146115dc5780631d381240146113b25780634eee424a146110e057806353d413c514610d1f57806354fd4d5014610cd9578063747442d314610c9857806380e9e9e114610c2e5780639010f72614610bb8578063b1a34e0d14610620578063b61d27f61461039a578063c4d66de8146101f1578063c9100bcb14610122578063d202158d146100ff5763fb307b34146100b657600080fd5b346100fa5760203660031901126100fa5760043560005260016020526100f66100e2604060002061190b565b60405191829160208352602083019061163f565b0390f35b600080fd5b346100fa57602061011861011236611673565b90612417565b6040519015158152f35b346100fa5760203660031901126100fa576004356000526004602052604060002054600160406000200154906100f661019f6101e361019f6101d561019f60018060a01b03600260406000200154166101b260036040600020016101a660046040600020016101a660056040600020019360405197888092611a51565b038761176b565b60405197888092611a51565b60405198899889526020890152604088015260c0606088015260c0870190611689565b908582036080870152611689565b9083820360a0850152611689565b346100fa576020806003193601126100fa576001600160a01b03610213611704565b168015610355576006549060ff9182811615801561034c575b156103075761ffff19166101011760065560405183810191825283815261025281611750565b519020806000526001928392838252826002604060002001556040516102778161171a565b84815283600052848352604060002090610290826119bf565b90600052826000208560005b8181106102f3575080866002878260005283815283806040600020015583600052526102cc816040600020611a2b565b7f480000bb1edad8ca1470381cc334b1917fbd51c6531f3a623ea8e0ec7e38a6e9600080a4005b85858551169401938184015501869061029c565b60405162461bcd60e51b815260048101859052601e60248201527f496e697469616c206b65792077617320616c72656164792073657475702e00006044820152606490fd5b50303b1561022c565b60405162461bcd60e51b815260048101839052601f60248201527f696e76616c696420617267756d656e74202d207a65726f2061646472657373006044820152606490fd5b60603660031901126100fa576103ae611704565b6001600160401b03906024356044358381116100fa576103d29036906004016117de565b916001916103eb8360ff60065460081c161515146117fc565b6000805480825260036020908152604090922080546001600160a01b0319166001600160a01b03909516948517815585810184905586519297919660029091019291821161060a57828261044b8994610445899754611864565b846118b5565b89601f82116001146105785791817f8afcfabcb00e47a53a8fc3e9f23ff47ee1926194bb1350dd007c50b412a6cee894926104bb9460009161056d575b50600019600383901b1c1916908a1b1790555b6104a66000546118fc565b6000556040519182918b83528b830190611689565b0390a46104df604051858101903382528681526104d781611750565b5190206121b2565b1561050d57506104fa9060ff60065460081c161515146117fc565b61050381611ae7565b505b604051908152f35b30141580610546575b610521575b50610505565b6105369060ff60065460081c161515146117fc565b61053f81611ae7565b508261051b565b506105686040518481019033825285815261056081611750565b5190206122df565b610516565b90508301518d610488565b60008381528b81208a93929091601f198416908e5b8282106105ed5750509183916104bb96947f8afcfabcb00e47a53a8fc3e9f23ff47ee1926194bb1350dd007c50b412a6cee8989694106105d4575b5050811b01905561049b565b85015160001960f88460031b161c191690558d806105c8565b8389015185558c9a508e99508d969094019392830192018e61058d565b634e487b7160e01b600052604160045260246000fd5b346100fa5760031960c0368201126100fa57604435906001600160a01b03821682036100fa576064356001600160401b0381116100fa576106659036906004016117de565b6084356001600160401b0381116100fa576106849036906004016117de565b9060a4356001600160401b0381116100fa57366023820112156100fa576106b59036906024816004013591016117a7565b926106cc600160ff60065460081c161515146117fc565b3033148015610b8a575b6106df906120c3565b306001600160a01b03861603610a9d575b50604080516001600160a01b038616602082019081526004358284015291815261071981611735565b51902092836000526004602052600435604060002055602435600160406000200155600360406000200182516001600160401b03811161060a57610761816104458454611864565b806020601f8211600114610a3657600091610a2b575b508160011b916000199060031b1c19161790555b836000526004602052600460406000200183516001600160401b03811161060a576107ba816104458454611864565b806020601f82116001146109c4576000916109b9575b508160011b916000199060031b1c19161790555b8360005260046020526005604060002001948151916001600160401b03831161060a57868361081a889561044560209b54611864565b88601f82116001146109515760009082610946575b508160011b916000199060031b1c19161790555b60008381526004885260409020600201546001600160a01b038381169116146108f9577f46149b18aa084502c3f12bc75e19eda8bda8d102b82cce8474677a6d0d5f43c591600435600052600588526108a0846040600020611a2b565b8360005260048852600260406000200160018060a01b0382166bffffffffffffffffffffffff60a01b8254161790556108ee60405192839260018060a01b031697600435976024358561212a565b0390a4604051908152f35b6040516001600160a01b0390921694600435947f3bab293fc00db832d7619a9299914251b8747c036867ec056cbd506f60135b139392839261093e926024358561212a565b0390a4610505565b90508301518a61082f565b82600052896000209060005b601f198416811061099f5750908291600193601f19811610610986575b5050811b019055610843565b85015160001960f88460031b161c191690558a8061097a565b8186015183558a9750600190920191908b01908b0161095d565b9050850151886107d0565b91508260005260206000206000925b601f1983168410610a13576001935082601f198116106109fa575b5050811b0190556107e4565b87015160001960f88460031b161c1916905588806109ee565b878101518255602093840193600190920191016109d3565b905084015188610777565b91508260005260206000206000925b601f1983168410610a85576001935082601f19811610610a6c575b5050811b01905561078b565b86015160001960f88460031b161c191690558880610a60565b86810151825560209384019360019092019101610a45565b6020610ae6916040518093819263604b4d3760e11b8352306004840152600435602484015260806044840152610ad66084840188611689565b9083820301606484015287611689565b03816001600160a01b0389165afa908115610b7e57600091610b44575b5015610b0f57846106f0565b60405162461bcd60e51b815260206004820152600d60248201526c696e76616c696420636c61696d60981b6044820152606490fd5b90506020813d8211610b76575b81610b5e6020938361176b565b810103126100fa575180151581036100fa5785610b03565b3d9150610b51565b6040513d6000823e3d90fd5b506106df610bb1604051602081019033825260208152610ba981611750565b51902061224e565b90506106d6565b346100fa576020806003193601126100fa5760043560005260028152604060002090604051908181845491828152019360005281600020916000905b828210610c17576100f685610c0b8189038261176b565b604051918291826116c9565b835486529485019460019384019390910190610bf4565b346100fa576020806003193601126100fa5760043560005260058152604060002090604051908181845491828152019360005281600020916000905b828210610c81576100f685610c0b8189038261176b565b835486529485019460019384019390910190610c6a565b346100fa5760403660031901126100fa5760243580151581036100fa57610118602091610cd1600160ff60065460081c161515146117fc565b600435611e51565b346100fa5760003660031901126100fa576100f6604051610cf981611750565b6005815264322e302e3160d81b6020820152604051918291602083526020830190611689565b346100fa57610d2d36611673565b906001610d458160ff60065460081c161515146117fc565b30331480156110ba575b610d589061195a565b816000526020928184526002908382604060002001540361106b5783600052828552610d87604060002061190b565b916000845b610fe6575b83516000199190828101908111610f4b57610daf610db791876119e9565b5191866119e9565b528560005284875260406000208451906001600160401b03821161060a57600160401b821161060a578054828255808310610fc9575b5088860190600052886000208760005b848110610fb757505050505085600052848752604060002080548015610fa1578201610e298183611a13565b9290805485600395861b1b19169055556000908460005283895286604060002054905b610f61575b85600052848a52604060002091848201918211610f4b57610e78610e8f92610ea894611a13565b9054911b1c9286600052858b526040600020611a13565b819391549060031b600019811b9283911b169119161790565b905582600052818752610ebe6040600020612099565b8560005284875284604060002001549351908101908111610f4b5715610f0d575b50604051937f585a4aef50f8267a92b32412b331b20f7f8b96f2245b253b9cc50dcc621d3397600080a48152f35b60009085825284875260408220805483825580610f33575b508286820155015585610edf565b818452888420610f459181019061189e565b88610f25565b634e487b7160e01b600052601160045260246000fd5b9185600052848a5288610f78826040600020611a13565b905490841b1c14610f9b57610f8c906118fc565b9187818410610e4c5750610e51565b91610e51565b634e487b7160e01b600052603160045260246000fd5b8b845194019381840155018890610dfd565b610fe09082600052838b600020918201910161189e565b89610ded565b82610ff182866119e9565b511461106657611000906118fc565b8084511461100e5784610d8c565b60405162461bcd60e51b815260048101889052602a60248201527f4e6f6e4578697374696e673a204b657920646f65736e27742068617665207375604482015269636820707572706f736560b01b6064820152608490fd5b610d91565b60405162461bcd60e51b815260048101869052602160248201527f4e6f6e4578697374696e673a204b65792069736e2774207265676973746572656044820152601960fa1b6064820152608490fd5b50610d586110d96040516020810190338252602081526104d781611750565b9050610d4f565b346100fa576020806003193601126100fa5760043560019061110d8260ff60065460081c161515146117fc565b303314801561138e575b611120906120c3565b8060005260048352604060002054908115611335576000918060005260059283865284604060002054905b6112f4575b826000528487526040600020916000198201918211610f4b576111796111ad9261118e94611a13565b9390549185600052878a526040600020611a13565b91909360031b1c9083549060031b600019811b9283911b169119161790565b9055806000528285526111c36040600020612099565b8160005260048552836040600020015490827f3cf57863a89432c61c4a27073c6ee39e8a764bff5a05aebfbcdcdc80b2e6130a8760018060a01b03600260406000200154169461125d600360406000200161124f60046040600020016112418c60406000200193608060405198899889528801526080870190611a51565b908582036040870152611a51565b908382036060850152611a51565b0390a460005260048352806040600020600081556000848201556000600282015561128a60038201612166565b61129660048201612166565b016112a18154611864565b91826112b3575b505050604051908152f35b8284601f600095116001146112cf57505050555b8280806112a8565b6112e892848652601f8887209301901c8201910161189e565b818481209155556112c7565b90826000528487528361130b826040600020611a13565b90549060031b1c1461132f57611320906118fc565b908581831061114b5750611150565b90611150565b60405162461bcd60e51b815260048101859052602b60248201527f4e6f6e4578697374696e673a205468657265206973206e6f20636c61696d207760448201526a1a5d1a081d1a1a5cc8125160aa1b6064820152608490fd5b506111206113ab60405185810190338252868152610ba981611750565b9050611117565b346100fa5760603660031901126100fa576004356024908135916044928335906001926113ea8460ff60065460081c161515146117fc565b30331480156115b6575b6113fd9061195a565b8460005283602096818852866002604060002001541460001461154557905085600052848752611430604060002061190b565b6000865b6114c5575b505050846000528386526040600020805491600160401b8310156114b15750610e8f8261146b92878695018155611a13565b90555b8060005260028552611484846040600020611a2b565b604051937f480000bb1edad8ca1470381cc334b1917fbd51c6531f3a623ea8e0ec7e38a6e9600080a48152f35b634e487b7160e01b60009081526041600452fd5b815181101561154057846114d982846119e9565b51146114f357906114eb8793926118fc565b909192611434565b60405162461bcd60e51b8152600481018a90526021818601527f436f6e666c6963743a204b657920616c72656164792068617320707572706f7381850152606560f81b6064820152608490fd5b611439565b5050508360026040600020015560405161155e8161171a565b81815284600052838652604060002090611577826119bf565b9060005285600020908460005b8181106115a457505050508360005282855281836040600020015561146e565b88835193019281850155018590611584565b506113fd6115d56040516020810190338252602081526104d781611750565b90506113f4565b346100fa5760203660031901126100fa576004356000526001602052611630604060002060016040600020015461161b6002604060002001549261190b565b9160405193849360608552606085019061163f565b91602084015260408301520390f35b90815180825260208080930193019160005b82811061165f575050505090565b835185529381019392810192600101611651565b60409060031901126100fa576004359060243590565b919082519283825260005b8481106116b5575050826000602080949584010152601f8019910116010190565b602081830181015184830182015201611694565b6020908160408183019282815285518094520193019160005b8281106116f0575050505090565b8351855293810193928101926001016116e2565b600435906001600160a01b03821682036100fa57565b602081019081106001600160401b0382111761060a57604052565b606081019081106001600160401b0382111761060a57604052565b604081019081106001600160401b0382111761060a57604052565b90601f801991011681019081106001600160401b0382111761060a57604052565b6001600160401b03811161060a57601f01601f191660200190565b9291926117b38261178c565b916117c1604051938461176b565b8294818452818301116100fa578281602093846000960137010152565b9080601f830112156100fa578160206117f9933591016117a7565b90565b1561180357565b60405162461bcd60e51b815260206004820152603360248201527f496e746572616374696e67207769746820746865206c69627261727920636f6e6044820152723a3930b1ba1034b9903337b93134b23232b71760691b6064820152608490fd5b90600182811c92168015611894575b602083101461187e57565b634e487b7160e01b600052602260045260246000fd5b91607f1691611873565b8181106118a9575050565b6000815560010161189e565b9190601f81116118c457505050565b6118f0926000526020600020906020601f840160051c830193106118f2575b601f0160051c019061189e565b565b90915081906118e3565b6000198114610f4b5760010190565b9060405191828154918282526020928383019160005283600020936000905b828210611940575050506118f09250038361176b565b85548452600195860195889550938101939091019061192a565b1561196157565b60405162461bcd60e51b815260206004820152603060248201527f5065726d697373696f6e733a2053656e64657220646f6573206e6f742068617660448201526f65206d616e6167656d656e74206b657960801b6064820152608490fd5b805460018255806001106119d1575050565b6118f09160005260016020600020918201910161189e565b80518210156119fd5760209160051b010190565b634e487b7160e01b600052603260045260246000fd5b80548210156119fd5760005260206000200190600090565b805490600160401b82101561060a5781610e8f916001611a4d94018155611a13565b9055565b9060009291805491611a6283611864565b918282526001938481169081600014611ac45750600114611a84575b50505050565b90919394506000526020928360002092846000945b838610611ab0575050505001019038808080611a7e565b805485870183015294019385908201611a99565b9294505050602093945060ff191683830152151560051b01019038808080611a7e565b60008054821015611dfc57818152600391602090838252604060ff85828620015460081c16611dbe57818452848352808420546001600160a01b03903090821603611d5657611b448251858101903382528681526104d781611750565b15611d06575b815195837fb3932da477fe5d6c8ff2eafef050c0f3a1af18fc07121001482600f36f3715d8866001998a8152a2838652808552808387200160ff1990888282541617905586838582205416898683200154600287842001908b8851928596815490611bb482611864565b938216918215611cf2575050600114611cb7575b505081849503925af13d15611cb2573d611be18161178c565b90611bee8651928361176b565b815287873d92013e5b15611c615783865280855282862001805461ff001916610100179055938190208054868201549251858152929516937f1f920dbda597d7bf95035464170fa58d0a4b57f13a1c315ace6793b9f63688b892918291611c5b9190830190600201611a51565b0390a490565b907fe10c49d9f7c71da23262367013434763cfdb2332267641728d25cd712c5c6a6892918487989697528652818720541693818720015494611c5b6002838920019251928284938452830190611a51565b611bf7565b90955084528984208a8d86925b888410611cda5750505050818495810195611bc8565b8054868501528e975092909101918c918f9101611cc4565b168552505080151502820194508184611bc8565b815162461bcd60e51b815260048101859052602360248201527f53656e64657220646f6573206e6f742068617665206d616e6167656d656e74206044820152626b657960e81b6064820152608490fd5b611d76825185810190338252868152611d6e81611750565b519020612382565b611b4a57815162461bcd60e51b815260048101859052601f60248201527f53656e64657220646f6573206e6f74206861766520616374696f6e206b6579006044820152606490fd5b5162461bcd60e51b815260048101839052601860248201527714995c5d595cdd08185b1c9958591e48195e1958dd5d195960421b6044820152606490fd5b60405162461bcd60e51b815260206004820152602760248201527f43616e6e6f7420617070726f76652061206e6f6e2d6578697374696e6720657860448201526632b1baba34b7b760c91b6064820152608490fd5b6000908154811015611dfc5780825260039060209180835260409060ff81838720015460081c1661205a57828552808452818520546001600160a01b0391903090831603611ffa57611eb18351868101903382528781526104d781611750565b15611faa575b837fb3932da477fe5d6c8ff2eafef050c0f3a1af18fc07121001482600f36f3715d8868551991515998a8152a26001968703611f9157838652808552808387200160ff1990888282541617905586838582205416898683200154600287842001908b8851928596815490611f2a82611864565b938216918215611cf2575050600114611f5657505081849503925af13d15611cb2573d611be18161178c565b90955084528984208a8d86925b888410611f795750505050818495810195611bc8565b8054868501528e975092909101918c918f9101611f63565b928552509181905290822001805460ff19169055919050565b825162461bcd60e51b815260048101869052602360248201527f53656e64657220646f6573206e6f742068617665206d616e6167656d656e74206044820152626b657960e81b6064820152608490fd5b612012835186810190338252878152611d6e81611750565b611eb757825162461bcd60e51b815260048101869052601f60248201527f53656e64657220646f6573206e6f74206861766520616374696f6e206b6579006044820152606490fd5b815162461bcd60e51b815260048101859052601860248201527714995c5d595cdd08185b1c9958591e48195e1958dd5d195960421b6044820152606490fd5b8054908115610fa157600019918201916120b38383611a13565b909182549160031b1b1916905555565b156120ca57565b60405162461bcd60e51b815260206004820152603260248201527f5065726d697373696f6e733a2053656e64657220646f6573206e6f74206861766044820152716520636c61696d207369676e6572206b657960701b6064820152608490fd5b9261214a6117f99593612158938652608060208701526080860190611689565b908482036040860152611689565b916060818403910152611689565b6121708154611864565b908161217a575050565b81601f6000931160011461218c575055565b818352602083206121a891601f0160051c81019060010161189e565b8160208120915555565b60005260018060205260406000206002604051916121cf83611735565b6121d88161190b565b835283810154602084015201548060408301521561224757600090825b612202575b505050600090565b8051918251811015612241578361221a8282956119e9565b5114801561223c575b61223657612230906118fc565b916121f5565b50505090565b612223565b506121fa565b5050600090565b600052600180602052604060002060026040519161226b83611735565b6122748161190b565b835283810154602084015201548060408301521561224757600090825b61229d57505050600090565b8051918251811015612241576122b48185946119e9565b518381149081156122d4575b50612236576122ce906118fc565b91612291565b6003915014386122c0565b6000526001806020526040600020604051906122fa82611735565b6123038161190b565b8252828101546020830152600280910154806040840152156121fa57600091835b612332575b50505050600090565b805192835181101561237c576123498186956119e9565b5183858214918215612372575b505061236b57612365906118fc565b92612324565b5050505090565b1490508338612356565b50612329565b60005260018060205260406000206040519061239d82611735565b6123a68161190b565b8252828101546020830152600280910154806040840152156121fa57600091835b6123d45750505050600090565b805192835181101561237c576123eb8186956119e9565b518385821491821561240d575b505061236b57612407906118fc565b926123c7565b14905083386123f8565b6000526001908160205260406000209060026040519261243684611735565b61243f8161190b565b84528481015460208501520154806040840152156121fa57600091835b6124695750505050600090565b805192835181101561237c576124808186956119e9565b51838582149182156124a2575b505061236b5761249c906118fc565b9261245c565b149050833861248d56fea264697066735822122030028e1bbe8d6221d68f6dc9b9eb962c6c7cf08771893a8206c234ea87e64c5364736f6c63430008110033","linkReferences":{}},"methodIdentifiers":{"addClaim(uint256,uint256,address,bytes,bytes,string)":"b1a34e0d","addKey(bytes32,uint256,uint256)":"1d381240","approve(uint256,bool)":"747442d3","execute(address,uint256,bytes)":"b61d27f6","getClaim(bytes32)":"c9100bcb","getClaimIdsByTopic(uint256)":"80e9e9e1","getKey(bytes32)":"12aaac70","getKeyPurposes(bytes32)":"fb307b34","getKeysByPurpose(uint256)":"9010f726","initialize(address)":"c4d66de8","keyHasPurpose(bytes32,uint256)":"d202158d","removeClaim(bytes32)":"4eee424a","removeKey(bytes32,uint256)":"53d413c5","version()":"54fd4d50"},"id":41}