{"abi":[{"type":"function","name":"FEE_DENOMINATOR","inputs":[],"outputs":[{"name":"","type":"uint16","internalType":"uint16"}],"stateMutability":"view"},{"type":"function","name":"factory","inputs":[],"outputs":[{"name":"","type":"address","internalType":"address"}],"stateMutability":"view"},{"type":"function","name":"fundName","inputs":[],"outputs":[{"name":"","type":"string","internalType":"string"}],"stateMutability":"view"},{"type":"function","name":"getCurrentValuation","inputs":[],"outputs":[{"name":"","type":"uint256","internalType":"uint256"}],"stateMutability":"view"},{"type":"function","name":"getDERatio","inputs":[],"outputs":[{"name":"","type":"string","internalType":"string"}],"stateMutability":"view"},{"type":"function","name":"getLaunchValuation","inputs":[],"outputs":[{"name":"","type":"uint256","internalType":"uint256"}],"stateMutability":"view"},{"type":"function","name":"getMaxInvestment","inputs":[],"outputs":[{"name":"","type":"uint256","internalType":"uint256"}],"stateMutability":"view"},{"type":"function","name":"getMinInvestment","inputs":[],"outputs":[{"name":"","type":"uint256","internalType":"uint256"}],"stateMutability":"view"},{"type":"function","name":"getOffChainPrice","inputs":[],"outputs":[{"name":"","type":"uint256","internalType":"uint256"}],"stateMutability":"view"},{"type":"function","name":"getOffChainPriceStatus","inputs":[],"outputs":[{"name":"","type":"bool","internalType":"bool"}],"stateMutability":"view"},{"type":"function","name":"getPreviousValutaion","inputs":[],"outputs":[{"name":"","type":"uint256","internalType":"uint256"}],"stateMutability":"view"},{"type":"function","name":"getProjectedYield","inputs":[],"outputs":[{"name":"","type":"uint256","internalType":"uint256"}],"stateMutability":"view"},{"type":"function","name":"getToken","inputs":[],"outputs":[{"name":"","type":"address","internalType":"address"}],"stateMutability":"view"},{"type":"function","name":"init","inputs":[{"name":"_token","type":"address","internalType":"address"},{"name":"_data","type":"bytes","internalType":"bytes"}],"outputs":[],"stateMutability":"nonpayable"},{"type":"function","name":"offChainPrice","inputs":[],"outputs":[{"name":"","type":"bool","internalType":"bool"}],"stateMutability":"view"},{"type":"function","name":"setAssetPriceOffChain","inputs":[{"name":"_newPrice","type":"uint256","internalType":"uint256"}],"outputs":[],"stateMutability":"nonpayable"},{"type":"function","name":"setDERatio","inputs":[{"name":"_newDERatio","type":"string","internalType":"string"},{"name":"actionID","type":"string","internalType":"string"}],"outputs":[],"stateMutability":"nonpayable"},{"type":"function","name":"setMaxInvesrment","inputs":[{"name":"_newMaxInvestment","type":"uint256","internalType":"uint256"},{"name":"actionID","type":"string","internalType":"string"}],"outputs":[],"stateMutability":"nonpayable"},{"type":"function","name":"setMinInvestment","inputs":[{"name":"_newMinInvestment","type":"uint256","internalType":"uint256"},{"name":"actionID","type":"string","internalType":"string"}],"outputs":[],"stateMutability":"nonpayable"},{"type":"function","name":"setOffChainPrice","inputs":[{"name":"_status","type":"bool","internalType":"bool"}],"outputs":[],"stateMutability":"nonpayable"},{"type":"function","name":"setProjectedYeild","inputs":[{"name":"_newProjectedYield","type":"uint256","internalType":"uint256"},{"name":"actionID","type":"string","internalType":"string"}],"outputs":[],"stateMutability":"nonpayable"},{"type":"function","name":"setValuation","inputs":[{"name":"_latestValuation","type":"uint256","internalType":"uint256"},{"name":"actionID","type":"string","internalType":"string"}],"outputs":[{"name":"","type":"bool","internalType":"bool"}],"stateMutability":"nonpayable"},{"type":"function","name":"shareDividend","inputs":[{"name":"_address","type":"address","internalType":"address"},{"name":"_dividend","type":"uint256","internalType":"uint256"},{"name":"_userIds","type":"string","internalType":"string"},{"name":"_dividendIds","type":"string","internalType":"string"},{"name":"stableCoin_","type":"address","internalType":"address"},{"name":"_agent","type":"address","internalType":"address"}],"outputs":[],"stateMutability":"nonpayable"},{"type":"function","name":"token","inputs":[],"outputs":[{"name":"","type":"address","internalType":"address"}],"stateMutability":"view"},{"type":"function","name":"tokenPrice","inputs":[],"outputs":[{"name":"","type":"uint256","internalType":"uint256"}],"stateMutability":"view"},{"type":"event","name":"AssetPriceOffChainUpdated","inputs":[{"name":"_newPrice","type":"uint256","indexed":false,"internalType":"uint256"}],"anonymous":false},{"type":"event","name":"DERatioUpdated","inputs":[{"name":"newDERatio","type":"string","indexed":false,"internalType":"string"},{"name":"actionID","type":"string","indexed":false,"internalType":"string"}],"anonymous":false},{"type":"event","name":"DividendDistributed","inputs":[{"name":"investor","type":"address","indexed":false,"internalType":"address"},{"name":"amount","type":"uint256","indexed":false,"internalType":"uint256"},{"name":"taxAmount","type":"uint256","indexed":false,"internalType":"uint256"},{"name":"_userID","type":"string","indexed":false,"internalType":"string"},{"name":"_dividendID","type":"string","indexed":false,"internalType":"string"}],"anonymous":false},{"type":"event","name":"Initialized","inputs":[{"name":"version","type":"uint8","indexed":false,"internalType":"uint8"}],"anonymous":false},{"type":"event","name":"MaximumInvestmentUpdated","inputs":[{"name":"newMaximumInvestment","type":"uint256","indexed":false,"internalType":"uint256"},{"name":"actionID","type":"string","indexed":false,"internalType":"string"}],"anonymous":false},{"type":"event","name":"MinimumInvestmentUpdated","inputs":[{"name":"newMinimumInvestment","type":"uint256","indexed":false,"internalType":"uint256"},{"name":"actionID","type":"string","indexed":false,"internalType":"string"}],"anonymous":false},{"type":"event","name":"OffChainPriceUpdated","inputs":[{"name":"status","type":"bool","indexed":false,"internalType":"bool"}],"anonymous":false},{"type":"event","name":"ProjectedYieldUpdated","inputs":[{"name":"newProjectedYield","type":"uint256","indexed":false,"internalType":"uint256"},{"name":"actionID","type":"string","indexed":false,"internalType":"string"}],"anonymous":false},{"type":"event","name":"ValuationUpdated","inputs":[{"name":"newValuation","type":"uint256","indexed":false,"internalType":"uint256"},{"name":"actionID","type":"string","indexed":false,"internalType":"string"}],"anonymous":false}],"bytecode":{"object":"0x6080806040523461001657611687908161001c8239f35b600080fdfe608060408181526004918236101561001657600080fd5b600092833560e01c91826306b719da14611280575081631718108f146111be5781631bd965ef1461113557816321df0da71461110c5781633415f1cf14610ec15781634432a99314610e2957816358434fc914610e0a57816359baf5fa14610deb5781635f53de3114610dcc5781636b14752914610395578163724ae9d014610dad5781637ff9b59614610d8e578163891fe28d14610d8e5781639ce1413b14610ca7578163c0d91eaf146107d1578163c45a0155146107a9578163cc8eb6231461048c578163cdd294d6146103bc578163d472e80214610395578163d73792a914610372578163ec54e840146102e3578163f4f180fc146102c4578163f883f08d14610235578163faeae1c414610163575063fc0c546a1461013857600080fd5b3461015f578160031936011261015f5760035490516001600160a01b039091168152602090f35b5080fd5b91905034610231576101743661134a565b92602060018060a01b03600354169160248551809481936307feec1960e21b835233908301525afa90811561022757936101da6101f3927f6cce472cb8a9c77e2f0aab66e6bb533621715b9a5bb5f69acb00768230c8c6139688916101f9575b5061149a565b826005558351938493845280602085015283019061139d565b0390a180f35b61021a915060203d8111610220575b610212818361129c565b810190611482565b386101d4565b503d610208565b83513d87823e3d90fd5b8280fd5b91905034610231576102463661134a565b92602060018060a01b03600354169160248551809481936307feec1960e21b835233908301525afa90811561022757936102ab6101f3927ff0c3ec94966c67d1194b3ff4be282eba5af134cb0d499e450ff487da8d62ddf39688916101f9575061149a565b826008558351938493845280602085015283019061139d565b50503461015f578160031936011261015f57602090600a549051908152f35b91905034610231576102f43661134a565b92602060018060a01b03600354169160248551809481936307feec1960e21b835233908301525afa90811561022757936103596101f3927fc53deb6e776e81b7e90461c10a8760881c1ebd7dc9563e0b6532f1c4ebded1e59688916101f9575061149a565b826006558351938493845280602085015283019061139d565b50503461015f578160031936011261015f5760209061ffff600c54169051908152f35b50503461015f578160031936011261015f5760209060ff600c5460101c1690519015158152f35b905034610231576020366003190112610231578035908115158092036104885760035483516307feec1960e21b81523392810192909252602090829060249082906001600160a01b03165afa90811561047b5792610445602093927fd7c9449f880e774eb2f5ef1d825f3542d1ddfccc01be3c77b71afce892d310da958791610464575061149a565b600c5462ff00008360101b169062ff0000191617600c5551908152a180f35b61021a9150853d811161022057610212818361129c565b50505051903d90823e3d90fd5b8380fd5b83833461015f5760c036600319011261015f576104a76113fc565b67ffffffffffffffff6044358181116107a5576104c79036908701611412565b916064359081116107a1576104df9036908801611412565b90966001600160a01b0395919391608435878116810361079d5760a435908882168203610799578860035416918351916307feec1960e21b8352338684015260209260249084818381895afa9081156106f1578f908f926105489160ff9491610782575061149a565b8b885191823785818d8101600d8152030190205416610741578b875416865195630a2a6a7960e21b87528887015284868381845afa9586156106f1579088949392918f976106fd575b508590885195868092637feade7b60e11b82525afa9384156106f1578e946106b5575b5061ffff8096168135968188029188830414881517156106a257600c541690811561068f57049788870396871161067e57505092610651877f84d50398841ab4b971dfa0d5f7611bb447e264a8711931b774a4cb3e77c901f39e9f9a979487946106709a978f6101f39f9d9a8f918f8961064c94828e5193849283378101600d815203019020600160ff198254161790558484611507565b611507565b82519b8c9b168b528a015288015260a0606088015260a08701916114e6565b9184830360808601526114e6565b634e487b7160e01b8f52601190528dfd5b5050634e487b7160e01b8e52601288528dfd5b5050634e487b7160e01b8e52601188528dfd5b9093508481813d83116106ea575b6106cd818361129c565b810103126106e657518c811681036106e657928f6105b4565b8d80fd5b503d6106c3565b8e8851903d90823e3d90fd5b86809298508193949596503d831161073a575b61071a818361129c565b810103126106e6575161ffff811681036106e65794879392919085610591565b503d610710565b86601c6064928689519362461bcd60e51b85528401528201527f4469766964656e6420416c7265616479204469737472696275746564000000006044820152fd5b61021a9150883d8a1161022057610212818361129c565b8980fd5b8880fd5b8580fd5b8480fd5b9050346102315782600319360112610231575490516001600160a01b03909116815260209150f35b919050346102315780600319360112610231576107ec6113fc565b67ffffffffffffffff906024358281116107a157366023820112156107a15761081e90369060248188013591016112f0565b9385549460ff8660081c161593848095610c9a575b8015610c83575b15610c2957908291600197868960ff198316178b55610c18575b50886bffffffffffffffffffffffff60a01b95338786541617855560018060a01b0316806003978854161787558851958680926306fdde0360e01b82525afa938415610c0e578994610bd2575b508351818111610bbf57806108b68a546113c2565b95601f96878111610b52575b50602090878311600114610ad6578c92610acb575b505060001982881b1c191690891b1788555b815182019460a08387031261079957602083015194888401519460608501519760808601519560a081015191868311610ac75761092d926020809201920101611440565b908151948511610ab45750908392916109476002546113c2565b828111610a51575b5060209184116001146109e1578c936109d6575b5050828a1b92600019911b1c1916176002555b60085582600755600655600555600a5561271061ffff19600c541617600c5561099d578280f35b825461ff0019168355519081527f7f26b83ff96e1f2b6a682f133852f6798a09c465da95921460cefb384740249890602090a138808280f35b015191503880610963565b60028d528b9450600080516020611632833981519152929190601f1985168e5b818110610a3957508511610a1f575b50505050811b01600255610976565b01519060f884600019921b161c1916905538808080610a10565b8284015186558e979095019460209384019301610a01565b909192935060028d526000805160206116328339815191528380870160051c82019260208810610aab575b8796959493910160051c909101908d908f5b838210610a9d5750505061094f565b81558796508e91018f610a8e565b92508192610a7c565b634e487b7160e01b8d526041905260248cfd5b8e80fd5b0151905038806108d7565b8b8d528b93507fb10e2d527612073b26eecdfd717e6a320cf44b4afac2b0732d9fcbe2b7fa0cf69190601f1984168e5b818110610b3a57508411610b22575b505050811b0188556108e9565b0151600019838a1b60f8161c19169055388080610b15565b8284015185558e969094019360209384019301610b06565b9091508a8c527fb10e2d527612073b26eecdfd717e6a320cf44b4afac2b0732d9fcbe2b7fa0cf68780850160051c82019260208610610bb6575b918d91869594930160051c01915b828110610ba85750506108c2565b8e81558594508d9101610b9a565b92508192610b8c565b634e487b7160e01b8a526041845260248afd5b9093503d808a833e610be4818361129c565b8101602082820312610799578151858111610c0a57610c039201611440565b92386108a1565b8a80fd5b87513d8b823e3d90fd5b61ffff191661010117895538610854565b855162461bcd60e51b8152602081850152602e60248201527f496e697469616c697a61626c653a20636f6e747261637420697320616c72656160448201526d191e481a5b9a5d1a585b1a5e995960921b6064820152608490fd5b50303b15801561083a5750600160ff88161461083a565b50600160ff881610610833565b50503461015f578160031936011261015f57805190826001805491610ccb836113c2565b80865292828116908115610d665750600114610d0a575b505050610cf482610d0694038361129c565b5191829160208352602083019061139d565b0390f35b94508085527fb10e2d527612073b26eecdfd717e6a320cf44b4afac2b0732d9fcbe2b7fa0cf65b828610610d4e57505050610cf4826020610d069582010194610ce2565b80546020878701810191909152909501948101610d31565b610d06975086935060209250610cf494915060ff191682840152151560051b82010194610ce2565b50503461015f578160031936011261015f57602090600b549051908152f35b50503461015f578160031936011261015f576020906005549051908152f35b50503461015f578160031936011261015f576020906007549051908152f35b50503461015f578160031936011261015f576020906006549051908152f35b50503461015f578160031936011261015f576020906009549051908152f35b50503461015f578160031936011261015f5780519082600254610e4b816113c2565b80855291600191808316908115610d665750600114610e7657505050610cf482610d0694038361129c565b9450600285526000805160206116328339815191525b828610610ea957505050610cf4826020610d069582010194610ce2565b80546020878701810191909152909501948101610e8c565b83833461015f578060031936011261015f5767ffffffffffffffff90833582811161048857610ef3903690860161132c565b916024358181116107a557610f0b903690870161132c565b60035483516307feec1960e21b81523381890152602097929392918890829060249082906001600160a01b03165afa9081156111025790610f529188916110e5575061149a565b84519182116110d25750610f676002546113c2565b601f8111611082575b5085601f8211600114610fee5791818697926101f3947ffdaae45c1393d4eb32f0683684ca85a7b8cd398117c42f1941243af2730253449891610fe3575b508160011b916000199060031b1c1916176002555b610fd6845195858796875286019061139d565b918483039085015261139d565b905086015189610fae565b6002865260008051602061163283398151915290601f198316875b81811061106b5750926101f39492600192827ffdaae45c1393d4eb32f0683684ca85a7b8cd398117c42f1941243af2730253449a9b9610611052575b5050811b01600255610fc3565b88015160001960f88460031b161c191690558980611045565b91928960018192868b015181550194019201611009565b60028652600080516020611632833981519152601f830160051c8101918884106110c8575b601f0160051c01905b8181106110bd5750610f70565b8681556001016110b0565b90915081906110a7565b634e487b7160e01b865260419052602485fd5b6110fc9150893d8b1161022057610212818361129c565b896101d4565b85513d89823e3d90fd5b50503461015f578160031936011261015f5760035490516001600160a01b039091168152602090f35b9050346102315760203660031901126102315760035482516307feec1960e21b8152338184015291359190602090829060249082906001600160a01b03165afa90811561047b57926111b2602093927fdb2999671c2418101e4be3a35df3271b2d1d365fda0bad2e099872cd55849e84958791610464575061149a565b81600b5551908152a180f35b905034610231576111ce3661134a565b91602060018060a01b03600354169160248651809481936307feec1960e21b835233908301525afa908115611276577fc1aaa32d5699052bfc9c097e99003e20fb25d1c17d663e011c9434103d36c136939291611233916020979161125f575061149a565b600a5460095580600a556112558451928392835285878401528583019061139d565b0390a15160018152f35b61021a9150873d811161022057610212818361129c565b84513d87823e3d90fd5b84903461015f578160031936011261015f576020906008548152f35b90601f8019910116810190811067ffffffffffffffff8211176112be57604052565b634e487b7160e01b600052604160045260246000fd5b67ffffffffffffffff81116112be57601f01601f191660200190565b9291926112fc826112d4565b9161130a604051938461129c565b829481845281830111611327578281602093846000960137010152565b600080fd5b9080601f8301121561132757816020611347933591016112f0565b90565b90604060031983011261132757600435916024359067ffffffffffffffff8211611327576113479160040161132c565b60005b83811061138d5750506000910152565b818101518382015260200161137d565b906020916113b68151809281855285808601910161137a565b601f01601f1916010190565b90600182811c921680156113f2575b60208310146113dc57565b634e487b7160e01b600052602260045260246000fd5b91607f16916113d1565b600435906001600160a01b038216820361132757565b9181601f840112156113275782359167ffffffffffffffff8311611327576020838186019501011161132757565b81601f82011215611327578051611456816112d4565b92611464604051948561129c565b8184526020828401011161132757611347916020808501910161137a565b90816020910312611327575180151581036113275790565b156114a157565b60405162461bcd60e51b815260206004820152601960248201527f4f6e6c7920546f6b656e204167656e742063616e2063616c6c000000000000006044820152606490fd5b908060209392818452848401376000828201840152601f01601f1916010190565b6040516323b872dd60e01b602082019081526001600160a01b03938416602483015292909316604484015260648084019490945292825260a08201929067ffffffffffffffff8411838510176112be576000809493819460405251925af13d1561162a573d611575816112d4565b90611583604051928361129c565b81523d6000602083013e5b816115fb575b501561159c57565b60405162461bcd60e51b815260206004820152603160248201527f5472616e7366657248656c7065723a3a7472616e7366657246726f6d3a207472604482015270185b9cd9995c919c9bdb4819985a5b1959607a1b6064820152608490fd5b8051801592508215611610575b505038611594565b6116239250602080918301019101611482565b3880611608565b606061158e56fe405787fa12a823e0f2b7631cc41b3ba8828b3321ca811111fa75cd3aa3bb5acea264697066735822122096f42d5042208815971a7cd93abe7213bd8dedd7bd6dfcffb6d810936b89456164736f6c63430008110033","linkReferences":{}},"methodIdentifiers":{"FEE_DENOMINATOR()":"d73792a9","factory()":"c45a0155","fundName()":"9ce1413b","getCurrentValuation()":"f4f180fc","getDERatio()":"4432a993","getLaunchValuation()":"5f53de31","getMaxInvestment()":"59baf5fa","getMinInvestment()":"724ae9d0","getOffChainPrice()":"891fe28d","getOffChainPriceStatus()":"d472e802","getPreviousValutaion()":"58434fc9","getProjectedYield()":"06b719da","getToken()":"21df0da7","init(address,bytes)":"c0d91eaf","offChainPrice()":"6b147529","setAssetPriceOffChain(uint256)":"1bd965ef","setDERatio(string,string)":"3415f1cf","setMaxInvesrment(uint256,string)":"ec54e840","setMinInvestment(uint256,string)":"faeae1c4","setOffChainPrice(bool)":"cdd294d6","setProjectedYeild(uint256,string)":"f883f08d","setValuation(uint256,string)":"1718108f","shareDividend(address,uint256,string,string,address,address)":"cc8eb623","token()":"fc0c546a","tokenPrice()":"7ff9b596"},"id":32}