{"abi":[{"type":"constructor","inputs":[{"name":"implementationAuthority","type":"address","internalType":"address"}],"stateMutability":"nonpayable"},{"type":"function","name":"addAgent","inputs":[{"name":"_agent","type":"address","internalType":"address"}],"outputs":[],"stateMutability":"nonpayable"},{"type":"function","name":"addTA","inputs":[{"name":"_agent","type":"address","internalType":"address"}],"outputs":[],"stateMutability":"nonpayable"},{"type":"function","name":"addTokenFactory","inputs":[{"name":"_factory","type":"address","internalType":"address"}],"outputs":[],"stateMutability":"nonpayable"},{"type":"function","name":"createIdentity","inputs":[{"name":"_wallet","type":"address","internalType":"address"},{"name":"_salt","type":"string","internalType":"string"}],"outputs":[{"name":"","type":"address","internalType":"address"}],"stateMutability":"nonpayable"},{"type":"function","name":"createIdentityWithManagementKeys","inputs":[{"name":"_wallet","type":"address","internalType":"address"},{"name":"_salt","type":"string","internalType":"string"},{"name":"_managementKeys","type":"bytes32[]","internalType":"bytes32[]"}],"outputs":[{"name":"","type":"address","internalType":"address"}],"stateMutability":"nonpayable"},{"type":"function","name":"createTokenIdentity","inputs":[{"name":"_token","type":"address","internalType":"address"},{"name":"_tokenOwner","type":"address","internalType":"address"},{"name":"_salt","type":"string","internalType":"string"}],"outputs":[{"name":"","type":"address","internalType":"address"}],"stateMutability":"nonpayable"},{"type":"function","name":"getIdentity","inputs":[{"name":"_wallet","type":"address","internalType":"address"}],"outputs":[{"name":"","type":"address","internalType":"address"}],"stateMutability":"view"},{"type":"function","name":"getToken","inputs":[{"name":"_identity","type":"address","internalType":"address"}],"outputs":[{"name":"","type":"address","internalType":"address"}],"stateMutability":"view"},{"type":"function","name":"getWallets","inputs":[{"name":"_identity","type":"address","internalType":"address"}],"outputs":[{"name":"","type":"address[]","internalType":"address[]"}],"stateMutability":"view"},{"type":"function","name":"isAgent","inputs":[{"name":"_agent","type":"address","internalType":"address"}],"outputs":[{"name":"","type":"bool","internalType":"bool"}],"stateMutability":"view"},{"type":"function","name":"isSaltTaken","inputs":[{"name":"_salt","type":"string","internalType":"string"}],"outputs":[{"name":"","type":"bool","internalType":"bool"}],"stateMutability":"view"},{"type":"function","name":"isTA","inputs":[{"name":"_agent","type":"address","internalType":"address"}],"outputs":[{"name":"","type":"bool","internalType":"bool"}],"stateMutability":"view"},{"type":"function","name":"isTokenFactory","inputs":[{"name":"_factory","type":"address","internalType":"address"}],"outputs":[{"name":"","type":"bool","internalType":"bool"}],"stateMutability":"view"},{"type":"function","name":"linkWallet","inputs":[{"name":"_newWallet","type":"address","internalType":"address"}],"outputs":[],"stateMutability":"nonpayable"},{"type":"function","name":"owner","inputs":[],"outputs":[{"name":"","type":"address","internalType":"address"}],"stateMutability":"view"},{"type":"function","name":"removeAgent","inputs":[{"name":"_agent","type":"address","internalType":"address"}],"outputs":[],"stateMutability":"nonpayable"},{"type":"function","name":"removeTA","inputs":[{"name":"_agent","type":"address","internalType":"address"}],"outputs":[],"stateMutability":"nonpayable"},{"type":"function","name":"removeTokenFactory","inputs":[{"name":"_factory","type":"address","internalType":"address"}],"outputs":[],"stateMutability":"nonpayable"},{"type":"function","name":"renounceOwnership","inputs":[],"outputs":[],"stateMutability":"nonpayable"},{"type":"function","name":"transferOwnership","inputs":[{"name":"newOwner","type":"address","internalType":"address"}],"outputs":[],"stateMutability":"nonpayable"},{"type":"function","name":"unlinkWallet","inputs":[{"name":"_oldWallet","type":"address","internalType":"address"}],"outputs":[],"stateMutability":"nonpayable"},{"type":"event","name":"AgentAdded","inputs":[{"name":"_agent","type":"address","indexed":true,"internalType":"address"}],"anonymous":false},{"type":"event","name":"AgentRemoved","inputs":[{"name":"_agent","type":"address","indexed":true,"internalType":"address"}],"anonymous":false},{"type":"event","name":"Deployed","inputs":[{"name":"_addr","type":"address","indexed":true,"internalType":"address"}],"anonymous":false},{"type":"event","name":"IDCreated","inputs":[{"name":"wallet","type":"address","indexed":false,"internalType":"address"},{"name":"onchainID","type":"address","indexed":false,"internalType":"address"},{"name":"salt","type":"string","indexed":false,"internalType":"string"}],"anonymous":false},{"type":"event","name":"OwnershipTransferred","inputs":[{"name":"previousOwner","type":"address","indexed":true,"internalType":"address"},{"name":"newOwner","type":"address","indexed":true,"internalType":"address"}],"anonymous":false},{"type":"event","name":"TokenFactoryAdded","inputs":[{"name":"factory","type":"address","indexed":true,"internalType":"address"}],"anonymous":false},{"type":"event","name":"TokenFactoryRemoved","inputs":[{"name":"factory","type":"address","indexed":true,"internalType":"address"}],"anonymous":false},{"type":"event","name":"TokenLinked","inputs":[{"name":"token","type":"address","indexed":true,"internalType":"address"},{"name":"identity","type":"address","indexed":true,"internalType":"address"}],"anonymous":false},{"type":"event","name":"WalletLinked","inputs":[{"name":"wallet","type":"address","indexed":true,"internalType":"address"},{"name":"identity","type":"address","indexed":true,"internalType":"address"}],"anonymous":false},{"type":"event","name":"WalletUnlinked","inputs":[{"name":"wallet","type":"address","indexed":true,"internalType":"address"},{"name":"identity","type":"address","indexed":true,"internalType":"address"}],"anonymous":false},{"type":"event","name":"taAdded","inputs":[{"name":"_agent","type":"address","indexed":true,"internalType":"address"}],"anonymous":false},{"type":"event","name":"taRemoved","inputs":[{"name":"_agent","type":"address","indexed":true,"internalType":"address"}],"anonymous":false}],"bytecode":{"object":"0x60a03461010057601f61271438819003918201601f19168301916001600160401b038311848410176101055780849260209460405283398101031261010057516001600160a01b03808216808303610100576000543360018060a01b0319821617600055604051923391167f8be0079c531659141344cd1fd0a4f28419497f9722a3daafe3b4186f6b6457e0600080a3156100be57506080526040516125f8908161011c823960805181818161059001528181610e0101526118ce0152f35b62461bcd60e51b815260206004820152601f60248201527f696e76616c696420617267756d656e74202d207a65726f2061646472657373006044820152606490fd5b600080fd5b634e487b7160e01b600052604160045260246000fdfe6080604052600436101562000014575b600080fd5b60003560e01c80631ffbb06414620001f55780632fea7b8114620001ea5780633a50045114620001df5780633d56ff6614620001d45780633e3bc3d714620001c9578063422c29a414620001be5780634788598c14620001b35780635027dbe214620001a857806358b5b5c1146200019d578063597704381462000192578063715018a6146200018757806384e79842146200017c5780638da5cb5b14620001715780638e952bfe1462000166578063937529ef146200015b57806397a6278e14620001505780639ce193651462000145578063ab190ae7146200013a578063b8bb8126146200012f578063f2fde38b14620001245763fe5cd59a146200011a57600080fd5b6200000f620013e1565b506200000f62001316565b506200000f6200119c565b506200000f62001101565b506200000f62001028565b506200000f62000f9f565b506200000f62000ecc565b506200000f62000cea565b506200000f62000cbe565b506200000f62000c33565b506200000f62000bd0565b506200000f62000b90565b506200000f62000ac0565b506200000f62000876565b506200000f62000798565b506200000f62000706565b506200000f6200067c565b506200000f620003f3565b506200000f6200029e565b506200000f62000262565b506200000f6200022e565b600435906001600160a01b03821682036200000f57565b602435906001600160a01b03821682036200000f57565b50346200000f5760203660031901126200000f576020620002586200025262000200565b62002102565b6040519015158152f35b50346200000f5760203660031901126200000f5760206200028c6200028662000200565b62001faf565b6040516001600160a01b039091168152f35b50346200000f5760203660031901126200000f5760043567ffffffffffffffff8082116200000f57366023830112156200000f5781600401359081116200000f5736602482840101116200000f57620003036200030a9160246200031c940162001ff3565b5460ff1690565b60405190151581529081906020820190565b0390f35b50634e487b7160e01b600052604160045260246000fd5b6060810190811067ffffffffffffffff8211176200035457604052565b6200035e62000320565b604052565b90601f8019910116810190811067ffffffffffffffff8211176200035457604052565b81601f820112156200000f5780359067ffffffffffffffff8211620003e3575b60405192620003c0601f8401601f19166020018562000363565b828452602083830101116200000f57816000926020809301838601378301015290565b620003ed62000320565b620003a6565b50346200000f5760603660031901126200000f576200041162000200565b6200041b62000217565b9060443567ffffffffffffffff81116200000f57620004436200031c91369060040162000386565b336000908152600360205260409020909390620004609062000303565b801562000667575b620004739062001c71565b6200062760018060a01b0393620005ca620005bd620005b66200052388851699620004a08b1515620014d1565b620004af8a89161515620014d1565b6200051d6040516020810181620004c78583620015ce565b0391620004dd601f199384810183528262000363565b5190209060405162000512602082019282620005058560409060208152600060208201520190565b0390810183528262000363565b5190201415620015e4565b62001cbe565b95620005456200053f6200053b620003038a62001671565b1590565b62001699565b6200058e620005876200057b6200056e8860018060a01b03166000526007602052604060002090565b546001600160a01b031690565b6001600160a01b031690565b1562001cfe565b7f0000000000000000000000000000000000000000000000000000000000000000876200200c565b9462001671565b805460ff19166001179055565b6001600160a01b0381166000908152600760205260409020620006099084905b80546001600160a01b0319166001600160a01b03909216919091179055565b6001600160a01b0383166000908152600860205260409020620005ea565b6040519384938216907fa8261d398ddc63db24cc53cd0c63c9464cabad1bc478ede2107b32c1c4010b7a600080a36001600160a01b031682526020820190565b506000546001600160a01b0316331462000468565b50346200000f5760203660031901126200000f576001600160a01b03620006a262000200565b166000526003602052602060ff604060002054166040519015158152f35b6020908160408183019282815285518094520193019160005b828110620006e8575050505090565b83516001600160a01b031685529381019392810192600101620006d9565b50346200000f576020806003193601126200000f576001600160a01b03806200072e62000200565b1660005260068252604060002091604051809282855492838152019460005282600020926000915b8383106200077e576200031c8662000771818a038262000363565b60405191829182620006c0565b845481168752958101956001948501949092019162000756565b50346200000f5760203660031901126200000f57620007b662000200565b620007c06200214a565b6001600160a01b03811690620007e390620007dd831515620014d1565b62002126565b1562000827576000818152600260205260408120805460ff19169055907f82f1efed5d891d7ba766c32612c2a36d22f2feddccbdaf31c6fb2ea7c52b287c8280a280f35b60405162461bcd60e51b815260206004820152602160248201527f526f6c65733a206163636f756e7420646f6573206e6f74206861766520726f6c6044820152606560f81b6064820152608490fd5b50346200000f5760203660031901126200000f576200089462000200565b6001600160a01b038181169190620008ae831515620014d1565b620008bc3384141562001eaa565b3360009081526005602052604090206200090a90620008db906200056e565b82620009016200057b6200056e8760018060a01b03166000526005602052604060002090565b91161462001f02565b6200095f6200094f620009336200056e8560018060a01b03166000526005602052604060002090565b6001600160a01b03909416600090815260056020526040902090565b80546001600160a01b0319169055565b6001600160a01b0382166000908152600660205260409020549160005b838110620009b0575b818316857f35e6fc363a4bf723d53b26c1a751674aca9c3ead425f0591f84f5540ede86f12600080a3005b84620009f66200057b620009e184620009db8760018060a01b03166000526006602052604060002090565b6200174b565b905460039190911b1c6001600160a01b031690565b1462000a0d5762000a079062001b92565b6200097c565b62000a7062000a4f620009e184959662000a4862000a4162000a949760018060a01b03166000526006602052604060002090565b9162001f4f565b906200174b565b6001600160a01b03851660009081526006602052604090209092906200174b565b90919082549060031b9160018060a01b039283811b93849216901b16911916179055565b6001600160a01b038116600090815260066020526040902062000ab79062001f69565b81903862000985565b50346200000f5760203660031901126200000f5762000ade62000200565b62000ae86200214a565b6001600160a01b0381169062000b0590620007dd831515620014d1565b62000b4b576000818152600260205260408120805460ff19166001179055907f4f89f64d04cc833c53d6284af6b75785fd83d2e9737936a817421f3fa4fa777e8280a280f35b60405162461bcd60e51b815260206004820152601f60248201527f526f6c65733a206163636f756e7420616c72656164792068617320726f6c65006044820152606490fd5b50346200000f5760203660031901126200000f5760206001600160a01b038062000bb962000200565b166000526008825260406000205416604051908152f35b50346200000f5760008060031936011262000c305762000bef6200214a565b80546001600160a01b03198116825581906001600160a01b03167f8be0079c531659141344cd1fd0a4f28419497f9722a3daafe3b4186f6b6457e08280a380f35b80fd5b50346200000f5760203660031901126200000f5762000c5162000200565b62000c5b6200214a565b6001600160a01b0381169062000c789062000252831515620014d1565b62000b4b57600090808252600160205260408220600160ff198254161790557ff68e73cec97f2d70aa641fb26e87a4383686e2efacb648f2165aeb02ac562ec58280a280f35b50346200000f5760003660031901126200000f576000546040516001600160a01b039091168152602090f35b50346200000f5760403660031901126200000f5762000d0862000200565b6024359067ffffffffffffffff82116200000f577f19c980815c7707544e3f30387a75f1222fcce1e0ef8edc6e50b4375c25eff32b620005bd9162000d566200031c94369060040162000386565b62000d6b62000d653362002102565b6200151e565b6001600160a01b0382811692909162000eaf9162000d8b851515620014d1565b62000da36040516020810181620004c78683620015ce565b62000dae8262001631565b9062000dc66200053f6200053b620003038562001671565b62000df662000def6200057b6200056e8460018060a01b03166000526005602052604060002090565b15620016db565b62000e3062000e27827f0000000000000000000000000000000000000000000000000000000000000000856200200c565b98899362001671565b6001600160a01b038116600090815260056020526040902062000e55908390620005ea565b6001600160a01b038216600090815260066020526040902062000e7a90829062001775565b6040519586958316907f8e0c709111388f5480579514d86663489ab1f206fe6da1a0c4d03ac8c318b3c6600080a384620017b1565b0390a16040516001600160a01b0390911681529081906020820190565b50346200000f5760203660031901126200000f5762000eea62000200565b62000ef46200214a565b6001600160a01b03811662000f0b811515620014d1565b600091818352600360205260ff6040842054161562000f6a576001600160a01b03166000908152600360205260409020805460ff191690557fd1fd5274f793d20291c0abfe42e1ef63213a11b34996d485f7afb8fe014248518280a280f35b60405162461bcd60e51b815260206004820152600d60248201526c6e6f74206120666163746f727960981b6044820152606490fd5b50346200000f5760203660031901126200000f5762000fbd62000200565b62000fc76200214a565b6001600160a01b0381169062000fe49062000252831515620014d1565b1562000827576000818152600160205260408120805460ff19169055907fed9c8ad8d5a0a66898ea49d2956929c93ae2e8bd50281b2ed897c5d1a6737e0b8280a280f35b50346200000f5760203660031901126200000f576200104662000200565b620010506200214a565b6001600160a01b03811662001067811515620014d1565b600091818352600360205260ff604084205416620010c8576001600160a01b03166000908152600360205260409020620010a190620005bd565b7f45eb8ac5344d2d3f306550fe6e969ca4190526313c512afed851d052bf2ab2fd8280a280f35b60405162461bcd60e51b8152602060048201526011602482015270616c7265616479206120666163746f727960781b6044820152606490fd5b50346200000f5760203660031901126200000f576001600160a01b036200112762000200565b1680156200114c576000526002602052602060ff604060002054166040519015158152f35b60405162461bcd60e51b815260206004820152602260248201527f526f6c65733a206163636f756e7420697320746865207a65726f206164647265604482015261737360f01b6064820152608490fd5b50346200000f5760203660031901126200000f57620011ba62000200565b6001600160a01b0381811691620011d3831515620014d1565b336000908152600560205260409020620011ff90620011f7906200057b906200056e565b151562001d57565b6200122f620012286200057b6200056e8460018060a01b03166000526005602052604060002090565b1562001db6565b6200125f620012586200057b6200056e8460018060a01b03166000526007602052604060002090565b1562001e03565b336000908152600560205260409020620012ed906200127e906200056e565b91620012aa6065620012a28560018060a01b03166000526006602052604060002090565b541062001e4f565b6001600160a01b0381166000908152600560205260409020620012cf908490620005ea565b6001600160a01b038316600090815260066020526040902062001775565b16907f8e0c709111388f5480579514d86663489ab1f206fe6da1a0c4d03ac8c318b3c6600080a3005b50346200000f5760203660031901126200000f576200133462000200565b6200133e6200214a565b6001600160a01b0390811680156200138d57600080546001600160a01b03198116831782559092167f8be0079c531659141344cd1fd0a4f28419497f9722a3daafe3b4186f6b6457e08380a380f35b60405162461bcd60e51b815260206004820152602660248201527f4f776e61626c653a206e6577206f776e657220697320746865207a65726f206160448201526564647265737360d01b6064820152608490fd5b50346200000f5760603660031901126200000f57620013ff62000200565b67ffffffffffffffff906024358281116200000f576200142490369060040162000386565b90604435928084116200000f57366023850112156200000f578360040135908111620014c1575b8060051b9360405194602092620014658483018862000363565b8652602483870191830101913683116200000f57602401905b828210620014b1576200031c62001497888888620017dc565b6040516001600160a01b0390911681529081906020820190565b813581529083019083016200147e565b620014cb62000320565b6200144b565b15620014d957565b60405162461bcd60e51b815260206004820152601f60248201527f696e76616c696420617267756d656e74202d207a65726f2061646472657373006044820152606490fd5b156200152657565b60405162461bcd60e51b815260206004820152602e60248201527f4167656e74526f6c653a2063616c6c657220646f6573206e6f7420686176652060448201526d746865204167656e7420726f6c6560901b6064820152608490fd5b60005b838110620015965750506000910152565b818101518382015260200162001585565b90602091620015c28151809281855285808601910162001582565b601f01601f1916010190565b906020620015e1928181520190620015a7565b90565b15620015ec57565b60405162461bcd60e51b815260206004820152601f60248201527f696e76616c696420617267756d656e74202d20656d70747920737472696e67006044820152606490fd5b906200166f602360405180946213d25160ea1b60208301526200165e815180926020868601910162001582565b810103600381018552018362000363565b565b60206200168c91816040519382858094519384920162001582565b8101600481520301902090565b15620016a157565b60405162461bcd60e51b815260206004820152601260248201527139b0b63a1030b63932b0b23c903a30b5b2b760711b6044820152606490fd5b15620016e357565b60405162461bcd60e51b8152602060048201526024808201527f77616c6c657420616c7265616479206c696e6b656420746f20616e206964656e6044820152637469747960e01b6064820152608490fd5b50634e487b7160e01b600052603260045260246000fd5b805482101562001765575b60005260206000200190600090565b6200176f62001734565b62001756565b9062000a706200166f9280549068010000000000000000821015620017a1575b6001820181556200174b565b620017ab62000320565b62001795565b6001600160a01b03918216815291166020820152606060408201819052620015e192910190620015a7565b9291620017ed62000d653362002102565b6001600160a01b038481169390919062001809851515620014d1565b6040958651916200187860209662001872888601866200182a8483620015ce565b039662001840601f199889810183528262000363565b5190208b518a8101906200051281620018658460409060208152600060208201520190565b038a810183528262000363565b62001631565b96620018906200053f6200053b620003038b62001671565b620018b962000def6200057b6200056e8660018060a01b03166000526005602052604060002090565b620018c78551151562001b20565b620018f4307f00000000000000000000000000000000000000000000000000000000000000008a6200200c565b906000968216965b8651811015620019f9578060008a620019968b8f62001967868e620019618f8f620005056200195662001934620019af9f8762001bb1565b5189516001600160a01b03909416848e01908152909490939283906020860190565b519020141562001bd7565b62001bb1565b5190519485809481936274e04960e61b8352600483016040600191939293606081019481528260208201520152565b03925af18015620019e9575b620019b5575b5062001b92565b620018fc565b620019d9908b3d8d11620019e1575b620019d0818362000363565b81019062001c4a565b5038620019a8565b503d620019c4565b620019f362001c64565b620019a2565b50959662001ac5955062001a6581620005bd949b62001a8296979b949b815162001a3b8482019282620005053086919091602081019260018060a01b03169052565b51902090516353d413c560e01b815260048101919091526001602482015291829081906044820190565b038160008d5af1801562001b10575b62001aed575b505062001671565b6001600160a01b038116600090815260056020526040902062001aa7908690620005ea565b6001600160a01b038516600090815260066020526040902062001775565b7f8e0c709111388f5480579514d86663489ab1f206fe6da1a0c4d03ac8c318b3c6600080a390565b8162001b0792903d10620019e157620019d0818362000363565b50388062001a7a565b62001b1a62001c64565b62001a74565b1562001b2857565b60405162461bcd60e51b815260206004820152602560248201527f696e76616c696420617267756d656e74202d20656d707479206c697374206f66604482015264206b65797360d81b6064820152608490fd5b50634e487b7160e01b600052601160045260246000fd5b600190600019811462001ba3570190565b62001bad62001b7b565b0190565b602091815181101562001bc7575b60051b010190565b62001bd162001734565b62001bbf565b1562001bdf57565b60405162461bcd60e51b815260206004820152603b60248201527f696e76616c696420617267756d656e74202d2077616c6c657420697320616c7360448201527f6f206c697374656420696e206d616e6167656d656e74206b65797300000000006064820152608490fd5b908160209103126200000f575180151581036200000f5790565b506040513d6000823e3d90fd5b1562001c7957565b60405162461bcd60e51b815260206004820152601e60248201527f6f6e6c7920466163746f7279206f72206f776e65722063616e2063616c6c00006044820152606490fd5b906200166f60256040518094642a37b5b2b760d91b602083015262001ced815180926020868601910162001582565b810103600581018552018362000363565b1562001d0657565b60405162461bcd60e51b815260206004820152602360248201527f746f6b656e20616c7265616479206c696e6b656420746f20616e206964656e7460448201526269747960e81b6064820152608490fd5b1562001d5f57565b60405162461bcd60e51b815260206004820152602960248201527f77616c6c6574206e6f74206c696e6b656420746f20616e206964656e746974796044820152680818dbdb9d1c9858dd60ba1b6064820152608490fd5b1562001dbe57565b60405162461bcd60e51b815260206004820152601960248201527f6e65772077616c6c657420616c7265616479206c696e6b6564000000000000006044820152606490fd5b1562001e0b57565b606460405162461bcd60e51b815260206004820152602060248201527f696e76616c696420617267756d656e74202d20746f6b656e20616464726573736044820152fd5b1562001e5757565b60405162461bcd60e51b815260206004820152602560248201527f6d617820616d6f756e74206f662077616c6c6574732070657220494420657863604482015264195959195960da1b6064820152608490fd5b1562001eb257565b60405162461bcd60e51b815260206004820152602260248201527f63616e6e6f742062652063616c6c6564206f6e2073656e646572206164647265604482015261737360f01b6064820152608490fd5b1562001f0a57565b60405162461bcd60e51b815260206004820152601f60248201527f6f6e6c792061206c696e6b65642077616c6c65742063616e20756e6c696e6b006044820152606490fd5b60001981019190821162001f5f57565b6200166f62001b7b565b8054801562001f9957600019019062001f8382826200174b565b81549060018060a01b039060031b1b1916905555565b634e487b7160e01b600052603160045260246000fd5b6001600160a01b0390811660008181526007602052604090205482161562001fe35760005260076020526040600020541690565b5060056020526040600020541690565b6020908260405193849283378101600481520301902090565b906200207c9161041f6200209960409182516020958262002031888095018462000363565b80835283830190620021a482396200208c8651918583019360018060a01b039c8d809216865216888401528783526200206a8362000337565b87519a8b955180928888019062001582565b8401915180938684019062001582565b0103808752018562000363565b51620020c4838281620020b6818301968781519384920162001582565b810103808452018262000363565b51902091805191016000f590813b156200000f5781167ff40fcec21964ffb566044d083b4073f29f7f7929110ea19e1b3ebe375d89055e600080a290565b6001600160a01b031680156200114c57600052600160205260ff6040600020541690565b6001600160a01b031680156200114c57600052600260205260ff6040600020541690565b6000546001600160a01b031633036200215f57565b606460405162461bcd60e51b815260206004820152602060248201527f4f776e61626c653a2063616c6c6572206973206e6f7420746865206f776e65726044820152fdfe6080604090808252346101d457818161041f803803809161002082856101d9565b8339810103126101d457806004610039610046936101fc565b91602093848092016101fc565b6001600160a01b038481169161005d831515610210565b169361006a851515610210565b7f821f3e4d3d679f19eacc940c87acf846ea6eae24a63058ea750304437a62aafc55855163557887a160e11b815292839182905afa9081156101c957600091610191575b50835163189acdbd60e31b8482019081526024808301949094529281526001600160401b03929091606083019184831184841017610175576000938493885251915af4903d1561018b573d90811161017557835190610116601f8201601f19168501836101d9565b81526000833d92013e5b156101335750516101c2908161025d8239f35b606491519062461bcd60e51b82526004820152601660248201527f496e697469616c697a6174696f6e206661696c65642e000000000000000000006044820152fd5b634e487b7160e01b600052604160045260246000fd5b50610120565b908382813d83116101c2575b6101a781836101d9565b810103126101bf57506101b9906101fc565b386100ae565b80fd5b503d61019d565b84513d6000823e3d90fd5b600080fd5b601f909101601f19168101906001600160401b0382119082101761017557604052565b51906001600160a01b03821682036101d457565b1561021757565b60405162461bcd60e51b815260206004820152601f60248201527f696e76616c696420617267756d656e74202d207a65726f2061646472657373006044820152606490fdfe60808060405260043610156100c1575b7f821f3e4d3d679f19eacc940c87acf846ea6eae24a63058ea750304437a62aafc546000918291602090829060049082906001600160a01b031663557887a160e11b82525afa9081156100b4575b8291610087575b503682803781369161270f195a01f43d90816000803e15610083576000f35b6000fd5b6100a691506020903d82116100ac575b6100a08261011f565b01610158565b38610064565b3d9150610097565b6100bc61017f565b61005d565b6000803560e01c632307f882146100d8575061000f565b903461011b578160031936011261011b577f821f3e4d3d679f19eacc940c87acf846ea6eae24a63058ea750304437a62aafc546001600160a01b03168152602090f35b5080fd5b601f80199101166080016080811067ffffffffffffffff82111761014257604052565b634e487b7160e01b600052604160045260246000fd5b602090607f19011261017a576080516001600160a01b038116810361017a5790565b600080fd5b506040513d6000823e3d90fdfea2646970667358221220b3d936a608ce0dfc4f292805bb4ea65fa7b46985ee5ae2f039d89cbdfda9ef6864736f6c63430008110033a264697066735822122081b37036b1ef9932f76cdb726b53fec3175c05708618a603ab33b9678b71058b64736f6c63430008110033","linkReferences":{}},"methodIdentifiers":{"addAgent(address)":"84e79842","addTA(address)":"58b5b5c1","addTokenFactory(address)":"9ce19365","createIdentity(address,string)":"8e952bfe","createIdentityWithManagementKeys(address,string,bytes32[])":"fe5cd59a","createTokenIdentity(address,address,string)":"3d56ff66","getIdentity(address)":"2fea7b81","getToken(address)":"59770438","getWallets(address)":"422c29a4","isAgent(address)":"1ffbb064","isSaltTaken(string)":"3a500451","isTA(address)":"ab190ae7","isTokenFactory(address)":"3e3bc3d7","linkWallet(address)":"b8bb8126","owner()":"8da5cb5b","removeAgent(address)":"97a6278e","removeTA(address)":"4788598c","removeTokenFactory(address)":"937529ef","renounceOwnership()":"715018a6","transferOwnership(address)":"f2fde38b","unlinkWallet(address)":"5027dbe2"},"id":44}