{"abi":[{"type":"function","name":"addAgent","inputs":[{"name":"_agent","type":"address","internalType":"address"}],"outputs":[],"stateMutability":"nonpayable"},{"type":"function","name":"addTA","inputs":[{"name":"_agent","type":"address","internalType":"address"}],"outputs":[],"stateMutability":"nonpayable"},{"type":"function","name":"batchRegisterIdentity","inputs":[{"name":"_userAddresses","type":"address[]","internalType":"address[]"},{"name":"_identities","type":"address[]","internalType":"contract IIdentity[]"},{"name":"_countries","type":"uint16[]","internalType":"uint16[]"}],"outputs":[],"stateMutability":"nonpayable"},{"type":"function","name":"contains","inputs":[{"name":"_userAddress","type":"address","internalType":"address"}],"outputs":[{"name":"","type":"bool","internalType":"bool"}],"stateMutability":"view"},{"type":"function","name":"deleteIdentity","inputs":[{"name":"_userAddress","type":"address","internalType":"address"}],"outputs":[],"stateMutability":"nonpayable"},{"type":"function","name":"identity","inputs":[{"name":"_userAddress","type":"address","internalType":"address"}],"outputs":[{"name":"","type":"address","internalType":"contract IIdentity"}],"stateMutability":"view"},{"type":"function","name":"identityStorage","inputs":[],"outputs":[{"name":"","type":"address","internalType":"contract IIdentityRegistryStorage"}],"stateMutability":"view"},{"type":"function","name":"init","inputs":[{"name":"_trustedIssuersRegistry","type":"address","internalType":"address"},{"name":"_claimTopicsRegistry","type":"address","internalType":"address"},{"name":"_identityStorage","type":"address","internalType":"address"}],"outputs":[],"stateMutability":"nonpayable"},{"type":"function","name":"investorCountry","inputs":[{"name":"_userAddress","type":"address","internalType":"address"}],"outputs":[{"name":"","type":"uint16","internalType":"uint16"}],"stateMutability":"view"},{"type":"function","name":"isAgent","inputs":[{"name":"_agent","type":"address","internalType":"address"}],"outputs":[{"name":"","type":"bool","internalType":"bool"}],"stateMutability":"view"},{"type":"function","name":"isTA","inputs":[{"name":"_agent","type":"address","internalType":"address"}],"outputs":[{"name":"","type":"bool","internalType":"bool"}],"stateMutability":"view"},{"type":"function","name":"isVerified","inputs":[{"name":"_userAddress","type":"address","internalType":"address"}],"outputs":[{"name":"","type":"bool","internalType":"bool"}],"stateMutability":"view"},{"type":"function","name":"issuersRegistry","inputs":[],"outputs":[{"name":"","type":"address","internalType":"contract ITrustedIssuersRegistry"}],"stateMutability":"view"},{"type":"function","name":"owner","inputs":[],"outputs":[{"name":"","type":"address","internalType":"address"}],"stateMutability":"view"},{"type":"function","name":"registerIdentity","inputs":[{"name":"_userAddress","type":"address","internalType":"address"},{"name":"_identity","type":"address","internalType":"contract IIdentity"},{"name":"_country","type":"uint16","internalType":"uint16"}],"outputs":[],"stateMutability":"nonpayable"},{"type":"function","name":"removeAgent","inputs":[{"name":"_agent","type":"address","internalType":"address"}],"outputs":[],"stateMutability":"nonpayable"},{"type":"function","name":"removeTA","inputs":[{"name":"_agent","type":"address","internalType":"address"}],"outputs":[],"stateMutability":"nonpayable"},{"type":"function","name":"renounceOwnership","inputs":[],"outputs":[],"stateMutability":"nonpayable"},{"type":"function","name":"setClaimTopicsRegistry","inputs":[{"name":"_claimTopicsRegistry","type":"address","internalType":"address"}],"outputs":[],"stateMutability":"nonpayable"},{"type":"function","name":"setIdentityRegistryStorage","inputs":[{"name":"_identityRegistryStorage","type":"address","internalType":"address"}],"outputs":[],"stateMutability":"nonpayable"},{"type":"function","name":"setTrustedIssuersRegistry","inputs":[{"name":"_trustedIssuersRegistry","type":"address","internalType":"address"}],"outputs":[],"stateMutability":"nonpayable"},{"type":"function","name":"topicsRegistry","inputs":[],"outputs":[{"name":"","type":"address","internalType":"contract IClaimTopicsRegistry"}],"stateMutability":"view"},{"type":"function","name":"transferOwnership","inputs":[{"name":"newOwner","type":"address","internalType":"address"}],"outputs":[],"stateMutability":"nonpayable"},{"type":"function","name":"updateCountry","inputs":[{"name":"_userAddress","type":"address","internalType":"address"},{"name":"_country","type":"uint16","internalType":"uint16"}],"outputs":[],"stateMutability":"nonpayable"},{"type":"function","name":"updateIdentity","inputs":[{"name":"_userAddress","type":"address","internalType":"address"},{"name":"_identity","type":"address","internalType":"contract IIdentity"}],"outputs":[],"stateMutability":"nonpayable"},{"type":"event","name":"AgentAdded","inputs":[{"name":"_agent","type":"address","indexed":true,"internalType":"address"}],"anonymous":false},{"type":"event","name":"AgentRemoved","inputs":[{"name":"_agent","type":"address","indexed":true,"internalType":"address"}],"anonymous":false},{"type":"event","name":"ClaimTopicsRegistrySet","inputs":[{"name":"claimTopicsRegistry","type":"address","indexed":true,"internalType":"address"}],"anonymous":false},{"type":"event","name":"CountryUpdated","inputs":[{"name":"investorAddress","type":"address","indexed":true,"internalType":"address"},{"name":"country","type":"uint16","indexed":true,"internalType":"uint16"}],"anonymous":false},{"type":"event","name":"IdentityRegistered","inputs":[{"name":"investorAddress","type":"address","indexed":true,"internalType":"address"},{"name":"identity","type":"address","indexed":true,"internalType":"contract IIdentity"}],"anonymous":false},{"type":"event","name":"IdentityRemoved","inputs":[{"name":"investorAddress","type":"address","indexed":true,"internalType":"address"},{"name":"identity","type":"address","indexed":true,"internalType":"contract IIdentity"}],"anonymous":false},{"type":"event","name":"IdentityStorageSet","inputs":[{"name":"identityStorage","type":"address","indexed":true,"internalType":"address"}],"anonymous":false},{"type":"event","name":"IdentityUpdated","inputs":[{"name":"oldIdentity","type":"address","indexed":true,"internalType":"contract IIdentity"},{"name":"newIdentity","type":"address","indexed":true,"internalType":"contract IIdentity"}],"anonymous":false},{"type":"event","name":"Initialized","inputs":[{"name":"version","type":"uint8","indexed":false,"internalType":"uint8"}],"anonymous":false},{"type":"event","name":"OwnershipTransferred","inputs":[{"name":"previousOwner","type":"address","indexed":true,"internalType":"address"},{"name":"newOwner","type":"address","indexed":true,"internalType":"address"}],"anonymous":false},{"type":"event","name":"TrustedIssuersRegistrySet","inputs":[{"name":"trustedIssuersRegistry","type":"address","indexed":true,"internalType":"address"}],"anonymous":false},{"type":"event","name":"taAdded","inputs":[{"name":"_agent","type":"address","indexed":true,"internalType":"address"}],"anonymous":false},{"type":"event","name":"taRemoved","inputs":[{"name":"_agent","type":"address","indexed":true,"internalType":"address"}],"anonymous":false}],"bytecode":{"object":"0x60808060405234610016576119a9908161001c8239f35b600080fdfe6080604081815260048036101561001557600080fd5b600092833560e01c908163184b955914610d2a575080631ffbb06414610d0957806326d941ae14610ca15780633b239a7f14610bdf5780633b3e12f414610bb6578063454a03e014610ae25780634788598c14610a6457806358b5b5c1146109df5780635dbe47e8146109b9578063653dc9f114610844578063670af6a9146107dc578063715018a61461077e5780637e42683b146106ce57806384e798421461060c5780638da5cb5b146105e35780638e098ca11461051d57806397a6278e1461044e578063a8d29d1d14610386578063ab190ae7146102f1578063b4f3fcb7146102c8578063b9209e3314610299578063e744d7891461022e578063f0eb5e54146101f7578063f11abfd8146101ca5763f2fde38b1461013657600080fd5b346101c65760203660031901126101c65761014f610f54565b916101586118d2565b6001600160a01b0383161561017457836101718461192a565b80f35b906020608492519162461bcd60e51b8352820152602660248201527f4f776e61626c653a206e6577206f776e657220697320746865207a65726f206160448201526564647265737360d01b6064820152fd5b8280fd5b5050346101f357816003193601126101f35760695490516001600160a01b039091168152602090f35b5080fd5b5050346101f35760203660031901126101f35760209061021d610218610f54565b611752565b90516001600160a01b039091168152f35b833461029657602036600319011261029657610248610f54565b6102506118d2565b606880546001600160a01b0319166001600160a01b039290921691821790557f1b98cb79e6f73020175fe87333f1b91ad6a881519c0afe30340c2599b2b4bde08280a280f35b80fd5b5050346101f35760203660031901126101f3576020906102bf6102ba610f54565b6111cf565b90519015158152f35b5050346101f357816003193601126101f35760685490516001600160a01b039091168152602090f35b50913461029657602036600319011261029657506001600160a01b03610315610f54565b16801561033857602092506000526066825260ff81600020541690519015158152f35b815162461bcd60e51b8152602081850152602260248201527f526f6c65733a206163636f756e7420697320746865207a65726f206164647265604482015261737360f01b6064820152608490fd5b5090346101c65760203660031901126101c6576103a1610f54565b6103b26103ad336117dc565b611048565b836103bc82611752565b6069546001600160a01b039491939085169190823b15610441578560248592838551968794859363cf191bcd60e01b855216809c8401525af1908115610445575061042d575b505016907f59d6590e225b81befe259af056324092801080acbb7feab310eb34678871f3278380a380f35b610436906110ab565b610441578338610402565b8380fd5b513d84823e3d90fd5b5090346101c65760203660031901126101c657610469610f54565b916104726118d2565b6001600160a01b038316926104919061048c851515610fb1565b6117dc565b156104d157506000828152606560205220805460ff191690557fed9c8ad8d5a0a66898ea49d2956929c93ae2e8bd50281b2ed897c5d1a6737e0b8280a280f35b6020608492519162461bcd60e51b8352820152602160248201527f526f6c65733a206163636f756e7420646f6573206e6f74206861766520726f6c6044820152606560f81b6064820152fd5b50346101c657816003193601126101c657610536610f54565b9183610540610f6a565b9261054d6103ad336117dc565b61055685611752565b9260018060a01b0394856069541696873b156105df57604487918683819587519889968795637402e7c360e11b87521690850152169a8b60248401525af190811561044557506105cb575b5050167fe98082932c8056a0f514da9104e4a66bc2cbaef102ad59d90c4b24220ebf60108380a380f35b6105d4906110ab565b6104415783386105a1565b8480fd5b5050346101f357816003193601126101f35760335490516001600160a01b039091168152602090f35b5090346101c65760203660031901126101c657610627610f54565b916106306118d2565b6001600160a01b0383169261064a9061048c851515610fb1565b61068c57506000828152606560205220805460ff191660011790557ff68e73cec97f2d70aa641fb26e87a4383686e2efacb648f2165aeb02ac562ec58280a280f35b6020606492519162461bcd60e51b8352820152601f60248201527f526f6c65733a206163636f756e7420616c72656164792068617320726f6c65006044820152fd5b5090346101c6576020928360031936011261029657836106ec610f54565b6069548451631c9f84ef60e21b81526001600160a01b039283169681019690965285916024918391165afa928315610772578193610732575b505061ffff905191168152f35b909192508381813d831161076b575b61074b81836110d5565b810103126101f357519061ffff8216820361029657509061ffff38610725565b503d610741565b509051903d90823e3d90fd5b83346102965780600319360112610296576107976118d2565b603380546001600160a01b031981169091556000906001600160a01b03167f8be0079c531659141344cd1fd0a4f28419497f9722a3daafe3b4186f6b6457e08280a380f35b8334610296576020366003190112610296576107f6610f54565b6107fe6118d2565b606780546001600160a01b0319166001600160a01b039290921691821790557f7170bf15b246e880b2369cd7c67d057760d8a35149e8c64dde91efa22bcc76d08280a280f35b50346101c65760603660031901126101c65767ffffffffffffffff9080358281116105df576108769036908301610f80565b9290938560249283358181116101c6576108939036908701610f80565b9560449283359081116105df576108ad9036908301610f80565b9098855b8181106108bc578680f35b6108c781838e611022565b356001600160a01b0381811692918390036109a3576108e7828d89611022565b35908082168092036109b5576108ff838f8890611022565b359061ffff82168092036109b1576109196103ad336117dc565b6069541690813b156109b157846064898f948f908f958f89889451998a98899763a53410dd60e01b89528801528601528401525af180156109a757908a9161098f575b50927f6ae73635c50d24a45af6fbd5e016ac4bed179addbc8bf24e04ff0fcc6d33af198461098a95a3610ffd565b6108b1565b610998906110ab565b6109a357883861095c565b8880fd5b8b513d8c823e3d90fd5b8a80fd5b8980fd5b5050346101f35760203660031901126101f3576020906102bf6109da610f54565b611730565b5090346101c65760203660031901126101c6576109fa610f54565b91610a036118d2565b6001600160a01b03831692610a2290610a1d851515610fb1565b61184f565b61068c57506000828152606660205220805460ff191660011790557f4f89f64d04cc833c53d6284af6b75785fd83d2e9737936a817421f3fa4fa777e8280a280f35b5090346101c65760203660031901126101c657610a7f610f54565b91610a886118d2565b6001600160a01b03831692610aa290610a1d851515610fb1565b156104d157506000828152606660205220805460ff191690557f82f1efed5d891d7ba766c32612c2a36d22f2feddccbdaf31c6fb2ea7c52b287c8280a280f35b50346101c65760603660031901126101c657610afc610f54565b610b04610f6a565b6044359361ffff8516809503610bb1578592610b226103ad336117dc565b6069546001600160a01b03908116803b15610bad57859283606492848751988996879563a53410dd60e01b875216809c860152169a8b602485015260448401525af19081156104455750610b99575b50807f6ae73635c50d24a45af6fbd5e016ac4bed179addbc8bf24e04ff0fcc6d33af1991a380f35b610ba2906110ab565b6101c6578238610b71565b8580fd5b600080fd5b5050346101f357816003193601126101f35760675490516001600160a01b039091168152602090f35b50346101c657816003193601126101c657610bf8610f54565b6024359261ffff84168094036105df57610c146103ad336117dc565b6069546001600160a01b0390811692869190843b156101c6576044908385519687948593639f3418d560e01b85521680998401528960248401525af1908115610c985750610c85575b507f04ed3b726495c2dca1ff1215d9ca54e1a4030abb5e82b0f6ce55702416cee8538380a380f35b610c91909391936110ab565b9138610c5d565b513d86823e3d90fd5b833461029657602036600319011261029657610cbb610f54565b610cc36118d2565b606980546001600160a01b0319166001600160a01b039290921691821790557f2fa8b95c1db7afe99e3398f3792f008135cedc1fa26b0bb2ecd2352cd166d53c8280a280f35b5050346101f35760203660031901126101f3576020906102bf61048c610f54565b90503461044157606036600319011261044157610d45610f54565b90610d4e610f6a565b906044359260018060a01b0391828516809503610f505787549060ff8260081c161596878098610f43575b8015610f2c575b15610ed457505060ff198116600117885582919086610ec3575b50169182151580610eb8575b80610eaf575b610db590610fb1565b16826bffffffffffffffffffffffff60a01b828160675416176067558381606854161760685560695416176069557f7170bf15b246e880b2369cd7c67d057760d8a35149e8c64dde91efa22bcc76d08680a27f1b98cb79e6f73020175fe87333f1b91ad6a881519c0afe30340c2599b2b4bde08580a27f2fa8b95c1db7afe99e3398f3792f008135cedc1fa26b0bb2ecd2352cd166d53c8480a2610e6860ff845460081c16610e6381611872565b611872565b610e713361192a565b610e79575080f35b60207f7f26b83ff96e1f2b6a682f133852f6798a09c465da95921460cefb38474024989161ff001984541684555160018152a180f35b50831515610dac565b508181161515610da6565b61ffff191661010117885538610d9a565b62461bcd60e51b8252602090820152602e60248201527f496e697469616c697a61626c653a20636f6e747261637420697320616c72656160448201526d191e481a5b9a5d1a585b1a5e995960921b6064820152608490fd5b50303b158015610d805750600160ff841614610d80565b50600160ff841610610d79565b8780fd5b600435906001600160a01b0382168203610bb157565b602435906001600160a01b0382168203610bb157565b9181601f84011215610bb15782359167ffffffffffffffff8311610bb1576020808501948460051b010111610bb157565b15610fb857565b60405162461bcd60e51b815260206004820152601f60248201527f696e76616c696420617267756d656e74202d207a65726f2061646472657373006044820152606490fd5b600019811461100c5760010190565b634e487b7160e01b600052601160045260246000fd5b91908110156110325760051b0190565b634e487b7160e01b600052603260045260246000fd5b1561104f57565b60405162461bcd60e51b815260206004820152602e60248201527f4167656e74526f6c653a2063616c6c657220646f6573206e6f7420686176652060448201526d746865204167656e7420726f6c6560901b6064820152608490fd5b67ffffffffffffffff81116110bf57604052565b634e487b7160e01b600052604160045260246000fd5b90601f8019910116810190811067ffffffffffffffff8211176110bf57604052565b67ffffffffffffffff81116110bf5760051b60200190565b80518210156110325760209160051b010190565b60005b8381106111365750506000910152565b8181015183820152602001611126565b9092919267ffffffffffffffff81116110bf5760405191611171601f8301601f1916602001846110d5565b829482845282820111610bb157602061118b930190611123565b565b9080601f83011215610bb15781516111a792602001611146565b90565b906020916111c381518092818552858086019101611123565b601f01601f1916010190565b6001600160a01b0391826111e283611752565b161561172857826067541660408051809581936337c2758160e21b835260009283916004998a915afa93841561171e57829461168c575b508351156116805781908060685416955b85518310156116725761123d838761110f565b51908551916352c111d160e01b83528a83015284826024818b5afa9182156116685785926115c9575b5081519788156115bb57611279896110f7565b9861128688519a8b6110d5565b808a52611295601f19916110f7565b013660208b0137855b835181101561131957846112b2828661110f565b51166112be878b61110f565b51895190602082019283528a8201528981526060810181811067ffffffffffffffff821117611306578a5251902061130191906112fb828d61110f565b52610ffd565b61129e565b634e487b7160e01b8a5260418f5260248afd5b50909994979592989150875b86518110156115a1578961133884611752565b1689611344838a61110f565b51602487518094819363c9100bcb60e01b83528c8301525afa8015611597578786928d8d8d898c9683849685926114d6575b50611381898561110f565b51036114b0576113d385946113a460209a61139e6113e596611752565b9661110f565b519a519a8b998a98899763604b4d3760e11b8952169087015260248601526080604486015260848501906111aa565b838103600319016064850152906111aa565b0392165afa8a9181611473575b5061143a57508651600019810190811161142757811461141a5761141590610ffd565b611325565b5050505050505050905090565b634e487b7160e01b8a526011875260248afd5b8061146a575b1580611454575b61141a5761141590610ffd565b5086516000198101908111611427578114611447565b87519150611440565b9091506020813d6020116114a8575b8161148f602093836110d5565b810103126109b1575180151581036109b15790386113f2565b3d9150611482565b5050505050505050508651600019810190811161142757811461141a5761141590610ffd565b99505050505050505050503d808b833e6114f081836110d5565b81019060c0818303126109b157805186820151908d821682036115935760608301519367ffffffffffffffff9485811161158b578161153091860161118d565b94608085015181811161158f578261154991870161118d565b9460a081015191821161158f570181601f8201121561158b57938f91898f91958c98958f978f999081602061158093519101611146565b509095939038611376565b8e80fd5b8f80fd5b8c80fd5b85513d8c823e3d90fd5b50926115b4919892955098969398610ffd565b919561122a565b509850505050935050505090565b9091503d8086833e6115db81836110d5565b81019060209081818403126116645780519067ffffffffffffffff8211610f5057019180601f84011215611664578251611614816110f7565b936116218a5195866110d5565b818552838086019260051b8201019283116109a3578301905b82821061164c57505050509038611266565b815187811681036109b557815290830190830161163a565b8680fd5b86513d87823e3d90fd5b975050505050505050600190565b50505050915050600190565b9093503d8083833e61169e81836110d5565b81019060209081818403126104415780519067ffffffffffffffff82116105df57019180601f840112156104415782516116d7816110f7565b936116e4875195866110d5565b818552838086019260051b820101928311610bad578301905b82821061170f57505050509238611219565b815181529083019083016116fd565b83513d84823e3d90fd5b915050600090565b6001600160a01b039061174290611752565b161561174d57600190565b600090565b606954604051637988d3a560e01b81526001600160a01b039283166004820152906020908290602490829086165afa9081156117d057600091611796575b50905090565b6020813d82116117c8575b816117ae602093836110d5565b810103126101f35751918216820361029657508038611790565b3d91506117a1565b6040513d6000823e3d90fd5b6001600160a01b031680156117ff57600052606560205260ff6040600020541690565b60405162461bcd60e51b815260206004820152602260248201527f526f6c65733a206163636f756e7420697320746865207a65726f206164647265604482015261737360f01b6064820152608490fd5b6001600160a01b031680156117ff57600052606660205260ff6040600020541690565b1561187957565b60405162461bcd60e51b815260206004820152602b60248201527f496e697469616c697a61626c653a20636f6e7472616374206973206e6f74206960448201526a6e697469616c697a696e6760a81b6064820152608490fd5b6033546001600160a01b031633036118e657565b606460405162461bcd60e51b815260206004820152602060248201527f4f776e61626c653a2063616c6c6572206973206e6f7420746865206f776e65726044820152fd5b603380546001600160a01b039283166001600160a01b0319821681179092559091167f8be0079c531659141344cd1fd0a4f28419497f9722a3daafe3b4186f6b6457e0600080a356fea2646970667358221220b80e12cef87e4eca16807341f56a9b0d4e14a67fe83c322c924fd35ca38f726e64736f6c63430008110033","linkReferences":{}},"methodIdentifiers":{"addAgent(address)":"84e79842","addTA(address)":"58b5b5c1","batchRegisterIdentity(address[],address[],uint16[])":"653dc9f1","contains(address)":"5dbe47e8","deleteIdentity(address)":"a8d29d1d","identity(address)":"f0eb5e54","identityStorage()":"f11abfd8","init(address,address,address)":"184b9559","investorCountry(address)":"7e42683b","isAgent(address)":"1ffbb064","isTA(address)":"ab190ae7","isVerified(address)":"b9209e33","issuersRegistry()":"b4f3fcb7","owner()":"8da5cb5b","registerIdentity(address,address,uint16)":"454a03e0","removeAgent(address)":"97a6278e","removeTA(address)":"4788598c","renounceOwnership()":"715018a6","setClaimTopicsRegistry(address)":"670af6a9","setIdentityRegistryStorage(address)":"26d941ae","setTrustedIssuersRegistry(address)":"e744d789","topicsRegistry()":"3b3e12f4","transferOwnership(address)":"f2fde38b","updateCountry(address,uint16)":"3b239a7f","updateIdentity(address,address)":"8e098ca1"},"id":71}