{"abi":[{"type":"function","name":"createWrapToken","inputs":[{"name":"_erc3643","type":"address","internalType":"address"},{"name":"_countryCode","type":"uint16","internalType":"uint16"}],"outputs":[],"stateMutability":"nonpayable"},{"type":"function","name":"escrowController","inputs":[],"outputs":[{"name":"","type":"address","internalType":"address"}],"stateMutability":"view"},{"type":"function","name":"fundFactory","inputs":[],"outputs":[{"name":"","type":"address","internalType":"address"}],"stateMutability":"view"},{"type":"function","name":"getERC20","inputs":[{"name":"","type":"address","internalType":"address"}],"outputs":[{"name":"","type":"address","internalType":"address"}],"stateMutability":"view"},{"type":"function","name":"getERC3643","inputs":[{"name":"","type":"address","internalType":"address"}],"outputs":[{"name":"","type":"address","internalType":"address"}],"stateMutability":"view"},{"type":"function","name":"implERC20","inputs":[],"outputs":[{"name":"","type":"address","internalType":"address"}],"stateMutability":"view"},{"type":"function","name":"init","inputs":[{"name":"_erc20Impl","type":"address","internalType":"address"},{"name":"_fundFactory","type":"address","internalType":"address"}],"outputs":[],"stateMutability":"nonpayable"},{"type":"function","name":"isWrapped","inputs":[{"name":"","type":"address","internalType":"address"}],"outputs":[{"name":"","type":"bool","internalType":"bool"}],"stateMutability":"view"},{"type":"function","name":"lockedERC3643","inputs":[{"name":"","type":"address","internalType":"address"}],"outputs":[{"name":"","type":"uint256","internalType":"uint256"}],"stateMutability":"view"},{"type":"function","name":"setEscrowController","inputs":[{"name":"escrowController_","type":"address","internalType":"address"}],"outputs":[],"stateMutability":"nonpayable"},{"type":"function","name":"setFundFactory","inputs":[{"name":"fundFactory_","type":"address","internalType":"address"}],"outputs":[],"stateMutability":"nonpayable"},{"type":"function","name":"setOnchainID","inputs":[{"name":"_onChainID","type":"address","internalType":"address"}],"outputs":[],"stateMutability":"nonpayable"},{"type":"function","name":"setStableCoin","inputs":[{"name":"_stablecoin","type":"string","internalType":"string"}],"outputs":[],"stateMutability":"nonpayable"},{"type":"function","name":"stableCoin","inputs":[],"outputs":[{"name":"","type":"address","internalType":"address"}],"stateMutability":"view"},{"type":"function","name":"toERC20","inputs":[{"name":"_erc3643","type":"address","internalType":"address"},{"name":"_amount","type":"uint256","internalType":"uint256"}],"outputs":[],"stateMutability":"nonpayable"},{"type":"function","name":"toERC3643","inputs":[{"name":"_erc20","type":"address","internalType":"address"},{"name":"_amount","type":"uint256","internalType":"uint256"}],"outputs":[],"stateMutability":"nonpayable"},{"type":"function","name":"wrapperOnchainID","inputs":[],"outputs":[{"name":"","type":"address","internalType":"address"}],"stateMutability":"view"},{"type":"event","name":"EscrowControllerUpdated","inputs":[{"name":"escrowController","type":"address","indexed":false,"internalType":"address"}],"anonymous":false},{"type":"event","name":"FundFactoryUpdated","inputs":[{"name":"fundFactory","type":"address","indexed":false,"internalType":"address"}],"anonymous":false},{"type":"event","name":"Initialized","inputs":[{"name":"version","type":"uint8","indexed":false,"internalType":"uint8"}],"anonymous":false},{"type":"event","name":"OnChainIDUpdated","inputs":[{"name":"_newID","type":"address","indexed":false,"internalType":"address"}],"anonymous":false},{"type":"event","name":"StableCoinUpdated","inputs":[{"name":"stableCoinAddress","type":"address","indexed":false,"internalType":"address"},{"name":"stableCoin","type":"string","indexed":false,"internalType":"string"}],"anonymous":false},{"type":"event","name":"TokenLocked","inputs":[{"name":"_erc3643","type":"address","indexed":false,"internalType":"address"},{"name":"_erc20","type":"address","indexed":false,"internalType":"address"},{"name":"_amount","type":"uint256","indexed":false,"internalType":"uint256"},{"name":"_tax","type":"uint256","indexed":false,"internalType":"uint256"},{"name":"timestamp","type":"uint256","indexed":false,"internalType":"uint256"}],"anonymous":false},{"type":"event","name":"TokenUnlocked","inputs":[{"name":"_erc3643","type":"address","indexed":false,"internalType":"address"},{"name":"_erc20","type":"address","indexed":false,"internalType":"address"},{"name":"_amount","type":"uint256","indexed":false,"internalType":"uint256"},{"name":"timestamp","type":"uint256","indexed":false,"internalType":"uint256"}],"anonymous":false},{"type":"event","name":"WrapTokenCreated","inputs":[{"name":"_erc3643","type":"address","indexed":false,"internalType":"address"},{"name":"_erc20","type":"address","indexed":false,"internalType":"address"}],"anonymous":false}],"bytecode":{"object":"0x6080806040523461001657612435908161001c8239f35b600080fdfe6080604081815260048036101561001557600080fd5b600092833560e01c9081633927a9c51461135e575080633d1ddc5b146112e25780633dea9e66146112b9578063493b059b14611281578063495ee13e146112435780634e0dc557146112095780636531ec7914610bf35780637963cafe14610bb857806386d180cc146107fe5780639454e3a41461061c578063992642e5146105f3578063ae40b943146103b0578063bda84ca314610389578063beb2c4eb14610360578063c9400d1c146102db578063eafab5fc146102525763f09a4016146100de57600080fd5b3461024e578160031936011261024e576100f6611383565b906024356001600160a01b03818116929183900361024957603c549360ff8560081c16159485809661023c575b8015610225575b156101cb5760ff198116600117603c55856101b9575b501690811515806101b0575b61015590611399565b6001600160601b0360a01b91828254161790556007541617600755610178575080f35b60207f7f26b83ff96e1f2b6a682f133852f6798a09c465da95921460cefb38474024989161ff0019603c5416603c555160018152a180f35b5082151561014c565b61ffff191661010117603c5538610140565b865162461bcd60e51b8152602081860152602e60248201527f496e697469616c697a61626c653a20636f6e747261637420697320616c72656160448201526d191e481a5b9a5d1a585b1a5e995960921b6064820152608490fd5b50303b15801561012a5750600160ff82161461012a565b50600160ff821610610123565b600080fd5b8280fd5b5050346102d75760203660031901126102d75760207f4b9967ce22f44a2436068e5967c559d4464917455b60b69066e4059aabd3b5da91610291611383565b610299611c7c565b6001600160a01b0391906102b090831633146113dd565b16906102bd821515611399565b600780546001600160a01b0319168317905551908152a180f35b5080fd5b5050346102d75760203660031901126102d75760207fe665c07f01ee599fdc62311082b39e1fe0f2677fe6aeffa7ed7c31c86dac277c9161031a611383565b610322611c7c565b6001600160a01b03919061033990831633146113dd565b1690610346821515611399565b600880546001600160a01b0319168317905551908152a180f35b5050346102d757816003193601126102d75760065490516001600160a01b039091168152602090f35b503461024e578260031936011261024e575490516001600160a01b03909116815260209150f35b509190346102d757806003193601126102d7576103cb611383565b906024359060018060a01b0380931680855260209360018552808387205416156105b057813b156105a2578251632770a7eb60e21b81523388820190815260208101869052879082908190604001038183875af180156105a65790879161058e575b508290526001855282862054835163a9059cbb60e01b81880190815233602483015260448083018890528252889283929085169190839061046f606482611449565b51925af161047b611636565b8161055e575b501561050557818652600185528083872054168652600385528286208054908582039182116104f257558186526001855282862054835191168152938401528201524260608201527fe15734182b89bfe9b7c18566f03039cfe6f86105d7a230fdfa76bc295841d65890608090a180f35b634e487b7160e01b885260118952602488fd5b825162461bcd60e51b8152808801869052602d60248201527f5472616e7366657248656c7065723a3a736166655472616e736665723a20747260448201526c185b9cd9995c8819985a5b1959609a1b6064820152608490fd5b80518015925087908315610576575b50505038610481565b61058693508201810191016114ab565b38868161056d565b6105979061141f565b6105a257853861042d565b8580fd5b84513d89823e3d90fd5b825162461bcd60e51b8152808801869052601b60248201527f4552433336343320546f6b656e20646f65736e277420657869737400000000006044820152606490fd5b5050346102d757816003193601126102d75760095490516001600160a01b039091168152602090f35b509190346102d75760208060031936011261024e57833567ffffffffffffffff8082116107fa57366023830112156107fa57818601359081116107fa57602482019160248236920101116107fa57610672611c7c565b6001600160a01b039061068890821633146113dd565b600854855163559b461f60e11b808252818a0187905298918316908681806106b460248201898b61148a565b0381855afa9081156107f0579084918a916107d3575b501615610799578798869182899a9951948593845283015281806106f260248201898b61148a565b03915afa90811561078f579661075c94939281927f67c2a8885f5e2f59564e874849bb48bddc2bd04bf3fcf221148439eaf0e16869998991610762575b50169560095496806001600160601b0360a01b89161760095582519889981617875286015284019161148a565b0390a180f35b6107829150883d8a11610788575b61077a8183611449565b81019061146b565b3861072f565b503d610770565b87513d88823e3d90fd5b865162461bcd60e51b81528083018790526014602482015273496e76616c696420537461626c6520436f696e2160601b6044820152606490fd5b6107ea9150883d8a116107885761077a8183611449565b386106ca565b88513d8b823e3d90fd5b8480fd5b509190346102d757806003193601126102d757610819611383565b6001600160a01b03808216808552600260209081528486205491949293602435939260ff1680610ba7575b15610b6b578251636290865d60e01b8082529083818b818b5afa908115610ac057879185918b91610b4e575b508b875180948193633108b60760e11b8352165afa908115610ac0579061089e918a91610b21575b506114c3565b835190815282818a818a5afa908115610a5a57869184918a91610b04575b508a8651809481936308f6b70760e41b8352165afa908115610a5a57906108ee918991610ae7575b5086163014611503565b6108fa8430338461168b565b825163313ce56760e01b8082529083818b818b5afa908115610ac0578991610aca575b50838760095416928b87518095819382525afa918215610ac057908a9392918a92610a91575b50848860075416875195868092637feade7b60e11b82525afa938415610a87579061097b949392918b94610a68575b508733936117e7565b93858752868252808388205416803b15610a645783516340c10f1960e01b815233818b01908152602081018790529091899183919082908490829060400103925af18015610a5a57908891610a42575b5086905260038252828720805490858201809211610a2f5755858752868252828720548351968752169085015283015260608201524260808201527f6edd85519fe7bf8ae3e7c89e6378ac3a3a4c787c65e56793bf70c12fafffb1589060a090a180f35b634e487b7160e01b895260118a52602489fd5b610a4b9061141f565b610a565786386109cb565b8680fd5b84513d8a823e3d90fd5b8780fd5b610a80919450863d88116107885761077a8183611449565b9238610972565b86513d8c823e3d90fd5b610ab2919250853d8711610ab9575b610aaa8183611449565b81019061161d565b9038610943565b503d610aa0565b85513d8b823e3d90fd5b610ae19150843d8611610ab957610aaa8183611449565b3861091d565b610afe9150843d86116107885761077a8183611449565b386108e4565b610b1b9150823d84116107885761077a8183611449565b386108bc565b610b419150853d8711610b47575b610b398183611449565b8101906114ab565b38610898565b503d610b2f565b610b659150823d84116107885761077a8183611449565b38610870565b825162461bcd60e51b8152808901839052601660248201527515dc985c08151bdad95b881b9bdd0818dc99585d195960521b6044820152606490fd5b508682528483882054161515610844565b5050346102d75760203660031901126102d7576020916001600160a01b0390829082610be2611383565b168152600185522054169051908152f35b509190346102d757806003193601126102d757610c0e611383565b9260249384359061ffff82168092036107fa576001600160a01b0390811692610c38841515611399565b8386526020926002845260ff86882054166111cf5785516307feec1960e21b8152338382015284818a81895afa9081156111065788916111b2575b501561117e578551636290865d60e01b80825290858185818a5afa9081156107f057859187918b91611161575b50858a5180948193633108b60760e11b8352165afa9081156107f05790610ccd918a9161114a57506114c3565b865190815284818481895afa90811561110657849186918a9161112d575b50848951809481936308f6b70760e41b8352165afa9081156111065790610d1d918991611110575b5084163014611503565b85516306fdde0360e01b815287818481895afa9081156111065790610d499189916110f2575b506115e2565b9786516395d89b4160e01b8152888185818a5afa9081156107f05790610d75918a916110d057506115e2565b92875163313ce56760e01b8152868183818b5afa908115610ff5578a916110b3575b508851946106e09586810167ffffffffffffffff97828210898311176110a157908291611d20833903908cf080156110975787169b6001600160601b0360a01b9c8d97816005998a541617895589865416908d51908c820192631b2ce7f360e11b845289830152888252606082019082821090821117611084578e52518e9283929083905af1610e25611636565b501561104b57848c6060610e8e8c8f959760ff610e798f998f889c899c610e679254169b5198899788019b637abd80c160e11b8d528801526084870190611666565b85810360231901604487015290611666565b9116606483015203601f198101835282611449565b51925af1610e9a611636565b5015610fff5787516304d3863d60e21b8152868183818b5afa908115610ff5579086918b91610fb7575b5016856006541693813b15610fb357918a6064928195948c51978896879563022a501f60e51b8752309087015285015260448401525af18015610fa957610f78575b507fd33671bf227f1dc9519a76b3d326d3b3739e6eaf4e64f5534059cfbd973a471e959682825416858952888552868920908282541617905582825416885260018452848689209182541617905583875260028352848720600160ff198254161790555416908351928352820152a180f35b95610fa37fd33671bf227f1dc9519a76b3d326d3b3739e6eaf4e64f5534059cfbd973a471e9761141f565b95610f06565b86513d89823e3d90fd5b8a80fd5b809250888092503d8311610fee575b610fd08183611449565b81010312610fea57518581168103610fea57859038610ec4565b8980fd5b503d610fc6565b89513d8c823e3d90fd5b6023608492878a519362461bcd60e51b85528401528201527f5772617020436f6e747261637420496e697469616c697a6174696f6e204661696044820152621b195960ea1b6064820152fd5b8a5162461bcd60e51b81528085018a905260148187015273141c9bde1e48155c19dc9859194811985a5b195960621b6044820152606490fd5b50634e487b7160e01b8f5260418752878ffd5b8a513d8d823e3d90fd5b634e487b7160e01b8e5260418652868efd5b6110ca9150873d8911610ab957610aaa8183611449565b38610d97565b6110ec91503d808c833e6110e48183611449565b810190611580565b38610d43565b6110ec91503d808b833e6110e48183611449565b87513d8a823e3d90fd5b6111279150863d88116107885761077a8183611449565b38610d13565b6111449150823d84116107885761077a8183611449565b38610ceb565b610b419150873d8911610b4757610b398183611449565b6111789150823d84116107885761077a8183611449565b38610ca0565b855162461bcd60e51b8152808301859052600f818a01526e24b73b30b634b21021b932b0ba37b960891b6044820152606490fd5b6111c99150853d8711610b4757610b398183611449565b38610c73565b855162461bcd60e51b81528083018590526015818a015274151bdad95b88185b1c9958591e481ddc985c1c1959605a1b6044820152606490fd5b5050346102d75760203660031901126102d7576020916001600160a01b0390829082611233611383565b1681528085522054169051908152f35b5050346102d75760203660031901126102d75760209160ff9082906001600160a01b0361126e611383565b1681526002855220541690519015158152f35b5050346102d75760203660031901126102d75760209181906001600160a01b036112a9611383565b1681526003845220549051908152f35b5050346102d757816003193601126102d75760075490516001600160a01b039091168152602090f35b5050346102d75760203660031901126102d75760207f0967c175c95d11ec289009de808b00e6378e5b29b8ece8bdf7caa4412d5353e891611321611383565b611329611c7c565b6001600160a01b03919061134090831633146113dd565b1690816001600160601b0360a01b600654161760065551908152a180f35b8490346102d757816003193601126102d7576008546001600160a01b03168152602090f35b600435906001600160a01b038216820361024957565b156113a057565b60405162461bcd60e51b8152602060048201526015602482015274494e56414c494421205a65726f204164647265737360581b6044820152606490fd5b156113e457565b60405162461bcd60e51b815260206004820152601360248201527213db9b1e4813dddb995c8818d85b8818d85b1b606a1b6044820152606490fd5b67ffffffffffffffff811161143357604052565b634e487b7160e01b600052604160045260246000fd5b90601f8019910116810190811067ffffffffffffffff82111761143357604052565b9081602091031261024957516001600160a01b03811681036102495790565b908060209392818452848401376000828201840152601f01601f1916010190565b90816020910312610249575180151581036102495790565b156114ca57565b60405162461bcd60e51b815260206004820152601160248201527015dc985c1c1a5b99c8191a5cd8589b1959607a1b6044820152606490fd5b1561150a57565b60405162461bcd60e51b815260206004820152600f60248201526e24b73b30b634b2103bb930b83832b960891b6044820152606490fd5b67ffffffffffffffff811161143357601f01601f191660200190565b60005b8381106115705750506000910152565b8181015183820152602001611560565b6020818303126102495780519067ffffffffffffffff8211610249570181601f820112156102495780516115b381611541565b926115c16040519485611449565b81845260208284010111610249576115df916020808501910161155d565b90565b9061161b6022604051809461767760f01b602083015261160b815180926020868601910161155d565b8101036002810185520183611449565b565b90816020910312610249575160ff811681036102495790565b3d15611661573d9061164782611541565b916116556040519384611449565b82523d6000602084013e565b606090565b9060209161167f8151809281855285808601910161155d565b601f01601f1916010190565b6040516323b872dd60e01b602082019081526001600160a01b03938416602483015292909316604484015260648084019490945292825260a08201929067ffffffffffffffff841183851017611433576000809493819460405251925af16116f1611636565b8161175e575b50156116ff57565b60405162461bcd60e51b815260206004820152603160248201527f5472616e7366657248656c7065723a3a7472616e7366657246726f6d3a207472604482015270185b9cd9995c919c9bdb4819985a5b1959607a1b6064820152608490fd5b8051801592508215611773575b5050386116f7565b61178692506020809183010191016114ab565b388061176b565b818102929181159184041417156117a057565b634e487b7160e01b600052601160045260246000fd5b60ff16604d81116117a057600a0a90565b81156117d1570490565b634e487b7160e01b600052601260045260246000fd5b909193949260018060a01b03948560075416936040878151956302d0b07560e61b8752166004908082880152602080886024818c5afa978815611c7157600098611c52575b50835163032c49ed60e01b815283810183905298818a602481845afa998a15611b6f5760009a611c2e575b508160249186519283809263519461ef60e11b825287898301525afa908115611b6f57600091611bf4575b5061ffff16988915611be25760009060ff16600103611b7a57506000818c858b885194859384926293630360e11b8452165af1908115611b6f57600091611b42575b50925b8b60075416988551838160248163b37bdb0560e01b9e8f825289888301525afa908115611ab957600091611b15575b5015611ac4578c168551636a39740160e11b815283818481855afa908115611ab957600091611a9c575b50611a105750670de0b6b3a764000098898502948086048b14901517156119fb5790602483928e600754168851968794859384528301525afa9384156119f157506000936119b9575b50509361199461199a6115df9a9998956119a061199a6127109a976119946119a6986119ac9c6117c7565b9061178d565b916117b6565b906117c7565b0461178d565b049384926009541661168b565b8181949293943d83116119ea575b6119d18183611449565b810103126119e75750519061199461199a611969565b80fd5b503d6119c7565b513d6000823e3d90fd5b601182634e487b7160e01b6000525260246000fd5b919350938096979850839250519384809263891fe28d60e01b82525afa9384156119f15750600093611a67575b50506119a66127109461199461199a6119ac966119a061199a6115df9d9c9b98620f42409861178d565b8181949293943d8311611a95575b611a7f8183611449565b810103126119e7575051906119a6612710611a3d565b503d611a75565b611ab39150843d8611610b4757610b398183611449565b38611920565b87513d6000823e3d90fd5b5060849185519162461bcd60e51b8352820152602660248201527f546f6b656e20737570706c79206d7573742062652067726561746572207468616044820152656e207a65726f60d01b6064820152fd5b908482813d8311611b3b575b611b2b8183611449565b810103126119e7575051386118f6565b503d611b21565b908282813d8311611b68575b611b588183611449565b810103126119e7575051386118c4565b503d611b4e565b85513d6000823e3d90fd5b8b828a86885180948193633d3c603f60e21b8352165afa918215611bd7578092611ba7575b5050926118c7565b9091508282813d8311611bd0575b611bbf8183611449565b810103126119e75750513880611b9f565b503d611bb5565b8651903d90823e3d90fd5b50505050505050505050505050600090565b8281813d8311611c27575b611c098183611449565b810103126102d757519061ffff821682036119e7575061ffff611882565b503d611bff565b6024919a50611c4a8391823d8411610ab957610aaa8183611449565b9a9150611857565b81611c6a9299503d8a116107885761077a8183611449565b963861182c565b84513d6000823e3d90fd5b60075460405163029de1db60e61b81526020916001600160a01b03919083908290600490829086165afa8015611cf6578391600091611d02575b50600460405180948193638da5cb5b60e01b8352165afa918215611cf657600092611ce057505090565b6115df9250803d106107885761077a8183611449565b6040513d6000823e3d90fd5b611d199150823d84116107885761077a8183611449565b38611cb656fe6080806040523461003957337f85bd7031deaf76b80f9733e7da132fe310adf86a8e73260691b76988b4b7e35d556106a1908161003f8239f35b600080fdfe6080604052600436101561002c575b361561001f575b61001d6105bf565b005b6100276105bf565b610015565b6000803560e01c908163025313a2146100bb575080633659cfe6146100b25780634f1ef286146100a95780635c60da1b146100a0578063612f2f37146100975780636c376cc51461008e5763f1739cae0361000e5761008961030f565b61000e565b506100896102cf565b5061008961026b565b5061008961023d565b506100896101c0565b50610089610107565b346100ee57806003193601126100ee5760008051602061064c833981519152546001600160a01b03166080908152602090f35b80fd5b6001600160a01b0381160361010257565b600080fd5b50346101025760203660031901126101025761001d600435610128816100f1565b61014a60018060a01b0360008051602061064c83398151915254163314610395565b610554565b50634e487b7160e01b600052604160045260246000fd5b90601f8019910116810190811067ffffffffffffffff82111761018857604052565b61019061014f565b604052565b60209067ffffffffffffffff81116101b3575b601f01601f19160190565b6101bb61014f565b6101a8565b506040366003190112610102576004356101d9816100f1565b6024359067ffffffffffffffff821161010257366023830112156101025781600401359061020682610195565b916102146040519384610166565b808352366024828601011161010257602081600092602461001d97018387013784010152610443565b50346101025760003660031901126101025760206102596104ae565b6040516001600160a01b039091168152f35b5034610102576020366003190112610102576004358015158103610102576102ab60018060a01b0360008051602061064c83398151915254163314610395565b7fce60c5db904241f4fe710c6b7d7c2e6f59bb4f2afc9ad1549ac9b29eb7f522b655005b50346101025760003660031901126101025760207fce60c5db904241f4fe710c6b7d7c2e6f59bb4f2afc9ad1549ac9b29eb7f522b6546040519015158152f35b50346101025760203660031901126101025760043561032d816100f1565b60008051602061064c83398151915280547f5a3e66efaa1e445ebd894728a69d6959842ea1e97bd79b892797106e270efcd9906040906001600160a01b039081169061037a338314610395565b85166103878115156103ed565b82519182526020820152a155005b1561039c57565b60405162461bcd60e51b815260206004820152602360248201527f4f776e6564557067726164656162696c69747950726f78793a20464f524249446044820152622222a760e91b6064820152608490fd5b156103f457565b60405162461bcd60e51b815260206004820152602160248201527f4f776e6564557067726164656162696c69747950726f78793a20494e56414c496044820152601160fa1b6064820152608490fd5b60006104a792610470829361014a60018060a01b0360008051602061064c83398151915254163314610395565b60208151910134305af13d156104a9573d61048a81610195565b906104986040519283610166565b8152600060203d92013e6103ed565b565b6103ed565b7fe64bc1454d00fa92a6df0fa38118ada362b2fe0056be7c885f77a79cabe48ba4546001600160a01b03166000811561054f575060206004916040519283809263557887a160e11b82525afa9081156105435760009161050c575090565b906020823d821161053b575b8161052560209383610166565b810103126100ee575051610538816100f1565b90565b3d9150610518565b6040513d6000823e3d90fd5b905090565b61055c6104ae565b6001600160a01b03808316929161057691168314156103ed565b7fe64bc1454d00fa92a6df0fa38118ada362b2fe0056be7c885f77a79cabe48ba4557fbc7cd75a20ee27fd9adebab32041f755214dbc6bffa90cc0225b39da2e5c2d3b600080a2565b507fce60c5db904241f4fe710c6b7d7c2e6f59bb4f2afc9ad1549ac9b29eb7f522b654610624575b6105ef6104ae565b6106036001600160a01b03821615156103ed565b60008060405192368285378336915af4903d91826000833e1561062257f35bfd5b61064660018060a01b0360008051602061064c83398151915254163314610395565b6105e756fe85bd7031deaf76b80f9733e7da132fe310adf86a8e73260691b76988b4b7e35da2646970667358221220291a185e79edea8bb1d8a100cf4bc679d6c980199bc0b9dd3ad0beea2d34b53564736f6c63430008110033a264697066735822122093d8917aea469ae3e0707f6b651b2a15506ce95efe4ee00eb4d7eb31a2a96a8f64736f6c63430008110033","linkReferences":{}},"methodIdentifiers":{"createWrapToken(address,uint16)":"6531ec79","escrowController()":"3927a9c5","fundFactory()":"3dea9e66","getERC20(address)":"4e0dc557","getERC3643(address)":"7963cafe","implERC20()":"bda84ca3","init(address,address)":"f09a4016","isWrapped(address)":"495ee13e","lockedERC3643(address)":"493b059b","setEscrowController(address)":"c9400d1c","setFundFactory(address)":"eafab5fc","setOnchainID(address)":"3d1ddc5b","setStableCoin(string)":"9454e3a4","stableCoin()":"992642e5","toERC20(address,uint256)":"86d180cc","toERC3643(address,uint256)":"ae40b943","wrapperOnchainID()":"beb2c4eb"},"id":90}