{"abi":[{"type":"function","name":"addModule","inputs":[{"name":"_module","type":"address","internalType":"address"}],"outputs":[],"stateMutability":"nonpayable"},{"type":"function","name":"bindToken","inputs":[{"name":"_token","type":"address","internalType":"address"}],"outputs":[],"stateMutability":"nonpayable"},{"type":"function","name":"callModuleFunction","inputs":[{"name":"callData","type":"bytes","internalType":"bytes"},{"name":"_module","type":"address","internalType":"address"}],"outputs":[],"stateMutability":"nonpayable"},{"type":"function","name":"canTransfer","inputs":[{"name":"_from","type":"address","internalType":"address"},{"name":"_to","type":"address","internalType":"address"},{"name":"_value","type":"uint256","internalType":"uint256"}],"outputs":[{"name":"","type":"bool","internalType":"bool"}],"stateMutability":"view"},{"type":"function","name":"created","inputs":[{"name":"_to","type":"address","internalType":"address"},{"name":"_value","type":"uint256","internalType":"uint256"}],"outputs":[],"stateMutability":"nonpayable"},{"type":"function","name":"destroyed","inputs":[{"name":"_from","type":"address","internalType":"address"},{"name":"_value","type":"uint256","internalType":"uint256"}],"outputs":[],"stateMutability":"nonpayable"},{"type":"function","name":"getModules","inputs":[],"outputs":[{"name":"","type":"address[]","internalType":"address[]"}],"stateMutability":"view"},{"type":"function","name":"getTokenBound","inputs":[],"outputs":[{"name":"","type":"address","internalType":"address"}],"stateMutability":"view"},{"type":"function","name":"getWrapper","inputs":[],"outputs":[{"name":"","type":"address","internalType":"address"}],"stateMutability":"view"},{"type":"function","name":"init","inputs":[],"outputs":[],"stateMutability":"nonpayable"},{"type":"function","name":"isModuleBound","inputs":[{"name":"_module","type":"address","internalType":"address"}],"outputs":[{"name":"","type":"bool","internalType":"bool"}],"stateMutability":"view"},{"type":"function","name":"isWrapperSet","inputs":[],"outputs":[{"name":"","type":"bool","internalType":"bool"}],"stateMutability":"view"},{"type":"function","name":"owner","inputs":[],"outputs":[{"name":"","type":"address","internalType":"address"}],"stateMutability":"view"},{"type":"function","name":"removeModule","inputs":[{"name":"_module","type":"address","internalType":"address"}],"outputs":[],"stateMutability":"nonpayable"},{"type":"function","name":"renounceOwnership","inputs":[],"outputs":[],"stateMutability":"nonpayable"},{"type":"function","name":"setWrapper","inputs":[{"name":"_wrapper","type":"address","internalType":"address"},{"name":"_enabled","type":"bool","internalType":"bool"}],"outputs":[],"stateMutability":"nonpayable"},{"type":"function","name":"transferOwnership","inputs":[{"name":"newOwner","type":"address","internalType":"address"}],"outputs":[],"stateMutability":"nonpayable"},{"type":"function","name":"transferred","inputs":[{"name":"_from","type":"address","internalType":"address"},{"name":"_to","type":"address","internalType":"address"},{"name":"_value","type":"uint256","internalType":"uint256"}],"outputs":[],"stateMutability":"nonpayable"},{"type":"function","name":"unbindToken","inputs":[{"name":"_token","type":"address","internalType":"address"}],"outputs":[],"stateMutability":"nonpayable"},{"type":"function","name":"wrapper","inputs":[],"outputs":[{"name":"","type":"address","internalType":"address"}],"stateMutability":"view"},{"type":"function","name":"wrapperSet","inputs":[],"outputs":[{"name":"","type":"bool","internalType":"bool"}],"stateMutability":"view"},{"type":"event","name":"Initialized","inputs":[{"name":"version","type":"uint8","indexed":false,"internalType":"uint8"}],"anonymous":false},{"type":"event","name":"ModuleAdded","inputs":[{"name":"_module","type":"address","indexed":true,"internalType":"address"}],"anonymous":false},{"type":"event","name":"ModuleInteraction","inputs":[{"name":"target","type":"address","indexed":true,"internalType":"address"},{"name":"selector","type":"bytes4","indexed":false,"internalType":"bytes4"}],"anonymous":false},{"type":"event","name":"ModuleRemoved","inputs":[{"name":"_module","type":"address","indexed":true,"internalType":"address"}],"anonymous":false},{"type":"event","name":"OwnershipTransferred","inputs":[{"name":"previousOwner","type":"address","indexed":true,"internalType":"address"},{"name":"newOwner","type":"address","indexed":true,"internalType":"address"}],"anonymous":false},{"type":"event","name":"TokenBound","inputs":[{"name":"_token","type":"address","indexed":false,"internalType":"address"}],"anonymous":false},{"type":"event","name":"TokenUnbound","inputs":[{"name":"_token","type":"address","indexed":false,"internalType":"address"}],"anonymous":false},{"type":"event","name":"WrapperUpdated","inputs":[{"name":"Wrapper","type":"address","indexed":false,"internalType":"address"},{"name":"_status","type":"bool","indexed":false,"internalType":"bool"}],"anonymous":false}],"bytecode":{"object":"0x6080806040523461001657611a6c908161001c8239f35b600080fdfe60806040526004361015610013575b600080fd5b60003560e01c80631ed86f19146101a55780633ff5aa021461019c57806340db3b50146101935780635f8dead31461018a57806362116c0e146101425780636a3edf2814610181578063715018a6146101785780638baf29b41461016f5780638d2ea772146101665780638da5cb5b1461015d5780638f6b707014610139578063a063246114610154578063a446d49f1461014b578063a472a7dc14610142578063ac210cc714610139578063b2494df314610130578063e0e5228d14610127578063e1c7392a1461011e578063e46638e614610115578063efb22d331461010c5763f2fde38b1461010457600080fd5b61000e610e02565b5061000e610d98565b5061000e610d74565b5061000e610c90565b5061000e610bb1565b5061000e610adf565b5061000e6108f9565b5061000e61067e565b5061000e610a9f565b5061000e610927565b5061000e6108cf565b5061000e610825565b5061000e610763565b5061000e6106cc565b5061000e6106a2565b5061000e61056d565b5061000e61047b565b5061000e6103c5565b5061000e6101c4565b600435906001600160a01b038216820361000e57565b503461000e5760208060031936011261000e576101df6101ae565b6101e7611995565b6001600160a01b038116916101fd831515610f3f565b61023261022d6102296102228560018060a01b03166000526067602052604060002090565b5460ff1690565b1590565b610f8b565b61024160186066541115610fce565b60405163e6f5e80760e01b81528181600481875afa9081156103b8575b60009161039b575b5015610324575b50813b1561000e576040516312a4c95160e21b81523060048201526102d7916102ca9160008160248183895af18015610317575b6102fe575b506102b08161115e565b6001600160a01b0316600090815260676020526040902090565b805460ff19166001179055565b7fead6a006345da1073a106d5f32372d2d2204f46cb0b4bca8f5ebafcbbed12b8a600080a2005b8061030b61031192611031565b80610673565b386102a6565b61031f61108c565b6102a1565b60405163bcc2105360e01b815230600482015261035b91908181602481885afa91821561038e575b600092610361575b5050611099565b3861026d565b6103809250803d10610387575b6103788183611052565b810190611074565b3880610354565b503d61036e565b61039661108c565b61034c565b6103b29150823d8411610387576103788183611052565b38610266565b6103c061108c565b61025e565b503461000e57602036600319011261000e577f2de35142b19ed5a07796cf30791959c592018f70b1d2d7c460eef8ffe713692b61045e6104036101ae565b6033546001600160a01b0390811633148015610463575b61042390610ef3565b8116610430811515610f3f565b606580546001600160a01b0319169190911790556040516001600160a01b0390911681529081906020820190565b0390a1005b50806065541615801561041a5750338282161461041a565b503461000e57602036600319011261000e576104956101ae565b6033546001600160a01b0390811633148015610562575b6104b590610ef3565b6065548282169116810361051d577f28a4ca7134a3b3f9aff286e79ad3daadb4a06d1b43d037a3a98bdc074edd9b7a916104f361045e921515610f3f565b606580546001600160a01b03191690556040516001600160a01b0390911681529081906020820190565b60405162461bcd60e51b815260206004820152601760248201527f5468697320746f6b656e206973206e6f7420626f756e640000000000000000006044820152606490fd5b5033828216146104ac565b503461000e5760408060031936011261000e576105886101ae565b90602435916105af60018060a01b036105a6816065541633146112ea565b82161515610f3f565b6105ba8315156113c0565b6066549160005b8381106105ca57005b6105fd6105f16105f16105dc84611119565b905460039190911b1c6001600160a01b031690565b6001600160a01b031690565b90813b1561000e57825163f104a8c960e01b81526001600160a01b03851660048201526024810187905261064e926000908290818381604481015b03925af18015610666575b610653575b50611239565b6105c1565b8061030b61066092611031565b38610648565b61066e61108c565b610643565b600091031261000e57565b503461000e57600036600319011261000e57602060ff606854166040519015158152f35b503461000e57600036600319011261000e576065546040516001600160a01b039091168152602090f35b503461000e5760008060031936011261072b576106e7611995565b603380546001600160a01b0319811690915581906001600160a01b03167f8be0079c531659141344cd1fd0a4f28419497f9722a3daafe3b4186f6b6457e08280a380f35b80fd5b606090600319011261000e576001600160a01b0390600435828116810361000e5791602435908116810361000e579060443590565b503461000e576107723661072e565b919061079f60018060a01b0361078d816065541633146112ea565b80841615159081610819575b50610f3f565b6107aa831515611368565b6066549160005b8381106107ba57005b6107cc6105f16105f16105dc84611119565b90813b1561000e57604051630b2df87b60e21b81526001600160a01b038085166004830152851660248201526044810187905261081492600090829081838160648101610638565b6107b1565b90508216151538610799565b503461000e5760408060031936011261000e576108406101ae565b906024359161085e60018060a01b036105a6816065541633146112ea565b61086983151561140b565b6066549160005b83811061087957005b61088b6105f16105f16105dc84611119565b90813b1561000e578251631b9248d160e11b81526001600160a01b0385166004820152602481018790526108ca92600090829081838160448101610638565b610870565b503461000e57600036600319011261000e576033546040516001600160a01b039091168152602090f35b503461000e57600036600319011261000e5760685460405160089190911c6001600160a01b03168152602090f35b503461000e57602036600319011261000e576109416101ae565b610949611995565b6001600160a01b0381169061095f821515610f3f565b6001600160a01b03811660009081526067602052604090206109899061098490610222565b6111e3565b60665460005b81811061099857005b836109a86105f16105dc84611119565b146109bb576109b690611239565b61098f565b9091833b1561000e57604051630694a5fb60e01b8152306004820152610a5893610a4e93610a46929091610a2291610a1c916105dc91610a1791906000818d8183816024810103925af18015610a92575b610a7f575b50611255565b611119565b91611119565b90919082549060031b9160018060a01b039283811b93849216901b16911916179055565b6102b061126e565b805460ff19169055565b7f0a1ee69f55c33d8467c69ca59ce2007a737a88603d75392972520bf67cb513b8600080a2005b8061030b610a8c92611031565b38610a11565b610a9a61108c565b610a0c565b503461000e57602036600319011261000e576001600160a01b03610ac16101ae565b166000526067602052602060ff604060002054166040519015158152f35b503461000e5760008060031936011261072b5760405180916066549081835260208093018092606683527f46501879b8ca8525e8c2fd519e2fbfcfa2ebea26501294aa02cbfcfb12e9435490835b818110610b8a5750505084610b43910385611052565b60405193838594850191818652518092526040850193925b828110610b6a57505050500390f35b83516001600160a01b031685528695509381019392810192600101610b5b565b82546001600160a01b031684529286019260019283019201610b2d565b8015150361000e57565b503461000e57604036600319011261000e57610bcb6101ae565b602435610bd781610ba7565b610bdf611995565b6001600160a01b03821615610c5c576068805482151560ff166001600160a81b0319909116600885901b610100600160a81b0316171790557f8bdded6b66dbe1243e3e0d0bcadc2f9080b6635eb99ef00ce0a3a2b745308f5991604080516001600160a01b0390921682529115156020820152908190810161045e565b60405162461bcd60e51b815260206004820152600c60248201526b5a65726f204164647265737360a01b6044820152606490fd5b503461000e5760008060031936011261072b578054610cc660ff8260081c161580928193610d66575b8115610d46575b50610e90565b80610cd9600160ff196000541617600055565b610d2d575b610ce6611972565b610ced5780f35b610cfd61ff001960005416600055565b604051600181527f7f26b83ff96e1f2b6a682f133852f6798a09c465da95921460cefb384740249890602090a180f35b610d4161010061ff00196000541617600055565b610cde565b303b15915081610d58575b5038610cc0565b6001915060ff161438610d51565b600160ff8216109150610cb9565b503461000e576020610d8e610d883661072e565b91611625565b6040519015158152f35b503461000e57604036600319011261000e5760043567ffffffffffffffff80821161000e573660238301121561000e57816004013590811161000e57366024828401011161000e57602435906001600160a01b038216820361000e576024610e009301611456565b005b503461000e57602036600319011261000e57610e1c6101ae565b610e24611995565b6001600160a01b03811615610e3c57610e00906119ed565b60405162461bcd60e51b815260206004820152602660248201527f4f776e61626c653a206e6577206f776e657220697320746865207a65726f206160448201526564647265737360d01b6064820152608490fd5b15610e9757565b60405162461bcd60e51b815260206004820152602e60248201527f496e697469616c697a61626c653a20636f6e747261637420697320616c72656160448201526d191e481a5b9a5d1a585b1a5e995960921b6064820152608490fd5b15610efa57565b60405162461bcd60e51b815260206004820152601c60248201527f6f6e6c79206f776e6572206f7220746f6b656e2063616e2063616c6c000000006044820152606490fd5b15610f4657565b60405162461bcd60e51b815260206004820152601f60248201527f696e76616c696420617267756d656e74202d207a65726f2061646472657373006044820152606490fd5b15610f9257565b60405162461bcd60e51b81526020600482015260146024820152731b5bd91d5b1948185b1c9958591e48189bdd5b9960621b6044820152606490fd5b15610fd557565b60405162461bcd60e51b815260206004820152601f60248201527f63616e6e6f7420616464206d6f7265207468616e203235206d6f64756c6573006044820152606490fd5b50634e487b7160e01b600052604160045260246000fd5b67ffffffffffffffff811161104557604052565b61104d61101a565b604052565b90601f8019910116810190811067ffffffffffffffff82111761104557604052565b9081602091031261000e575161108981610ba7565b90565b506040513d6000823e3d90fd5b156110a057565b60405162461bcd60e51b815260206004820152603460248201527f636f6d706c69616e6365206973206e6f74207375697461626c6520666f722062604482015273696e64696e6720746f20746865206d6f64756c6560601b6064820152608490fd5b50634e487b7160e01b600052603260045260246000fd5b606654811015611151575b60666000527f46501879b8ca8525e8c2fd519e2fbfcfa2ebea26501294aa02cbfcfb12e943540190600090565b611159611102565b611124565b606654680100000000000000008110156111d6575b60018101806066558110156111c9575b60666000527f46501879b8ca8525e8c2fd519e2fbfcfa2ebea26501294aa02cbfcfb12e943540180546001600160a01b0319166001600160a01b03909216919091179055565b6111d1611102565b611183565b6111de61101a565b611173565b156111ea57565b60405162461bcd60e51b815260206004820152601060248201526f1b5bd91d5b19481b9bdd08189bdd5b9960821b6044820152606490fd5b50634e487b7160e01b600052601160045260246000fd5b6001906000198114611249570190565b611251611222565b0190565b60001981019190821161126457565b61126c611222565b565b60665480156112d4577f46501879b8ca8525e8c2fd519e2fbfcfa2ebea26501294aa02cbfcfb12e94353600019820191808310156112c7575b6066600052016bffffffffffffffffffffffff60a01b8154169055606655565b6112cf611102565b6112a7565b634e487b7160e01b600052603160045260246000fd5b156112f157565b60a460405162461bcd60e51b815260206004820152604460248201527f6572726f72203a20746869732061646472657373206973206e6f74206120746f60448201527f6b656e20626f756e6420746f2074686520636f6d706c69616e636520636f6e746064820152631c9858dd60e21b6084820152fd5b1561136f57565b60405162461bcd60e51b8152602060048201526024808201527f696e76616c696420617267756d656e74202d206e6f2076616c7565207472616e60448201526339b332b960e11b6064820152608490fd5b156113c757565b606460405162461bcd60e51b815260206004820152602060248201527f696e76616c696420617267756d656e74202d206e6f2076616c7565206d696e746044820152fd5b1561141257565b606460405162461bcd60e51b815260206004820152602060248201527f696e76616c696420617267756d656e74202d206e6f2076616c7565206275726e6044820152fd5b61145e611995565b6001600160a01b0383166000818152606760205260408120549194909160ff16156114ee57818481928260405191838884375af1156114e657506114c67f20d79de70adcc6e9353d8a9a5646b46dc352710d0a310b1ad1f67faeca7ef891926114e1926118fe565b6040516001600160e01b031990911681529081906020820190565b0390a2565b3d81803e3d90fd5b60405162461bcd60e51b815260206004820152601960248201527f63616c6c206f6e6c79206f6e20626f756e64206d6f64756c65000000000000006044820152606490fd5b60209067ffffffffffffffff8111611551575b601f01601f19160190565b61155961101a565b611546565b9190602092838183031261000e5780519067ffffffffffffffff821161000e57019281601f8501121561000e57835161159681611533565b926115a46040519485611052565b81845282828701011161000e5760005b8181106115c957508260009394955001015290565b85810183015184820184015282016115b4565b604051906040820182811067ffffffffffffffff821117611618575b604052600e82526d486f6c6454696d654d6f64756c6560901b6020830152565b61162061101a565b6115f8565b6066549260685460018060a01b03808260081c1690851614908161186a575b50156117ac5760005b84811061165f575b5050505050600190565b60006116736105f16105f16105dc85611119565b6116af6040918251938480926306fdde0360e01b825260049687915afa90811561179f575b60009161177e575b506116a96115dc565b90611899565b6116c35750506116be90611239565b61164d565b9161172a9596506105f16105f16105dc6116df93969496611119565b9151624edf3960e21b81526001600160a01b03948516938101938452939095166020838101919091526040830195909552306060830152919284928492909183918291608090910190565b03915afa918215611771575b600092611754575b50501561174f573880808080611655565b600090565b61176a9250803d10610387576103788183611052565b388061173e565b61177961108c565b611736565b611799913d8091833e6117918183611052565b81019061155e565b386116a0565b6117a761108c565b611698565b9160005b8481106117c1575050505050600190565b6117d36105f16105f16105dc84611119565b604051624edf3960e21b81526001600160a01b03858116600483015284166024820152604481018690523060648201526020918290829060849082905afa91821561185d575b600092611840575b5050156118365761183190611239565b6117b0565b5050505050600090565b6118569250803d10610387576103788183611052565b3880611821565b61186561108c565b611819565b6001915060ff1615151438611644565b90602091805182101561188c57010190565b611894611102565b010190565b9081518151036118f757600090815b83518110156118ee576001600160f81b0319806118c5838761187a565b5116906118d2838561187a565b5116036118e7576118e290611239565b6118a8565b5050905090565b50505050600190565b5050600090565b600092916004111561190d5750565b359150565b1561191957565b60405162461bcd60e51b815260206004820152602b60248201527f496e697469616c697a61626c653a20636f6e7472616374206973206e6f74206960448201526a6e697469616c697a696e6760a81b6064820152608490fd5b61198c60ff60005460081c1661198781611912565b611912565b61126c336119ed565b6033546001600160a01b031633036119a957565b606460405162461bcd60e51b815260206004820152602060248201527f4f776e61626c653a2063616c6c6572206973206e6f7420746865206f776e65726044820152fd5b603380546001600160a01b039283166001600160a01b0319821681179092559091167f8be0079c531659141344cd1fd0a4f28419497f9722a3daafe3b4186f6b6457e0600080a356fea2646970667358221220e315102951a7027a07bb3a7a694449a1c318b86de7a761fc674220124d710bba64736f6c63430008110033","linkReferences":{}},"methodIdentifiers":{"addModule(address)":"1ed86f19","bindToken(address)":"3ff5aa02","callModuleFunction(bytes,address)":"efb22d33","canTransfer(address,address,uint256)":"e46638e6","created(address,uint256)":"5f8dead3","destroyed(address,uint256)":"8d2ea772","getModules()":"b2494df3","getTokenBound()":"6a3edf28","getWrapper()":"8f6b7070","init()":"e1c7392a","isModuleBound(address)":"a446d49f","isWrapperSet()":"62116c0e","owner()":"8da5cb5b","removeModule(address)":"a0632461","renounceOwnership()":"715018a6","setWrapper(address,bool)":"e0e5228d","transferOwnership(address)":"f2fde38b","transferred(address,address,uint256)":"8baf29b4","unbindToken(address)":"40db3b50","wrapper()":"ac210cc7","wrapperSet()":"a472a7dc"},"id":11}