{"abi":[{"type":"constructor","inputs":[{"name":"implementationAuthority","type":"address","internalType":"address"},{"name":"_identityRegistry","type":"address","internalType":"address"},{"name":"_compliance","type":"address","internalType":"address"},{"name":"_name","type":"string","internalType":"string"},{"name":"_symbol","type":"string","internalType":"string"},{"name":"_decimals","type":"uint8","internalType":"uint8"},{"name":"_onchainID","type":"address","internalType":"address"}],"stateMutability":"nonpayable"},{"type":"fallback","stateMutability":"payable"},{"type":"function","name":"getImplementationAuthority","inputs":[],"outputs":[{"name":"","type":"address","internalType":"address"}],"stateMutability":"view"},{"type":"function","name":"setImplementationAuthority","inputs":[{"name":"_newImplementationAuthority","type":"address","internalType":"address"}],"outputs":[],"stateMutability":"nonpayable"},{"type":"event","name":"ImplementationAuthoritySet","inputs":[{"name":"_implementationAuthority","type":"address","indexed":true,"internalType":"address"}],"anonymous":false},{"type":"event","name":"Initialized","inputs":[{"name":"version","type":"uint8","indexed":false,"internalType":"uint8"}],"anonymous":false}],"bytecode":{"object":"0x6080604081815234620004885762000b688038038091620000218286620004bf565b8439820160e08382031262000488576200003b83620004e3565b6020916200004b838601620004e3565b62000058858701620004e3565b60608701519096906001600160401b03908181116200048857846200007f91840162000539565b93608083015191821162000488576200009a91830162000539565b9060a08101519060ff8216809203620004885760c0620000bb9101620004e3565b6001600160a01b0386811695909390861515806200047c575b8062000470575b156200042c57899a8a999a51988b8a018c81528a620000fd8d82018662000586565b039a62000113601f199c8d8101835282620004bf565b5190208c8c5181810191825260009d8e81830152815262000134816200048d565b519020141580620003d5575b156200039157601286116200034d577f3b1074392ed8e8424715d0dda2197eede67080b377fc8370e26f3e882207f6b860048c8f8f94908d917f821f3e4d3d679f19eacc940c87acf846ea6eae24a63058ea750304437a62aafc55519c8d94838694a263709bc7f360e01b82525afa9788156200034357918a9897969593918d8d96948b9a620002cd575b508a9b9593620002138994856200023f9a98956200022695519c8d9a8b019e8f633e46d86760e21b90521660248b015216604489015260c0606489015260e488019062000586565b8681036023190160848801529062000586565b9260a48501521660c483015203908101835282620004bf565b51915af4903d15620002c6573d906200025882620004f8565b916200026786519384620004bf565b8252833d92013e5b15620002845750516105ba9081620005ae8239f35b606491519062461bcd60e51b82526004820152601660248201527f496e697469616c697a6174696f6e206661696c65642e000000000000000000006044820152fd5b506200026f565b93969295989b9950509295985081813d83116200033b575b620002f18183620004bf565b81010312620003375794878095620002266200023f968f9a968f96908f9e9b9d8f9e92620003236200021394620004e3565b9e955095989a505094505093959b620001cb565b8980fd5b503d620002e5565b8c513d8c823e3d90fd5b8c5162461bcd60e51b8152600481018d9052601960248201527f646563696d616c73206265747765656e203020616e64203138000000000000006044820152606490fd5b8c5162461bcd60e51b8152600481018d9052601f60248201527f696e76616c696420617267756d656e74202d20656d70747920737472696e67006044820152606490fd5b508c8c8c8c8351620004038482019285845282620003f68882018d62000586565b03908101835282620004bf565b5190209280519183830193845281830152815262000421816200048d565b519020141562000140565b895162461bcd60e51b8152600481018a9052601f60248201527f696e76616c696420617267756d656e74202d207a65726f2061646472657373006044820152606490fd5b50848b161515620000db565b508486161515620000d4565b600080fd5b606081019081106001600160401b03821117620004a957604052565b634e487b7160e01b600052604160045260246000fd5b601f909101601f19168101906001600160401b03821190821017620004a957604052565b51906001600160a01b03821682036200048857565b6001600160401b038111620004a957601f01601f191660200190565b60005b838110620005285750506000910152565b818101518382015260200162000517565b81601f82011215620004885780516200055281620004f8565b92620005626040519485620004bf565b81845260208284010111620004885762000583916020808501910162000514565b90565b90602091620005a18151809281855285808601910162000514565b601f01601f191601019056fe60406080815260048036101561001a575b6100186104ce565b005b600091823560e01c80632d5f11871461032b576392dd9d651461003d5750610010565b346103275760209182600319360112610323576100ef6101019282359261006384610362565b60008051602061056583398151915254610087906001600160a01b03163314610378565b6001600160a01b038481169661009e8815156103da565b835163709bc7f360e01b81528290828186818d5afa908115610316575b8b916102f9575b5016151592836102a0575b83610247575b836101ee575b83610195575b83610128575b5050509050610483565b60008051602061056583398151915255565b7f3b1074392ed8e8424715d0dda2197eede67080b377fc8370e26f3e882207f6b88280a280f35b9193819350518092637f6e602960e11b8252818a5afa918215610188575b889261015b575b5050161515803880806100e5565b61017a9250803d10610181575b6101728183610426565b81019061045e565b388061014d565b503d610168565b610190610476565b610146565b92508184516361f8982560e01b8152828186818d5afa9081156101e1575b8b916101c4575b50161515926100df565b6101db9150833d8511610181576101728183610426565b386101ba565b6101e9610476565b6101b3565b9250818451639e3e7bb960e01b8152828186818d5afa90811561023a575b8b9161021d575b50161515926100d9565b6102349150833d8511610181576101728183610426565b38610213565b610242610476565b61020c565b9250818451631ee9ce8b60e01b8152828186818d5afa908115610293575b8b91610276575b50161515926100d3565b61028d9150833d8511610181576101728183610426565b3861026c565b61029b610476565b610265565b9250818451636ff6e83f60e01b8152828186818d5afa9081156102ec575b8b916102cf575b50161515926100cd565b6102e69150833d8511610181576101728183610426565b386102c5565b6102f4610476565b6102be565b6103109150833d8511610181576101728183610426565b386100c2565b61031e610476565b6100bb565b8380fd5b8280fd5b833461035f578060031936011261035f57600080516020610565833981519152546001600160a01b03166080908152602090f35b80fd5b6001600160a01b0381160361037357565b600080fd5b1561037f57565b60405162461bcd60e51b815260206004820152602d60248201527f6f6e6c792063757272656e7420696d706c656d656e746174696f6e417574686f60448201526c1c9a5d1e4818d85b8818d85b1b609a1b6064820152608490fd5b156103e157565b60405162461bcd60e51b815260206004820152601f60248201527f696e76616c696420617267756d656e74202d207a65726f2061646472657373006044820152606490fd5b90601f8019910116810190811067ffffffffffffffff82111761044857604052565b634e487b7160e01b600052604160045260246000fd5b90816020910312610373575161047381610362565b90565b506040513d6000823e3d90fd5b1561048a57565b606460405162461bcd60e51b815260206004820152602060248201527f696e76616c696420496d706c656d656e746174696f6e20417574686f726974796044820152fd5b506000805160206105658339815191525460405163709bc7f360e01b8152600091829190602090829060049082906001600160a01b03165afa908115610557575b8291610539575b503682803781369161270f195a01f43d90816000803e15610535576000f35b6000fd5b610551915060203d8111610181576101728183610426565b38610516565b61055f610476565b61050f56fe821f3e4d3d679f19eacc940c87acf846ea6eae24a63058ea750304437a62aafca2646970667358221220ae987b8b72ecc313be534f5684a661ea3ee8b7ced80b2c3399e7d48feecacf9c64736f6c63430008110033","linkReferences":{}},"methodIdentifiers":{"getImplementationAuthority()":"2d5f1187","setImplementationAuthority(address)":"92dd9d65"},"id":62}