{"abi":[{"type":"constructor","inputs":[],"stateMutability":"nonpayable"},{"type":"fallback","stateMutability":"payable"},{"type":"receive","stateMutability":"payable"},{"type":"function","name":"implementation","inputs":[],"outputs":[{"name":"impl","type":"address","internalType":"address"}],"stateMutability":"view"},{"type":"function","name":"maintenance","inputs":[],"outputs":[{"name":"_maintenance","type":"bool","internalType":"bool"}],"stateMutability":"view"},{"type":"function","name":"proxyOwner","inputs":[],"outputs":[{"name":"owner","type":"address","internalType":"address"}],"stateMutability":"view"},{"type":"function","name":"setMaintenance","inputs":[{"name":"_maintenance","type":"bool","internalType":"bool"}],"outputs":[],"stateMutability":"nonpayable"},{"type":"function","name":"transferProxyOwnership","inputs":[{"name":"newOwner","type":"address","internalType":"address"}],"outputs":[],"stateMutability":"nonpayable"},{"type":"function","name":"upgradeTo","inputs":[{"name":"newImplementation","type":"address","internalType":"address"}],"outputs":[],"stateMutability":"nonpayable"},{"type":"function","name":"upgradeToAndCall","inputs":[{"name":"newImplementation","type":"address","internalType":"address"},{"name":"data","type":"bytes","internalType":"bytes"}],"outputs":[],"stateMutability":"payable"},{"type":"event","name":"ProxyOwnershipTransferred","inputs":[{"name":"previousOwner","type":"address","indexed":false,"internalType":"address"},{"name":"newOwner","type":"address","indexed":false,"internalType":"address"}],"anonymous":false},{"type":"event","name":"Upgraded","inputs":[{"name":"implementation","type":"address","indexed":true,"internalType":"address"}],"anonymous":false}],"bytecode":{"object":"0x6080806040523461003957337f85bd7031deaf76b80f9733e7da132fe310adf86a8e73260691b76988b4b7e35d5561063b908161003f8239f35b600080fdfe6080604052600436101561002c575b361561001f575b61001d610531565b005b610027610531565b610015565b6000803560e01c908163025313a2146100bb575080633659cfe6146100b25780634f1ef286146100a95780635c60da1b146100a0578063612f2f37146100975780636c376cc51461008e5763f1739cae0361000e57610089610401565b61000e565b506100896103c1565b5061008961035d565b50610089610326565b5061008961020c565b5061008961010c565b346100ee57806003193601126100ee576000805160206105c6833981519152546001600160a01b03166080908152602090f35b80fd5b600435906001600160a01b038216820361010757565b600080fd5b5034610107576020366003190112610107576101266100f1565b6000805160206105c6833981519152546001600160a01b03919061014d9083163314610483565b6000805160206105e683398151915261016f81548484169485911614156104db565b557fbc7cd75a20ee27fd9adebab32041f755214dbc6bffa90cc0225b39da2e5c2d3b600080a2005b50634e487b7160e01b600052604160045260246000fd5b6040519190601f01601f1916820167ffffffffffffffff8111838210176101d457604052565b6101dc610197565b604052565b60209067ffffffffffffffff81116101ff575b601f01601f19160190565b610207610197565b6101f4565b506040366003190112610107576102216100f1565b60243567ffffffffffffffff8111610107573660238201121561010757806004013590610255610250836101e1565b6101ae565b918083526020830136602483850101116101075761031e9382602460209501833760009586809581958401015260018060a01b03906102af826000805160206105c6833981519152541633146102aa81610483565b610483565b6000805160206105e68339815191526102d181548484169485911614156104db565b557fbc7cd75a20ee27fd9adebab32041f755214dbc6bffa90cc0225b39da2e5c2d3b8480a2519034305af13d15610321573d61030f610250826101e1565b9081528360203d92013e6104db565b80f35b6104db565b5034610107576000366003190112610107576000805160206105e6833981519152546040516001600160a01b039091168152602090f35b50346101075760203660031901126101075760043580151581036101075761039d60018060a01b036000805160206105c683398151915254163314610483565b7fce60c5db904241f4fe710c6b7d7c2e6f59bb4f2afc9ad1549ac9b29eb7f522b655005b50346101075760003660031901126101075760207fce60c5db904241f4fe710c6b7d7c2e6f59bb4f2afc9ad1549ac9b29eb7f522b6546040519015158152f35b50346101075760203660031901126101075761041b6100f1565b6000805160206105c683398151915280547f5a3e66efaa1e445ebd894728a69d6959842ea1e97bd79b892797106e270efcd9906040906001600160a01b0390811690610468338314610483565b85166104758115156104db565b82519182526020820152a155005b1561048a57565b60405162461bcd60e51b815260206004820152602360248201527f4f776e6564557067726164656162696c69747950726f78793a20464f524249446044820152622222a760e91b6064820152608490fd5b156104e257565b60405162461bcd60e51b815260206004820152602160248201527f4f776e6564557067726164656162696c69747950726f78793a20494e56414c496044820152601160fa1b6064820152608490fd5b507fce60c5db904241f4fe710c6b7d7c2e6f59bb4f2afc9ad1549ac9b29eb7f522b65461059e575b6000805160206105e68339815191525461057d6001600160a01b03821615156104db565b60008060405192368285378336915af4903d91826000833e1561059c57f35bfd5b6105c060018060a01b036000805160206105c683398151915254163314610483565b61055956fe85bd7031deaf76b80f9733e7da132fe310adf86a8e73260691b76988b4b7e35df968882b178b4a61d620bde63916829c95f3e1b54eb01ef03837ff1b870f4076a26469706673582212206c919074e1524b30b218be8206573688db60808aa7960e75358fbbdd5573e14364736f6c63430008110033","linkReferences":{}},"methodIdentifiers":{"implementation()":"5c60da1b","maintenance()":"6c376cc5","proxyOwner()":"025313a2","setMaintenance(bool)":"612f2f37","transferProxyOwnership(address)":"f1739cae","upgradeTo(address)":"3659cfe6","upgradeToAndCall(address,bytes)":"4f1ef286"},"id":91}