{"abi":[{"type":"constructor","inputs":[{"name":"implementationAuthority_","type":"address","internalType":"address"},{"name":"idFactory_","type":"address","internalType":"address"},{"name":"wrapper_","type":"address","internalType":"address"}],"stateMutability":"nonpayable"},{"type":"function","name":"deployTREXSuite","inputs":[{"name":"_salt","type":"string","internalType":"string"},{"name":"_tokenDetails","type":"tuple","internalType":"struct ITREXFactory.TokenDetails","components":[{"name":"owner","type":"address","internalType":"address"},{"name":"name","type":"string","internalType":"string"},{"name":"symbol","type":"string","internalType":"string"},{"name":"decimals","type":"uint8","internalType":"uint8"},{"name":"irs","type":"address","internalType":"address"},{"name":"ONCHAINID","type":"address","internalType":"address"},{"name":"wrap","type":"bool","internalType":"bool"},{"name":"irAgents","type":"address[]","internalType":"address[]"},{"name":"tokenAgents","type":"address[]","internalType":"address[]"},{"name":"transferAgents","type":"address[]","internalType":"address[]"},{"name":"complianceModules","type":"address[]","internalType":"address[]"},{"name":"complianceSettings","type":"bytes[]","internalType":"bytes[]"}]},{"name":"_claimDetails","type":"tuple","internalType":"struct ITREXFactory.ClaimDetails","components":[{"name":"claimTopics","type":"uint256[]","internalType":"uint256[]"},{"name":"issuers","type":"address[]","internalType":"address[]"},{"name":"issuerClaims","type":"uint256[][]","internalType":"uint256[][]"}]}],"outputs":[],"stateMutability":"nonpayable"},{"type":"function","name":"deployedByMe","inputs":[{"name":"","type":"address","internalType":"address"}],"outputs":[{"name":"","type":"bool","internalType":"bool"}],"stateMutability":"view"},{"type":"function","name":"getIdFactory","inputs":[],"outputs":[{"name":"","type":"address","internalType":"address"}],"stateMutability":"view"},{"type":"function","name":"getImplementationAuthority","inputs":[],"outputs":[{"name":"","type":"address","internalType":"address"}],"stateMutability":"view"},{"type":"function","name":"getToken","inputs":[{"name":"_salt","type":"string","internalType":"string"}],"outputs":[{"name":"","type":"address","internalType":"address"}],"stateMutability":"view"},{"type":"function","name":"owner","inputs":[],"outputs":[{"name":"","type":"address","internalType":"address"}],"stateMutability":"view"},{"type":"function","name":"recoverContractOwnership","inputs":[{"name":"_contract","type":"address","internalType":"address"},{"name":"_newOwner","type":"address","internalType":"address"}],"outputs":[],"stateMutability":"nonpayable"},{"type":"function","name":"renounceOwnership","inputs":[],"outputs":[],"stateMutability":"nonpayable"},{"type":"function","name":"setIdFactory","inputs":[{"name":"idFactory_","type":"address","internalType":"address"}],"outputs":[],"stateMutability":"nonpayable"},{"type":"function","name":"setImplementationAuthority","inputs":[{"name":"implementationAuthority_","type":"address","internalType":"address"}],"outputs":[],"stateMutability":"nonpayable"},{"type":"function","name":"setWrapper","inputs":[{"name":"wrapper_","type":"address","internalType":"address"}],"outputs":[],"stateMutability":"nonpayable"},{"type":"function","name":"tokenDeployed","inputs":[{"name":"","type":"string","internalType":"string"}],"outputs":[{"name":"","type":"address","internalType":"address"}],"stateMutability":"view"},{"type":"function","name":"tokenDeployedByMe","inputs":[{"name":"_token","type":"address","internalType":"address"}],"outputs":[{"name":"","type":"bool","internalType":"bool"}],"stateMutability":"view"},{"type":"function","name":"transferOwnership","inputs":[{"name":"newOwner","type":"address","internalType":"address"}],"outputs":[],"stateMutability":"nonpayable"},{"type":"function","name":"wrapper","inputs":[],"outputs":[{"name":"","type":"address","internalType":"address"}],"stateMutability":"view"},{"type":"event","name":"Deployed","inputs":[{"name":"_addr","type":"address","indexed":true,"internalType":"address"}],"anonymous":false},{"type":"event","name":"IdFactorySet","inputs":[{"name":"_idFactory","type":"address","indexed":false,"internalType":"address"}],"anonymous":false},{"type":"event","name":"ImplementationAuthoritySet","inputs":[{"name":"_implementationAuthority","type":"address","indexed":false,"internalType":"address"}],"anonymous":false},{"type":"event","name":"OwnershipTransferred","inputs":[{"name":"previousOwner","type":"address","indexed":true,"internalType":"address"},{"name":"newOwner","type":"address","indexed":true,"internalType":"address"}],"anonymous":false},{"type":"event","name":"TREXSuiteDeployed","inputs":[{"name":"_token","type":"address","indexed":true,"internalType":"address"},{"name":"_ir","type":"address","indexed":false,"internalType":"address"},{"name":"_irs","type":"address","indexed":false,"internalType":"address"},{"name":"_tir","type":"address","indexed":false,"internalType":"address"},{"name":"_ctr","type":"address","indexed":false,"internalType":"address"},{"name":"_mc","type":"address","indexed":false,"internalType":"address"},{"name":"_salt","type":"string","indexed":false,"internalType":"string"}],"anonymous":false}],"bytecode":{"object":"0x608060409080825234620004a95760608162005e128038038091620000258285620004ae565b833981010312620004a9576200003b81620004e8565b602062000057846200004f838601620004e8565b9401620004e8565b60008054336001600160a01b031980831682178455966001600160a01b039694959490939287929083167f8be0079c531659141344cd1fd0a4f28419497f9722a3daafe3b4186f6b6457e08580a3620000af6200054a565b1690620000be821515620004fd565b875163709bc7f360e01b81526004919085818481875afa9081156200030357908891839162000469575b501615159081620003f5575b8162000381575b816200030d575b816200028b575b8162000207575b5015620001c6575082917f3b1074392ed8e8424715d0dda2197eede67080b377fc8370e26f3e882207f6b87fae81f4fee1b2d830e39ae449967642aaa0e5a1771aa200d0a50853010992242c948388948a60015416176001558a51908152a1620001796200054a565b1662000187811515620004fd565b808660025416176002558651908152a1620001a16200054a565b1690620001b0821515620004fd565b60055416176005555161586e9081620005a48239f35b60649084808a519262461bcd60e51b845283015260248201527f696e76616c696420496d706c656d656e746174696f6e20417574686f726974796044820152fd5b8951637f6e602960e11b815290915085818481875afa9182156200028057908189936200023b575b50501615153862000110565b915091508582813d831162000278575b620002578183620004ae565b810103126200027557506200026d8791620004e8565b38806200022f565b80fd5b503d6200024b565b8a51903d90823e3d90fd5b89516361f8982560e01b815290915085818481875afa90811562000303579088918391620002bf575b501615159062000109565b809250878092503d8311620002fb575b620002db8183620004ae565b81010312620002f757620002f08891620004e8565b38620002b4565b5080fd5b503d620002cf565b8a513d84823e3d90fd5b8951639e3e7bb960e01b815290915085818481875afa9081156200030357908891839162000341575b501615159062000102565b809250878092503d831162000379575b6200035d8183620004ae565b81010312620002f757620003728891620004e8565b3862000336565b503d62000351565b8951631ee9ce8b60e01b815290915085818481875afa90811562000303579088918391620003b5575b5016151590620000fb565b809250878092503d8311620003ed575b620003d18183620004ae565b81010312620002f757620003e68891620004e8565b38620003aa565b503d620003c5565b8951636ff6e83f60e01b815290915085818481875afa9081156200030357908891839162000429575b5016151590620000f4565b809250878092503d831162000461575b620004458183620004ae565b81010312620002f7576200045a8891620004e8565b386200041e565b503d62000439565b809250878092503d8311620004a1575b620004858183620004ae565b81010312620002f7576200049a8891620004e8565b38620000e8565b503d62000479565b600080fd5b601f909101601f19168101906001600160401b03821190821017620004d257604052565b634e487b7160e01b600052604160045260246000fd5b51906001600160a01b0382168203620004a957565b156200050557565b60405162461bcd60e51b815260206004820152601f60248201527f696e76616c696420617267756d656e74202d207a65726f2061646472657373006044820152606490fd5b6000546001600160a01b031633036200055f57565b606460405162461bcd60e51b815260206004820152602060248201527f4f776e61626c653a2063616c6c6572206973206e6f7420746865206f776e65726044820152fdfe6080604052600436101562000014575b600080fd5b60003560e01c806315bccda7146200016057806326d3c67014620001605780632d5f1187146200015557806350b01838146200014a5780635f2773a5146200013f578063715018a614620001345780638da5cb5b146200012957806392b7e36a146200011e57806392dd9d651462000113578063ac210cc71462000108578063c1733f6814620000fd578063c2167d9314620000f2578063ccd41cce14620000e7578063f2fde38b14620000dc5763fb88d79c14620000d257600080fd5b6200000f62000aed565b506200000f620009b8565b506200000f62000938565b506200000f620008d9565b506200000f62000849565b506200000f6200081d565b506200000f620004d3565b506200000f62000452565b506200000f6200032e565b506200000f620002ce565b506200000f620002a2565b506200000f620001fc565b506200000f620001d0565b506200000f6200017d565b6001600160a01b038116036200000f57565b50346200000f5760203660031901126200000f576004356200019f816200016b565b60018060a01b03166000526004602052602060ff604060002054166040519015158152f35b60009103126200000f57565b50346200000f5760003660031901126200000f576001546040516001600160a01b039091168152602090f35b50346200000f57600060403660031901126200029f5760043562000220816200016b565b816024359162000230836200016b565b6200023a62002332565b6001600160a01b0390811692833b156200029b5760249083604051958694859363f2fde38b60e01b85521660048401525af180156200028b575b6200027d575080f35b620002889062000371565b80f35b6200029562001d38565b62000274565b8280fd5b80fd5b50346200000f5760003660031901126200000f576002546040516001600160a01b039091168152602090f35b50346200000f576000806003193601126200029f57620002ed62002332565b80546001600160a01b03198116825581906001600160a01b03167f8be0079c531659141344cd1fd0a4f28419497f9722a3daafe3b4186f6b6457e08280a380f35b50346200000f5760003660031901126200000f576000546040516001600160a01b039091168152602090f35b50634e487b7160e01b600052604160045260246000fd5b67ffffffffffffffff81116200038657604052565b620003906200035a565b604052565b6040810190811067ffffffffffffffff8211176200038657604052565b90601f8019910116810190811067ffffffffffffffff8211176200038657604052565b92919267ffffffffffffffff821162000421575b6040519162000403601f8201601f191660200184620003b2565b8294818452818301116200000f578281602093846000960137010152565b6200042b6200035a565b620003e9565b9080601f830112156200000f578160206200044f93359101620003d5565b90565b50346200000f576003196060368201126200000f5767ffffffffffffffff906004358281116200000f576200048c90369060040162000431565b602435918383116200000f576101808184360301126200000f576044359384116200000f5760609084360301126200000f57620004d192600401916004019062000b5e565b005b50346200000f576020806003193601126200000f57620005d67f3b1074392ed8e8424715d0dda2197eede67080b377fc8370e26f3e882207f6b891600490620005a382359262000523846200016b565b6200052d62002332565b6001600160a01b0384811691906200054783151562001f00565b60409481865163709bc7f360e01b815282818681895afa9081156200080d575b600091620007eb575b50161515928362000786575b8362000721575b83620006bc575b8362000657575b83620005db575b505050905062001f4d565b600180546001600160a01b0319166001600160a01b038416179055516001600160a01b0390911681529081906020820190565b0390a1005b9193819350865192838092637f6e602960e11b82525afa91821562000647575b60009262000613575b50501615158038808062000598565b620006379250803d106200063f575b6200062e8183620003b2565b81019062001cce565b388062000604565b503d62000622565b6200065162001d38565b620005fb565b92508186516361f8982560e01b815282818681895afa908115620006ac575b6000916200068a575b501615159262000591565b620006a59150833d85116200063f576200062e8183620003b2565b386200067f565b620006b662001d38565b62000676565b9250818651639e3e7bb960e01b815282818681895afa90811562000711575b600091620006ef575b50161515926200058a565b6200070a9150833d85116200063f576200062e8183620003b2565b38620006e4565b6200071b62001d38565b620006db565b9250818651631ee9ce8b60e01b815282818681895afa90811562000776575b60009162000754575b501615159262000583565b6200076f9150833d85116200063f576200062e8183620003b2565b3862000749565b6200078062001d38565b62000740565b9250818651636ff6e83f60e01b815282818681895afa908115620007db575b600091620007b9575b50161515926200057c565b620007d49150833d85116200063f576200062e8183620003b2565b38620007ae565b620007e562001d38565b620007a5565b620008069150833d85116200063f576200062e8183620003b2565b3862000570565b6200081762001d38565b62000567565b50346200000f5760003660031901126200000f576005546040516001600160a01b039091168152602090f35b50346200000f5760203660031901126200000f5760043567ffffffffffffffff8082116200000f57366023830112156200000f5781600401359081116200000f5736602482840101116200000f57620008ae620008bb916024620008d5940162001ee7565b546001600160a01b031690565b6040516001600160a01b0390911681529081906020820190565b0390f35b50346200000f5760203660031901126200000f57600435620008fb816200016b565b6200090562002332565b6001600160a01b03166200091b81151562001f00565b6bffffffffffffffffffffffff60a01b6005541617600555600080f35b50346200000f5760203660031901126200000f577fae81f4fee1b2d830e39ae449967642aaa0e5a1771aa200d0a50853010992242c60206004356200097d816200016b565b6200098762002332565b6001600160a01b03166200099d81151562001f00565b600280546001600160a01b03191682179055604051908152a1005b50346200000f5760203660031901126200000f57600435620009da816200016b565b620009e462002332565b6001600160a01b03908116801562000a3357600080546001600160a01b03198116831782559092167f8be0079c531659141344cd1fd0a4f28419497f9722a3daafe3b4186f6b6457e08380a380f35b60405162461bcd60e51b815260206004820152602660248201527f4f776e61626c653a206e6577206f776e657220697320746865207a65726f206160448201526564647265737360d01b6064820152608490fd5b60005b83811062000a9b5750506000910152565b818101518382015260200162000a8a565b9062000ac16020928281519485920162000a87565b0190565b602062000ae091816040519382858094519384920162000a87565b8101600381520301902090565b50346200000f5760203660031901126200000f5760043567ffffffffffffffff81116200000f5762000b26602091369060040162000431565b8162000b3c604051928381519384920162000a87565b600390820190815281900382019020546040516001600160a01b039091168152f35b91909262000b6b62002332565b62000b8e6001600160a01b0362000b86620008ae8662000ac5565b161562001a1b565b62000bbc62000ba1602084018462001a61565b905062000bb2604085018562001a61565b9190501462001a9a565b62000bdb600562000bd1602085018562001a61565b9050111562001ae7565b62000bf7600562000bed848062001a61565b9050111562001b3e565b600562000c0860e086018662001a61565b9050111580620019f8575b62000c1e9062001b8a565b62000c3e601e62000c3461014087018762001a61565b9050111562001bd7565b62000c6f62000c5261014086018662001a61565b905062000c6461016087018762001a61565b919050101562001c30565b60015462000c989062000c8c906001600160a01b03168562001f99565b6001600160a01b031690565b60015490919062000cb89062000c8c906001600160a01b03168662002096565b60015490959062000cd89062000c8c906001600160a01b031687620020ee565b916080820162000cec62000c8c8262001c7d565b620019e2575060015462000d0f9062000c8c906001600160a01b03168862002146565b915b60015462000d419062000c8c906001600160a01b03166001600160a01b03868116918c8216918a16908c6200219e565b9262000dce62000c8c62000db7848b62000dae62000d6660015460018060a01b031690565b62000d75602085018562001c89565b959062000d86604087018762001c89565b94909162000da560a062000d9d60608b0162001cbf565b990162001c7d565b983691620003d5565b933691620003d5565b926001600160a01b038d811692908d16916200225e565b9062000de162000c8c60a0850162001c7d565b15620018cc575b60005b62000df7898062001a61565b905081101562000ea85762000e198162000e128b8062001a61565b9062001d82565b35906001600160a01b038c163b156200000f5760405163c7b2255160e01b8152600481019290925262000e74916000818e818381602481015b03926001600160a01b03165af1801562000e98575b62000e7a575b5062001d45565b62000deb565b8062000e8a62000e919262000371565b80620001c4565b3862000e6d565b62000ea262001d38565b62000e67565b5091939598979092949760005b62000ec460208a018a62001a61565b905081101562000f525762000ef062000c8c62000eea8362000e1260208e018e62001a61565b62001c7d565b9062000f0c8162000f0560408d018d62001a61565b9062001da4565b92906001600160a01b038e163b156200000f5762000f4c938e6000928362000e5295604051968795869485936313ec7d5360e31b85526004850162001dd4565b62000eb5565b50929598909396509690939660018060a01b0385163b156200000f5760405163690a49f960e01b81526001600160a01b038a16600482015260008180602481010381836001600160a01b038b165af18015620018bc575b620018a5575b506001600160a01b0389163b156200000f57604051634273cc2160e11b81526001600160a01b03871660048201526000818b8183816024810103926001600160a01b03165af1801562001895575b6200187e575b5060005b6200101660e089018962001a61565b905081101562001083576200103862000eea8262000e1260e08c018c62001a61565b906001600160a01b038b163b156200000f57604051634273cc2160e11b81526001600160a01b0390921660048301526200107d916000818d8183816024810162000e52565b62001007565b50909192959497939660005b6101008701620010a0818962001a61565b90508210156200110a5762000eea8262000e12620010bf938b62001a61565b906001600160a01b038b163b156200000f57604051634273cc2160e11b81526001600160a01b03909216600483015262001104916000818d8183816024810162000e52565b6200108f565b5050919397959690929660005b6200112761012088018862001a61565b905081101562001229576200114a62000eea8262000e126101208b018b62001a61565b6001600160a01b0389163b156200000f576040516358b5b5c160e01b81526001600160a01b03909116600482015260008180602481010381836001600160a01b038e165af1801562001219575b62001202575b50620011b762000eea8262000e126101208b018b62001a61565b906001600160a01b038b163b156200000f57604051634273cc2160e11b81526001600160a01b039092166004830152620011fc916000818d8183816024810162000e52565b62001117565b8062000e8a620012129262000371565b386200119d565b6200122362001d38565b62001197565b5090939792969591949560005b6200124661014089018962001a61565b905081101562001490576200129c60206200126f62000eea8462000e126101408e018e62001a61565b60405163a446d49f60e01b81526001600160a01b0390911660048201529182908d90829081906024820190565b03916001600160a01b03165afa90811562001480575b6000916200144a575b5015620013af575b620012d361016089018962001a61565b90508110620012ee575b620012e89062001d45565b62001236565b6200130a81620013036101608b018b62001a61565b9062001e32565b91906200132562000eea8362000e126101408e018e62001a61565b926001600160a01b038d163b156200000f57620012e8938d6000928362001364956040519687958694859363efb22d3360e01b85526004850162001e5e565b03926001600160a01b03165af180156200139f575b62001388575b509050620012dd565b8062000e8a620013989262000371565b386200137f565b620013a962001d38565b62001379565b620013c862000eea8262000e126101408c018c62001a61565b6001600160a01b038b163b156200000f57604051631ed86f1960e01b81526001600160a01b0390911660048201526000818c8183816024810103926001600160a01b03165af180156200143a575b62001423575b50620012c3565b8062000e8a620014339262000371565b386200141c565b6200144462001d38565b62001416565b62001471915060203d60201162001478575b620014688183620003b2565b81019062001e1a565b38620012bb565b503d6200145c565b6200148a62001d38565b620012b2565b509091939592949796620014a760c0850162001e97565b620017ea575b620014e56001600160a01b038616620014c68562000ac5565b80546001600160a01b0319166001600160a01b03909216919091179055565b6001600160a01b03851660009081526004602052604090206200150f90805460ff19166001179055565b6200151a8462001c7d565b936001600160a01b0386163b156200000f5760405163f2fde38b60e01b8082526001600160a01b03909616600482015260008180602481010381836001600160a01b038c165af18015620017da575b620017c3575b506200157b8162001c7d565b6001600160a01b0388163b156200000f576040518681526001600160a01b03909116600482015260008180602481010381836001600160a01b038d165af18015620017b3575b6200179c575b50620015d38162001c7d565b6001600160a01b0383163b156200000f576040518681526001600160a01b03909116600482015260008180602481010381836001600160a01b0388165af180156200178c575b62001775575b506200162b8162001c7d565b906001600160a01b0384163b156200000f576040518681526001600160a01b039092166004830152620016849160008180602481010381836001600160a01b038a165af1801562001765575b6200174e575b5062001c7d565b966001600160a01b0389163b156200000f576040519485526001600160a01b0390971660048501527f057adae5fa3e9caa8a0d584edff60f61558d33f073412ec2d66d558b739e0a419662001722946000818b8183816024810103926001600160a01b03165af180156200173e575b62001727575b506040516001600160a01b03968716999097889791821694821693821692821691168762001ea3565b0390a2565b8062000e8a620017379262000371565b38620016f9565b6200174862001d38565b620016f3565b8062000e8a6200175e9262000371565b386200167d565b6200176f62001d38565b62001677565b8062000e8a620017859262000371565b386200161f565b6200179662001d38565b62001619565b8062000e8a620017ac9262000371565b38620015c7565b620017bd62001d38565b620015c1565b8062000e8a620017d39262000371565b386200156f565b620017e462001d38565b62001569565b6005546001600160a01b03166001600160a01b0389163b156200000f5760405163e0e5228d60e01b81526001600160a01b0390911660048201526001602482015260008180604481010381836001600160a01b038e165af180156200186e575b62001857575b50620014ad565b8062000e8a620018679262000371565b3862001850565b6200187862001d38565b6200184a565b8062000e8a6200188e9262000371565b3862001003565b6200189f62001d38565b62000ffd565b8062000e8a620018b59262000371565b3862000faf565b620018c662001d38565b62000fa9565b6002546200192590620018ea9062000c8c906001600160a01b031681565b6001600160a01b038416906020908c90620019058862001c7d565b6000604051809781958294631eab7fb360e11b8452896004850162001d0d565b03925af1918215620019d2575b600092620019ac575b50803b156200000f57604051633d1ddc5b60e01b81526001600160a01b039290921660048301526000908290602490829084905af180156200199c575b62001985575b5062000de8565b8062000e8a620019959262000371565b386200197e565b620019a662001d38565b62001978565b620019ca91925060203d6020116200063f576200062e8183620003b2565b90386200193b565b620019dc62001d38565b62001932565b62000c8c620019f19162001c7d565b9162000d11565b5062000c1e600562001a0f61010087018762001a61565b90501115905062000c13565b1562001a2357565b60405162461bcd60e51b81526020600482015260166024820152751d1bdad95b88185b1c9958591e4819195c1b1bde595960521b6044820152606490fd5b903590601e19813603018212156200000f570180359067ffffffffffffffff82116200000f57602001918160051b360383136200000f57565b1562001aa257565b60405162461bcd60e51b815260206004820152601760248201527f636c61696d207061747465726e206e6f742076616c69640000000000000000006044820152606490fd5b1562001aef57565b60405162461bcd60e51b815260206004820152602160248201527f6d6178203520636c61696d2069737375657273206174206465706c6f796d656e6044820152601d60fa1b6064820152608490fd5b1562001b4657565b606460405162461bcd60e51b815260206004820152602060248201527f6d6178203520636c61696d20746f70696373206174206465706c6f796d656e746044820152fd5b1562001b9257565b60405162461bcd60e51b815260206004820152601a60248201527f6d61782035206167656e7473206174206465706c6f796d656e740000000000006044820152606490fd5b1562001bdf57565b60405162461bcd60e51b815260206004820152602360248201527f6d6178203330206d6f64756c6520616374696f6e73206174206465706c6f796d604482015262195b9d60ea1b6064820152608490fd5b1562001c3857565b60405162461bcd60e51b815260206004820152601a60248201527f696e76616c696420636f6d706c69616e6365207061747465726e0000000000006044820152606490fd5b356200044f816200016b565b903590601e19813603018212156200000f570180359067ffffffffffffffff82116200000f576020019181360383136200000f57565b3560ff811681036200000f5790565b908160209103126200000f57516200044f816200016b565b9060209162001d018151809281855285808601910162000a87565b601f01601f1916010190565b6001600160a01b039182168152911660208201526060604082018190526200044f9291019062001ce6565b506040513d6000823e3d90fd5b600019811462001d555760010190565b634e487b7160e01b600052601160045260246000fd5b50634e487b7160e01b600052603260045260246000fd5b919081101562001d94575b60051b0190565b62001d9e62001d6b565b62001d8d565b909162001dc09281101562001dc4575b60051b81019062001a61565b9091565b62001dce62001d6b565b62001db4565b6001600160a01b03909116815260406020820181905281018390526001600160fb1b0383116200000f5760609260051b809284830137010190565b801515036200000f57565b908160209103126200000f57516200044f8162001e0f565b909162001dc09281101562001e4e575b60051b81019062001c89565b62001e5862001d6b565b62001e42565b918060609160209396959660408652816040870152838601376000828286010152601f80199101168301019360018060a01b0316910152565b356200044f8162001e0f565b6001600160a01b039182168152918116602083015291821660408201529181166060830152909116608082015260c060a082018190526200044f9291019062001ce6565b6020908260405193849283378101600381520301902090565b1562001f0857565b60405162461bcd60e51b815260206004820152601f60248201527f696e76616c696420617267756d656e74202d207a65726f2061646472657373006044820152606490fd5b1562001f5557565b606460405162461bcd60e51b815260206004820152602060248201527f696e76616c696420496d706c656d656e746174696f6e20417574686f726974796044820152fd5b6200200490620020216200044f93610828906040519060209262001fc084820184620003b2565b8083528383019062005011823962002014604051918583019360018060a01b0316845285835262001ff18362000395565b6040519889955180928888019062000a87565b8401915180938684019062000a87565b01038085520183620003b2565b6040516200204f6020828162002041818301968781519384920162000a87565b8101038084520182620003b2565b519020908051906020016000f5803b156200000f576001600160a01b0381167ff40fcec21964ffb566044d083b4073f29f7f7929110ea19e1b3ebe375d89055e600080a290565b6200200490620020216200044f936108289060405190602092620020bd84820184620003b2565b808352838301906200238c823962002014604051918583019360018060a01b0316845285835262001ff18362000395565b6200200490620020216200044f9361082890604051906020926200211584820184620003b2565b8083528383019062003c81823962002014604051918583019360018060a01b0316845285835262001ff18362000395565b6200200490620020216200044f9361082890604051906020926200216d84820184620003b2565b8083528383019062003459823962002014604051918583019360018060a01b0316845285835262001ff18362000395565b91926200223b60c06200044f966200202194966108a59160405198620021c8602085018b620003b2565b838a5260208a019362002bb485396040519660018060a01b0380948180941660208b0152166040890152166060870152166080850152608084526200223160a085019785891067ffffffffffffffff8a11176200224e575b886040525180928487019062000a87565b8301018262000aac565b0360bf1981018452609f190183620003b2565b620022586200035a565b62002220565b9492906200230d62002325926200231e986200202197956200044f9b60ff620022f3620022df610b689a6040519b6200229c8d6020830190620003b2565b808d52620044a960208e0139604051998a9860018060a01b0380988180941660208d01521660408b015216606089015260e0608089015261010088019062001ce6565b601f199b8c8883030160a089015262001ce6565b931660c08501521660e083015203858101835282620003b2565b604051968793602085019062000aac565b9062000aac565b03908101845283620003b2565b6000546001600160a01b031633036200234757565b606460405162461bcd60e51b815260206004820152602060248201527f4f776e61626c653a2063616c6c6572206973206e6f7420746865206f776e65726044820152fdfe6080604090808252346102105761002c9061082880380380916100228285610215565b833981019061024e565b6001600160a01b0381169081156101cc577f821f3e4d3d679f19eacc940c87acf846ea6eae24a63058ea750304437a62aafc5581519081600091807f3b1074392ed8e8424715d0dda2197eede67080b377fc8370e26f3e882207f6b88480a2636ff6e83f60e01b825281600460209586935afa9081156101c2578291610195575b5083516370e39c9560e11b848201908152600482526001600160401b039291808701848111828210176101815787525184928392905af4913d1561017a573d91821161016657845191610109601f8201601f1916860184610215565b8252833d92013e5b156101245750516105ba908161026e8239f35b606491519062461bcd60e51b82526004820152601660248201527f496e697469616c697a6174696f6e206661696c65642e000000000000000000006044820152fd5b634e487b7160e01b81526041600452602490fd5b5050610111565b634e487b7160e01b86526041600452602486fd5b6101b59150833d85116101bb575b6101ad8183610215565b81019061024e565b386100ad565b503d6101a3565b84513d84823e3d90fd5b825162461bcd60e51b815260206004820152601f60248201527f696e76616c696420617267756d656e74202d207a65726f2061646472657373006044820152606490fd5b600080fd5b601f909101601f19168101906001600160401b0382119082101761023857604052565b634e487b7160e01b600052604160045260246000fd5b9081602091031261021057516001600160a01b0381168103610210579056fe60406080815260048036101561001a575b6100186104ce565b005b600091823560e01c80632d5f11871461032b576392dd9d651461003d5750610010565b346103275760209182600319360112610323576100ef6101019282359261006384610362565b60008051602061056583398151915254610087906001600160a01b03163314610378565b6001600160a01b038481169661009e8815156103da565b835163709bc7f360e01b81528290828186818d5afa908115610316575b8b916102f9575b5016151592836102a0575b83610247575b836101ee575b83610195575b83610128575b5050509050610483565b60008051602061056583398151915255565b7f3b1074392ed8e8424715d0dda2197eede67080b377fc8370e26f3e882207f6b88280a280f35b9193819350518092637f6e602960e11b8252818a5afa918215610188575b889261015b575b5050161515803880806100e5565b61017a9250803d10610181575b6101728183610426565b81019061045e565b388061014d565b503d610168565b610190610476565b610146565b92508184516361f8982560e01b8152828186818d5afa9081156101e1575b8b916101c4575b50161515926100df565b6101db9150833d8511610181576101728183610426565b386101ba565b6101e9610476565b6101b3565b9250818451639e3e7bb960e01b8152828186818d5afa90811561023a575b8b9161021d575b50161515926100d9565b6102349150833d8511610181576101728183610426565b38610213565b610242610476565b61020c565b9250818451631ee9ce8b60e01b8152828186818d5afa908115610293575b8b91610276575b50161515926100d3565b61028d9150833d8511610181576101728183610426565b3861026c565b61029b610476565b610265565b9250818451636ff6e83f60e01b8152828186818d5afa9081156102ec575b8b916102cf575b50161515926100cd565b6102e69150833d8511610181576101728183610426565b386102c5565b6102f4610476565b6102be565b6103109150833d8511610181576101728183610426565b386100c2565b61031e610476565b6100bb565b8380fd5b8280fd5b833461035f578060031936011261035f57600080516020610565833981519152546001600160a01b03166080908152602090f35b80fd5b6001600160a01b0381160361037357565b600080fd5b1561037f57565b60405162461bcd60e51b815260206004820152602d60248201527f6f6e6c792063757272656e7420696d706c656d656e746174696f6e417574686f60448201526c1c9a5d1e4818d85b8818d85b1b609a1b6064820152608490fd5b156103e157565b60405162461bcd60e51b815260206004820152601f60248201527f696e76616c696420617267756d656e74202d207a65726f2061646472657373006044820152606490fd5b90601f8019910116810190811067ffffffffffffffff82111761044857604052565b634e487b7160e01b600052604160045260246000fd5b90816020910312610373575161047381610362565b90565b506040513d6000823e3d90fd5b1561048a57565b606460405162461bcd60e51b815260206004820152602060248201527f696e76616c696420496d706c656d656e746174696f6e20417574686f726974796044820152fd5b5060008051602061056583398151915254604051636ff6e83f60e01b8152600091829190602090829060049082906001600160a01b03165afa908115610557575b8291610539575b503682803781369161270f195a01f43d90816000803e15610535576000f35b6000fd5b610551915060203d8111610181576101728183610426565b38610516565b61055f610476565b61050f56fe821f3e4d3d679f19eacc940c87acf846ea6eae24a63058ea750304437a62aafca2646970667358221220003f44292fc12d9c0aba48cc0aea5a5e1ead6c097ace91d54b7c8dbe0f961dd764736f6c63430008110033608060409080825234610298576080816108a58038038091610021828561029d565b83398101031261029857610034816102d6565b6020916100428382016102d6565b61005960606100528785016102d6565b93016102d6565b6001600160a01b03848116949192918515158061028d575b80610282575b80610277575b15610233577f821f3e4d3d679f19eacc940c87acf846ea6eae24a63058ea750304437a62aafc558651928684600481600099807f3b1074392ed8e8424715d0dda2197eede67080b377fc8370e26f3e882207f6b88c80a2631ee9ce8b60e01b82525afa9384156102295786946101ee575b50875163184b955960e01b888201908152938316602482015294821660448601521660648085019190915283526001600160401b039260a08101848111828210176101da5787525184928392905af4913d156101d3573d9182116101bf57845191610162601f8201601f191686018461029d565b8252833d92013e5b1561017d5750516105ba90816102eb8239f35b606491519062461bcd60e51b82526004820152601660248201527f496e697469616c697a6174696f6e206661696c65642e000000000000000000006044820152fd5b634e487b7160e01b81526041600452602490fd5b505061016a565b634e487b7160e01b86526041600452602486fd5b9093508681813d8311610222575b610206818361029d565b8101031261021e57610217906102d6565b92386100ee565b8580fd5b503d6101fc565b88513d88823e3d90fd5b875162461bcd60e51b815260048101889052601f60248201527f696e76616c696420617267756d656e74202d207a65726f2061646472657373006044820152606490fd5b50818416151561007d565b508185161515610077565b508183161515610071565b600080fd5b601f909101601f19168101906001600160401b038211908210176102c057604052565b634e487b7160e01b600052604160045260246000fd5b51906001600160a01b03821682036102985756fe60406080815260048036101561001a575b6100186104ce565b005b600091823560e01c80632d5f11871461032b576392dd9d651461003d5750610010565b346103275760209182600319360112610323576100ef6101019282359261006384610362565b60008051602061056583398151915254610087906001600160a01b03163314610378565b6001600160a01b038481169661009e8815156103da565b835163709bc7f360e01b81528290828186818d5afa908115610316575b8b916102f9575b5016151592836102a0575b83610247575b836101ee575b83610195575b83610128575b5050509050610483565b60008051602061056583398151915255565b7f3b1074392ed8e8424715d0dda2197eede67080b377fc8370e26f3e882207f6b88280a280f35b9193819350518092637f6e602960e11b8252818a5afa918215610188575b889261015b575b5050161515803880806100e5565b61017a9250803d10610181575b6101728183610426565b81019061045e565b388061014d565b503d610168565b610190610476565b610146565b92508184516361f8982560e01b8152828186818d5afa9081156101e1575b8b916101c4575b50161515926100df565b6101db9150833d8511610181576101728183610426565b386101ba565b6101e9610476565b6101b3565b9250818451639e3e7bb960e01b8152828186818d5afa90811561023a575b8b9161021d575b50161515926100d9565b6102349150833d8511610181576101728183610426565b38610213565b610242610476565b61020c565b9250818451631ee9ce8b60e01b8152828186818d5afa908115610293575b8b91610276575b50161515926100d3565b61028d9150833d8511610181576101728183610426565b3861026c565b61029b610476565b610265565b9250818451636ff6e83f60e01b8152828186818d5afa9081156102ec575b8b916102cf575b50161515926100cd565b6102e69150833d8511610181576101728183610426565b386102c5565b6102f4610476565b6102be565b6103109150833d8511610181576101728183610426565b386100c2565b61031e610476565b6100bb565b8380fd5b8280fd5b833461035f578060031936011261035f57600080516020610565833981519152546001600160a01b03166080908152602090f35b80fd5b6001600160a01b0381160361037357565b600080fd5b1561037f57565b60405162461bcd60e51b815260206004820152602d60248201527f6f6e6c792063757272656e7420696d706c656d656e746174696f6e417574686f60448201526c1c9a5d1e4818d85b8818d85b1b609a1b6064820152608490fd5b156103e157565b60405162461bcd60e51b815260206004820152601f60248201527f696e76616c696420617267756d656e74202d207a65726f2061646472657373006044820152606490fd5b90601f8019910116810190811067ffffffffffffffff82111761044857604052565b634e487b7160e01b600052604160045260246000fd5b90816020910312610373575161047381610362565b90565b506040513d6000823e3d90fd5b1561048a57565b606460405162461bcd60e51b815260206004820152602060248201527f696e76616c696420496d706c656d656e746174696f6e20417574686f726974796044820152fd5b5060008051602061056583398151915254604051631ee9ce8b60e01b8152600091829190602090829060049082906001600160a01b03165afa908115610557575b8291610539575b503682803781369161270f195a01f43d90816000803e15610535576000f35b6000fd5b610551915060203d8111610181576101728183610426565b38610516565b61055f610476565b61050f56fe821f3e4d3d679f19eacc940c87acf846ea6eae24a63058ea750304437a62aafca2646970667358221220cd61ae47e342798cd5bc234cad4dddf07d875ba794761eb1cd8cf80dc801d74064736f6c634300081100336080604090808252346102105761002c9061082880380380916100228285610215565b833981019061024e565b6001600160a01b0381169081156101cc577f821f3e4d3d679f19eacc940c87acf846ea6eae24a63058ea750304437a62aafc5581519081600091807f3b1074392ed8e8424715d0dda2197eede67080b377fc8370e26f3e882207f6b88480a2639e3e7bb960e01b825281600460209586935afa9081156101c2578291610195575b5083516370e39c9560e11b848201908152600482526001600160401b039291808701848111828210176101815787525184928392905af4913d1561017a573d91821161016657845191610109601f8201601f1916860184610215565b8252833d92013e5b156101245750516105ba908161026e8239f35b606491519062461bcd60e51b82526004820152601660248201527f496e697469616c697a6174696f6e206661696c65642e000000000000000000006044820152fd5b634e487b7160e01b81526041600452602490fd5b5050610111565b634e487b7160e01b86526041600452602486fd5b6101b59150833d85116101bb575b6101ad8183610215565b81019061024e565b386100ad565b503d6101a3565b84513d84823e3d90fd5b825162461bcd60e51b815260206004820152601f60248201527f696e76616c696420617267756d656e74202d207a65726f2061646472657373006044820152606490fd5b600080fd5b601f909101601f19168101906001600160401b0382119082101761023857604052565b634e487b7160e01b600052604160045260246000fd5b9081602091031261021057516001600160a01b0381168103610210579056fe60406080815260048036101561001a575b6100186104ce565b005b600091823560e01c80632d5f11871461032b576392dd9d651461003d5750610010565b346103275760209182600319360112610323576100ef6101019282359261006384610362565b60008051602061056583398151915254610087906001600160a01b03163314610378565b6001600160a01b038481169661009e8815156103da565b835163709bc7f360e01b81528290828186818d5afa908115610316575b8b916102f9575b5016151592836102a0575b83610247575b836101ee575b83610195575b83610128575b5050509050610483565b60008051602061056583398151915255565b7f3b1074392ed8e8424715d0dda2197eede67080b377fc8370e26f3e882207f6b88280a280f35b9193819350518092637f6e602960e11b8252818a5afa918215610188575b889261015b575b5050161515803880806100e5565b61017a9250803d10610181575b6101728183610426565b81019061045e565b388061014d565b503d610168565b610190610476565b610146565b92508184516361f8982560e01b8152828186818d5afa9081156101e1575b8b916101c4575b50161515926100df565b6101db9150833d8511610181576101728183610426565b386101ba565b6101e9610476565b6101b3565b9250818451639e3e7bb960e01b8152828186818d5afa90811561023a575b8b9161021d575b50161515926100d9565b6102349150833d8511610181576101728183610426565b38610213565b610242610476565b61020c565b9250818451631ee9ce8b60e01b8152828186818d5afa908115610293575b8b91610276575b50161515926100d3565b61028d9150833d8511610181576101728183610426565b3861026c565b61029b610476565b610265565b9250818451636ff6e83f60e01b8152828186818d5afa9081156102ec575b8b916102cf575b50161515926100cd565b6102e69150833d8511610181576101728183610426565b386102c5565b6102f4610476565b6102be565b6103109150833d8511610181576101728183610426565b386100c2565b61031e610476565b6100bb565b8380fd5b8280fd5b833461035f578060031936011261035f57600080516020610565833981519152546001600160a01b03166080908152602090f35b80fd5b6001600160a01b0381160361037357565b600080fd5b1561037f57565b60405162461bcd60e51b815260206004820152602d60248201527f6f6e6c792063757272656e7420696d706c656d656e746174696f6e417574686f60448201526c1c9a5d1e4818d85b8818d85b1b609a1b6064820152608490fd5b156103e157565b60405162461bcd60e51b815260206004820152601f60248201527f696e76616c696420617267756d656e74202d207a65726f2061646472657373006044820152606490fd5b90601f8019910116810190811067ffffffffffffffff82111761044857604052565b634e487b7160e01b600052604160045260246000fd5b90816020910312610373575161047381610362565b90565b506040513d6000823e3d90fd5b1561048a57565b606460405162461bcd60e51b815260206004820152602060248201527f696e76616c696420496d706c656d656e746174696f6e20417574686f726974796044820152fd5b5060008051602061056583398151915254604051639e3e7bb960e01b8152600091829190602090829060049082906001600160a01b03165afa908115610557575b8291610539575b503682803781369161270f195a01f43d90816000803e15610535576000f35b6000fd5b610551915060203d8111610181576101728183610426565b38610516565b61055f610476565b61050f56fe821f3e4d3d679f19eacc940c87acf846ea6eae24a63058ea750304437a62aafca2646970667358221220abf52b8a6bd87c246de1bf1fb9ff29217c26d225d249f084436f3fecfb15bb7f64736f6c634300081100336080604090808252346102105761002c9061082880380380916100228285610215565b833981019061024e565b6001600160a01b0381169081156101cc577f821f3e4d3d679f19eacc940c87acf846ea6eae24a63058ea750304437a62aafc5581519081600091807f3b1074392ed8e8424715d0dda2197eede67080b377fc8370e26f3e882207f6b88480a26361f8982560e01b825281600460209586935afa9081156101c2578291610195575b5083516370e39c9560e11b848201908152600482526001600160401b039291808701848111828210176101815787525184928392905af4913d1561017a573d91821161016657845191610109601f8201601f1916860184610215565b8252833d92013e5b156101245750516105ba908161026e8239f35b606491519062461bcd60e51b82526004820152601660248201527f496e697469616c697a6174696f6e206661696c65642e000000000000000000006044820152fd5b634e487b7160e01b81526041600452602490fd5b5050610111565b634e487b7160e01b86526041600452602486fd5b6101b59150833d85116101bb575b6101ad8183610215565b81019061024e565b386100ad565b503d6101a3565b84513d84823e3d90fd5b825162461bcd60e51b815260206004820152601f60248201527f696e76616c696420617267756d656e74202d207a65726f2061646472657373006044820152606490fd5b600080fd5b601f909101601f19168101906001600160401b0382119082101761023857604052565b634e487b7160e01b600052604160045260246000fd5b9081602091031261021057516001600160a01b0381168103610210579056fe60406080815260048036101561001a575b6100186104ce565b005b600091823560e01c80632d5f11871461032b576392dd9d651461003d5750610010565b346103275760209182600319360112610323576100ef6101019282359261006384610362565b60008051602061056583398151915254610087906001600160a01b03163314610378565b6001600160a01b038481169661009e8815156103da565b835163709bc7f360e01b81528290828186818d5afa908115610316575b8b916102f9575b5016151592836102a0575b83610247575b836101ee575b83610195575b83610128575b5050509050610483565b60008051602061056583398151915255565b7f3b1074392ed8e8424715d0dda2197eede67080b377fc8370e26f3e882207f6b88280a280f35b9193819350518092637f6e602960e11b8252818a5afa918215610188575b889261015b575b5050161515803880806100e5565b61017a9250803d10610181575b6101728183610426565b81019061045e565b388061014d565b503d610168565b610190610476565b610146565b92508184516361f8982560e01b8152828186818d5afa9081156101e1575b8b916101c4575b50161515926100df565b6101db9150833d8511610181576101728183610426565b386101ba565b6101e9610476565b6101b3565b9250818451639e3e7bb960e01b8152828186818d5afa90811561023a575b8b9161021d575b50161515926100d9565b6102349150833d8511610181576101728183610426565b38610213565b610242610476565b61020c565b9250818451631ee9ce8b60e01b8152828186818d5afa908115610293575b8b91610276575b50161515926100d3565b61028d9150833d8511610181576101728183610426565b3861026c565b61029b610476565b610265565b9250818451636ff6e83f60e01b8152828186818d5afa9081156102ec575b8b916102cf575b50161515926100cd565b6102e69150833d8511610181576101728183610426565b386102c5565b6102f4610476565b6102be565b6103109150833d8511610181576101728183610426565b386100c2565b61031e610476565b6100bb565b8380fd5b8280fd5b833461035f578060031936011261035f57600080516020610565833981519152546001600160a01b03166080908152602090f35b80fd5b6001600160a01b0381160361037357565b600080fd5b1561037f57565b60405162461bcd60e51b815260206004820152602d60248201527f6f6e6c792063757272656e7420696d706c656d656e746174696f6e417574686f60448201526c1c9a5d1e4818d85b8818d85b1b609a1b6064820152608490fd5b156103e157565b60405162461bcd60e51b815260206004820152601f60248201527f696e76616c696420617267756d656e74202d207a65726f2061646472657373006044820152606490fd5b90601f8019910116810190811067ffffffffffffffff82111761044857604052565b634e487b7160e01b600052604160045260246000fd5b90816020910312610373575161047381610362565b90565b506040513d6000823e3d90fd5b1561048a57565b606460405162461bcd60e51b815260206004820152602060248201527f696e76616c696420496d706c656d656e746174696f6e20417574686f726974796044820152fd5b50600080516020610565833981519152546040516361f8982560e01b8152600091829190602090829060049082906001600160a01b03165afa908115610557575b8291610539575b503682803781369161270f195a01f43d90816000803e15610535576000f35b6000fd5b610551915060203d8111610181576101728183610426565b38610516565b61055f610476565b61050f56fe821f3e4d3d679f19eacc940c87acf846ea6eae24a63058ea750304437a62aafca264697066735822122069eca5f92155469f62dd6a63a59e6755f2d716a49d15a2041856362f49a0400664736f6c634300081100336080604081815234620004885762000b688038038091620000218286620004bf565b8439820160e08382031262000488576200003b83620004e3565b6020916200004b838601620004e3565b62000058858701620004e3565b60608701519096906001600160401b03908181116200048857846200007f91840162000539565b93608083015191821162000488576200009a91830162000539565b9060a08101519060ff8216809203620004885760c0620000bb9101620004e3565b6001600160a01b0386811695909390861515806200047c575b8062000470575b156200042c57899a8a999a51988b8a018c81528a620000fd8d82018662000586565b039a62000113601f199c8d8101835282620004bf565b5190208c8c5181810191825260009d8e81830152815262000134816200048d565b519020141580620003d5575b156200039157601286116200034d577f3b1074392ed8e8424715d0dda2197eede67080b377fc8370e26f3e882207f6b860048c8f8f94908d917f821f3e4d3d679f19eacc940c87acf846ea6eae24a63058ea750304437a62aafc55519c8d94838694a263709bc7f360e01b82525afa9788156200034357918a9897969593918d8d96948b9a620002cd575b508a9b9593620002138994856200023f9a98956200022695519c8d9a8b019e8f633e46d86760e21b90521660248b015216604489015260c0606489015260e488019062000586565b8681036023190160848801529062000586565b9260a48501521660c483015203908101835282620004bf565b51915af4903d15620002c6573d906200025882620004f8565b916200026786519384620004bf565b8252833d92013e5b15620002845750516105ba9081620005ae8239f35b606491519062461bcd60e51b82526004820152601660248201527f496e697469616c697a6174696f6e206661696c65642e000000000000000000006044820152fd5b506200026f565b93969295989b9950509295985081813d83116200033b575b620002f18183620004bf565b81010312620003375794878095620002266200023f968f9a968f96908f9e9b9d8f9e92620003236200021394620004e3565b9e955095989a505094505093959b620001cb565b8980fd5b503d620002e5565b8c513d8c823e3d90fd5b8c5162461bcd60e51b8152600481018d9052601960248201527f646563696d616c73206265747765656e203020616e64203138000000000000006044820152606490fd5b8c5162461bcd60e51b8152600481018d9052601f60248201527f696e76616c696420617267756d656e74202d20656d70747920737472696e67006044820152606490fd5b508c8c8c8c8351620004038482019285845282620003f68882018d62000586565b03908101835282620004bf565b5190209280519183830193845281830152815262000421816200048d565b519020141562000140565b895162461bcd60e51b8152600481018a9052601f60248201527f696e76616c696420617267756d656e74202d207a65726f2061646472657373006044820152606490fd5b50848b161515620000db565b508486161515620000d4565b600080fd5b606081019081106001600160401b03821117620004a957604052565b634e487b7160e01b600052604160045260246000fd5b601f909101601f19168101906001600160401b03821190821017620004a957604052565b51906001600160a01b03821682036200048857565b6001600160401b038111620004a957601f01601f191660200190565b60005b838110620005285750506000910152565b818101518382015260200162000517565b81601f82011215620004885780516200055281620004f8565b92620005626040519485620004bf565b81845260208284010111620004885762000583916020808501910162000514565b90565b90602091620005a18151809281855285808601910162000514565b601f01601f191601019056fe60406080815260048036101561001a575b6100186104ce565b005b600091823560e01c80632d5f11871461032b576392dd9d651461003d5750610010565b346103275760209182600319360112610323576100ef6101019282359261006384610362565b60008051602061056583398151915254610087906001600160a01b03163314610378565b6001600160a01b038481169661009e8815156103da565b835163709bc7f360e01b81528290828186818d5afa908115610316575b8b916102f9575b5016151592836102a0575b83610247575b836101ee575b83610195575b83610128575b5050509050610483565b60008051602061056583398151915255565b7f3b1074392ed8e8424715d0dda2197eede67080b377fc8370e26f3e882207f6b88280a280f35b9193819350518092637f6e602960e11b8252818a5afa918215610188575b889261015b575b5050161515803880806100e5565b61017a9250803d10610181575b6101728183610426565b81019061045e565b388061014d565b503d610168565b610190610476565b610146565b92508184516361f8982560e01b8152828186818d5afa9081156101e1575b8b916101c4575b50161515926100df565b6101db9150833d8511610181576101728183610426565b386101ba565b6101e9610476565b6101b3565b9250818451639e3e7bb960e01b8152828186818d5afa90811561023a575b8b9161021d575b50161515926100d9565b6102349150833d8511610181576101728183610426565b38610213565b610242610476565b61020c565b9250818451631ee9ce8b60e01b8152828186818d5afa908115610293575b8b91610276575b50161515926100d3565b61028d9150833d8511610181576101728183610426565b3861026c565b61029b610476565b610265565b9250818451636ff6e83f60e01b8152828186818d5afa9081156102ec575b8b916102cf575b50161515926100cd565b6102e69150833d8511610181576101728183610426565b386102c5565b6102f4610476565b6102be565b6103109150833d8511610181576101728183610426565b386100c2565b61031e610476565b6100bb565b8380fd5b8280fd5b833461035f578060031936011261035f57600080516020610565833981519152546001600160a01b03166080908152602090f35b80fd5b6001600160a01b0381160361037357565b600080fd5b1561037f57565b60405162461bcd60e51b815260206004820152602d60248201527f6f6e6c792063757272656e7420696d706c656d656e746174696f6e417574686f60448201526c1c9a5d1e4818d85b8818d85b1b609a1b6064820152608490fd5b156103e157565b60405162461bcd60e51b815260206004820152601f60248201527f696e76616c696420617267756d656e74202d207a65726f2061646472657373006044820152606490fd5b90601f8019910116810190811067ffffffffffffffff82111761044857604052565b634e487b7160e01b600052604160045260246000fd5b90816020910312610373575161047381610362565b90565b506040513d6000823e3d90fd5b1561048a57565b606460405162461bcd60e51b815260206004820152602060248201527f696e76616c696420496d706c656d656e746174696f6e20417574686f726974796044820152fd5b506000805160206105658339815191525460405163709bc7f360e01b8152600091829190602090829060049082906001600160a01b03165afa908115610557575b8291610539575b503682803781369161270f195a01f43d90816000803e15610535576000f35b6000fd5b610551915060203d8111610181576101728183610426565b38610516565b61055f610476565b61050f56fe821f3e4d3d679f19eacc940c87acf846ea6eae24a63058ea750304437a62aafca2646970667358221220ae987b8b72ecc313be534f5684a661ea3ee8b7ced80b2c3399e7d48feecacf9c64736f6c634300081100336080604090808252346102105761002c9061082880380380916100228285610215565b833981019061024e565b6001600160a01b0381169081156101cc577f821f3e4d3d679f19eacc940c87acf846ea6eae24a63058ea750304437a62aafc5581519081600091807f3b1074392ed8e8424715d0dda2197eede67080b377fc8370e26f3e882207f6b88480a2637f6e602960e11b825281600460209586935afa9081156101c2578291610195575b5083516370e39c9560e11b848201908152600482526001600160401b039291808701848111828210176101815787525184928392905af4913d1561017a573d91821161016657845191610109601f8201601f1916860184610215565b8252833d92013e5b156101245750516105ba908161026e8239f35b606491519062461bcd60e51b82526004820152601660248201527f496e697469616c697a6174696f6e206661696c65642e000000000000000000006044820152fd5b634e487b7160e01b81526041600452602490fd5b5050610111565b634e487b7160e01b86526041600452602486fd5b6101b59150833d85116101bb575b6101ad8183610215565b81019061024e565b386100ad565b503d6101a3565b84513d84823e3d90fd5b825162461bcd60e51b815260206004820152601f60248201527f696e76616c696420617267756d656e74202d207a65726f2061646472657373006044820152606490fd5b600080fd5b601f909101601f19168101906001600160401b0382119082101761023857604052565b634e487b7160e01b600052604160045260246000fd5b9081602091031261021057516001600160a01b0381168103610210579056fe60406080815260048036101561001a575b6100186104ce565b005b600091823560e01c80632d5f11871461032b576392dd9d651461003d5750610010565b346103275760209182600319360112610323576100ef6101019282359261006384610362565b60008051602061056583398151915254610087906001600160a01b03163314610378565b6001600160a01b038481169661009e8815156103da565b835163709bc7f360e01b81528290828186818d5afa908115610316575b8b916102f9575b5016151592836102a0575b83610247575b836101ee575b83610195575b83610128575b5050509050610483565b60008051602061056583398151915255565b7f3b1074392ed8e8424715d0dda2197eede67080b377fc8370e26f3e882207f6b88280a280f35b9193819350518092637f6e602960e11b8252818a5afa918215610188575b889261015b575b5050161515803880806100e5565b61017a9250803d10610181575b6101728183610426565b81019061045e565b388061014d565b503d610168565b610190610476565b610146565b92508184516361f8982560e01b8152828186818d5afa9081156101e1575b8b916101c4575b50161515926100df565b6101db9150833d8511610181576101728183610426565b386101ba565b6101e9610476565b6101b3565b9250818451639e3e7bb960e01b8152828186818d5afa90811561023a575b8b9161021d575b50161515926100d9565b6102349150833d8511610181576101728183610426565b38610213565b610242610476565b61020c565b9250818451631ee9ce8b60e01b8152828186818d5afa908115610293575b8b91610276575b50161515926100d3565b61028d9150833d8511610181576101728183610426565b3861026c565b61029b610476565b610265565b9250818451636ff6e83f60e01b8152828186818d5afa9081156102ec575b8b916102cf575b50161515926100cd565b6102e69150833d8511610181576101728183610426565b386102c5565b6102f4610476565b6102be565b6103109150833d8511610181576101728183610426565b386100c2565b61031e610476565b6100bb565b8380fd5b8280fd5b833461035f578060031936011261035f57600080516020610565833981519152546001600160a01b03166080908152602090f35b80fd5b6001600160a01b0381160361037357565b600080fd5b1561037f57565b60405162461bcd60e51b815260206004820152602d60248201527f6f6e6c792063757272656e7420696d706c656d656e746174696f6e417574686f60448201526c1c9a5d1e4818d85b8818d85b1b609a1b6064820152608490fd5b156103e157565b60405162461bcd60e51b815260206004820152601f60248201527f696e76616c696420617267756d656e74202d207a65726f2061646472657373006044820152606490fd5b90601f8019910116810190811067ffffffffffffffff82111761044857604052565b634e487b7160e01b600052604160045260246000fd5b90816020910312610373575161047381610362565b90565b506040513d6000823e3d90fd5b1561048a57565b606460405162461bcd60e51b815260206004820152602060248201527f696e76616c696420496d706c656d656e746174696f6e20417574686f726974796044820152fd5b5060008051602061056583398151915254604051637f6e602960e11b8152600091829190602090829060049082906001600160a01b03165afa908115610557575b8291610539575b503682803781369161270f195a01f43d90816000803e15610535576000f35b6000fd5b610551915060203d8111610181576101728183610426565b38610516565b61055f610476565b61050f56fe821f3e4d3d679f19eacc940c87acf846ea6eae24a63058ea750304437a62aafca2646970667358221220c5a1566126e39921bb52640086d5aa1907e9dda7c5b7f3728f1bb5c53e19d9e564736f6c63430008110033a2646970667358221220a842aa288c0dc51a93520e47d3e6a203c89d9c93cebf80e77a08e6a48e3e2bab64736f6c63430008110033","linkReferences":{}},"methodIdentifiers":{"deployTREXSuite(string,(address,string,string,uint8,address,address,bool,address[],address[],address[],address[],bytes[]),(uint256[],address[],uint256[][]))":"92b7e36a","deployedByMe(address)":"15bccda7","getIdFactory()":"5f2773a5","getImplementationAuthority()":"2d5f1187","getToken(string)":"c1733f68","owner()":"8da5cb5b","recoverContractOwnership(address,address)":"50b01838","renounceOwnership()":"715018a6","setIdFactory(address)":"ccd41cce","setImplementationAuthority(address)":"92dd9d65","setWrapper(address)":"c2167d93","tokenDeployed(string)":"fb88d79c","tokenDeployedByMe(address)":"26d3c670","transferOwnership(address)":"f2fde38b","wrapper()":"ac210cc7"},"id":31}