{"abi":[{"type":"function","name":"implEquityConfig","inputs":[],"outputs":[{"name":"","type":"address","internalType":"address"}],"stateMutability":"view"},{"type":"function","name":"implFund","inputs":[],"outputs":[{"name":"","type":"address","internalType":"address"}],"stateMutability":"view"},{"type":"function","name":"masterFactory","inputs":[],"outputs":[{"name":"","type":"address","internalType":"address"}],"stateMutability":"view"},{"type":"error","name":"FeeOutOfBound","inputs":[]}],"bytecode":{"object":"0x608080604052346100155760eb908161001b8239f35b600080fdfe6080806040526004361015601257600080fd5b600090813560e01c9081635737127914608e57508063577fbe7f146067576379674b7a14603e57600080fd5b34606457806003193601126064576006546040516001600160a01b039091168152602090f35b80fd5b5034606457806003193601126064576005546040516001600160a01b039091168152602090f35b90503460b1578160031936011260b1576007546001600160a01b03168152602090f35b5080fdfea26469706673582212203052269a9987f9a7548470726ae165e91ea12035e7818393b73d8f3e52cc82fd64736f6c63430008110033","linkReferences":{}},"methodIdentifiers":{"implEquityConfig()":"57371279","implFund()":"79674b7a","masterFactory()":"577fbe7f"},"id":28}