{"abi":[{"type":"function","name":"addAgent","inputs":[{"name":"_agent","type":"address","internalType":"address"}],"outputs":[],"stateMutability":"nonpayable"},{"type":"function","name":"addTA","inputs":[{"name":"_agent","type":"address","internalType":"address"}],"outputs":[],"stateMutability":"nonpayable"},{"type":"function","name":"allowance","inputs":[{"name":"_owner","type":"address","internalType":"address"},{"name":"_spender","type":"address","internalType":"address"}],"outputs":[{"name":"","type":"uint256","internalType":"uint256"}],"stateMutability":"view"},{"type":"function","name":"approve","inputs":[{"name":"_spender","type":"address","internalType":"address"},{"name":"_amount","type":"uint256","internalType":"uint256"}],"outputs":[{"name":"","type":"bool","internalType":"bool"}],"stateMutability":"nonpayable"},{"type":"function","name":"balanceOf","inputs":[{"name":"_userAddress","type":"address","internalType":"address"}],"outputs":[{"name":"","type":"uint256","internalType":"uint256"}],"stateMutability":"view"},{"type":"function","name":"batchBurn","inputs":[{"name":"_userAddresses","type":"address[]","internalType":"address[]"},{"name":"_amounts","type":"uint256[]","internalType":"uint256[]"}],"outputs":[],"stateMutability":"nonpayable"},{"type":"function","name":"batchForcedTransfer","inputs":[{"name":"_fromList","type":"address[]","internalType":"address[]"},{"name":"_toList","type":"address[]","internalType":"address[]"},{"name":"_amounts","type":"uint256[]","internalType":"uint256[]"}],"outputs":[],"stateMutability":"nonpayable"},{"type":"function","name":"batchFreezePartialTokens","inputs":[{"name":"_userAddresses","type":"address[]","internalType":"address[]"},{"name":"_amounts","type":"uint256[]","internalType":"uint256[]"}],"outputs":[],"stateMutability":"nonpayable"},{"type":"function","name":"batchMint","inputs":[{"name":"_toList","type":"address[]","internalType":"address[]"},{"name":"_amounts","type":"uint256[]","internalType":"uint256[]"}],"outputs":[],"stateMutability":"nonpayable"},{"type":"function","name":"batchSetAddressFrozen","inputs":[{"name":"_userAddresses","type":"address[]","internalType":"address[]"},{"name":"_freeze","type":"bool[]","internalType":"bool[]"}],"outputs":[],"stateMutability":"nonpayable"},{"type":"function","name":"batchTransfer","inputs":[{"name":"_toList","type":"address[]","internalType":"address[]"},{"name":"_amounts","type":"uint256[]","internalType":"uint256[]"}],"outputs":[],"stateMutability":"nonpayable"},{"type":"function","name":"batchUnfreezePartialTokens","inputs":[{"name":"_userAddresses","type":"address[]","internalType":"address[]"},{"name":"_amounts","type":"uint256[]","internalType":"uint256[]"}],"outputs":[],"stateMutability":"nonpayable"},{"type":"function","name":"burn","inputs":[{"name":"_userAddress","type":"address","internalType":"address"},{"name":"_amount","type":"uint256","internalType":"uint256"}],"outputs":[],"stateMutability":"nonpayable"},{"type":"function","name":"compliance","inputs":[],"outputs":[{"name":"","type":"address","internalType":"contract IModularCompliance"}],"stateMutability":"view"},{"type":"function","name":"decimals","inputs":[],"outputs":[{"name":"","type":"uint8","internalType":"uint8"}],"stateMutability":"view"},{"type":"function","name":"decreaseAllowance","inputs":[{"name":"_spender","type":"address","internalType":"address"},{"name":"_subtractedValue","type":"uint256","internalType":"uint256"}],"outputs":[{"name":"","type":"bool","internalType":"bool"}],"stateMutability":"nonpayable"},{"type":"function","name":"forcedTransfer","inputs":[{"name":"_from","type":"address","internalType":"address"},{"name":"_to","type":"address","internalType":"address"},{"name":"_amount","type":"uint256","internalType":"uint256"}],"outputs":[{"name":"","type":"bool","internalType":"bool"}],"stateMutability":"nonpayable"},{"type":"function","name":"freezePartialTokens","inputs":[{"name":"_userAddress","type":"address","internalType":"address"},{"name":"_amount","type":"uint256","internalType":"uint256"}],"outputs":[],"stateMutability":"nonpayable"},{"type":"function","name":"getFrozenTokens","inputs":[{"name":"_userAddress","type":"address","internalType":"address"}],"outputs":[{"name":"","type":"uint256","internalType":"uint256"}],"stateMutability":"view"},{"type":"function","name":"identityRegistry","inputs":[],"outputs":[{"name":"","type":"address","internalType":"contract IIdentityRegistry"}],"stateMutability":"view"},{"type":"function","name":"increaseAllowance","inputs":[{"name":"_spender","type":"address","internalType":"address"},{"name":"_addedValue","type":"uint256","internalType":"uint256"}],"outputs":[{"name":"","type":"bool","internalType":"bool"}],"stateMutability":"nonpayable"},{"type":"function","name":"init","inputs":[{"name":"_identityRegistry","type":"address","internalType":"address"},{"name":"_compliance","type":"address","internalType":"address"},{"name":"_name","type":"string","internalType":"string"},{"name":"_symbol","type":"string","internalType":"string"},{"name":"_decimals","type":"uint8","internalType":"uint8"},{"name":"_onchainID","type":"address","internalType":"address"}],"outputs":[],"stateMutability":"nonpayable"},{"type":"function","name":"isAgent","inputs":[{"name":"_agent","type":"address","internalType":"address"}],"outputs":[{"name":"","type":"bool","internalType":"bool"}],"stateMutability":"view"},{"type":"function","name":"isFrozen","inputs":[{"name":"_userAddress","type":"address","internalType":"address"}],"outputs":[{"name":"","type":"bool","internalType":"bool"}],"stateMutability":"view"},{"type":"function","name":"isTA","inputs":[{"name":"_agent","type":"address","internalType":"address"}],"outputs":[{"name":"","type":"bool","internalType":"bool"}],"stateMutability":"view"},{"type":"function","name":"mint","inputs":[{"name":"_to","type":"address","internalType":"address"},{"name":"_amount","type":"uint256","internalType":"uint256"}],"outputs":[],"stateMutability":"nonpayable"},{"type":"function","name":"name","inputs":[],"outputs":[{"name":"","type":"string","internalType":"string"}],"stateMutability":"view"},{"type":"function","name":"onchainID","inputs":[],"outputs":[{"name":"","type":"address","internalType":"address"}],"stateMutability":"view"},{"type":"function","name":"owner","inputs":[],"outputs":[{"name":"","type":"address","internalType":"address"}],"stateMutability":"view"},{"type":"function","name":"pause","inputs":[],"outputs":[],"stateMutability":"nonpayable"},{"type":"function","name":"paused","inputs":[],"outputs":[{"name":"","type":"bool","internalType":"bool"}],"stateMutability":"view"},{"type":"function","name":"recoveryAddress","inputs":[{"name":"_lostWallet","type":"address","internalType":"address"},{"name":"_newWallet","type":"address","internalType":"address"},{"name":"_investorOnchainID","type":"address","internalType":"address"}],"outputs":[{"name":"","type":"bool","internalType":"bool"}],"stateMutability":"nonpayable"},{"type":"function","name":"removeAgent","inputs":[{"name":"_agent","type":"address","internalType":"address"}],"outputs":[],"stateMutability":"nonpayable"},{"type":"function","name":"removeTA","inputs":[{"name":"_agent","type":"address","internalType":"address"}],"outputs":[],"stateMutability":"nonpayable"},{"type":"function","name":"renounceOwnership","inputs":[],"outputs":[],"stateMutability":"nonpayable"},{"type":"function","name":"setAddressFrozen","inputs":[{"name":"_userAddress","type":"address","internalType":"address"},{"name":"_freeze","type":"bool","internalType":"bool"}],"outputs":[],"stateMutability":"nonpayable"},{"type":"function","name":"setCompliance","inputs":[{"name":"_compliance","type":"address","internalType":"address"}],"outputs":[],"stateMutability":"nonpayable"},{"type":"function","name":"setIdentityRegistry","inputs":[{"name":"_identityRegistry","type":"address","internalType":"address"}],"outputs":[],"stateMutability":"nonpayable"},{"type":"function","name":"setName","inputs":[{"name":"_name","type":"string","internalType":"string"}],"outputs":[],"stateMutability":"nonpayable"},{"type":"function","name":"setOnchainID","inputs":[{"name":"_onchainID","type":"address","internalType":"address"}],"outputs":[],"stateMutability":"nonpayable"},{"type":"function","name":"setSymbol","inputs":[{"name":"_symbol","type":"string","internalType":"string"}],"outputs":[],"stateMutability":"nonpayable"},{"type":"function","name":"symbol","inputs":[],"outputs":[{"name":"","type":"string","internalType":"string"}],"stateMutability":"view"},{"type":"function","name":"totalFrozenTokens","inputs":[],"outputs":[{"name":"","type":"uint256","internalType":"uint256"}],"stateMutability":"view"},{"type":"function","name":"totalSupply","inputs":[],"outputs":[{"name":"","type":"uint256","internalType":"uint256"}],"stateMutability":"view"},{"type":"function","name":"transfer","inputs":[{"name":"_to","type":"address","internalType":"address"},{"name":"_amount","type":"uint256","internalType":"uint256"}],"outputs":[{"name":"","type":"bool","internalType":"bool"}],"stateMutability":"nonpayable"},{"type":"function","name":"transferFrom","inputs":[{"name":"_from","type":"address","internalType":"address"},{"name":"_to","type":"address","internalType":"address"},{"name":"_amount","type":"uint256","internalType":"uint256"}],"outputs":[{"name":"","type":"bool","internalType":"bool"}],"stateMutability":"nonpayable"},{"type":"function","name":"transferOwnership","inputs":[{"name":"newOwner","type":"address","internalType":"address"}],"outputs":[],"stateMutability":"nonpayable"},{"type":"function","name":"unfreezePartialTokens","inputs":[{"name":"_userAddress","type":"address","internalType":"address"},{"name":"_amount","type":"uint256","internalType":"uint256"}],"outputs":[],"stateMutability":"nonpayable"},{"type":"function","name":"unpause","inputs":[],"outputs":[],"stateMutability":"nonpayable"},{"type":"function","name":"version","inputs":[],"outputs":[{"name":"","type":"string","internalType":"string"}],"stateMutability":"pure"},{"type":"event","name":"AddressFrozen","inputs":[{"name":"_userAddress","type":"address","indexed":true,"internalType":"address"},{"name":"_isFrozen","type":"bool","indexed":true,"internalType":"bool"},{"name":"_owner","type":"address","indexed":true,"internalType":"address"}],"anonymous":false},{"type":"event","name":"AgentAdded","inputs":[{"name":"_agent","type":"address","indexed":true,"internalType":"address"}],"anonymous":false},{"type":"event","name":"AgentRemoved","inputs":[{"name":"_agent","type":"address","indexed":true,"internalType":"address"}],"anonymous":false},{"type":"event","name":"Approval","inputs":[{"name":"owner","type":"address","indexed":true,"internalType":"address"},{"name":"spender","type":"address","indexed":true,"internalType":"address"},{"name":"value","type":"uint256","indexed":false,"internalType":"uint256"}],"anonymous":false},{"type":"event","name":"ComplianceAdded","inputs":[{"name":"_compliance","type":"address","indexed":true,"internalType":"address"}],"anonymous":false},{"type":"event","name":"IdentityRegistryAdded","inputs":[{"name":"_identityRegistry","type":"address","indexed":true,"internalType":"address"}],"anonymous":false},{"type":"event","name":"Initialized","inputs":[{"name":"version","type":"uint8","indexed":false,"internalType":"uint8"}],"anonymous":false},{"type":"event","name":"OwnershipTransferred","inputs":[{"name":"previousOwner","type":"address","indexed":true,"internalType":"address"},{"name":"newOwner","type":"address","indexed":true,"internalType":"address"}],"anonymous":false},{"type":"event","name":"Paused","inputs":[{"name":"_userAddress","type":"address","indexed":false,"internalType":"address"}],"anonymous":false},{"type":"event","name":"RecoverySuccess","inputs":[{"name":"_lostWallet","type":"address","indexed":true,"internalType":"address"},{"name":"_newWallet","type":"address","indexed":true,"internalType":"address"},{"name":"_investorOnchainID","type":"address","indexed":true,"internalType":"address"}],"anonymous":false},{"type":"event","name":"TokensFrozen","inputs":[{"name":"_userAddress","type":"address","indexed":true,"internalType":"address"},{"name":"_amount","type":"uint256","indexed":false,"internalType":"uint256"}],"anonymous":false},{"type":"event","name":"TokensUnfrozen","inputs":[{"name":"_userAddress","type":"address","indexed":true,"internalType":"address"},{"name":"_amount","type":"uint256","indexed":false,"internalType":"uint256"}],"anonymous":false},{"type":"event","name":"Transfer","inputs":[{"name":"from","type":"address","indexed":true,"internalType":"address"},{"name":"to","type":"address","indexed":true,"internalType":"address"},{"name":"value","type":"uint256","indexed":false,"internalType":"uint256"}],"anonymous":false},{"type":"event","name":"Unpaused","inputs":[{"name":"_userAddress","type":"address","indexed":false,"internalType":"address"}],"anonymous":false},{"type":"event","name":"UpdatedTokenInformation","inputs":[{"name":"_newName","type":"string","indexed":true,"internalType":"string"},{"name":"_newSymbol","type":"string","indexed":true,"internalType":"string"},{"name":"_newDecimals","type":"uint8","indexed":false,"internalType":"uint8"},{"name":"_newVersion","type":"string","indexed":false,"internalType":"string"},{"name":"_newOnchainID","type":"address","indexed":true,"internalType":"address"}],"anonymous":false},{"type":"event","name":"taAdded","inputs":[{"name":"_agent","type":"address","indexed":true,"internalType":"address"}],"anonymous":false},{"type":"event","name":"taRemoved","inputs":[{"name":"_agent","type":"address","indexed":true,"internalType":"address"}],"anonymous":false}],"bytecode":{"object":"0x608080604052346100205760ff196070541660705561428c90816100268239f35b600080fdfe608080604052600436101561001357600080fd5b600090813560e01c90816306fdde0314612a5757508063095ea7b314612a30578063125c4a3314612908578063134e18f4146128db578063158b1a57146128a257806318160ddd146128845780631a7af379146127505780631fe56f7d146126235780631ffbb0641461260457806323b872dd146125db578063313ce567146125ba57806339509351146125715780633d1ddc5b146124cc5780633f4ba83a1461243357806340c10f191461219f57806342a47abc146120d35780634710362d14611f7a5780634788598c14611efc5780634969a01e14611ede5780634a6cc67714611c5257806354fd4d5014611c3657806358b5b5c114611bb65780635c975abb14611b935780636290865d14611b6a578063685731071461186457806370a082311461182b578063715018a6146117cd5780638456cb591461176957806384e79842146116a457806388d695b21461163a5780638da5cb5b146116115780639285948a146115c357806395d89b41146114ec57806397a6278e1461141a5780639dc29fac146111d45780639fc1d0e7146111ba578063a457c2d71461115e578063a9059cbb14611127578063ab190ae7146110f9578063aba63705146110cc578063b84c824614610fc8578063c47f002714610e36578063c69c09cf14610d2d578063cbf3f86114610cba578063dd62ed3e14610c6b578063e583983614610c2c578063f2fde38b14610b9b578063f898178914610a90578063f91b619c146103b35763fc7e5fa81461024757600080fd5b346103b05761025536612b83565b929091610263848214613172565b845b818110610270578580f35b61028361027e8284866131cd565b6131f3565b61028e8287876131cd565b359061029933612d52565b801561039c575b6102a990613c68565b60018060a01b031690818852602090606782526040892054606e908184526102d58360408d2054613078565b1161035957918184936103177fa065e63c631c86f1b9f66a4a2f63f2093bf1c2168d23290259dbd969e0222a459460408e6103409a9981528487522054613078565b90858d52835260408c2055606d825260ff60408c20541615610345575b604051908152a26131be565b610265565b606f610352828254613078565b9055610334565b6064836040519062461bcd60e51b825280600483015260248201527f416d6f756e74206578636565647320617661696c61626c652062616c616e63656044820152fd5b506102a96103a933612dc5565b90506102a0565b80fd5b50346103b05760c03660031901126103b0576103cd612b27565b6103d5612b3d565b6044356001600160401b038111610a8c576103f4903690600401612cb0565b916064356001600160401b038111610a8857610414903690600401612cb0565b6084359060ff82168203610a845760a4356001600160a01b0381169003610a7f5785549460ff8660081c161595868097610a72575b8015610a5b575b156109ff5760ff1981166001178855866109ee575b506033546001600160a01b03166109b3576001600160a01b0384161515806109a1575b61049190612d06565b6040516020810190602082526104bc816104ae6040820186612ae7565b03601f198101835282612c8f565b51902060405160208101906020825260006040820152604081526104df81612c74565b519020141580610951575b6104f390612de8565b601260ff84161161090c5761051760ff885460081c16610512816140d5565b6140d5565b6105203361418d565b8051906001600160401b0382116108f857819061054782610542606a54612e34565b612ecd565b602090601f8311600114610882578992610877575b50508160011b916000199060031b1c191617606a555b8051906001600160401b03821161086357819061059982610594606b54612e34565b612e6e565b602090601f83116001146107ed5788926107e2575b50508160011b916000199060031b1c191617606b555b606c54610100600160a81b03916affffffffffffffffffffff60a81b918260ff8560a43560081b16931691161717606c556070549160ff198316607055610609614135565b8360081b1691161760705560018060a01b03167fd2be862d755bca7e0d39772b2cab3a5578da9c285f69199f4c063c2294a7f36c8480a2610648614135565b60715483906001600160a01b03168061079e575b505060018060a01b0316828181607154826bffffffffffffffffffffffff60a01b8216176071551617803b1561079a57818091602460405180948193631ffad50160e11b83523060048401525af1801561078f57610777575b50807f7f3a888862559648ec01d97deb7b5012bff86dc91e654a1de397170db40e35b691a2606c546106e5612f2c565b6106ed612f5d565b7f6a1105ac8148a3c319adbc369f9072573e8a11d3a3d195e067e7c40767ec54d1610736610719612fe8565b9360405191829160ff60018060a01b038960081c1698168361305b565b0390a46107405780f35b61ff001981541681557f7f26b83ff96e1f2b6a682f133852f6798a09c465da95921460cefb3847402498602060405160018152a180f35b61078090612c4b565b61078b5782386106b5565b8280fd5b6040513d84823e3d90fd5b5080fd5b803b1561079a5781809160246040518094819363040db3b560e41b83523060048401525af1801561078f571561065c576107d790612c4b565b61078b57823861065c565b0151905038806105ae565b9250606b88526000805160206141f78339815191529088935b601f1984168510610848576001945083601f1981161061082f575b505050811b01606b556105c4565b015160001960f88460031b161c19169055388080610821565b81810151835560209485019460019093019290910190610806565b634e487b7160e01b87526041600452602487fd5b01519050388061055c565b9250606a89526000805160206142378339815191529089935b601f19841685106108dd576001945083601f198116106108c4575b505050811b01606a55610572565b015160001960f88460031b161c191690553880806108b6565b8181015183556020948501946001909301929091019061089b565b634e487b7160e01b88526041600452602488fd5b60405162461bcd60e51b815260206004820152601960248201527f646563696d616c73206265747765656e203020616e64203138000000000000006044820152606490fd5b506104f3604051602081019060208252610972816104ae6040820188612ae7565b519020604051602081019060208252600060408201526040815261099581612c74565b519020141590506104ea565b506001600160a01b0385161515610488565b60405162461bcd60e51b8152602060048201526013602482015272185b1c9958591e481a5b9a5d1a585b1a5e9959606a1b6044820152606490fd5b61ffff191661010117875538610465565b60405162461bcd60e51b815260206004820152602e60248201527f496e697469616c697a61626c653a20636f6e747261637420697320616c72656160448201526d191e481a5b9a5d1a585b1a5e995960921b6064820152608490fd5b50303b1580156104505750600160ff821614610450565b50600160ff821610610449565b600080fd5b8580fd5b8480fd5b8380fd5b50346103b05760203660031901126103b057610aaa612b27565b610ab2614135565b6071546001600160a01b0391908390831680610b57575b505016818181607154826bffffffffffffffffffffffff60a01b8216176071551617803b1561079a57818091602460405180948193631ffad50160e11b83523060048401525af1801561078f57610b43575b50807f7f3a888862559648ec01d97deb7b5012bff86dc91e654a1de397170db40e35b691a280f35b610b4c90612c4b565b61079a578138610b1b565b803b1561079a5781809160246040518094819363040db3b560e41b83523060048401525af1801561078f5715610ac957610b9090612c4b565b61078b578238610ac9565b50346103b05760203660031901126103b057610bb5612b27565b610bbd614135565b6001600160a01b03811615610bd857610bd59061418d565b80f35b60405162461bcd60e51b815260206004820152602660248201527f4f776e61626c653a206e6577206f776e657220697320746865207a65726f206160448201526564647265737360d01b6064820152608490fd5b50346103b05760203660031901126103b05760209060ff906040906001600160a01b03610c57612b27565b168152606d84522054166040519015158152f35b50346103b05760403660031901126103b057610c85612b27565b6040610c8f612b3d565b9260018060a01b03809316815260686020522091166000526020526020604060002054604051908152f35b50346103b05760203660031901126103b057610cd4612b27565b610cdc614135565b60708054610100600160a81b031916600883901b610100600160a81b03161790556001600160a01b03167fd2be862d755bca7e0d39772b2cab3a5578da9c285f69199f4c063c2294a7f36c8280a280f35b50346103b05760403660031901126103b057610d47612b27565b6024359081151590818303610a8c57610d67610d6233612d52565b6130d0565b60018060a01b031691828452610dc3602091606d835260ff604087205416600014610e255784865260678352610da460408720545b606f5461309b565b606f55848652606d8352604086209060ff801983541691151516179055565b604084205460ff1615610e145760679083855252610de860408420545b606f54613078565b606f5533917f7fa523c84ab8d7fc5b72f08b9e46dbbf10c39e119a075b3e317002d14bc9f4368480a480f35b606e9052610de86040842054610de0565b606e8352610da46040872054610d9c565b50346103b057610e4536612c02565b610e50929192614135565b60405192602090610ea882860186610e698685846130a8565b0396610e7d601f1998898101835282612c8f565b519020604051848101908582526000604082015260408152610e9e81612c74565b5190201415612de8565b6001600160401b038311610fb457610ec583610542606a54612e34565b8391601f8411600114610f445750838394955092610f39575b50508160011b916000199060031b1c191617606a555b606c54610eff612f2c565b610f07612f5d565b7f6a1105ac8148a3c319adbc369f9072573e8a11d3a3d195e067e7c40767ec54d1610f33610719612fe8565b0390a480f35b013590503880610ede565b9194831694606a85526000805160206142378339815191529285905b878210610f9c575050836001959610610f82575b505050811b01606a55610ef4565b0135600019600384901b60f8161c19169055388080610f74565b80600184968294958701358155019501920190610f60565b634e487b7160e01b84526041600452602484fd5b50346103b057610fd736612c02565b610fe2929192614135565b60405192602090610ffb82860186610e698685846130a8565b6001600160401b038311610fb45761101883610594606b54612e34565b8391601f841160011461105c5750838394955092611051575b50508160011b916000199060031b1c191617606b55606c54610eff612f2c565b013590503880611031565b9194831694606b85526000805160206141f78339815191529285905b8782106110b457505083600195961061109a575b505050811b01606b55610ef4565b0135600019600384901b60f8161c1916905538808061108c565b80600184968294958701358155019501920190611078565b50346103b057806003193601126103b057606c5460405160089190911c6001600160a01b03168152602090f35b50346103b05760203660031901126103b057602061111d611118612b27565b612dc5565b6040519015158152f35b50346103b05760403660031901126103b057602061111d611146612b27565b61115560ff6070541615613133565b60243590613ac1565b50346103b05760403660031901126103b0576111af90604061117e612b27565b9133815260686020522060018060a01b0382166000526020526111a860243560406000205461309b565b9033613fd3565b602060405160018152f35b50346103b057602061111d6111ce36612bcd565b91613ce5565b50346103b05760403660031901126103b0576111ee612b27565b906024356111fe610d6233612d52565b60018060a01b039283811693848452602060678152836040862054106113d6578585526067815261123c6040862054606e835260408720549061309b565b80851161136b575b50858552606d815260ff604086205416611357575b85156113095785600080516020614217833981519152869792879384526067815261128887604086205461309b565b8385526067825260408520556112a08760695461309b565b606955604051878152a36071541691823b156113045760405163469753b960e11b81526001600160a01b0392909216600483015260248201529082908290604490829084905af1801561078f576112f45750f35b6112fd90612c4b565b6103b05780f35b505050fd5b6084906040519062461bcd60e51b82526004820152602160248201527f45524332303a206275726e2066726f6d20746865207a65726f206164647265736044820152607360f81b6064820152fd5b61136384606f5461309b565b606f55611259565b611375908561309b565b868652606e825261138a81604088205461309b565b878752606e83526040872055866000805160206141d783398151915283604051848152a2868652606d825260ff604087205416611244576113cd90606f5461309b565b606f5538611244565b6064906040519062461bcd60e51b82526004820152601d60248201527f63616e6e6f74206275726e206d6f7265207468616e2062616c616e63650000006044820152fd5b50346103b05760203660031901126103b057611434612b27565b61143c614135565b6001600160a01b0381169061145b90611456831515612d06565b612d52565b1561149d57806000526065602052604060002060ff1981541690557fed9c8ad8d5a0a66898ea49d2956929c93ae2e8bd50281b2ed897c5d1a6737e0b8280a280f35b60405162461bcd60e51b815260206004820152602160248201527f526f6c65733a206163636f756e7420646f6573206e6f74206861766520726f6c6044820152606560f81b6064820152608490fd5b50346103b057806003193601126103b0576040519080606b5461150e81612e34565b808552916001918083169081156115995750600114611550575b61154c8561153881870382612c8f565b604051918291602083526020830190612ae7565b0390f35b9250606b83526000805160206141f78339815191525b8284106115815750505081016020016115388261154c611528565b80546020858701810191909152909301928101611566565b86955061154c9693506020925061153894915060ff191682840152151560051b8201019293611528565b50346103b05760603660031901126103b0576115dd612b27565b6115e5612b3d565b906044356001600160a01b0381168103610a7f5760209261111d9261160c610d6233612d52565b613532565b50346103b057806003193601126103b0576033546040516001600160a01b039091168152602090f35b50346103b05761164936612b83565b9091611656828214613172565b845b818110611663578580f35b8061169961167861027e61169f94868a6131cd565b6116838387896131cd565b359061169460ff6070541615613133565b613ac1565b506131be565b611658565b50346103b05760203660031901126103b0576116be612b27565b6116c6614135565b6001600160a01b038116906116e090611456831515612d06565b611724578060005260656020526040600020600160ff198254161790557ff68e73cec97f2d70aa641fb26e87a4383686e2efacb648f2165aeb02ac562ec58280a280f35b60405162461bcd60e51b815260206004820152601f60248201527f526f6c65733a206163636f756e7420616c72656164792068617320726f6c65006044820152606490fd5b50346103b057806003193601126103b057611786610d6233612d52565b600160705461179860ff821615613133565b60ff1916176070557f62e78cea01bee320cd4e420270b5ea74000d11b0c9f74754ebdbfc544b05a2586020604051338152a180f35b50346103b057806003193601126103b0576117e6614135565b603380546001600160a01b031981169091556000906001600160a01b03167f8be0079c531659141344cd1fd0a4f28419497f9722a3daafe3b4186f6b6457e08280a380f35b50346103b05760203660031901126103b0576020906040906001600160a01b03611853612b27565b168152606783522054604051908152f35b50346103b05761187336612b83565b90939291611882828214613172565b835b81811061188f578480f35b61189d61027e8284876131cd565b6118a88285896131cd565b35906118b6610d6233612d52565b60705460405163b9209e3360e01b81526001600160a01b03838116600483018190529092602492602091829082908690829060081c89165afa908115611b5f578c91611b42575b5015611b0357607180546040516372331c7360e11b8152600060048201526001600160a01b038816602482015260448101899052919491908390829060649082908a165afa908115611af8578d91611acb575b5015611a8e57828c52606d825260ff60408d205416611a7a575b8215611a3757506000805160206142178339815191528b91606961198f898254613078565b905583835260678082526119a7896040862054613078565b9085855282526040842055604051888152a3541690813b15611a3357604051635f8dead360e01b81526001600160a01b03919091166004820152602481019290925286908290604490829084905af18015611a2857908691611a14575b5050611a0f906131be565b611884565b611a1d90612c4b565b610a88578438611a04565b6040513d88823e3d90fd5b8780fd5b90601f6064926040519262461bcd60e51b845260048401528201527f45524332303a206d696e7420746f20746865207a65726f2061646472657373006044820152fd5b606f611a87888254613078565b905561196a565b9060176064926040519262461bcd60e51b845260048401528201527610dbdb5c1b1a585b98d9481b9bdd08199bdb1b1bddd959604a1b6044820152fd5b611aeb9150833d8511611af1575b611ae38183612c8f565b810190613289565b38611950565b503d611ad9565b6040513d8f823e3d90fd5b6064906019846040519262461bcd60e51b845260048401528201527824b232b73a34ba3c9034b9903737ba103b32b934b334b2b21760391b6044820152fd5b611b599150823d8411611af157611ae38183612c8f565b386118fd565b6040513d8e823e3d90fd5b50346103b057806003193601126103b0576071546040516001600160a01b039091168152602090f35b50346103b057806003193601126103b057602060ff607054166040519015158152f35b50346103b05760203660031901126103b057611bd0612b27565b611bd8614135565b6001600160a01b03811690611bf290611118831515612d06565b611724578060005260666020526040600020600160ff198254161790557f4f89f64d04cc833c53d6284af6b75785fd83d2e9737936a817421f3fa4fa777e8280a280f35b50346103b057806003193601126103b05761154c611538612f2c565b50346103b057611c6136612b83565b90939291611c70828214613172565b835b818110611c7d578480f35b611c8b61027e8284876131cd565b611c968285896131cd565b3590611ca4610d6233612d52565b6001600160a01b038181168089526067602081815260408b20549091908611611e9957828b5280825260408b20548b611ce7606e9283865260408320549061309b565b808911611e27575b5084915052606d825260ff60408c205416611e13575b8215611dc4578291600080516020614217833981519152918c948552808252611d3288604087205461309b565b90848652825260408520556069611d4a88825461309b565b9055604051878152a36071541690813b15611a335760405163469753b960e11b81526001600160a01b03919091166004820152602481019290925286908290604490829084905af18015611a2857908691611db0575b5050611dab906131be565b611c72565b611db990612c4b565b610a88578438611da0565b60405162461bcd60e51b815260048101839052602160248201527f45524332303a206275726e2066726f6d20746865207a65726f206164647265736044820152607360f81b6064820152608490fd5b606f611e2087825461309b565b9055611d05565b611e31908961309b565b9185825280855285611e4784604085205461309b565b9252845260408d2055836000805160206141d783398151915284604051848152a2838c52606d835260ff60408d20541615611e84575b8b81611cef565b611e91606f91825461309b565b905538611e7d565b60405162461bcd60e51b815260048101839052601d60248201527f63616e6e6f74206275726e206d6f7265207468616e2062616c616e63650000006044820152606490fd5b50346103b057806003193601126103b0576020606f54604051908152f35b50346103b05760203660031901126103b057611f16612b27565b611f1e614135565b6001600160a01b03811690611f3890611118831515612d06565b1561149d57806000526066602052604060002060ff1981541690557f82f1efed5d891d7ba766c32612c2a36d22f2feddccbdaf31c6fb2ea7c52b287c8280a280f35b50346103b057611f8936612b83565b929091611f97848214613172565b845b818110611fa4578580f35b611fb261027e8284866131cd565b611fbd8287876131cd565b3590611fc833612d52565b80156120bf575b611fd890613c68565b60018060a01b031690818852606e906020918083528160408b20541061205d57918184936120236000805160206141d78339815191529460408e61204b9a998152848752205461309b565b90858d52835260408c2055606d825260ff60408c2054161561205057604051908152a26131be565b611f99565b606f61035282825461309b565b60405162461bcd60e51b815260048101849052603460248201527f416d6f756e742073686f756c64206265206c657373207468616e206f7220657160448201527375616c20746f2066726f7a656e20746f6b656e7360601b6064820152608490fd5b50611fd86120cc33612dc5565b9050611fcf565b50346103b05760603660031901126103b0576001600160401b0360043581811161078b57612105903690600401612b53565b602492919235828111610a8857612120903690600401612b53565b9092604435908111610a845761213a903690600401612b53565b91909281811480612196575b61214f90613172565b865b81811061215c578780f35b8061169961217161027e61219194868c6131cd565b61217f61027e84888c6131cd565b61218a84898b6131cd565b3591613ce5565b612151565b50818314612146565b50346103b05760403660031901126103b0576121b9612b27565b90602435916121ca610d6233612d52565b60705460405163b9209e3360e01b81526001600160a01b0383811660048301819052602096939192909187908290602490829060081c87165afa908115611a28578691612416575b50156123d5576071546040516372331c7360e11b8152600060048201526001600160a01b0386166024820152604481018590529087908290606490829087165afa908115611a285786916123b8575b501561237957808552606d865260ff604086205416612365575b8015612320578460008051602061421783398151915281976122a286606999989954613078565b606955838352606781526122ba866040852054613078565b848452606782526040842055604051868152a360715416803b1561078b57604051635f8dead360e01b81526001600160a01b0394909416600485015260248401919091528290604490829084905af1801561078f57612317575080f35b610bd590612c4b565b60405162461bcd60e51b815260048101879052601f60248201527f45524332303a206d696e7420746f20746865207a65726f2061646472657373006044820152606490fd5b61237183606f54613078565b606f5561227b565b60405162461bcd60e51b815260048101879052601760248201527610dbdb5c1b1a585b98d9481b9bdd08199bdb1b1bddd959604a1b6044820152606490fd5b6123cf9150873d8911611af157611ae38183612c8f565b38612261565b60405162461bcd60e51b815260048101879052601960248201527824b232b73a34ba3c9034b9903737ba103b32b934b334b2b21760391b6044820152606490fd5b61242d9150873d8911611af157611ae38183612c8f565b38612212565b50346103b057806003193601126103b057612450610d6233612d52565b60705460ff8116156124905760ff19166070557f5db9ee0a495bf2e6ff9c91a7834c1ba4fdd244a5e8aa4e537bd38aeae4b073aa6020604051338152a180f35b60405162461bcd60e51b815260206004820152601460248201527314185d5cd8589b194e881b9bdd081c185d5cd95960621b6044820152606490fd5b50346103b05760203660031901126103b0576124e6612b27565b6124ee614135565b606c8054610100600160a81b0319811660089390931b610100600160a81b0316929092179081905561251e612f2c565b907f6a1105ac8148a3c319adbc369f9072573e8a11d3a3d195e067e7c40767ec54d160ff61254a612f5d565b92610f33612556612fe8565b9560405193849360018060a01b039060081c1698168361305b565b50346103b05760403660031901126103b0576111af906111a8612592612b27565b9133815260686020526040812060018060a01b03841682526020526040602435912054613078565b50346103b057806003193601126103b057602060ff606c5416604051908152f35b50346103b057602061111d6125ef36612bcd565b916125ff60ff6070541615613133565b6132d1565b50346103b05760203660031901126103b057602061111d611456612b27565b50346103b05760403660031901126103b05761263d612b27565b6024359061264a33612d52565b801561273c575b61265a90613c68565b60018060a01b031690818352602090606e8252806040852054106126da57906000805160206141d783398151915291838552606e825261269e81604087205461309b565b848652606e83526040862055606d825260ff604086205416156126c6575b604051908152a280f35b6126d281606f5461309b565b606f556126bc565b60405162461bcd60e51b815260048101839052603460248201527f416d6f756e742073686f756c64206265206c657373207468616e206f7220657160448201527375616c20746f2066726f7a656e20746f6b656e7360601b6064820152608490fd5b5061265a61274933612dc5565b9050612651565b50346103b05761275f36612b83565b90929161276d828214613172565b845b81811061277a578580f35b61278861027e8284876131cd565b906127948185886131cd565b358015158082036128805761285c936127af610d6233612d52565b60018060a01b031691828a52606d908a61280d602092848452604060ff93848282205416600014612872578881526067865281812054965b6127f4606f98895461309b565b88558982528652209060ff801983541691151516179055565b60408c2054161561286157606790848c525261282f60408b20545b8254613078565b905533917f7fa523c84ab8d7fc5b72f08b9e46dbbf10c39e119a075b3e317002d14bc9f4368a80a46131be565b61276f565b606e905261282f60408b2054612828565b606e865281812054966127e7565b8880fd5b50346103b057806003193601126103b0576020606954604051908152f35b50346103b05760203660031901126103b0576020906040906001600160a01b036128ca612b27565b168152606e83522054604051908152f35b50346103b057806003193601126103b05760705460405160089190911c6001600160a01b03168152602090f35b50346103b05760403660031901126103b057612922612b27565b6024359061292f33612d52565b8015612a1c575b61293f90613c68565b60018060a01b031690818352602090606782526040842054606e8352612969826040872054613078565b116129d957907fa065e63c631c86f1b9f66a4a2f63f2093bf1c2168d23290259dbd969e0222a4591838552606e82526129a6816040872054613078565b848652606e83526040862055606d825260ff604086205416156129cd57604051908152a280f35b6126d281606f54613078565b6064826040519062461bcd60e51b825280600483015260248201527f416d6f756e74206578636565647320617661696c61626c652062616c616e63656044820152fd5b5061293f612a2933612dc5565b9050612936565b50346103b05760403660031901126103b0576111af612a4d612b27565b6024359033613fd3565b82346103b057806003193601126103b05780606a54612a7581612e34565b808552916001918083169081156115995750600114612a9e5761154c8561153881870382612c8f565b9250606a83526000805160206142378339815191525b828410612acf5750505081016020016115388261154c611528565b80546020858701810191909152909301928101612ab4565b919082519283825260005b848110612b13575050826000602080949584010152601f8019910116010190565b602081830181015184830182015201612af2565b600435906001600160a01b0382168203610a7f57565b602435906001600160a01b0382168203610a7f57565b9181601f84011215610a7f578235916001600160401b038311610a7f576020808501948460051b010111610a7f57565b6040600319820112610a7f576001600160401b0391600435838111610a7f5782612baf91600401612b53565b93909392602435918211610a7f57612bc991600401612b53565b9091565b6060906003190112610a7f576001600160a01b03906004358281168103610a7f57916024359081168103610a7f579060443590565b906020600319830112610a7f576004356001600160401b0392838211610a7f5780602383011215610a7f578160040135938411610a7f5760248483010111610a7f576024019190565b6001600160401b038111612c5e57604052565b634e487b7160e01b600052604160045260246000fd5b606081019081106001600160401b03821117612c5e57604052565b90601f801991011681019081106001600160401b03821117612c5e57604052565b81601f82011215610a7f578035906001600160401b038211612c5e5760405192612ce4601f8401601f191660200185612c8f565b82845260208383010111610a7f57816000926020809301838601378301015290565b15612d0d57565b60405162461bcd60e51b815260206004820152601f60248201527f696e76616c696420617267756d656e74202d207a65726f2061646472657373006044820152606490fd5b6001600160a01b03168015612d7557600052606560205260ff6040600020541690565b60405162461bcd60e51b815260206004820152602260248201527f526f6c65733a206163636f756e7420697320746865207a65726f206164647265604482015261737360f01b6064820152608490fd5b6001600160a01b03168015612d7557600052606660205260ff6040600020541690565b15612def57565b60405162461bcd60e51b815260206004820152601f60248201527f696e76616c696420617267756d656e74202d20656d70747920737472696e67006044820152606490fd5b90600182811c92168015612e64575b6020831014612e4e57565b634e487b7160e01b600052602260045260246000fd5b91607f1691612e43565b601f8111612e7a575050565b600090606b82526000805160206141f7833981519152906020601f850160051c83019410612ec3575b601f0160051c01915b828110612eb857505050565b818155600101612eac565b9092508290612ea3565b601f8111612ed9575050565b600090606a8252600080516020614237833981519152906020601f850160051c83019410612f22575b601f0160051c01915b828110612f1757505050565b818155600101612f0b565b9092508290612f02565b60405190604082018281106001600160401b03821117612c5e576040526005825264342e312e3360d81b6020830152565b604051806000606a54612f6f81612e34565b90600190818116908115612fd15750600114612f8e575b505003902090565b606a60009081529192506000805160206142378339815191525b838310612fbb5750505081013880612f86565b8054868401528594506020909201918101612fa8565b60ff19168552505080151502820190503880612f86565b604051806000606b54612ffa81612e34565b90600190818116908115612fd1575060011461301857505003902090565b606b60009081529192506000805160206141f78339815191525b8383106130455750505081013880612f86565b8054868401528594506020909201918101613032565b60409060ff61307594931681528160208201520190612ae7565b90565b9190820180921161308557565b634e487b7160e01b600052601160045260246000fd5b9190820391821161308557565b90918060409360208452816020850152848401376000828201840152601f01601f1916010190565b156130d757565b60405162461bcd60e51b815260206004820152602e60248201527f4167656e74526f6c653a2063616c6c657220646f6573206e6f7420686176652060448201526d746865204167656e7420726f6c6560901b6064820152608490fd5b1561313a57565b60405162461bcd60e51b815260206004820152601060248201526f14185d5cd8589b194e881c185d5cd95960821b6044820152606490fd5b1561317957565b60405162461bcd60e51b815260206004820152601860248201527f4d69736d617463686564206172726179206c656e6774687300000000000000006044820152606490fd5b60001981146130855760010190565b91908110156131dd5760051b0190565b634e487b7160e01b600052603260045260246000fd5b356001600160a01b0381168103610a7f5790565b1561320e57565b60405162461bcd60e51b815260206004820152601060248201526f3bb0b63632ba1034b990333937bd32b760811b6044820152606490fd5b1561324d57565b60405162461bcd60e51b8152602060048201526014602482015273496e73756666696369656e742042616c616e636560601b6044820152606490fd5b90816020910312610a7f57518015158103610a7f5790565b6060906020815260156020820152745472616e73666572206e6f7420706f737369626c6560581b60408201520190565b9192909260009260018060a01b0394858116958686526020606d815260409760ff8989205416158061351f575b61330790613207565b828516908189526067835261333261332a8b8b2054606e86528c8c20549061309b565b881115613246565b81895260688352898920338a528352868a8a2054106134e657828460705460081c169160248c518094819363b9209e3360e01b835260048301525afa9081156134bf5789916134c9575b5080613452575b6133a357885162461bcd60e51b81528061339f600482016132a1565b0390fd5b87989697526068815285882090338952526133cb6133c485878a205461309b565b3385613fd3565b6133d6848385613ebb565b6071541691823b1561344e5784516322ebca6d60e21b81526001600160a01b0391821660048201529116602482015260448101929092529293909281908490818381606481015b03925af1918215613444575050613435575b50600190565b61343e90612c4b565b3861342f565b51903d90823e3d90fd5b8680fd5b5060715489516372331c7360e11b81526001600160a01b03878116600483015286166024820152604481018890529083908290606490829088165afa9081156134bf5789916134a2575b50613383565b6134b99150833d8511611af157611ae38183612c8f565b3861349c565b8a513d8b823e3d90fd5b6134e09150833d8511611af157611ae38183612c8f565b3861337c565b895162461bcd60e51b8152600481018490526012602482015271105b1b1bddd85b98d948195e18d95959195960721b6044820152606490fd5b5084831688528888205460ff16156132fe565b6001600160a01b038082166000818152606760209081526040808320549197909695909491839015613a865782871695868614613a385783169688518a81018881528b82528a8201908282106001600160401b03831117613a2457818c528251902063d202158d60e01b82526044830152600160648301528b816044818d5afa918215613a1a578c8c9186946139ea575b5050505061360757885162461bcd60e51b8152600481018b905260156024820152745265636f76657279206e6f7420706f737369626c6560581b6044820152606490fd5b85829a939495979996989a52606783528582205490606e9485855287842054938760705460081c168951630bb7c8fd60e31b81528d60048201528781602481855afa9081156139c35783916139cd575b50156138f9575b505090613684929161366f33612d52565b80156138e5575b61367f90613c68565b613cf4565b50806137e4575b50858552606d8152600160ff8587205416151514613726575b505060705460081c16803b1561078b5790828092602483518095819363a8d29d1d60e01b83528960048401525af190811561371d5750613709575b50807ff0c9129a94f30f1caaceb63e44b9811d0a3edf1d6c23757f346093af5553fed091a4600190565b6137138291612c4b565b6103b057386136df565b513d84823e3d90fd5b613732610d6233612d52565b868552606d81528385205460ff16156137d5578685526067815261375b84862054606f5461309b565b606f55868552606d8152838520805460ff191660011790558385205460ff16156137c857606791508685525261379682842054606f54613078565b606f55336001867f7fa523c84ab8d7fc5b72f08b9e46dbbf10c39e119a075b3e317002d14bc9f4368680a438806136a4565b5261379682842054610de0565b81815261375b84862054610d9c565b6137ed33612d52565b80156138d1575b6137fd90613c68565b87865260678252848620548383526138188287892054613078565b1161388f577fa065e63c631c86f1b9f66a4a2f63f2093bf1c2168d23290259dbd969e0222a4582899283895285825261385481898b2054613078565b848a52868352888a2055606d825260ff888a2054161561387b575b8751908152a23861368b565b61388781606f54613078565b606f5561386f565b60648286519062461bcd60e51b825280600483015260248201527f416d6f756e74206578636565647320617661696c61626c652062616c616e63656044820152fd5b506137fd6138de33612dc5565b90506137f4565b5061367f6138f233612dc5565b9050613676565b8951637e42683b60e01b8152600481018d9052908782602481845afa9182156139c3578392613989575b50803b1561078b578e60648f8580948f61ffff9051978896879563022a501f60e51b8752600487015260248601521660448401525af1801561397f571561365e576136849493929a5061397590612c4b565b989091923861365e565b8a513d84823e3d90fd5b9091508781813d83116139bc575b6139a18183612c8f565b8101031261078b575161ffff8116810361078b579038613923565b503d613997565b8b513d85823e3d90fd5b6139e49150883d8a11611af157611ae38183612c8f565b38613657565b613a099450813d10613a12575b613a018285612c8f565b010190613289565b388a8c826135c3565b3d91506139f7565b8b513d86823e3d90fd5b634e487b7160e01b85526041600452602485fd5b885162461bcd60e51b8152600481018b9052602160248201527f43616e6e6f74207265636f76657220746f207468652073616d652077616c6c656044820152601d60fa1b6064820152608490fd5b875162461bcd60e51b8152600481018a905260146024820152733737903a37b5b2b739903a37903932b1b7bb32b960611b6044820152606490fd5b91600060018060a01b039384811694858352602095606d875260409660ff88862054161580613c57575b613af490613207565b33855260678152613b1361332a89872054606e84528a8820549061309b565b808360705460081c169260248a518095819363b9209e3360e01b835260048301525afa918215613c2e578592613c38575b5081613bc0575b50613b6857855162461bcd60e51b81528061339f600482016132a1565b613b7785839795969733613ebb565b6071541690813b1561078b5783516322ebca6d60e21b81523360048201526001600160a01b0390911660248201526044810195909552929392819084908183816064810161341d565b60715488516372331c7360e11b81523360048201526001600160a01b03861660248201526044810189905291925082908290606490829087165afa918215613c2e578592613c11575b505038613b4b565b613c279250803d10611af157611ae38183612c8f565b3880613c09565b88513d87823e3d90fd5b81613c509293503d8411611af157611ae38183612c8f565b9038613b44565b503385528785205460ff1615613aeb565b15613c6f57565b60405162461bcd60e51b815260206004820152604260248201527f4167656e74526f6c65206f72205441526f6c653a2063616c6c657220646f657360448201527f206e6f74206861766520746865204167656e7420726f6c65206f72205441526f6064820152616c6560f01b608482015260a490fd5b90613075929161366f33612d52565b9192909260009260018060a01b039485821695868652602060678152604097858989205410613e7e5780885260678252613d3989892054606e84528a8a20549061309b565b808711613e17575b508752606d815260ff8888205416613e03575b818316808852606d825260ff8989205416613def575b818360705460081c169160248b518094819363b9209e3360e01b835260048301525afa918215613de5578892613dc8575b5050613db957865162461bcd60e51b81528061339f600482016132a1565b6133d684838599979899613ebb565b613dde9250803d10611af157611ae38183612c8f565b3880613d9b565b89513d8a823e3d90fd5b613dfb86606f54613078565b606f55613d6a565b613e0f85606f5461309b565b606f55613d54565b613e21908761309b565b818952606e8352613e35818b8b205461309b565b828a52606e84528a8a2055816000805160206141d7833981519152848c51848152a2818952606d835260ff8a8a205416613d4157613e7590606f5461309b565b606f5538613d41565b885162461bcd60e51b815260048101839052601660248201527573656e6465722062616c616e636520746f6f206c6f7760501b6044820152606490fd5b6001600160a01b03908116918215613f805716918215613f2f57602060008051602061421783398151915291600084815260678352613efe82604083205461309b565b8582526067845260408220558581526040613f1c8382842054613078565b91878152606785522055604051908152a3565b60405162461bcd60e51b815260206004820152602360248201527f45524332303a207472616e7366657220746f20746865207a65726f206164647260448201526265737360e81b6064820152608490fd5b60405162461bcd60e51b815260206004820152602560248201527f45524332303a207472616e736665722066726f6d20746865207a65726f206164604482015264647265737360d81b6064820152608490fd5b6001600160a01b0390811691821561408457169182156140345760207f8c5be1e5ebec7d5bd14f71427d1e84f3dd0314c0f7b2291e5b200ac8c7c3b925918360005260688252604060002085600052825280604060002055604051908152a3565b60405162461bcd60e51b815260206004820152602260248201527f45524332303a20617070726f766520746f20746865207a65726f206164647265604482015261737360f01b6064820152608490fd5b60405162461bcd60e51b8152602060048201526024808201527f45524332303a20617070726f76652066726f6d20746865207a65726f206164646044820152637265737360e01b6064820152608490fd5b156140dc57565b60405162461bcd60e51b815260206004820152602b60248201527f496e697469616c697a61626c653a20636f6e7472616374206973206e6f74206960448201526a6e697469616c697a696e6760a81b6064820152608490fd5b6033546001600160a01b0316330361414957565b606460405162461bcd60e51b815260206004820152602060248201527f4f776e61626c653a2063616c6c6572206973206e6f7420746865206f776e65726044820152fd5b603380546001600160a01b039283166001600160a01b0319821681179092559091167f8be0079c531659141344cd1fd0a4f28419497f9722a3daafe3b4186f6b6457e0600080a356fe9bed35cb62ad0dba04f9d5bfee4b5bc91443e77da8a65c4c84834c51bb08b0d6bd43cb8ece8cd1863bcd6082d65c5b0d25665b1ce17980f0da43c0ed545f98b4ddf252ad1be2c89b69c2b068fc378daa952ba7f163c4a11628f55a4df523b3ef116fea137db6e131133e7f2bab296045d8f41cc5607279db17b218cab0929a51a264697066735822122085c00999e4a6a6b895ffe28dd9846f14c8e1b153b08db7d2b08fe9678207540164736f6c63430008110033","linkReferences":{}},"methodIdentifiers":{"addAgent(address)":"84e79842","addTA(address)":"58b5b5c1","allowance(address,address)":"dd62ed3e","approve(address,uint256)":"095ea7b3","balanceOf(address)":"70a08231","batchBurn(address[],uint256[])":"4a6cc677","batchForcedTransfer(address[],address[],uint256[])":"42a47abc","batchFreezePartialTokens(address[],uint256[])":"fc7e5fa8","batchMint(address[],uint256[])":"68573107","batchSetAddressFrozen(address[],bool[])":"1a7af379","batchTransfer(address[],uint256[])":"88d695b2","batchUnfreezePartialTokens(address[],uint256[])":"4710362d","burn(address,uint256)":"9dc29fac","compliance()":"6290865d","decimals()":"313ce567","decreaseAllowance(address,uint256)":"a457c2d7","forcedTransfer(address,address,uint256)":"9fc1d0e7","freezePartialTokens(address,uint256)":"125c4a33","getFrozenTokens(address)":"158b1a57","identityRegistry()":"134e18f4","increaseAllowance(address,uint256)":"39509351","init(address,address,string,string,uint8,address)":"f91b619c","isAgent(address)":"1ffbb064","isFrozen(address)":"e5839836","isTA(address)":"ab190ae7","mint(address,uint256)":"40c10f19","name()":"06fdde03","onchainID()":"aba63705","owner()":"8da5cb5b","pause()":"8456cb59","paused()":"5c975abb","recoveryAddress(address,address,address)":"9285948a","removeAgent(address)":"97a6278e","removeTA(address)":"4788598c","renounceOwnership()":"715018a6","setAddressFrozen(address,bool)":"c69c09cf","setCompliance(address)":"f8981789","setIdentityRegistry(address)":"cbf3f861","setName(string)":"c47f0027","setOnchainID(address)":"3d1ddc5b","setSymbol(string)":"b84c8246","symbol()":"95d89b41","totalFrozenTokens()":"4969a01e","totalSupply()":"18160ddd","transfer(address,uint256)":"a9059cbb","transferFrom(address,address,uint256)":"23b872dd","transferOwnership(address)":"f2fde38b","unfreezePartialTokens(address,uint256)":"1fe56f7d","unpause()":"3f4ba83a","version()":"54fd4d50"},"id":86}