{"abi":[{"type":"constructor","inputs":[],"stateMutability":"nonpayable"},{"type":"function","name":"addCountryRestriction","inputs":[{"name":"_country","type":"uint16","internalType":"uint16"}],"outputs":[],"stateMutability":"nonpayable"},{"type":"function","name":"batchRestrictCountries","inputs":[{"name":"_countries","type":"uint16[]","internalType":"uint16[]"}],"outputs":[],"stateMutability":"nonpayable"},{"type":"function","name":"batchUnrestrictCountries","inputs":[{"name":"_countries","type":"uint16[]","internalType":"uint16[]"}],"outputs":[],"stateMutability":"nonpayable"},{"type":"function","name":"bindCompliance","inputs":[{"name":"_compliance","type":"address","internalType":"address"}],"outputs":[],"stateMutability":"nonpayable"},{"type":"function","name":"canComplianceBind","inputs":[{"name":"","type":"address","internalType":"address"}],"outputs":[{"name":"","type":"bool","internalType":"bool"}],"stateMutability":"view"},{"type":"function","name":"initialize","inputs":[],"outputs":[],"stateMutability":"nonpayable"},{"type":"function","name":"isComplianceBound","inputs":[{"name":"_compliance","type":"address","internalType":"address"}],"outputs":[{"name":"","type":"bool","internalType":"bool"}],"stateMutability":"view"},{"type":"function","name":"isCountryRestricted","inputs":[{"name":"_compliance","type":"address","internalType":"address"},{"name":"_country","type":"uint16","internalType":"uint16"}],"outputs":[{"name":"","type":"bool","internalType":"bool"}],"stateMutability":"view"},{"type":"function","name":"isPlugAndPlay","inputs":[],"outputs":[{"name":"","type":"bool","internalType":"bool"}],"stateMutability":"pure"},{"type":"function","name":"moduleBurnAction","inputs":[{"name":"_from","type":"address","internalType":"address"},{"name":"_value","type":"uint256","internalType":"uint256"}],"outputs":[],"stateMutability":"nonpayable"},{"type":"function","name":"moduleCheck","inputs":[{"name":"","type":"address","internalType":"address"},{"name":"_to","type":"address","internalType":"address"},{"name":"","type":"uint256","internalType":"uint256"},{"name":"_compliance","type":"address","internalType":"address"}],"outputs":[{"name":"","type":"bool","internalType":"bool"}],"stateMutability":"view"},{"type":"function","name":"moduleMintAction","inputs":[{"name":"_to","type":"address","internalType":"address"},{"name":"_value","type":"uint256","internalType":"uint256"}],"outputs":[],"stateMutability":"nonpayable"},{"type":"function","name":"moduleTransferAction","inputs":[{"name":"_from","type":"address","internalType":"address"},{"name":"_to","type":"address","internalType":"address"},{"name":"_value","type":"uint256","internalType":"uint256"}],"outputs":[],"stateMutability":"nonpayable"},{"type":"function","name":"name","inputs":[],"outputs":[{"name":"_name","type":"string","internalType":"string"}],"stateMutability":"pure"},{"type":"function","name":"owner","inputs":[],"outputs":[{"name":"","type":"address","internalType":"address"}],"stateMutability":"view"},{"type":"function","name":"proxiableUUID","inputs":[],"outputs":[{"name":"","type":"bytes32","internalType":"bytes32"}],"stateMutability":"view"},{"type":"function","name":"removeCountryRestriction","inputs":[{"name":"_country","type":"uint16","internalType":"uint16"}],"outputs":[],"stateMutability":"nonpayable"},{"type":"function","name":"renounceOwnership","inputs":[],"outputs":[],"stateMutability":"nonpayable"},{"type":"function","name":"transferOwnership","inputs":[{"name":"newOwner","type":"address","internalType":"address"}],"outputs":[],"stateMutability":"nonpayable"},{"type":"function","name":"unbindCompliance","inputs":[{"name":"_compliance","type":"address","internalType":"address"}],"outputs":[],"stateMutability":"nonpayable"},{"type":"function","name":"upgradeTo","inputs":[{"name":"newImplementation","type":"address","internalType":"address"}],"outputs":[],"stateMutability":"nonpayable"},{"type":"function","name":"upgradeToAndCall","inputs":[{"name":"newImplementation","type":"address","internalType":"address"},{"name":"data","type":"bytes","internalType":"bytes"}],"outputs":[],"stateMutability":"payable"},{"type":"event","name":"AddedRestrictedCountry","inputs":[{"name":"_compliance","type":"address","indexed":true,"internalType":"address"},{"name":"_country","type":"uint16","indexed":false,"internalType":"uint16"}],"anonymous":false},{"type":"event","name":"AdminChanged","inputs":[{"name":"previousAdmin","type":"address","indexed":false,"internalType":"address"},{"name":"newAdmin","type":"address","indexed":false,"internalType":"address"}],"anonymous":false},{"type":"event","name":"BeaconUpgraded","inputs":[{"name":"beacon","type":"address","indexed":true,"internalType":"address"}],"anonymous":false},{"type":"event","name":"ComplianceBound","inputs":[{"name":"_compliance","type":"address","indexed":true,"internalType":"address"}],"anonymous":false},{"type":"event","name":"ComplianceUnbound","inputs":[{"name":"_compliance","type":"address","indexed":true,"internalType":"address"}],"anonymous":false},{"type":"event","name":"Initialized","inputs":[{"name":"version","type":"uint8","indexed":false,"internalType":"uint8"}],"anonymous":false},{"type":"event","name":"OwnershipTransferred","inputs":[{"name":"previousOwner","type":"address","indexed":true,"internalType":"address"},{"name":"newOwner","type":"address","indexed":true,"internalType":"address"}],"anonymous":false},{"type":"event","name":"RemovedRestrictedCountry","inputs":[{"name":"_compliance","type":"address","indexed":true,"internalType":"address"},{"name":"_country","type":"uint16","indexed":false,"internalType":"uint16"}],"anonymous":false},{"type":"event","name":"Upgraded","inputs":[{"name":"implementation","type":"address","indexed":true,"internalType":"address"}],"anonymous":false}],"bytecode":{"object":"0x60a080604052346100dc57306080526000549060ff8260081c1661008a575060ff8082161061004f575b6040516119c090816100e282396080518181816105fb015281816107220152610b5c0152f35b60ff90811916176000557f7f26b83ff96e1f2b6a682f133852f6798a09c465da95921460cefb3847402498602060405160ff8152a138610029565b62461bcd60e51b815260206004820152602760248201527f496e697469616c697a61626c653a20636f6e747261637420697320696e697469604482015266616c697a696e6760c81b6064820152608490fd5b600080fdfe6040608081526004908136101561001557600080fd5b600091823560e01c8063013b7ce4146111985780630333ce24146110ea5780630694a5fb1461105157806306fdde0314610fd9578063249c981d14610e8a5780632cb7e1ec14610e6757806330236f4a14610e105780633659cfe614610b36578063372491a2146101a75780634a93254414610a5b5780634cf4d29514610a105780634f1ef286146106a857806352d1902d146105e65780636aae7b2614610537578063715018a6146104da5780638129fc1c1461038c5780638da5cb5b14610363578063bcc210531461033d578063bdf9a07e146101ec578063e6f5e807146101d0578063f104a8c9146101a75763f2fde38b1461011357600080fd5b346101a35760203660031901126101a35761012c6111e6565b9161013561171b565b6001600160a01b03831615610151578361014e84611773565b80f35b906020608492519162461bcd60e51b8352820152602660248201527f4f776e61626c653a206e6577206f776e657220697320746865207a65726f206160448201526564647265737360d01b6064820152fd5b8280fd5b5050346101cc573660031901126101c9576101c06111e6565b5061014e611567565b80fd5b5080fd5b5050346101cc57816003193601126101cc576020905160018152f35b5090346101a3576101fc36611271565b909233855260209160008051602061196b833981519152835260ff916102268386892054166113d0565b60c38210156102e75750855b81811061023d578680f35b6102e2903388528260c9808752878a20896102656102608661ffff968794611532565b611558565b168b52875261027986898c2054161561147c565b338a5286528689208161029061026085888d611532565b168a528652868920805460ff191660011790556102b161026083868b611532565b908751911681527f5e0addf626d7d7091ab7aebf34682c3203384648734760b24921e31ddcec0bb5863392a261150d565b610232565b845162461bcd60e51b8152908101849052602a60248201527f6d6178696d756d203139352063616e206265207265737472696374656420696e604482015269040dedcca40c4c2e8c6d60b31b6064820152608490fd5b5050346101cc5760203660031901126101cc5760209061035b6111e6565b505160018152f35b5050346101cc57816003193601126101cc5760335490516001600160a01b039091168152602090f35b50346101a357826003193601126101a357825460ff8160081c1615918280936104cd575b80156104b6575b1561045c575060ff19811660011784558161044b575b506103f060ff845460081c166103e28161141c565b6103eb8161141c565b61141c565b6103f933611773565b82549061040b60ff8360081c1661141c565b610413578280f35b61ff001916825551600181527f7f26b83ff96e1f2b6a682f133852f6798a09c465da95921460cefb384740249890602090a138808280f35b61ffff1916610101178355386103cd565b608490602085519162461bcd60e51b8352820152602e60248201527f496e697469616c697a61626c653a20636f6e747261637420697320616c72656160448201526d191e481a5b9a5d1a585b1a5e995960921b6064820152fd5b50303b1580156103b75750600160ff8316146103b7565b50600160ff8316106103b0565b83346101c957806003193601126101c9576104f361171b565b603380546001600160a01b0319811690915581906001600160a01b03167f8be0079c531659141344cd1fd0a4f28419497f9722a3daafe3b4186f6b6457e08280a380f35b5050346101cc576020806003193601126101a3577ffb8bb575200aa114265a31c7d8ebeb4e395bd3cd9d0914c4bfa2a511d2011a7a90610575611217565b9233855260008051602061196b833981519152825261059960ff82872054166113d0565b33855260c9825261ffff81862094169384865282526105c2600160ff83882054161515146114c8565b33855260c98252808520848652825280852060ff198154169055519283523392a280f35b5082346101c957806003193601126101c957507f00000000000000000000000000000000000000000000000000000000000000006001600160a01b03163003610640576020825160008051602061194b8339815191528152f35b6020608492519162461bcd60e51b8352820152603860248201527f555550535570677261646561626c653a206d757374206e6f742062652063616c60448201527f6c6564207468726f7567682064656c656761746563616c6c00000000000000006064820152fd5b5090806003193601126101a3576106bd6111e6565b9160249182359067ffffffffffffffff8211610a0c5736602383011215610a0c57818301356106eb81611312565b6106f7835191826112f0565b8181528760209485830193368982840101116101a35780898893018637830101526001600160a01b037f0000000000000000000000000000000000000000000000000000000000000000811690610750308314156117bc565b61076d60008051602061194b83398151915292828454161461181d565b61077561171b565b7f4910fdfa16fed3260ed0e7147f7cc6da11a60208b5b9406d12a635614ffd91435460ff16156107b057505050505050505061014e9061187e565b88959799949698169086516352d1902d60e01b815288818b81865afa8691816109d9575b5061083257875162461bcd60e51b8152808b018a9052602e818d01527f45524331393637557067726164653a206e657720696d706c656d656e7461746960448201526d6f6e206973206e6f74205555505360901b6064820152608490fd5b999294989193959903610987576108488961187e565b8551927fbc7cd75a20ee27fd9adebab32041f755214dbc6bffa90cc0225b39da2e5c2d3b8980a283511580159061097f575b61088b575b50505050505050905080f35b883b156109315750505093809581926109109651915af43d1561091e57660819985a5b195960ca1b3d926108be84611312565b936108cb825195866112f0565b84523d878686013e5b7f416464726573733a206c6f772d6c6576656c2064656c65676174652063616c6c815195610901876112be565b6027875286015284015261190e565b50803880808080808061087f565b660819985a5b195960ca1b6060926108d4565b62461bcd60e51b835282018690526026908201527f416464726573733a2064656c65676174652063616c6c20746f206e6f6e2d636f6044820152651b9d1c9858dd60d21b6064820152608490fd5b50600161087a565b60296084928888519362461bcd60e51b85528401528201527f45524331393637557067726164653a20756e737570706f727465642070726f786044820152681a58589b195555525160ba1b6064820152fd5b9091508981813d8311610a05575b6109f181836112f0565b81010312610a01575190386107d4565b8680fd5b503d6109e7565b8580fd5b5050346101cc5760203660031901126101cc5760209160ff9082906001600160a01b03610a3b6111e6565b16815260008051602061196b833981519152855220541690519015158152f35b5090346101a35760203660031901126101a3576001600160a01b03610a7e6111e6565b1691610a8b83151561132e565b82845260008051602061196b833981519152908160205260ff8386205416610af35750610ab983331461137a565b8284526020528220805460ff191660011790557f1f7b76c58fb697eb53c6c7c1becb96911516a136e24d7ced386b2355358b75a38280a280f35b606490602084519162461bcd60e51b8352820152601860248201527f636f6d706c69616e636520616c726561647920626f756e6400000000000000006044820152fd5b50346101a357602080600319360112610e0c57610b516111e6565b926001600160a01b037f00000000000000000000000000000000000000000000000000000000000000008116610b89308214156117bc565b610ba660008051602061194b83398151915291838354161461181d565b610bae61171b565b8251908482019282841067ffffffffffffffff851117610df9578385528883527f4910fdfa16fed3260ed0e7147f7cc6da11a60208b5b9406d12a635614ffd91435460ff1615610c08575050505050505061014e9061187e565b879894959697169085516352d1902d60e01b815287818a81865afa869181610dca575b50610c8a57865162461bcd60e51b8152808a01899052602e60248201527f45524331393637557067726164653a206e657720696d706c656d656e7461746960448201526d6f6e206973206e6f74205555505360901b6064820152608490fd5b97919293949703610d7557610c9e8861187e565b8451917fbc7cd75a20ee27fd9adebab32041f755214dbc6bffa90cc0225b39da2e5c2d3b8880a2825115801590610d6e575b610ce0575b505050505050905080f35b873b15610d1f5750509380958192610d129651915af43d1561091e57660819985a5b195960ca1b3d926108be84611312565b5080388080808080610cd5565b62461bcd60e51b82528101859052602660248201527f416464726573733a2064656c65676174652063616c6c20746f206e6f6e2d636f6044820152651b9d1c9858dd60d21b6064820152608490fd5b5086610cd0565b845162461bcd60e51b8152908101869052602960248201527f45524331393637557067726164653a20756e737570706f727465642070726f786044820152681a58589b195555525160ba1b6064820152608490fd5b9091508881813d8311610df2575b610de281836112f0565b81010312610a0157519038610c2b565b503d610dd8565b634e487b7160e01b895260418752602489fd5b8380fd5b5050346101cc57806003193601126101cc57610e2a6111e6565b6024359061ffff8216809203610e0c576001600160a01b0316835260c960209081528284209184529081529181902054905160ff90911615158152f35b83346101c95760603660031901126101c957610e816111e6565b506101c0611201565b5090346101a357610e9a36611271565b909233855260209160008051602061196b833981519152835260ff91610ec48386892054166113d0565b60c3821015610f815750855b818110610edb578680f35b610f7c903388528260c9808752878a2089610efe6102608661ffff968794611532565b168b528752610f166001878a8d2054161515146114c8565b338a52865286892081610f2d61026085888d611532565b168a528652868920805460ff19169055610f4b61026083868b611532565b908751911681527ffb8bb575200aa114265a31c7d8ebeb4e395bd3cd9d0914c4bfa2a511d2011a7a863392a261150d565b610ed0565b845162461bcd60e51b8152908101849052602c60248201527f6d6178696d756d203139352063616e20626520756e726573747269637465642060448201526b0d2dc40dedcca40c4c2e8c6d60a31b6064820152608490fd5b509190346101cc57816003193601126101cc578051918183019083821067ffffffffffffffff83111761103e575061103a935081526015825274436f756e74727952657374726963744d6f64756c6560581b60208301525191829182611228565b0390f35b634e487b7160e01b815260418552602490fd5b5050346101cc5760203660031901126101cc5761106c6111e6565b9033835260008051602061196b833981519152918260205261109360ff83862054166113d0565b6001600160a01b0316916110a883151561132e565b6110b383331461137a565b8284526020528220805460ff191690557f408b49d9be1c914c52a0227e18a077e5a892dddf32a26cfa94a5d9708fad77188280a280f35b5050346101cc576020806003193601126101a3577f5e0addf626d7d7091ab7aebf34682c3203384648734760b24921e31ddcec0bb590611128611217565b9233855260008051602061196b833981519152825261114c60ff82872054166113d0565b33855260c9825261ffff818620941693848652825261117160ff82872054161561147c565b33855260c982528085208486528252808520600160ff19825416179055519283523392a280f35b5050346101cc5760803660031901126101cc576111b36111e6565b506111bc611201565b606435926001600160a01b03841684036101c957506020926111dd91611590565b90519015158152f35b600435906001600160a01b03821682036111fc57565b600080fd5b602435906001600160a01b03821682036111fc57565b6004359061ffff821682036111fc57565b6020808252825181830181905290939260005b82811061125d57505060409293506000838284010152601f8019910116010190565b81810186015184820160400152850161123b565b9060206003198301126111fc5760043567ffffffffffffffff928382116111fc57806023830112156111fc5781600401359384116111fc5760248460051b830101116111fc576024019190565b6060810190811067ffffffffffffffff8211176112da57604052565b634e487b7160e01b600052604160045260246000fd5b90601f8019910116810190811067ffffffffffffffff8211176112da57604052565b67ffffffffffffffff81116112da57601f01601f191660200190565b1561133557565b60405162461bcd60e51b815260206004820152601f60248201527f696e76616c696420617267756d656e74202d207a65726f2061646472657373006044820152606490fd5b1561138157565b60405162461bcd60e51b815260206004820152602160248201527f6f6e6c7920636f6d706c69616e636520636f6e74726163742063616e2063616c6044820152601b60fa1b6064820152608490fd5b156113d757565b60405162461bcd60e51b815260206004820152601e60248201527f6f6e6c7920626f756e6420636f6d706c69616e63652063616e2063616c6c00006044820152606490fd5b1561142357565b60405162461bcd60e51b815260206004820152602b60248201527f496e697469616c697a61626c653a20636f6e7472616374206973206e6f74206960448201526a6e697469616c697a696e6760a81b6064820152608490fd5b1561148357565b60405162461bcd60e51b815260206004820152601a60248201527f636f756e74727920616c726561647920726573747269637465640000000000006044820152606490fd5b156114cf57565b60405162461bcd60e51b815260206004820152601660248201527518dbdd5b9d1c9e481b9bdd081c995cdd1c9a58dd195960521b6044820152606490fd5b600019811461151c5760010190565b634e487b7160e01b600052601160045260246000fd5b91908110156115425760051b0190565b634e487b7160e01b600052603260045260246000fd5b3561ffff811681036111fc5790565b3360005260008051602061196b83398151915260205261158e60ff604060002054166113d0565b565b60408051630d47dbe560e31b81526001600160a01b0394939192918516916020918281600481875afa9081156116d25787929184916000916116dd575b5060048751809a81936304d3863d60e21b8352165afa9687156116d257600097611697575b508451637e42683b60e01b8152908216600482015295829187916024918391165afa91821561168c5760009261164f575b60ff94955060005260c9815261ffff83600020921660005252600020541661164a57600190565b600090565b91948181813d8311611685575b61166681836112f0565b81010312610a0c575161ffff81168103610a0c57939450849391611623565b503d61165c565b83513d6000823e3d90fd5b8381819993993d83116116cb575b6116af81836112f0565b810103126101cc57519082821682036101c957509560246115f2565b503d6116a5565b85513d6000823e3d90fd5b828193929495503d8311611714575b6116f681836112f0565b810103126101cc57519087821682036101c9575090828792386115cd565b503d6116ec565b6033546001600160a01b0316330361172f57565b606460405162461bcd60e51b815260206004820152602060248201527f4f776e61626c653a2063616c6c6572206973206e6f7420746865206f776e65726044820152fd5b603380546001600160a01b039283166001600160a01b0319821681179092559091167f8be0079c531659141344cd1fd0a4f28419497f9722a3daafe3b4186f6b6457e0600080a3565b156117c357565b60405162461bcd60e51b815260206004820152602c60248201527f46756e6374696f6e206d7573742062652063616c6c6564207468726f7567682060448201526b19195b1959d85d1958d85b1b60a21b6064820152608490fd5b1561182457565b60405162461bcd60e51b815260206004820152602c60248201527f46756e6374696f6e206d7573742062652063616c6c6564207468726f7567682060448201526b6163746976652070726f787960a01b6064820152608490fd5b803b156118b35760008051602061194b83398151915280546001600160a01b0319166001600160a01b03909216919091179055565b60405162461bcd60e51b815260206004820152602d60248201527f455243313936373a206e657720696d706c656d656e746174696f6e206973206e60448201526c1bdd08184818dbdb9d1c9858dd609a1b6064820152608490fd5b9091901561191a575090565b81511561192a5750805190602001fd5b60405162461bcd60e51b81529081906119469060048301611228565b0390fdfe360894a13ba1a3210667c828492db98dca3e2076cc3735a920a3ca505d382bbcf6cc97de1266c180cd39f3b311632644143ce7873d2927755382ad4b39e8ae00a2646970667358221220edac0395060dfb97d7e019decc96c62f90e47c9b82c247ac5c8ae635e0294b7664736f6c63430008110033","linkReferences":{}},"methodIdentifiers":{"addCountryRestriction(uint16)":"0333ce24","batchRestrictCountries(uint16[])":"bdf9a07e","batchUnrestrictCountries(uint16[])":"249c981d","bindCompliance(address)":"4a932544","canComplianceBind(address)":"bcc21053","initialize()":"8129fc1c","isComplianceBound(address)":"4cf4d295","isCountryRestricted(address,uint16)":"30236f4a","isPlugAndPlay()":"e6f5e807","moduleBurnAction(address,uint256)":"372491a2","moduleCheck(address,address,uint256,address)":"013b7ce4","moduleMintAction(address,uint256)":"f104a8c9","moduleTransferAction(address,address,uint256)":"2cb7e1ec","name()":"06fdde03","owner()":"8da5cb5b","proxiableUUID()":"52d1902d","removeCountryRestriction(uint16)":"6aae7b26","renounceOwnership()":"715018a6","transferOwnership(address)":"f2fde38b","unbindCompliance(address)":"0694a5fb","upgradeTo(address)":"3659cfe6","upgradeToAndCall(address,bytes)":"4f1ef286"},"id":15}