{"abi":[{"type":"function","name":"FEE_DENOMINATOR","inputs":[],"outputs":[{"name":"","type":"uint16","internalType":"uint16"}],"stateMutability":"view"},{"type":"function","name":"factory","inputs":[],"outputs":[{"name":"","type":"address","internalType":"address"}],"stateMutability":"view"},{"type":"function","name":"fundName","inputs":[],"outputs":[{"name":"","type":"string","internalType":"string"}],"stateMutability":"view"},{"type":"function","name":"offChainPrice","inputs":[],"outputs":[{"name":"","type":"bool","internalType":"bool"}],"stateMutability":"view"},{"type":"function","name":"token","inputs":[],"outputs":[{"name":"","type":"address","internalType":"address"}],"stateMutability":"view"},{"type":"function","name":"tokenPrice","inputs":[],"outputs":[{"name":"","type":"uint256","internalType":"uint256"}],"stateMutability":"view"}],"bytecode":{"object":"0x60808060405234610016576102b4908161001c8239f35b600080fdfe60806040818152600436101561001457600080fd5b600091823560e01c9081636b1475291461025a575080637ff9b5961461023c5780639ce1413b146100d9578063c45a0155146100b1578063d73792a91461008f5763fc0c546a1461006457600080fd5b3461008b578160031936011261008b5760025490516001600160a01b039091168152602090f35b5080fd5b503461008b578160031936011261008b5760209061ffff600b54169051908152f35b503461008b578160031936011261008b5760035490516001600160a01b039091168152602090f35b503461008b578160031936011261008b57805190829183549360019385851c94808716968715610232575b602097888810811461021e5787865288929181156101ff57506001146101aa575b505082939450601f801994859203011682019482861067ffffffffffffffff8711176101965785929391838652818452845191828186015281955b83871061017e5750508394508582601f949501015201168101030190f35b86810182015189880189015295810195889550610160565b634e487b7160e01b82526041600452602482fd5b83805290915082907f290decd9548b62a8d60345a988386fc84ba6bc95484008f6362f93160ef3e5635b8783106101ec57509495508594508301018538610125565b80548684018501529183019181016101d4565b60ff191683870152509495869550151560051b84010190508538610125565b634e487b7160e01b85526022600452602485fd5b95607f1695610104565b503461008b578160031936011261008b57602090600a549051908152f35b83903461008b578160031936011261008b5760209060ff600b5460101c1615158152f3fea264697066735822122099dc652d4da67499e5239ae61417a7305671fbd863b9f2e4fe18a419ac7e7a3c64736f6c63430008110033","linkReferences":{}},"methodIdentifiers":{"FEE_DENOMINATOR()":"d73792a9","factory()":"c45a0155","fundName()":"9ce1413b","offChainPrice()":"6b147529","token()":"fc0c546a","tokenPrice()":"7ff9b596"},"id":33}