{"abi":[{"type":"function","name":"FEE_DENOMINATOR","inputs":[],"outputs":[{"name":"","type":"uint16","internalType":"uint16"}],"stateMutability":"view"},{"type":"function","name":"NAVLatestPrice","inputs":[],"outputs":[{"name":"","type":"uint256","internalType":"uint256"}],"stateMutability":"view"},{"type":"function","name":"NAVLaunchPrice","inputs":[],"outputs":[{"name":"","type":"uint256","internalType":"uint256"}],"stateMutability":"view"},{"type":"function","name":"cusip","inputs":[],"outputs":[{"name":"","type":"string","internalType":"string"}],"stateMutability":"view"},{"type":"function","name":"factory","inputs":[],"outputs":[{"name":"","type":"address","internalType":"address"}],"stateMutability":"view"},{"type":"function","name":"fundName","inputs":[],"outputs":[{"name":"","type":"string","internalType":"string"}],"stateMutability":"view"},{"type":"function","name":"maxInvestment","inputs":[],"outputs":[{"name":"","type":"uint256","internalType":"uint256"}],"stateMutability":"view"},{"type":"function","name":"minInvestment","inputs":[],"outputs":[{"name":"","type":"uint256","internalType":"uint256"}],"stateMutability":"view"},{"type":"function","name":"offChainPrice","inputs":[],"outputs":[{"name":"","type":"bool","internalType":"bool"}],"stateMutability":"view"},{"type":"function","name":"projectedYield","inputs":[],"outputs":[{"name":"","type":"uint256","internalType":"uint256"}],"stateMutability":"view"},{"type":"function","name":"propertyType","inputs":[],"outputs":[{"name":"","type":"uint256","internalType":"uint256"}],"stateMutability":"view"},{"type":"function","name":"token","inputs":[],"outputs":[{"name":"","type":"address","internalType":"address"}],"stateMutability":"view"},{"type":"function","name":"tokenPrice","inputs":[],"outputs":[{"name":"","type":"uint256","internalType":"uint256"}],"stateMutability":"view"}],"bytecode":{"object":"0x60808060405234610016576104a0908161001c8239f35b600080fdfe608060408181526004918236101561001657600080fd5b600092833560e01c9182622e131614610405575081636b147529146103de5781637ff9b596146103bf5781638ac2c680146103a05781639ce1413b146102c8578163ac78c0e5146102a6578163b447989814610287578163c45a01551461025e578163d14f04ee1461023f578163d73792a91461021c578163ebb20010146100fc57508063fc0c546a146100d45763fd724fd9146100b357600080fd5b346100d057816003193601126100d0576020906005549051908152f35b5080fd5b50346100d057816003193601126100d05760025490516001600160a01b039091168152602090f35b8383346100d057816003193601126100d05780519082600180549081811c90808316928315610212575b60209384841081146101ff578388529081156101e3575060011461018e575b505050829003601f01601f191682019267ffffffffffffffff84118385101761017b5750829182610177925282610421565b0390f35b634e487b7160e01b815260418552602490fd5b8087529192508591837fb10e2d527612073b26eecdfd717e6a320cf44b4afac2b0732d9fcbe2b7fa0cf65b8385106101cf5750505050830101858080610145565b8054888601830152930192849082016101b9565b60ff1916878501525050151560051b8401019050858080610145565b634e487b7160e01b895260228a52602489fd5b91607f1691610126565b5050346100d057816003193601126100d05760209061ffff600b54169051908152f35b5050346100d057816003193601126100d0576020906007549051908152f35b5050346100d057816003193601126100d05760035490516001600160a01b039091168152602090f35b5050346100d057816003193601126100d0576020906006549051908152f35b9050346102c457826003193601126102c45760209250549051908152f35b8280fd5b8383346100d057816003193601126100d057805190828354600181811c90808316928315610396575b60209384841081146101ff578388529081156101e3575060011461034157505050829003601f01601f191682019267ffffffffffffffff84118385101761017b5750829182610177925282610421565b8680529192508591837f290decd9548b62a8d60345a988386fc84ba6bc95484008f6362f93160ef3e5635b8385106103825750505050830101858080610145565b80548886018301529301928490820161036c565b91607f16916102f1565b5050346100d057816003193601126100d0576020906008549051908152f35b5050346100d057816003193601126100d057602090600a549051908152f35b5050346100d057816003193601126100d05760209060ff600b5460101c1690519015158152f35b8490346100d057816003193601126100d0576020906009548152f35b6020808252825181830181905290939260005b82811061045657505060409293506000838284010152601f8019910116010190565b81810186015184820160400152850161043456fea2646970667358221220ace7d561aa0f83c2e2482c4d2146a5295875a6f4682371f531f2678ad9a38ae364736f6c63430008110033","linkReferences":{}},"methodIdentifiers":{"FEE_DENOMINATOR()":"d73792a9","NAVLatestPrice()":"d14f04ee","NAVLaunchPrice()":"fd724fd9","cusip()":"ebb20010","factory()":"c45a0155","fundName()":"9ce1413b","maxInvestment()":"002e1316","minInvestment()":"8ac2c680","offChainPrice()":"6b147529","projectedYield()":"b4479898","propertyType()":"ac78c0e5","token()":"fc0c546a","tokenPrice()":"7ff9b596"},"id":35}