{"abi":[{"type":"function","name":"FEE_DENOMINATOR","inputs":[],"outputs":[{"name":"","type":"uint16","internalType":"uint16"}],"stateMutability":"view"},{"type":"function","name":"NAVLatestPrice","inputs":[],"outputs":[{"name":"","type":"uint256","internalType":"uint256"}],"stateMutability":"view"},{"type":"function","name":"NAVLaunchPrice","inputs":[],"outputs":[{"name":"","type":"uint256","internalType":"uint256"}],"stateMutability":"view"},{"type":"function","name":"cusip","inputs":[],"outputs":[{"name":"","type":"string","internalType":"string"}],"stateMutability":"view"},{"type":"function","name":"factory","inputs":[],"outputs":[{"name":"","type":"address","internalType":"address"}],"stateMutability":"view"},{"type":"function","name":"fundName","inputs":[],"outputs":[{"name":"","type":"string","internalType":"string"}],"stateMutability":"view"},{"type":"function","name":"getDividendStatus","inputs":[{"name":"_id","type":"string","internalType":"string"}],"outputs":[{"name":"","type":"bool","internalType":"bool"}],"stateMutability":"view"},{"type":"function","name":"getNAV","inputs":[],"outputs":[{"name":"","type":"uint256","internalType":"uint256"}],"stateMutability":"view"},{"type":"function","name":"getOffChainPrice","inputs":[],"outputs":[{"name":"","type":"uint256","internalType":"uint256"}],"stateMutability":"view"},{"type":"function","name":"getOffChainPriceStatus","inputs":[],"outputs":[{"name":"","type":"bool","internalType":"bool"}],"stateMutability":"view"},{"type":"function","name":"getToken","inputs":[],"outputs":[{"name":"","type":"address","internalType":"address"}],"stateMutability":"view"},{"type":"function","name":"init","inputs":[{"name":"_token","type":"address","internalType":"address"},{"name":"_data","type":"bytes","internalType":"bytes"}],"outputs":[],"stateMutability":"nonpayable"},{"type":"function","name":"maxInvestment","inputs":[],"outputs":[{"name":"","type":"uint256","internalType":"uint256"}],"stateMutability":"view"},{"type":"function","name":"minInvestment","inputs":[],"outputs":[{"name":"","type":"uint256","internalType":"uint256"}],"stateMutability":"view"},{"type":"function","name":"offChainPrice","inputs":[],"outputs":[{"name":"","type":"bool","internalType":"bool"}],"stateMutability":"view"},{"type":"function","name":"projectedYield","inputs":[],"outputs":[{"name":"","type":"uint256","internalType":"uint256"}],"stateMutability":"view"},{"type":"function","name":"propertyType","inputs":[],"outputs":[{"name":"","type":"uint256","internalType":"uint256"}],"stateMutability":"view"},{"type":"function","name":"setAssetPriceOffChain","inputs":[{"name":"_newPrice","type":"uint256","internalType":"uint256"}],"outputs":[],"stateMutability":"nonpayable"},{"type":"function","name":"setMaxInvestment","inputs":[{"name":"_newMaxInvestment","type":"uint256","internalType":"uint256"},{"name":"actionID","type":"string","internalType":"string"}],"outputs":[],"stateMutability":"nonpayable"},{"type":"function","name":"setMinInvestment","inputs":[{"name":"_newMinInvestment","type":"uint256","internalType":"uint256"},{"name":"actionID","type":"string","internalType":"string"}],"outputs":[],"stateMutability":"nonpayable"},{"type":"function","name":"setNAV","inputs":[{"name":"_latestNAV","type":"uint256","internalType":"uint256"},{"name":"actionID","type":"string","internalType":"string"}],"outputs":[{"name":"","type":"bool","internalType":"bool"}],"stateMutability":"nonpayable"},{"type":"function","name":"setOffChainPrice","inputs":[{"name":"_status","type":"bool","internalType":"bool"}],"outputs":[],"stateMutability":"nonpayable"},{"type":"function","name":"setProjectedYield","inputs":[{"name":"_newProjectedYield","type":"uint256","internalType":"uint256"},{"name":"actionID","type":"string","internalType":"string"}],"outputs":[],"stateMutability":"nonpayable"},{"type":"function","name":"shareDividend","inputs":[{"name":"_address","type":"address","internalType":"address"},{"name":"_dividend","type":"uint256","internalType":"uint256"},{"name":"_userIds","type":"string","internalType":"string"},{"name":"_dividendIds","type":"string","internalType":"string"},{"name":"stableCoin_","type":"address","internalType":"address"},{"name":"_agent","type":"address","internalType":"address"}],"outputs":[],"stateMutability":"nonpayable"},{"type":"function","name":"token","inputs":[],"outputs":[{"name":"","type":"address","internalType":"address"}],"stateMutability":"view"},{"type":"function","name":"tokenPrice","inputs":[],"outputs":[{"name":"","type":"uint256","internalType":"uint256"}],"stateMutability":"view"},{"type":"event","name":"AssetPriceOffChainUpdated","inputs":[{"name":"_newPrice","type":"uint256","indexed":false,"internalType":"uint256"}],"anonymous":false},{"type":"event","name":"DividendDistributed","inputs":[{"name":"investor","type":"address","indexed":false,"internalType":"address"},{"name":"amount","type":"uint256","indexed":false,"internalType":"uint256"},{"name":"taxAmount","type":"uint256","indexed":false,"internalType":"uint256"},{"name":"_userID","type":"string","indexed":false,"internalType":"string"},{"name":"_dividendID","type":"string","indexed":false,"internalType":"string"}],"anonymous":false},{"type":"event","name":"Initialized","inputs":[{"name":"version","type":"uint8","indexed":false,"internalType":"uint8"}],"anonymous":false},{"type":"event","name":"MaximumInvestmentUpdated","inputs":[{"name":"newMaximumInvestment","type":"uint256","indexed":false,"internalType":"uint256"},{"name":"actionID","type":"string","indexed":false,"internalType":"string"}],"anonymous":false},{"type":"event","name":"MinimumInvestmentUpdated","inputs":[{"name":"newMinimumInvestment","type":"uint256","indexed":false,"internalType":"uint256"},{"name":"actionID","type":"string","indexed":false,"internalType":"string"}],"anonymous":false},{"type":"event","name":"NAVUpdated","inputs":[{"name":"latestNAV","type":"uint256","indexed":false,"internalType":"uint256"},{"name":"actionID","type":"string","indexed":false,"internalType":"string"}],"anonymous":false},{"type":"event","name":"OffChainPriceUpdated","inputs":[{"name":"status","type":"bool","indexed":false,"internalType":"bool"}],"anonymous":false},{"type":"event","name":"ProjectedYieldUpdated","inputs":[{"name":"newProjectedYield","type":"uint256","indexed":false,"internalType":"uint256"},{"name":"actionID","type":"string","indexed":false,"internalType":"string"}],"anonymous":false}],"bytecode":{"object":"0x6080806040523461001657611475908161001c8239f35b600080fdfe60808060405260048036101561001457600080fd5b60003560e01c9182622e131614611083575081630126c606146103775781631bd965ef14610ffc57816321df0da71461016157816326b4ab3c14610f6b57816367ee7ff614610ecc5781636b147529146103515781637ff9b59614610eae578163891fe28d14610eae5781638ac2c68014610e90578163971f374114610dff5781639834716814610dab5781639ce1413b14610d08578163ac78c0e514610cea578163b447989814610ccc578163c0d91eaf14610781578163c45a01551461075a578163cc8eb62314610452578163cdd294d614610395578163d14f04ee14610377578163d472e80214610351578163d73792a91461032f578163ebb200101461025b578163faeae1c41461018a57508063fc0c546a146101615763fd724fd91461013e57600080fd5b3461015c57600036600319011261015c576020600654604051908152f35b600080fd5b3461015c57600036600319011261015c576003546040516001600160a01b039091168152602090f35b3461015c5761019836611127565b90602060018060a01b0360035416936024604051809681936307feec1960e21b835233908301525afa92831561024f577f6cce472cb8a9c77e2f0aab66e6bb533621715b9a5bb5f69acb00768230c8c613936101fc91600091610221575b50611289565b8060095561021c60405192839283526040602084015260408301906111f4565b0390a1005b610242915060203d8111610248575b61023a818361109e565b810190611271565b856101f6565b503d610230565b6040513d6000823e3d90fd5b3461015c57600036600319011261015c57604051600060025461027d81611197565b8084529060019081811690811561030857506001146102bf575b6102bb846102a78186038261109e565b6040519182916020835260208301906111f4565b0390f35b6002600090815292506000805160206114208339815191525b8284106102f05750505081016020016102a782610297565b805460208587018101919091529093019281016102d8565b60ff191660208087019190915292151560051b850190920192506102a79150839050610297565b3461015c57600036600319011261015c57602061ffff600c5416604051908152f35b3461015c57600036600319011261015c57602060ff600c5460101c166040519015158152f35b3461015c57600036600319011261015c576020600854604051908152f35b3461015c57602036600319011261015c57803580151580910361015c576003546040516307feec1960e21b81523393810193909352602090839060249082906001600160a01b03165afa90811561024f5761041b6020927fd7c9449f880e774eb2f5ef1d825f3542d1ddfccc01be3c77b71afce892d310da9460009161043b5750611289565b600c5462ff00008260101b169062ff0000191617600c55604051908152a1005b6102429150843d81116102485761023a818361109e565b3461015c5760c036600319011261015c5761046b611219565b6001600160401b03919060443583811161015c5761048c903690840161116a565b909360643590811161015c576104a5903690850161116a565b946001600160a01b039491929091608435868116810361015c5760a43590878216820361015c578760035416604051926307feec1960e21b8452338585015260209260249484818781875afa801561024f576105089160009161073d5750611289565b60405160ff9085818f808e83378101600d81520301902054166106fa578a8654169460405193630a2a6a7960e21b85528785015284848281895afa95861561024f5787946000976106b9575b50859060405195868092637feade7b60e11b82525afa93841561024f57600094610681575b5061ffff80961681359681880291888304148815171561066d57600c54169081156106595704968787039687116106465750509261061686610638979487947f84d50398841ab4b971dfa0d5f7611bb447e264a8711931b774a4cb3e77c901f39f9a976106118f9a61021c9f9e9b8f8f908a908260405193849283378101600d815203019020600160ff1982541617905584846112f6565b6112f6565b6040519a8b9a168a52890152604088015260a0606088015260a08701916112d5565b9184830360808601526112d5565b601190634e487b7160e01b600052526000fd5b8260128a634e487b7160e01b600052526000fd5b8260118a634e487b7160e01b600052526000fd5b9093508481813d83116106b2575b610699818361109e565b8101031261015c57518b8116810361015c57928d610579565b503d61068f565b8680929850819396503d83116106f3575b6106d4818361109e565b8101031261015c57519261ffff8416840361015c578487949690610554565b503d6106ca565b60405162461bcd60e51b8152808701859052601c818701527f4469766964656e6420416c7265616479204469737472696275746564000000006044820152606490fd5b6107549150863d88116102485761023a818361109e565b8e6101f6565b3461015c57600036600319011261015c57546040516001600160a01b039091168152602090f35b3461015c57604036600319011261015c5761079a611219565b906024356001600160401b03811161015c573660238201121561015c576107ca90369060248185013591016110f0565b906000549260ff8460081c161593848095610cbf575b8015610ca8575b15610c4d57829160009186600160ff198316178455610c3c575b5082546001600160a01b031990811633178455600380549091166001600160a01b0390921691821790556040516306fdde0360e01b815293849182905afa91821561024f57600092610bfc575b5081516001600160401b038111610be7578061086b600154611197565b93601f94858111610b79575b50602090858311600114610af357600092610ae8575b50508160011b916000199060031b1c1916176001555b825183019160808484031261015c57602084015191604085015191606086019485516001600160401b03811161015c576020806108e493019189010161122f565b60808701516007558051926001600160401b038411610ad3575090829161090c600254611197565b828111610a5a575b5060209183116001146109e6576000926109db575b50508160011b916000199060031b1c1916176002555b600655600555815182019060e08383031261015c57516001600160401b03811161015c5760208061097493019184010161122f565b5060a08101519060e060c0820151910151600a5560095560085561271061ffff19600c541617600c556109a357005b61ff0019600054166000557f7f26b83ff96e1f2b6a682f133852f6798a09c465da95921460cefb3847402498602060405160018152a1005b015190508780610929565b600260009081526000805160206114208339815191529350601f198516905b818110610a425750908460019594939210610a29575b505050811b0160025561093f565b015160001960f88460031b161c19169055878080610a1b565b92936020600181928786015181550195019301610a05565b9091925060026000528280850160051c600080516020611420833981519152019160208610610abd575b938594939291930160051c60008051602061142083398151915201905b818110610aae5750610914565b60008155859450600101610aa1565b6000805160206114208339815191529250610a84565b604190634e487b7160e01b6000525260246000fd5b01519050868061088d565b600160009081527fb10e2d527612073b26eecdfd717e6a320cf44b4afac2b0732d9fcbe2b7fa0cf69350601f198516905b818110610b615750908460019594939210610b48575b505050811b016001556108a3565b015160001960f88460031b161c19169055868080610b3a565b92936020600181928786015181550195019301610b24565b90915060016000527fb10e2d527612073b26eecdfd717e6a320cf44b4afac2b0732d9fcbe2b7fa0cf68580850160051c82019260208610610bde575b9085949392910160051c01905b818110610bcf5750610877565b60008155849350600101610bc2565b92508192610bb5565b604182634e487b7160e01b6000525260246000fd5b9091503d806000833e610c0f818361109e565b810160208282031261015c5781516001600160401b03811161015c57610c35920161122f565b908461084e565b61ffff191661010117825586610801565b60405162461bcd60e51b8152602081850152602e60248201527f496e697469616c697a61626c653a20636f6e747261637420697320616c72656160448201526d191e481a5b9a5d1a585b1a5e995960921b6064820152608490fd5b50303b1580156107e75750600160ff8216146107e7565b50600160ff8216106107e0565b3461015c57600036600319011261015c576020600754604051908152f35b3461015c57600036600319011261015c576020600554604051908152f35b3461015c57600036600319011261015c5760405160006001805490610d2c82611197565b808552918181169081156103085750600114610d52576102bb846102a78186038261109e565b600081815292507fb10e2d527612073b26eecdfd717e6a320cf44b4afac2b0732d9fcbe2b7fa0cf65b828410610d935750505081016020016102a782610297565b80546020858701810191909152909301928101610d7b565b3461015c57602036600319011261015c5780356001600160401b03811161015c576020610dde819360ff9336910161116a565b91908260405193849283378101600d81520301902054166040519015158152f35b3461015c57610e0d36611127565b90602060018060a01b0360035416936024604051809681936307feec1960e21b835233908301525afa92831561024f577ff0c3ec94966c67d1194b3ff4be282eba5af134cb0d499e450ff487da8d62ddf393610e70916000916102215750611289565b8060075561021c60405192839283526040602084015260408301906111f4565b3461015c57600036600319011261015c576020600954604051908152f35b3461015c57600036600319011261015c576020600b54604051908152f35b3461015c57610eda36611127565b90602060018060a01b0360035416936024604051809681936307feec1960e21b835233908301525afa92831561024f577fc0d908f32da38447db047ba0a87d00f528e00272f3a8cb60ef1ea6e8a6261df693610f3d916000916102215750611289565b80600855610f5d60405192839283526040602084015260408301906111f4565b0390a1602060405160018152f35b3461015c57610f7936611127565b90602060018060a01b0360035416936024604051809681936307feec1960e21b835233908301525afa92831561024f577fc53deb6e776e81b7e90461c10a8760881c1ebd7dc9563e0b6532f1c4ebded1e593610fdc916000916102215750611289565b80600a5561021c60405192839283526040602084015260408301906111f4565b3461015c57602036600319011261015c576003546040516307feec1960e21b81523381840152913590602090839060249082906001600160a01b03165afa90811561024f576110766020927fdb2999671c2418101e4be3a35df3271b2d1d365fda0bad2e099872cd55849e849460009161043b5750611289565b80600b55604051908152a1005b3461015c57600036600319011261015c57602090600a548152f35b90601f801991011681019081106001600160401b038211176110bf57604052565b634e487b7160e01b600052604160045260246000fd5b6001600160401b0381116110bf57601f01601f191660200190565b9291926110fc826110d5565b9161110a604051938461109e565b82948184528183011161015c578281602093846000960137010152565b90604060031983011261015c5760043591602435906001600160401b03821161015c578060238301121561015c57816024611167936004013591016110f0565b90565b9181601f8401121561015c578235916001600160401b03831161015c576020838186019501011161015c57565b90600182811c921680156111c7575b60208310146111b157565b634e487b7160e01b600052602260045260246000fd5b91607f16916111a6565b60005b8381106111e45750506000910152565b81810151838201526020016111d4565b9060209161120d815180928185528580860191016111d1565b601f01601f1916010190565b600435906001600160a01b038216820361015c57565b81601f8201121561015c578051611245816110d5565b92611253604051948561109e565b8184526020828401011161015c5761116791602080850191016111d1565b9081602091031261015c5751801515810361015c5790565b1561129057565b60405162461bcd60e51b815260206004820152601960248201527f4f6e6c7920546f6b656e204167656e742063616e2063616c6c000000000000006044820152606490fd5b908060209392818452848401376000828201840152601f01601f1916010190565b6040516323b872dd60e01b602082019081526001600160a01b03938416602483015292909316604484015260648084019490945292825260a0820192906001600160401b038411838510176110bf576000809493819460405251925af13d15611418573d611363816110d5565b90611371604051928361109e565b81523d6000602083013e5b816113e9575b501561138a57565b60405162461bcd60e51b815260206004820152603160248201527f5472616e7366657248656c7065723a3a7472616e7366657246726f6d3a207472604482015270185b9cd9995c919c9bdb4819985a5b1959607a1b6064820152608490fd5b80518015925082156113fe575b505038611382565b6114119250602080918301019101611271565b38806113f6565b606061137c56fe405787fa12a823e0f2b7631cc41b3ba8828b3321ca811111fa75cd3aa3bb5acea2646970667358221220db74caf5dbc86a0bab507e4358e8e612d87b575856a0adcd38db57b979a9000d64736f6c63430008110033","linkReferences":{}},"methodIdentifiers":{"FEE_DENOMINATOR()":"d73792a9","NAVLatestPrice()":"d14f04ee","NAVLaunchPrice()":"fd724fd9","cusip()":"ebb20010","factory()":"c45a0155","fundName()":"9ce1413b","getDividendStatus(string)":"98347168","getNAV()":"0126c606","getOffChainPrice()":"891fe28d","getOffChainPriceStatus()":"d472e802","getToken()":"21df0da7","init(address,bytes)":"c0d91eaf","maxInvestment()":"002e1316","minInvestment()":"8ac2c680","offChainPrice()":"6b147529","projectedYield()":"b4479898","propertyType()":"ac78c0e5","setAssetPriceOffChain(uint256)":"1bd965ef","setMaxInvestment(uint256,string)":"26b4ab3c","setMinInvestment(uint256,string)":"faeae1c4","setNAV(uint256,string)":"67ee7ff6","setOffChainPrice(bool)":"cdd294d6","setProjectedYield(uint256,string)":"971f3741","shareDividend(address,uint256,string,string,address,address)":"cc8eb623","token()":"fc0c546a","tokenPrice()":"7ff9b596"},"id":34}