{"abi":[{"type":"function","name":"createEquityConfig","inputs":[{"name":"_token","type":"address","internalType":"address"},{"name":"_data","type":"bytes","internalType":"bytes"},{"name":"_totalTokenSupply","type":"uint256","internalType":"uint256"},{"name":"mappingValue","type":"string","internalType":"string"}],"outputs":[],"stateMutability":"nonpayable"},{"type":"function","name":"createFund","inputs":[{"name":"_token","type":"address","internalType":"address"},{"name":"_data","type":"bytes","internalType":"bytes"},{"name":"_totalTokenSupply","type":"uint256","internalType":"uint256"},{"name":"mappingValue","type":"string","internalType":"string"}],"outputs":[],"stateMutability":"nonpayable"},{"type":"function","name":"getAdminWallet","inputs":[],"outputs":[{"name":"","type":"address","internalType":"address"}],"stateMutability":"view"},{"type":"function","name":"getAssetType","inputs":[{"name":"_token","type":"address","internalType":"address"}],"outputs":[{"name":"","type":"uint8","internalType":"uint8"}],"stateMutability":"view"},{"type":"function","name":"getDividendFee","inputs":[{"name":"_token","type":"address","internalType":"address"}],"outputs":[{"name":"","type":"uint16","internalType":"uint16"}],"stateMutability":"view"},{"type":"function","name":"getEscrowFee","inputs":[{"name":"_token","type":"address","internalType":"address"}],"outputs":[{"name":"","type":"uint16","internalType":"uint16"}],"stateMutability":"view"},{"type":"function","name":"getFund","inputs":[{"name":"_token","type":"address","internalType":"address"}],"outputs":[{"name":"","type":"address","internalType":"address"}],"stateMutability":"view"},{"type":"function","name":"getMasterFactory","inputs":[],"outputs":[{"name":"","type":"address","internalType":"address"}],"stateMutability":"view"},{"type":"function","name":"getRedemptionFee","inputs":[{"name":"_token","type":"address","internalType":"address"}],"outputs":[{"name":"","type":"uint16","internalType":"uint16"}],"stateMutability":"view"},{"type":"function","name":"getTokenTotalSupply","inputs":[{"name":"_token","type":"address","internalType":"address"}],"outputs":[{"name":"","type":"uint256","internalType":"uint256"}],"stateMutability":"view"},{"type":"function","name":"getWrapFee","inputs":[{"name":"_token","type":"address","internalType":"address"}],"outputs":[{"name":"","type":"uint16","internalType":"uint16"}],"stateMutability":"view"},{"type":"function","name":"implEquityConfig","inputs":[],"outputs":[{"name":"","type":"address","internalType":"address"}],"stateMutability":"view"},{"type":"function","name":"implFund","inputs":[],"outputs":[{"name":"","type":"address","internalType":"address"}],"stateMutability":"view"},{"type":"function","name":"init","inputs":[{"name":"_factory","type":"address","internalType":"address"}],"outputs":[],"stateMutability":"nonpayable"},{"type":"function","name":"masterFactory","inputs":[],"outputs":[{"name":"","type":"address","internalType":"address"}],"stateMutability":"view"},{"type":"function","name":"setAdminWallet","inputs":[{"name":"_newWallet","type":"address","internalType":"address"},{"name":"_actionID","type":"string","internalType":"string"}],"outputs":[],"stateMutability":"nonpayable"},{"type":"function","name":"setFee","inputs":[{"name":"_token","type":"address","internalType":"address"},{"name":"_escrowFee","type":"uint16","internalType":"uint16"},{"name":"_wrapFee","type":"uint16","internalType":"uint16"},{"name":"_dividendFee","type":"uint16","internalType":"uint16"},{"name":"_redemptionFee","type":"uint16","internalType":"uint16"},{"name":"actionID","type":"string","internalType":"string"}],"outputs":[],"stateMutability":"nonpayable"},{"type":"function","name":"setImpl","inputs":[{"name":"_implFund","type":"address","internalType":"address"},{"name":"_implEquityConfig","type":"address","internalType":"address"}],"outputs":[],"stateMutability":"nonpayable"},{"type":"function","name":"setMasterFactory","inputs":[{"name":"factory_","type":"address","internalType":"address"}],"outputs":[],"stateMutability":"nonpayable"},{"type":"event","name":"AdminFeeUpdated","inputs":[{"name":"token","type":"address","indexed":false,"internalType":"address"},{"name":"escrowFee","type":"uint16","indexed":false,"internalType":"uint16"},{"name":"wrapFee","type":"uint16","indexed":false,"internalType":"uint16"},{"name":"dividendFee","type":"uint16","indexed":false,"internalType":"uint16"},{"name":"redemptionFee","type":"uint16","indexed":false,"internalType":"uint16"},{"name":"id","type":"string","indexed":false,"internalType":"string"},{"name":"timeStamp","type":"uint256","indexed":false,"internalType":"uint256"}],"anonymous":false},{"type":"event","name":"AdminWalletUpdated","inputs":[{"name":"newAdminWallet","type":"address","indexed":false,"internalType":"address"},{"name":"id","type":"string","indexed":false,"internalType":"string"},{"name":"timeStamp","type":"uint256","indexed":false,"internalType":"uint256"}],"anonymous":false},{"type":"event","name":"EquityConfigCreated","inputs":[{"name":"_EquityConfigProxy","type":"address","indexed":false,"internalType":"address"},{"name":"mappingValue","type":"string","indexed":false,"internalType":"string"}],"anonymous":false},{"type":"event","name":"FundCreated","inputs":[{"name":"_FundProxy","type":"address","indexed":false,"internalType":"address"},{"name":"mappingValue","type":"string","indexed":false,"internalType":"string"}],"anonymous":false},{"type":"event","name":"ImplementationsUpdated","inputs":[{"name":"FundImplementation","type":"address","indexed":false,"internalType":"address"},{"name":"EquityConfigImplementation","type":"address","indexed":false,"internalType":"address"}],"anonymous":false},{"type":"event","name":"Initialized","inputs":[{"name":"version","type":"uint8","indexed":false,"internalType":"uint8"}],"anonymous":false},{"type":"event","name":"MasterFactoryUpdated","inputs":[{"name":"MasterFactory","type":"address","indexed":false,"internalType":"address"}],"anonymous":false},{"type":"event","name":"Whitelisted","inputs":[{"name":"UserAddress","type":"address","indexed":false,"internalType":"address"},{"name":"OfferingAddress","type":"address","indexed":false,"internalType":"address"},{"name":"salt","type":"string","indexed":false,"internalType":"string"}],"anonymous":false},{"type":"error","name":"FeeOutOfBound","inputs":[]}],"bytecode":{"object":"0x6080806040523461001657611ed5908161001c8239f35b600080fdfe608080604052600436101561001357600080fd5b600090813560e01c908163032c49ed14610dc05750806319ab453c14610c7a57806328a9a9e414610c3b5780632d1b38e9146109b057806334376167146107ef57806342be9116146105c3578063573712791461059a578063577fbe7f1461031357806364fa30701461055d5780637354e257146104a257806376afc5311461046257806379674b7a146104395780638df207311461037c578063a328c3de1461033c578063a77876c014610313578063b37bdb05146102da578063b42c1d401461029e578063d31ea6531461011d5763ffd5bcf6146100f257600080fd5b3461011a578060031936011261011a576008546040516001600160a01b039091168152602090f35b80fd5b503461011a57604036600319011261011a57610137610dfe565b60243567ffffffffffffffff9182821161029a573660238301121561029a57816004013592831161029a57366024848401011161029a57600554604051638da5cb5b60e01b81526001600160a01b0392916020908290600490829087165afa801561028f576101b1918791610261575b5083163314610f6b565b1691821561022d57826080917f1f3511d9ea16534727cbef66a0ab8868b37b55724504637aacb1ad7896622d12946001600160601b0360a01b600854161760085580602460405195869485526060602086015282606086015201848401378181018301869052426040830152601f01601f19168101030190a180f35b60405162461bcd60e51b815260206004820152600c60248201526b5a65726f204164647265737360a01b6044820152606490fd5b610282915060203d8111610288575b61027a8183610e4b565b810190610f4c565b386101a7565b503d610270565b6040513d88823e3d90fd5b8380fd5b503461011a57602036600319011261011a576020906001600160a01b0390604090826102c8610dfe565b16815260018452205416604051908152f35b503461011a57602036600319011261011a576020906040906001600160a01b03610302610dfe565b168152600383522054604051908152f35b503461011a578060031936011261011a576005546040516001600160a01b039091168152602090f35b503461011a57602036600319011261011a5760209061ffff906040906001600160a01b03610368610dfe565b168152808452205460101c16604051908152f35b503461011a57602036600319011261011a57610396610dfe565b600554604051638da5cb5b60e01b815291906001600160a01b036020846004818486165afa92831561042e576103fa6020947fdaf47fcc5f07e8197003f19eb8d76636c6dcc8496d04ac02be45191e2c38edcf968891610417575083163314610f6b565b1680916001600160601b0360a01b1617600555604051908152a180f35b6102829150863d81116102885761027a8183610e4b565b6040513d87823e3d90fd5b503461011a578060031936011261011a576006546040516001600160a01b039091168152602090f35b503461011a57602036600319011261011a5760209061ffff906040906001600160a01b0361048e610dfe565b168152808452205460301c16604051908152f35b503461011a57604036600319011261011a576104bc610dfe565b6001600160a01b03906024358281169081900361029a578260206004946005541660405195868092638da5cb5b60e01b82525afa92831561042e5761052f6040947f378fb028c46f6391ce419c234a7a7fa7b00a2b00d71c09b3f6364c1ae8b94fcb968891610261575083163314610f6b565b1690806001600160601b0360a01b83816006541617600655600754161760075582519182526020820152a180f35b503461011a57602036600319011261011a5760209061ffff906040906001600160a01b03610589610dfe565b168152808452205416604051908152f35b503461011a578060031936011261011a576007546040516001600160a01b039091168152602090f35b503461011a576105d236610ede565b600554604051638da5cb5b60e01b81526020969592946001600160a01b03939290919088908290600490829088165afa9081156107b3579061061f9188916107d2575b5084163314610f6b565b828216928387526001885261063a8160408920541615610fed565b6040516106e08082019082821067ffffffffffffffff8311176107be579082916110e08339039088f080156107b357926106dc6106ea89979695946106bf8980878f829a99839a169d8e92600654169160405190810192631b2ce7f360e11b84526024820152602481526106ad81610e19565b51925af16106b961104a565b5061107a565b6040519283918d83019563c0d91eaf60e01b8752602484016110bd565b03601f198101835282610e4b565b519082875af16106f861104a565b501561076e5784956003917ff058a09283ff05b2bbff30a9200131c55c5fd3df0244665a55cd2b722829ad2d96526001815260408720846001600160601b0360a01b8254161790556002815260408720600160ff19825416179055526040852055610768604051928392836110bd565b0390a180f35b60405162461bcd60e51b815260048101879052601c60248201527f46554e4420496e7469617469616c697a6174696f6e204661696c6564000000006044820152606490fd5b6040513d89823e3d90fd5b634e487b7160e01b8a52604160045260248afd5b6107e99150893d8b116102885761027a8183610e4b565b38610615565b503461011a576107fe36610ede565b600554604051638da5cb5b60e01b81526020969592946001600160a01b03939290919088908290600490829088165afa9081156107b3579061084a9188916107d2575084163314610f6b565b82821692838752600188526108658160408920541615610fed565b6040516106e08082019082821067ffffffffffffffff8311176107be579082916117c08339039088f080156107b357926106dc6108d889979695946106bf8980878f829a99839a169d8e92600754169160405190810192631b2ce7f360e11b84526024820152602481526106ad81610e19565b519082875af16108e661104a565b50156109565784956003917f0a4e058737bf013af3cbd5f6982e93d4e6a49503eb8f7fde5aeba2f26190472c96526001815260408720846001600160601b0360a01b8254161790556002815260408720600260ff19825416179055526040852055610768604051928392836110bd565b60405162461bcd60e51b815260048101879052602c60248201527f45717569747920436f6e66696775726174696f6e20496e7469617469616c697a60448201526b185d1a5bdb8811985a5b195960a21b6064820152608490fd5b503461011a5760c036600319011261011a576109ca610dfe565b60243561ffff808216820361029a57604435928184168403610c3757606435908282168203610c3357608435928084168403610c2f5760a43567ffffffffffffffff8111610c2b57610a20903690600401610ec0565b600554604051638da5cb5b60e01b815291939190602090829060049082906001600160a01b03165afa8015610c2057610a6b918a91610c01575b506001600160a01b03163314610f6b565b6001600160a01b03168088526004602052604088205490949060ff16610bbc576107d08083881611908115610baf575b8115610ba2575b8115610b96575b50610b845784885260208881526040808a20805467ffffffffffff000019998616998a1667ffffffffffffffff199091161760108b901b63ffff0000161787841b65ffff000000001617603085901b67ffff0000000000001617905560048252808a20805460ff1916600117905580519687529086019690965295811694840194909452908316606083015292909116608082015260e060a082018190527f99b8ad6787cb27453aff1c6547de392e16f3c49b5f840b22291a227fa6ac6a67928291610b789190830190610fad565b4260c08301520390a180f35b604051631e1556e360e31b8152600490fd5b90508282161138610aa9565b8091508386161190610aa2565b8091508389161190610a9b565b60405162461bcd60e51b815260206004820152601d60248201527f41646d696e20466565205265736574204e6f7420416c6c6f77656421210000006044820152606490fd5b610c1a915060203d6020116102885761027a8183610e4b565b38610a5a565b6040513d8b823e3d90fd5b8780fd5b8680fd5b8580fd5b8480fd5b503461011a57602036600319011261011a5760209061ffff906040906001600160a01b03610c67610dfe565b1681528084522054821c16604051908152f35b503461011a57602036600319011261011a57610c94610dfe565b603b549060ff8260081c161591828093610db3575b8015610d9c575b15610d405760ff198116600117603b5582610d2e575b506001600160601b0360a01b9060018060a01b031681600554161760055533906008541617600855610cf55780f35b61ff0019603b5416603b557f7f26b83ff96e1f2b6a682f133852f6798a09c465da95921460cefb3847402498602060405160018152a180f35b61ffff191661010117603b5538610cc6565b60405162461bcd60e51b815260206004820152602e60248201527f496e697469616c697a61626c653a20636f6e747261637420697320616c72656160448201526d191e481a5b9a5d1a585b1a5e995960921b6064820152608490fd5b50303b158015610cb05750600160ff821614610cb0565b50600160ff821610610ca9565b905034610dfa576020366003190112610dfa5760209160ff906040906001600160a01b03610dec610dfe565b168152600285522054168152f35b5080fd5b600435906001600160a01b0382168203610e1457565b600080fd5b6060810190811067ffffffffffffffff821117610e3557604052565b634e487b7160e01b600052604160045260246000fd5b90601f8019910116810190811067ffffffffffffffff821117610e3557604052565b67ffffffffffffffff8111610e3557601f01601f191660200190565b929192610e9582610e6d565b91610ea36040519384610e4b565b829481845281830111610e14578281602093846000960137010152565b9080601f83011215610e1457816020610edb93359101610e89565b90565b906080600319830112610e14576004356001600160a01b0381168103610e14579167ffffffffffffffff91602435838111610e145782602382011215610e145782816024610f3193600401359101610e89565b9260443592606435918211610e1457610edb91600401610ec0565b90816020910312610e1457516001600160a01b0381168103610e145790565b15610f7257565b60405162461bcd60e51b815260206004820152601360248201527213db9b1e4813dddb995c8818d85b8818d85b1b606a1b6044820152606490fd5b919082519283825260005b848110610fd9575050826000602080949584010152601f8019910116010190565b602081830181015184830182015201610fb8565b15610ff457565b60405162461bcd60e51b815260206004820152602860248201527f546f6b656e20616c7265616479206c696e6b656420746f20612046756e64206f604482015267722045717569747960c01b6064820152608490fd5b3d15611075573d9061105b82610e6d565b916110696040519384610e4b565b82523d6000602084013e565b606090565b1561108157565b60405162461bcd60e51b8152602060048201526014602482015273141c9bde1e48155c19dc9859194811985a5b195960621b6044820152606490fd5b6001600160a01b039091168152604060208201819052610edb92910190610fad56fe6080806040523461003957337f85bd7031deaf76b80f9733e7da132fe310adf86a8e73260691b76988b4b7e35d556106a1908161003f8239f35b600080fdfe6080604052600436101561002c575b361561001f575b61001d6105bf565b005b6100276105bf565b610015565b6000803560e01c908163025313a2146100bb575080633659cfe6146100b25780634f1ef286146100a95780635c60da1b146100a0578063612f2f37146100975780636c376cc51461008e5763f1739cae0361000e5761008961030f565b61000e565b506100896102cf565b5061008961026b565b5061008961023d565b506100896101c0565b50610089610107565b346100ee57806003193601126100ee5760008051602061064c833981519152546001600160a01b03166080908152602090f35b80fd5b6001600160a01b0381160361010257565b600080fd5b50346101025760203660031901126101025761001d600435610128816100f1565b61014a60018060a01b0360008051602061064c83398151915254163314610395565b610554565b50634e487b7160e01b600052604160045260246000fd5b90601f8019910116810190811067ffffffffffffffff82111761018857604052565b61019061014f565b604052565b60209067ffffffffffffffff81116101b3575b601f01601f19160190565b6101bb61014f565b6101a8565b506040366003190112610102576004356101d9816100f1565b6024359067ffffffffffffffff821161010257366023830112156101025781600401359061020682610195565b916102146040519384610166565b808352366024828601011161010257602081600092602461001d97018387013784010152610443565b50346101025760003660031901126101025760206102596104ae565b6040516001600160a01b039091168152f35b5034610102576020366003190112610102576004358015158103610102576102ab60018060a01b0360008051602061064c83398151915254163314610395565b7fce60c5db904241f4fe710c6b7d7c2e6f59bb4f2afc9ad1549ac9b29eb7f522b655005b50346101025760003660031901126101025760207fce60c5db904241f4fe710c6b7d7c2e6f59bb4f2afc9ad1549ac9b29eb7f522b6546040519015158152f35b50346101025760203660031901126101025760043561032d816100f1565b60008051602061064c83398151915280547f5a3e66efaa1e445ebd894728a69d6959842ea1e97bd79b892797106e270efcd9906040906001600160a01b039081169061037a338314610395565b85166103878115156103ed565b82519182526020820152a155005b1561039c57565b60405162461bcd60e51b815260206004820152602360248201527f4f776e6564557067726164656162696c69747950726f78793a20464f524249446044820152622222a760e91b6064820152608490fd5b156103f457565b60405162461bcd60e51b815260206004820152602160248201527f4f776e6564557067726164656162696c69747950726f78793a20494e56414c496044820152601160fa1b6064820152608490fd5b60006104a792610470829361014a60018060a01b0360008051602061064c83398151915254163314610395565b60208151910134305af13d156104a9573d61048a81610195565b906104986040519283610166565b8152600060203d92013e6103ed565b565b6103ed565b7fe64bc1454d00fa92a6df0fa38118ada362b2fe0056be7c885f77a79cabe48ba4546001600160a01b03166000811561054f575060206004916040519283809263557887a160e11b82525afa9081156105435760009161050c575090565b906020823d821161053b575b8161052560209383610166565b810103126100ee575051610538816100f1565b90565b3d9150610518565b6040513d6000823e3d90fd5b905090565b61055c6104ae565b6001600160a01b03808316929161057691168314156103ed565b7fe64bc1454d00fa92a6df0fa38118ada362b2fe0056be7c885f77a79cabe48ba4557fbc7cd75a20ee27fd9adebab32041f755214dbc6bffa90cc0225b39da2e5c2d3b600080a2565b507fce60c5db904241f4fe710c6b7d7c2e6f59bb4f2afc9ad1549ac9b29eb7f522b654610624575b6105ef6104ae565b6106036001600160a01b03821615156103ed565b60008060405192368285378336915af4903d91826000833e1561062257f35bfd5b61064660018060a01b0360008051602061064c83398151915254163314610395565b6105e756fe85bd7031deaf76b80f9733e7da132fe310adf86a8e73260691b76988b4b7e35da2646970667358221220291a185e79edea8bb1d8a100cf4bc679d6c980199bc0b9dd3ad0beea2d34b53564736f6c634300081100336080806040523461003957337f85bd7031deaf76b80f9733e7da132fe310adf86a8e73260691b76988b4b7e35d556106a1908161003f8239f35b600080fdfe6080604052600436101561002c575b361561001f575b61001d6105bf565b005b6100276105bf565b610015565b6000803560e01c908163025313a2146100bb575080633659cfe6146100b25780634f1ef286146100a95780635c60da1b146100a0578063612f2f37146100975780636c376cc51461008e5763f1739cae0361000e5761008961030f565b61000e565b506100896102cf565b5061008961026b565b5061008961023d565b506100896101c0565b50610089610107565b346100ee57806003193601126100ee5760008051602061064c833981519152546001600160a01b03166080908152602090f35b80fd5b6001600160a01b0381160361010257565b600080fd5b50346101025760203660031901126101025761001d600435610128816100f1565b61014a60018060a01b0360008051602061064c83398151915254163314610395565b610554565b50634e487b7160e01b600052604160045260246000fd5b90601f8019910116810190811067ffffffffffffffff82111761018857604052565b61019061014f565b604052565b60209067ffffffffffffffff81116101b3575b601f01601f19160190565b6101bb61014f565b6101a8565b506040366003190112610102576004356101d9816100f1565b6024359067ffffffffffffffff821161010257366023830112156101025781600401359061020682610195565b916102146040519384610166565b808352366024828601011161010257602081600092602461001d97018387013784010152610443565b50346101025760003660031901126101025760206102596104ae565b6040516001600160a01b039091168152f35b5034610102576020366003190112610102576004358015158103610102576102ab60018060a01b0360008051602061064c83398151915254163314610395565b7fce60c5db904241f4fe710c6b7d7c2e6f59bb4f2afc9ad1549ac9b29eb7f522b655005b50346101025760003660031901126101025760207fce60c5db904241f4fe710c6b7d7c2e6f59bb4f2afc9ad1549ac9b29eb7f522b6546040519015158152f35b50346101025760203660031901126101025760043561032d816100f1565b60008051602061064c83398151915280547f5a3e66efaa1e445ebd894728a69d6959842ea1e97bd79b892797106e270efcd9906040906001600160a01b039081169061037a338314610395565b85166103878115156103ed565b82519182526020820152a155005b1561039c57565b60405162461bcd60e51b815260206004820152602360248201527f4f776e6564557067726164656162696c69747950726f78793a20464f524249446044820152622222a760e91b6064820152608490fd5b156103f457565b60405162461bcd60e51b815260206004820152602160248201527f4f776e6564557067726164656162696c69747950726f78793a20494e56414c496044820152601160fa1b6064820152608490fd5b60006104a792610470829361014a60018060a01b0360008051602061064c83398151915254163314610395565b60208151910134305af13d156104a9573d61048a81610195565b906104986040519283610166565b8152600060203d92013e6103ed565b565b6103ed565b7fe64bc1454d00fa92a6df0fa38118ada362b2fe0056be7c885f77a79cabe48ba4546001600160a01b03166000811561054f575060206004916040519283809263557887a160e11b82525afa9081156105435760009161050c575090565b906020823d821161053b575b8161052560209383610166565b810103126100ee575051610538816100f1565b90565b3d9150610518565b6040513d6000823e3d90fd5b905090565b61055c6104ae565b6001600160a01b03808316929161057691168314156103ed565b7fe64bc1454d00fa92a6df0fa38118ada362b2fe0056be7c885f77a79cabe48ba4557fbc7cd75a20ee27fd9adebab32041f755214dbc6bffa90cc0225b39da2e5c2d3b600080a2565b507fce60c5db904241f4fe710c6b7d7c2e6f59bb4f2afc9ad1549ac9b29eb7f522b654610624575b6105ef6104ae565b6106036001600160a01b03821615156103ed565b60008060405192368285378336915af4903d91826000833e1561062257f35bfd5b61064660018060a01b0360008051602061064c83398151915254163314610395565b6105e756fe85bd7031deaf76b80f9733e7da132fe310adf86a8e73260691b76988b4b7e35da2646970667358221220291a185e79edea8bb1d8a100cf4bc679d6c980199bc0b9dd3ad0beea2d34b53564736f6c63430008110033a2646970667358221220b8984e4b3c0c2e725a720cf0e805362d2d3cf756b9d375094e2fccff6deecb7a64736f6c63430008110033","linkReferences":{}},"methodIdentifiers":{"createEquityConfig(address,bytes,uint256,string)":"34376167","createFund(address,bytes,uint256,string)":"42be9116","getAdminWallet()":"ffd5bcf6","getAssetType(address)":"032c49ed","getDividendFee(address)":"28a9a9e4","getEscrowFee(address)":"64fa3070","getFund(address)":"b42c1d40","getMasterFactory()":"a77876c0","getRedemptionFee(address)":"76afc531","getTokenTotalSupply(address)":"b37bdb05","getWrapFee(address)":"a328c3de","implEquityConfig()":"57371279","implFund()":"79674b7a","init(address)":"19ab453c","masterFactory()":"577fbe7f","setAdminWallet(address,string)":"d31ea653","setFee(address,uint16,uint16,uint16,uint16,string)":"2d1b38e9","setImpl(address,address)":"7354e257","setMasterFactory(address)":"8df20731"},"id":27}