{"abi":[{"type":"constructor","inputs":[],"stateMutability":"nonpayable"},{"type":"function","name":"bindCompliance","inputs":[{"name":"_compliance","type":"address","internalType":"address"}],"outputs":[],"stateMutability":"nonpayable"},{"type":"function","name":"canComplianceBind","inputs":[{"name":"_compliance","type":"address","internalType":"address"}],"outputs":[{"name":"","type":"bool","internalType":"bool"}],"stateMutability":"view"},{"type":"function","name":"getIDBalance","inputs":[{"name":"_compliance","type":"address","internalType":"address"},{"name":"_identity","type":"address","internalType":"address"}],"outputs":[{"name":"","type":"uint256","internalType":"uint256"}],"stateMutability":"view"},{"type":"function","name":"initialize","inputs":[],"outputs":[],"stateMutability":"nonpayable"},{"type":"function","name":"isComplianceBound","inputs":[{"name":"_compliance","type":"address","internalType":"address"}],"outputs":[{"name":"","type":"bool","internalType":"bool"}],"stateMutability":"view"},{"type":"function","name":"isPlugAndPlay","inputs":[],"outputs":[{"name":"","type":"bool","internalType":"bool"}],"stateMutability":"pure"},{"type":"function","name":"moduleBurnAction","inputs":[{"name":"_from","type":"address","internalType":"address"},{"name":"_value","type":"uint256","internalType":"uint256"}],"outputs":[],"stateMutability":"nonpayable"},{"type":"function","name":"moduleCheck","inputs":[{"name":"","type":"address","internalType":"address"},{"name":"_to","type":"address","internalType":"address"},{"name":"_value","type":"uint256","internalType":"uint256"},{"name":"_compliance","type":"address","internalType":"address"}],"outputs":[{"name":"","type":"bool","internalType":"bool"}],"stateMutability":"view"},{"type":"function","name":"moduleMintAction","inputs":[{"name":"_to","type":"address","internalType":"address"},{"name":"_value","type":"uint256","internalType":"uint256"}],"outputs":[],"stateMutability":"nonpayable"},{"type":"function","name":"moduleTransferAction","inputs":[{"name":"_from","type":"address","internalType":"address"},{"name":"_to","type":"address","internalType":"address"},{"name":"_value","type":"uint256","internalType":"uint256"}],"outputs":[],"stateMutability":"nonpayable"},{"type":"function","name":"name","inputs":[],"outputs":[{"name":"_name","type":"string","internalType":"string"}],"stateMutability":"pure"},{"type":"function","name":"owner","inputs":[],"outputs":[{"name":"","type":"address","internalType":"address"}],"stateMutability":"view"},{"type":"function","name":"preSetModuleState","inputs":[{"name":"_compliance","type":"address","internalType":"address"},{"name":"_id","type":"address","internalType":"address"},{"name":"_balance","type":"uint256","internalType":"uint256"}],"outputs":[],"stateMutability":"nonpayable"},{"type":"function","name":"presetCompleted","inputs":[{"name":"_compliance","type":"address","internalType":"address"}],"outputs":[],"stateMutability":"nonpayable"},{"type":"function","name":"proxiableUUID","inputs":[],"outputs":[{"name":"","type":"bytes32","internalType":"bytes32"}],"stateMutability":"view"},{"type":"function","name":"renounceOwnership","inputs":[],"outputs":[],"stateMutability":"nonpayable"},{"type":"function","name":"setMaxBalance","inputs":[{"name":"_max","type":"uint256","internalType":"uint256"}],"outputs":[],"stateMutability":"nonpayable"},{"type":"function","name":"transferOwnership","inputs":[{"name":"newOwner","type":"address","internalType":"address"}],"outputs":[],"stateMutability":"nonpayable"},{"type":"function","name":"unbindCompliance","inputs":[{"name":"_compliance","type":"address","internalType":"address"}],"outputs":[],"stateMutability":"nonpayable"},{"type":"function","name":"upgradeTo","inputs":[{"name":"newImplementation","type":"address","internalType":"address"}],"outputs":[],"stateMutability":"nonpayable"},{"type":"function","name":"upgradeToAndCall","inputs":[{"name":"newImplementation","type":"address","internalType":"address"},{"name":"data","type":"bytes","internalType":"bytes"}],"outputs":[],"stateMutability":"payable"},{"type":"event","name":"AdminChanged","inputs":[{"name":"previousAdmin","type":"address","indexed":false,"internalType":"address"},{"name":"newAdmin","type":"address","indexed":false,"internalType":"address"}],"anonymous":false},{"type":"event","name":"BeaconUpgraded","inputs":[{"name":"beacon","type":"address","indexed":true,"internalType":"address"}],"anonymous":false},{"type":"event","name":"ComplianceBound","inputs":[{"name":"_compliance","type":"address","indexed":true,"internalType":"address"}],"anonymous":false},{"type":"event","name":"ComplianceUnbound","inputs":[{"name":"_compliance","type":"address","indexed":true,"internalType":"address"}],"anonymous":false},{"type":"event","name":"IDBalancePreSet","inputs":[{"name":"_compliance","type":"address","indexed":true,"internalType":"address"},{"name":"_id","type":"address","indexed":true,"internalType":"address"},{"name":"_balance","type":"uint256","indexed":false,"internalType":"uint256"}],"anonymous":false},{"type":"event","name":"Initialized","inputs":[{"name":"version","type":"uint8","indexed":false,"internalType":"uint8"}],"anonymous":false},{"type":"event","name":"MaxBalanceSet","inputs":[{"name":"_compliance","type":"address","indexed":true,"internalType":"address"},{"name":"_maxBalance","type":"uint256","indexed":true,"internalType":"uint256"}],"anonymous":false},{"type":"event","name":"OwnershipTransferred","inputs":[{"name":"previousOwner","type":"address","indexed":true,"internalType":"address"},{"name":"newOwner","type":"address","indexed":true,"internalType":"address"}],"anonymous":false},{"type":"event","name":"PresetCompleted","inputs":[{"name":"_compliance","type":"address","indexed":false,"internalType":"address"}],"anonymous":false},{"type":"event","name":"Upgraded","inputs":[{"name":"implementation","type":"address","indexed":true,"internalType":"address"}],"anonymous":false},{"type":"error","name":"InvalidPresetValues","inputs":[{"name":"_compliance","type":"address","internalType":"address"},{"name":"_id","type":"address[]","internalType":"address[]"},{"name":"_balance","type":"uint256[]","internalType":"uint256[]"}]},{"type":"error","name":"MaxBalanceExceeded","inputs":[{"name":"_compliance","type":"address","internalType":"address"},{"name":"_value","type":"uint256","internalType":"uint256"}]},{"type":"error","name":"OnlyComplianceOwnerCanCall","inputs":[{"name":"_compliance","type":"address","internalType":"address"}]},{"type":"error","name":"TokenAlreadyBound","inputs":[{"name":"_compliance","type":"address","internalType":"address"}]}],"bytecode":{"object":"0x60a080604052346100dc57306080526000549060ff8260081c1661008a575060ff8082161061004f575b604051611b2990816100e28239608051818181610780015281816108a60152610d4e0152f35b60ff90811916176000557f7f26b83ff96e1f2b6a682f133852f6798a09c465da95921460cefb3847402498602060405160ff8152a138610029565b62461bcd60e51b815260206004820152602760248201527f496e697469616c697a61626c653a20636f6e747261637420697320696e697469604482015266616c697a696e6760c81b6064820152608490fd5b600080fdfe60406080815260048036101561001457600080fd5b600091823560e01c8063013b7ce41461128c5780630694a5fb146111f357806306fdde03146111805780632cb7e1ec14610ffe5780633659cfe614610d27578063372491a214610cb95780634a93254414610bdf5780634cf4d29514610b945780634f1ef2861461082d57806352d1902d1461076b578063715018a61461070b5780638129fc1c146105bc5780638da5cb5b146105935780639d51d9b714610526578063bcc21053146104f7578063cc203f75146104ae578063dd50b74c146103d7578063e6f5e807146103b8578063f104a8c9146102ef578063f2fde38b1461025d5763f7c4722c1461010757600080fd5b34610259576101153661134f565b8351638da5cb5b60e01b815291946001600160a01b0393841694602094929390929190858183818a5afa90811561020b57899161022c575b50823391160361021557825163a446d49f60e01b8152308282015285816024818a5afa90811561020b5789916101de575b506101c7575084875260cb84528187209516808752948352808620829055519081527f0a777417e1c0a4b24c5f556b0c3dd522c37b99b2c3ca4bf9fea2fa1293c660c99190a380f35b825163346a0c0160e21b8152908101869052602490fd5b6101fe9150863d8811610204575b6101f681836113b6565b810190611561565b3861017e565b503d6101ec565b84513d8b823e3d90fd5b825163e8649dab60e01b8152908101869052602490fd5b61024c9150863d8811610252575b61024481836113b6565b810190611542565b3861014d565b503d61023a565b8280fd5b509034610259576020366003190112610259576102786112d5565b91610281611888565b6001600160a01b0383161561029d578361029a846118e0565b80f35b906020608492519162461bcd60e51b8352820152602660248201527f4f776e61626c653a206e6577206f776e657220697320746865207a65726f206160448201526564647265737360d01b6064820152fd5b5090346102595781600319360112610259576103096112d5565b916024359233855261033d602091600080516020611ad4833981519152835261033760ff8589205416611496565b33611703565b33865260cb82528286206001600160a01b039091168087529082528286208054610368908790611579565b905533865260cb8252828620908652815260ca8286205491338752528185205410610391578380f35b51630d9ada5960e21b815233918101918252602082019290925281906040010390fd5b0390fd5b8382346103d357816003193601126103d35751908152602090f35b5080fd5b50903461025957602091826003193601126104aa576001600160a01b0391826103fe6112d5565b8351638da5cb5b60e01b815291169385828481885afa9182156104a0578792610481575b503391160361046c575081845260c98352808420805460ff19166001179055519081527f40bfb91138c8514efd65a280ed9f436317a8e93584e42ef52b3b863e68bd500f9190a180f35b82602492519163e8649dab60e01b8352820152fd5b610499919250863d88116102525761024481836113b6565b9038610422565b84513d89823e3d90fd5b8380fd5b8382346103d357806003193601126103d357806020926104cc6112d5565b6104d46112f0565b6001600160a01b03918216835260cb865283832091168252845220549051908152f35b8382346103d35760203660031901126103d35760209061051d6105186112d5565b611619565b90519015158152f35b50903461025957602036600319011261025957358091338452600080516020611ad483398151915260205261056060ff8286205416611496565b33845260ca602052832055337f8bec153ee727d17f3f63aa27cbb6bd64eb978b88821b30002a4b5517aeb10cec8380a380f35b8382346103d357816003193601126103d35760335490516001600160a01b039091168152602090f35b509034610259578260031936011261025957825460ff8160081c1615918280936106fe575b80156106e7575b1561068d575060ff19811660011784558161067c575b5061062160ff845460081c16610613816114e2565b61061c816114e2565b6114e2565b61062a336118e0565b82549061063c60ff8360081c166114e2565b610644578280f35b61ff001916825551600181527f7f26b83ff96e1f2b6a682f133852f6798a09c465da95921460cefb384740249890602090a138808280f35b61ffff1916610101178355386105fe565b608490602085519162461bcd60e51b8352820152602e60248201527f496e697469616c697a61626c653a20636f6e747261637420697320616c72656160448201526d191e481a5b9a5d1a585b1a5e995960921b6064820152fd5b50303b1580156105e85750600160ff8316146105e8565b50600160ff8316106105e1565b8334610768578060031936011261076857610724611888565b603380546001600160a01b0319811690915581906001600160a01b03167f8be0079c531659141344cd1fd0a4f28419497f9722a3daafe3b4186f6b6457e08280a380f35b80fd5b509134610768578060031936011261076857507f00000000000000000000000000000000000000000000000000000000000000006001600160a01b031630036107c55760208251600080516020611ab48339815191528152f35b6020608492519162461bcd60e51b8352820152603860248201527f555550535570677261646561626c653a206d757374206e6f742062652063616c60448201527f6c6564207468726f7567682064656c656761746563616c6c00000000000000006064820152fd5b5080600319360112610259576108416112d5565b9160249182359067ffffffffffffffff8211610b905736602383011215610b90578183013561086f816113d8565b61087b835191826113b6565b8181528760209485830193368982840101116102595780898893018637830101526001600160a01b037f00000000000000000000000000000000000000000000000000000000000000008116906108d430831415611929565b6108f1600080516020611ab483398151915292828454161461198a565b6108f9611888565b7f4910fdfa16fed3260ed0e7147f7cc6da11a60208b5b9406d12a635614ffd91435460ff161561093457505050505050505061029a906119eb565b88959799949698169086516352d1902d60e01b815288818b81865afa869181610b5d575b506109b657875162461bcd60e51b8152808b018a9052602e818d01527f45524331393637557067726164653a206e657720696d706c656d656e7461746960448201526d6f6e206973206e6f74205555505360901b6064820152608490fd5b999294989193959903610b0b576109cc896119eb565b8551927fbc7cd75a20ee27fd9adebab32041f755214dbc6bffa90cc0225b39da2e5c2d3b8980a2835115801590610b03575b610a0f575b50505050505050905080f35b883b15610ab5575050509380958192610a949651915af43d15610aa257660819985a5b195960ca1b3d92610a42846113d8565b93610a4f825195866113b6565b84523d878686013e5b7f416464726573733a206c6f772d6c6576656c2064656c65676174652063616c6c815195610a8587611384565b60278752860152840152611a7b565b508038808080808080610a03565b660819985a5b195960ca1b606092610a58565b62461bcd60e51b835282018690526026908201527f416464726573733a2064656c65676174652063616c6c20746f206e6f6e2d636f6044820152651b9d1c9858dd60d21b6064820152608490fd5b5060016109fe565b60296084928888519362461bcd60e51b85528401528201527f45524331393637557067726164653a20756e737570706f727465642070726f786044820152681a58589b195555525160ba1b6064820152fd5b9091508981813d8311610b89575b610b7581836113b6565b81010312610b8557519038610958565b8680fd5b503d610b6b565b8580fd5b8382346103d35760203660031901126103d35760209160ff9082906001600160a01b03610bbf6112d5565b168152600080516020611ad4833981519152855220541690519015158152f35b5034610259576020366003190112610259576001600160a01b03610c016112d5565b1691610c0e8315156113f4565b828452600080516020611ad4833981519152908160205260ff8386205416610c765750610c3c833314611440565b8284526020528220805460ff191660011790557f1f7b76c58fb697eb53c6c7c1becb96911516a136e24d7ced386b2355358b75a38280a280f35b606490602084519162461bcd60e51b8352820152601860248201527f636f6d706c69616e636520616c726561647920626f756e6400000000000000006044820152fd5b8382346103d357806003193601126103d357610cfa610cd66112d5565b338452600080516020611ad483398151915260205261033760ff8486205416611496565b33835260cb6020528183209060018060a01b031683526020528120610d22602435825461159c565b905580f35b509034610259576020806003193601126104aa57610d436112d5565b926001600160a01b037f00000000000000000000000000000000000000000000000000000000000000008116610d7b30821415611929565b610d98600080516020611ab483398151915291838354161461198a565b610da0611888565b8251908482019282841067ffffffffffffffff851117610feb578385528883527f4910fdfa16fed3260ed0e7147f7cc6da11a60208b5b9406d12a635614ffd91435460ff1615610dfa575050505050505061029a906119eb565b879894959697169085516352d1902d60e01b815287818a81865afa869181610fbc575b50610e7c57865162461bcd60e51b8152808a01899052602e60248201527f45524331393637557067726164653a206e657720696d706c656d656e7461746960448201526d6f6e206973206e6f74205555505360901b6064820152608490fd5b97919293949703610f6757610e90886119eb565b8451917fbc7cd75a20ee27fd9adebab32041f755214dbc6bffa90cc0225b39da2e5c2d3b8880a2825115801590610f60575b610ed2575b505050505050905080f35b873b15610f115750509380958192610f049651915af43d15610aa257660819985a5b195960ca1b3d92610a42846113d8565b5080388080808080610ec7565b62461bcd60e51b82528101859052602660248201527f416464726573733a2064656c65676174652063616c6c20746f206e6f6e2d636f6044820152651b9d1c9858dd60d21b6064820152608490fd5b5086610ec2565b845162461bcd60e51b8152908101869052602960248201527f45524331393637557067726164653a20756e737570706f727465642070726f786044820152681a58589b195555525160ba1b6064820152608490fd5b9091508881813d8311610fe4575b610fd481836113b6565b81010312610b8557519038610e1d565b503d610fca565b634e487b7160e01b895260418752602489fd5b5090346102595761100e3661134f565b939190338652602091600080516020611ad4833981519152835261103760ff8589205416611496565b83516308f6b70760e41b81529183838781335afa928315611176578893611157575b508451633108b60760e11b81529184838881335afa92831561114d57899361112a575b506110879033611703565b926110928233611703565b90338a5260cb8652868a209460018060a01b0380931695868c528752878b206110bc8b8254611579565b9055338b5260cb875282888c2091168b528652868a206110dd8a825461159c565b90558361111a575b505050156110f1578580f35b33865260cb8252828620908652815260ca82862054913387525281852054106103915780808580f35b81929350169116143880806110e5565b61108791935061114690863d8811610204576101f681836113b6565b929061107c565b86513d8b823e3d90fd5b61116f919350843d86116102525761024481836113b6565b9138611059565b85513d8a823e3d90fd5b508290346103d357816003193601126103d3578051918183019083821067ffffffffffffffff8311176111e057506111dc93508152601082526f4d617842616c616e63654d6f64756c6560801b60208301525191829182611306565b0390f35b634e487b7160e01b815260418552602490fd5b8382346103d35760203660031901126103d35761120e6112d5565b90338352600080516020611ad4833981519152918260205261123560ff8386205416611496565b6001600160a01b03169161124a8315156113f4565b611255833314611440565b8284526020528220805460ff191690557f408b49d9be1c914c52a0227e18a077e5a892dddf32a26cfa94a5d9708fad77188280a280f35b8382346103d35760803660031901126103d3576112a76112d5565b506112b06112f0565b606435926001600160a01b0384168403610768575060209261051d91604435906115a9565b600435906001600160a01b03821682036112eb57565b600080fd5b602435906001600160a01b03821682036112eb57565b6020808252825181830181905290939260005b82811061133b57505060409293506000838284010152601f8019910116010190565b818101860151848201604001528501611319565b60609060031901126112eb576001600160a01b039060043582811681036112eb579160243590811681036112eb579060443590565b6060810190811067ffffffffffffffff8211176113a057604052565b634e487b7160e01b600052604160045260246000fd5b90601f8019910116810190811067ffffffffffffffff8211176113a057604052565b67ffffffffffffffff81116113a057601f01601f191660200190565b156113fb57565b60405162461bcd60e51b815260206004820152601f60248201527f696e76616c696420617267756d656e74202d207a65726f2061646472657373006044820152606490fd5b1561144757565b60405162461bcd60e51b815260206004820152602160248201527f6f6e6c7920636f6d706c69616e636520636f6e74726163742063616e2063616c6044820152601b60fa1b6064820152608490fd5b1561149d57565b60405162461bcd60e51b815260206004820152601e60248201527f6f6e6c7920626f756e6420636f6d706c69616e63652063616e2063616c6c00006044820152606490fd5b156114e957565b60405162461bcd60e51b815260206004820152602b60248201527f496e697469616c697a61626c653a20636f6e7472616374206973206e6f74206960448201526a6e697469616c697a696e6760a81b6064820152608490fd5b908160209103126112eb57516001600160a01b03811681036112eb5790565b908160209103126112eb575180151581036112eb5790565b9190820180921161158657565b634e487b7160e01b600052601160045260246000fd5b9190820391821161158657565b60018060a01b03918284169260009484865260ca60205260408620548311611611576115f6936115d891611703565b9084865260cb60205260408620911685526020526040842054611579565b90825260ca60205260408220541061160e5750600190565b90565b505050505090565b60018060a01b0380911660009181835260209160c9835260ff6040852054166116fa578260049160405192838092630d47dbe560e31b82525afa9081156116ef5790839185916116d2575b506004604051809481936318160ddd60e01b8352165afa9182156116c7578392611699575b5050156116935790565b50600190565b90809250813d83116116c0575b6116b081836113b6565b810103126103d357513880611689565b503d6116a6565b6040513d85823e3d90fd5b6116e99150823d84116102525761024481836113b6565b38611664565b6040513d86823e3d90fd5b50505050600190565b60408051630d47dbe560e31b815290926020926001600160a01b03929084908290600490829087165afa90811561186057839291859160009161186b575b5060048751809581936304d3863d60e21b8352165afa9182156118605784918491600094611820575b508651633c3ad79560e21b815290821660048201529283916024918391165afa908115611815576000916117df575b50169182156117a757505090565b60649250519062461bcd60e51b8252600482015260126024820152711a59195b9d1a5d1e481b9bdd08199bdd5b9960721b6044820152fd5b8381813d831161180e575b6117f481836113b6565b810103126103d35751908282168203610768575038611799565b503d6117ea565b84513d6000823e3d90fd5b809250839194933d8311611859575b61183981836113b6565b810103126103d3575190838216820361076857508260248592939061176a565b503d61182f565b85513d6000823e3d90fd5b6118829150823d84116102525761024481836113b6565b38611741565b6033546001600160a01b0316330361189c57565b606460405162461bcd60e51b815260206004820152602060248201527f4f776e61626c653a2063616c6c6572206973206e6f7420746865206f776e65726044820152fd5b603380546001600160a01b039283166001600160a01b0319821681179092559091167f8be0079c531659141344cd1fd0a4f28419497f9722a3daafe3b4186f6b6457e0600080a3565b1561193057565b60405162461bcd60e51b815260206004820152602c60248201527f46756e6374696f6e206d7573742062652063616c6c6564207468726f7567682060448201526b19195b1959d85d1958d85b1b60a21b6064820152608490fd5b1561199157565b60405162461bcd60e51b815260206004820152602c60248201527f46756e6374696f6e206d7573742062652063616c6c6564207468726f7567682060448201526b6163746976652070726f787960a01b6064820152608490fd5b803b15611a2057600080516020611ab483398151915280546001600160a01b0319166001600160a01b03909216919091179055565b60405162461bcd60e51b815260206004820152602d60248201527f455243313936373a206e657720696d706c656d656e746174696f6e206973206e60448201526c1bdd08184818dbdb9d1c9858dd609a1b6064820152608490fd5b90919015611a87575090565b815115611a975750805190602001fd5b60405162461bcd60e51b81529081906103b4906004830161130656fe360894a13ba1a3210667c828492db98dca3e2076cc3735a920a3ca505d382bbcf6cc97de1266c180cd39f3b311632644143ce7873d2927755382ad4b39e8ae00a2646970667358221220c2485e3153727ade5c1175f48fbd910963439480fb2eb0172f8b9fb9231c2ee164736f6c63430008110033","linkReferences":{}},"methodIdentifiers":{"bindCompliance(address)":"4a932544","canComplianceBind(address)":"bcc21053","getIDBalance(address,address)":"cc203f75","initialize()":"8129fc1c","isComplianceBound(address)":"4cf4d295","isPlugAndPlay()":"e6f5e807","moduleBurnAction(address,uint256)":"372491a2","moduleCheck(address,address,uint256,address)":"013b7ce4","moduleMintAction(address,uint256)":"f104a8c9","moduleTransferAction(address,address,uint256)":"2cb7e1ec","name()":"06fdde03","owner()":"8da5cb5b","preSetModuleState(address,address,uint256)":"f7c4722c","presetCompleted(address)":"dd50b74c","proxiableUUID()":"52d1902d","renounceOwnership()":"715018a6","setMaxBalance(uint256)":"9d51d9b7","transferOwnership(address)":"f2fde38b","unbindCompliance(address)":"0694a5fb","upgradeTo(address)":"3659cfe6","upgradeToAndCall(address,bytes)":"4f1ef286"},"id":18}